{
  "_format": "hh-sol-artifact-1",
  "contractName": "BlazeWalletSkins",
  "sourceName": "contracts/BlazeWalletSkins.sol",
  "abi": [
    {
      "inputs": [
        {
          "internalType": "address",
          "name": "_blazeToken",
          "type": "address"
        },
        {
          "internalType": "address",
          "name": "_treasuryWallet",
          "type": "address"
        }
      ],
      "stateMutability": "nonpayable",
      "type": "constructor"
    },
    {
      "inputs": [
        {
          "internalType": "address",
          "name": "sender",
          "type": "address"
        },
        {
          "internalType": "uint256",
          "name": "tokenId",
          "type": "uint256"
        },
        {
          "internalType": "address",
          "name": "owner",
          "type": "address"
        }
      ],
      "name": "ERC721IncorrectOwner",
      "type": "error"
    },
    {
      "inputs": [
        {
          "internalType": "address",
          "name": "operator",
          "type": "address"
        },
        {
          "internalType": "uint256",
          "name": "tokenId",
          "type": "uint256"
        }
      ],
      "name": "ERC721InsufficientApproval",
      "type": "error"
    },
    {
      "inputs": [
        {
          "internalType": "address",
          "name": "approver",
          "type": "address"
        }
      ],
      "name": "ERC721InvalidApprover",
      "type": "error"
    },
    {
      "inputs": [
        {
          "internalType": "address",
          "name": "operator",
          "type": "address"
        }
      ],
      "name": "ERC721InvalidOperator",
      "type": "error"
    },
    {
      "inputs": [
        {
          "internalType": "address",
          "name": "owner",
          "type": "address"
        }
      ],
      "name": "ERC721InvalidOwner",
      "type": "error"
    },
    {
      "inputs": [
        {
          "internalType": "address",
          "name": "receiver",
          "type": "address"
        }
      ],
      "name": "ERC721InvalidReceiver",
      "type": "error"
    },
    {
      "inputs": [
        {
          "internalType": "address",
          "name": "sender",
          "type": "address"
        }
      ],
      "name": "ERC721InvalidSender",
      "type": "error"
    },
    {
      "inputs": [
        {
          "internalType": "uint256",
          "name": "tokenId",
          "type": "uint256"
        }
      ],
      "name": "ERC721NonexistentToken",
      "type": "error"
    },
    {
      "inputs": [
        {
          "internalType": "address",
          "name": "owner",
          "type": "address"
        }
      ],
      "name": "OwnableInvalidOwner",
      "type": "error"
    },
    {
      "inputs": [
        {
          "internalType": "address",
          "name": "account",
          "type": "address"
        }
      ],
      "name": "OwnableUnauthorizedAccount",
      "type": "error"
    },
    {
      "inputs": [],
      "name": "ReentrancyGuardReentrantCall",
      "type": "error"
    },
    {
      "inputs": [
        {
          "internalType": "address",
          "name": "token",
          "type": "address"
        }
      ],
      "name": "SafeERC20FailedOperation",
      "type": "error"
    },
    {
      "anonymous": false,
      "inputs": [
        {
          "indexed": true,
          "internalType": "address",
          "name": "owner",
          "type": "address"
        },
        {
          "indexed": true,
          "internalType": "address",
          "name": "approved",
          "type": "address"
        },
        {
          "indexed": true,
          "internalType": "uint256",
          "name": "tokenId",
          "type": "uint256"
        }
      ],
      "name": "Approval",
      "type": "event"
    },
    {
      "anonymous": false,
      "inputs": [
        {
          "indexed": true,
          "internalType": "address",
          "name": "owner",
          "type": "address"
        },
        {
          "indexed": true,
          "internalType": "address",
          "name": "operator",
          "type": "address"
        },
        {
          "indexed": false,
          "internalType": "bool",
          "name": "approved",
          "type": "bool"
        }
      ],
      "name": "ApprovalForAll",
      "type": "event"
    },
    {
      "anonymous": false,
      "inputs": [
        {
          "indexed": false,
          "internalType": "uint256",
          "name": "_fromTokenId",
          "type": "uint256"
        },
        {
          "indexed": false,
          "internalType": "uint256",
          "name": "_toTokenId",
          "type": "uint256"
        }
      ],
      "name": "BatchMetadataUpdate",
      "type": "event"
    },
    {
      "anonymous": false,
      "inputs": [
        {
          "indexed": true,
          "internalType": "uint256",
          "name": "collectionId",
          "type": "uint256"
        },
        {
          "indexed": false,
          "internalType": "string",
          "name": "name",
          "type": "string"
        },
        {
          "indexed": false,
          "internalType": "enum BlazeWalletSkins.SkinRarity",
          "name": "rarity",
          "type": "uint8"
        },
        {
          "indexed": false,
          "internalType": "uint256",
          "name": "price",
          "type": "uint256"
        },
        {
          "indexed": false,
          "internalType": "uint256",
          "name": "maxSupply",
          "type": "uint256"
        }
      ],
      "name": "CollectionCreated",
      "type": "event"
    },
    {
      "anonymous": false,
      "inputs": [
        {
          "indexed": true,
          "internalType": "uint256",
          "name": "collectionId",
          "type": "uint256"
        },
        {
          "indexed": false,
          "internalType": "bool",
          "name": "isActive",
          "type": "bool"
        }
      ],
      "name": "CollectionUpdated",
      "type": "event"
    },
    {
      "anonymous": false,
      "inputs": [
        {
          "indexed": false,
          "internalType": "uint256",
          "name": "_tokenId",
          "type": "uint256"
        }
      ],
      "name": "MetadataUpdate",
      "type": "event"
    },
    {
      "anonymous": false,
      "inputs": [
        {
          "indexed": true,
          "internalType": "address",
          "name": "previousOwner",
          "type": "address"
        },
        {
          "indexed": true,
          "internalType": "address",
          "name": "newOwner",
          "type": "address"
        }
      ],
      "name": "OwnershipTransferred",
      "type": "event"
    },
    {
      "anonymous": false,
      "inputs": [
        {
          "indexed": true,
          "internalType": "uint256",
          "name": "tokenId",
          "type": "uint256"
        },
        {
          "indexed": true,
          "internalType": "uint256",
          "name": "collectionId",
          "type": "uint256"
        },
        {
          "indexed": true,
          "internalType": "address",
          "name": "owner",
          "type": "address"
        },
        {
          "indexed": false,
          "internalType": "uint256",
          "name": "serialNumber",
          "type": "uint256"
        },
        {
          "indexed": false,
          "internalType": "uint256",
          "name": "price",
          "type": "uint256"
        }
      ],
      "name": "SkinMinted",
      "type": "event"
    },
    {
      "anonymous": false,
      "inputs": [
        {
          "indexed": true,
          "internalType": "address",
          "name": "from",
          "type": "address"
        },
        {
          "indexed": true,
          "internalType": "address",
          "name": "to",
          "type": "address"
        },
        {
          "indexed": true,
          "internalType": "uint256",
          "name": "tokenId",
          "type": "uint256"
        }
      ],
      "name": "Transfer",
      "type": "event"
    },
    {
      "inputs": [],
      "name": "PREMIUM_DISCOUNT",
      "outputs": [
        {
          "internalType": "uint256",
          "name": "",
          "type": "uint256"
        }
      ],
      "stateMutability": "view",
      "type": "function"
    },
    {
      "inputs": [],
      "name": "PREMIUM_THRESHOLD",
      "outputs": [
        {
          "internalType": "uint256",
          "name": "",
          "type": "uint256"
        }
      ],
      "stateMutability": "view",
      "type": "function"
    },
    {
      "inputs": [
        {
          "internalType": "address",
          "name": "to",
          "type": "address"
        },
        {
          "internalType": "uint256",
          "name": "tokenId",
          "type": "uint256"
        }
      ],
      "name": "approve",
      "outputs": [],
      "stateMutability": "nonpayable",
      "type": "function"
    },
    {
      "inputs": [
        {
          "internalType": "address",
          "name": "owner",
          "type": "address"
        }
      ],
      "name": "balanceOf",
      "outputs": [
        {
          "internalType": "uint256",
          "name": "",
          "type": "uint256"
        }
      ],
      "stateMutability": "view",
      "type": "function"
    },
    {
      "inputs": [
        {
          "internalType": "uint256",
          "name": "_collectionId",
          "type": "uint256"
        },
        {
          "internalType": "address[]",
          "name": "_recipients",
          "type": "address[]"
        }
      ],
      "name": "batchMintSkin",
      "outputs": [],
      "stateMutability": "nonpayable",
      "type": "function"
    },
    {
      "inputs": [],
      "name": "blazeToken",
      "outputs": [
        {
          "internalType": "contract IERC20",
          "name": "",
          "type": "address"
        }
      ],
      "stateMutability": "view",
      "type": "function"
    },
    {
      "inputs": [],
      "name": "collectionCount",
      "outputs": [
        {
          "internalType": "uint256",
          "name": "",
          "type": "uint256"
        }
      ],
      "stateMutability": "view",
      "type": "function"
    },
    {
      "inputs": [
        {
          "internalType": "uint256",
          "name": "",
          "type": "uint256"
        }
      ],
      "name": "collections",
      "outputs": [
        {
          "internalType": "uint256",
          "name": "id",
          "type": "uint256"
        },
        {
          "internalType": "string",
          "name": "name",
          "type": "string"
        },
        {
          "internalType": "string",
          "name": "description",
          "type": "string"
        },
        {
          "internalType": "enum BlazeWalletSkins.SkinRarity",
          "name": "rarity",
          "type": "uint8"
        },
        {
          "internalType": "uint256",
          "name": "price",
          "type": "uint256"
        },
        {
          "internalType": "uint256",
          "name": "maxSupply",
          "type": "uint256"
        },
        {
          "internalType": "uint256",
          "name": "minted",
          "type": "uint256"
        },
        {
          "internalType": "bool",
          "name": "isActive",
          "type": "bool"
        },
        {
          "internalType": "string",
          "name": "baseURI",
          "type": "string"
        }
      ],
      "stateMutability": "view",
      "type": "function"
    },
    {
      "inputs": [
        {
          "internalType": "string",
          "name": "_name",
          "type": "string"
        },
        {
          "internalType": "string",
          "name": "_description",
          "type": "string"
        },
        {
          "internalType": "enum BlazeWalletSkins.SkinRarity",
          "name": "_rarity",
          "type": "uint8"
        },
        {
          "internalType": "uint256",
          "name": "_price",
          "type": "uint256"
        },
        {
          "internalType": "uint256",
          "name": "_maxSupply",
          "type": "uint256"
        },
        {
          "internalType": "string",
          "name": "_baseURI",
          "type": "string"
        }
      ],
      "name": "createCollection",
      "outputs": [
        {
          "internalType": "uint256",
          "name": "",
          "type": "uint256"
        }
      ],
      "stateMutability": "nonpayable",
      "type": "function"
    },
    {
      "inputs": [
        {
          "internalType": "uint256",
          "name": "tokenId",
          "type": "uint256"
        }
      ],
      "name": "getApproved",
      "outputs": [
        {
          "internalType": "address",
          "name": "",
          "type": "address"
        }
      ],
      "stateMutability": "view",
      "type": "function"
    },
    {
      "inputs": [
        {
          "internalType": "uint256",
          "name": "_collectionId",
          "type": "uint256"
        }
      ],
      "name": "getCollection",
      "outputs": [
        {
          "internalType": "uint256",
          "name": "id",
          "type": "uint256"
        },
        {
          "internalType": "string",
          "name": "name",
          "type": "string"
        },
        {
          "internalType": "string",
          "name": "description",
          "type": "string"
        },
        {
          "internalType": "enum BlazeWalletSkins.SkinRarity",
          "name": "rarity",
          "type": "uint8"
        },
        {
          "internalType": "uint256",
          "name": "price",
          "type": "uint256"
        },
        {
          "internalType": "uint256",
          "name": "maxSupply",
          "type": "uint256"
        },
        {
          "internalType": "uint256",
          "name": "minted",
          "type": "uint256"
        },
        {
          "internalType": "bool",
          "name": "isActive",
          "type": "bool"
        }
      ],
      "stateMutability": "view",
      "type": "function"
    },
    {
      "inputs": [
        {
          "internalType": "uint256",
          "name": "_collectionId",
          "type": "uint256"
        },
        {
          "internalType": "address",
          "name": "_user",
          "type": "address"
        }
      ],
      "name": "getEffectivePrice",
      "outputs": [
        {
          "internalType": "uint256",
          "name": "",
          "type": "uint256"
        }
      ],
      "stateMutability": "view",
      "type": "function"
    },
    {
      "inputs": [
        {
          "internalType": "uint256",
          "name": "_tokenId",
          "type": "uint256"
        }
      ],
      "name": "getSkinDetails",
      "outputs": [
        {
          "internalType": "uint256",
          "name": "tokenId",
          "type": "uint256"
        },
        {
          "internalType": "uint256",
          "name": "collectionId",
          "type": "uint256"
        },
        {
          "internalType": "uint256",
          "name": "serialNumber",
          "type": "uint256"
        },
        {
          "internalType": "address",
          "name": "owner",
          "type": "address"
        },
        {
          "internalType": "string",
          "name": "uri",
          "type": "string"
        }
      ],
      "stateMutability": "view",
      "type": "function"
    },
    {
      "inputs": [
        {
          "internalType": "address",
          "name": "_user",
          "type": "address"
        }
      ],
      "name": "getUserSkins",
      "outputs": [
        {
          "internalType": "uint256[]",
          "name": "",
          "type": "uint256[]"
        }
      ],
      "stateMutability": "view",
      "type": "function"
    },
    {
      "inputs": [
        {
          "internalType": "address",
          "name": "owner",
          "type": "address"
        },
        {
          "internalType": "address",
          "name": "operator",
          "type": "address"
        }
      ],
      "name": "isApprovedForAll",
      "outputs": [
        {
          "internalType": "bool",
          "name": "",
          "type": "bool"
        }
      ],
      "stateMutability": "view",
      "type": "function"
    },
    {
      "inputs": [
        {
          "internalType": "address",
          "name": "_user",
          "type": "address"
        }
      ],
      "name": "isPremiumUser",
      "outputs": [
        {
          "internalType": "bool",
          "name": "",
          "type": "bool"
        }
      ],
      "stateMutability": "view",
      "type": "function"
    },
    {
      "inputs": [
        {
          "internalType": "uint256",
          "name": "_collectionId",
          "type": "uint256"
        }
      ],
      "name": "mintSkin",
      "outputs": [
        {
          "internalType": "uint256",
          "name": "",
          "type": "uint256"
        }
      ],
      "stateMutability": "nonpayable",
      "type": "function"
    },
    {
      "inputs": [],
      "name": "name",
      "outputs": [
        {
          "internalType": "string",
          "name": "",
          "type": "string"
        }
      ],
      "stateMutability": "view",
      "type": "function"
    },
    {
      "inputs": [],
      "name": "owner",
      "outputs": [
        {
          "internalType": "address",
          "name": "",
          "type": "address"
        }
      ],
      "stateMutability": "view",
      "type": "function"
    },
    {
      "inputs": [
        {
          "internalType": "uint256",
          "name": "tokenId",
          "type": "uint256"
        }
      ],
      "name": "ownerOf",
      "outputs": [
        {
          "internalType": "address",
          "name": "",
          "type": "address"
        }
      ],
      "stateMutability": "view",
      "type": "function"
    },
    {
      "inputs": [],
      "name": "renounceOwnership",
      "outputs": [],
      "stateMutability": "nonpayable",
      "type": "function"
    },
    {
      "inputs": [
        {
          "internalType": "address",
          "name": "from",
          "type": "address"
        },
        {
          "internalType": "address",
          "name": "to",
          "type": "address"
        },
        {
          "internalType": "uint256",
          "name": "tokenId",
          "type": "uint256"
        }
      ],
      "name": "safeTransferFrom",
      "outputs": [],
      "stateMutability": "nonpayable",
      "type": "function"
    },
    {
      "inputs": [
        {
          "internalType": "address",
          "name": "from",
          "type": "address"
        },
        {
          "internalType": "address",
          "name": "to",
          "type": "address"
        },
        {
          "internalType": "uint256",
          "name": "tokenId",
          "type": "uint256"
        },
        {
          "internalType": "bytes",
          "name": "data",
          "type": "bytes"
        }
      ],
      "name": "safeTransferFrom",
      "outputs": [],
      "stateMutability": "nonpayable",
      "type": "function"
    },
    {
      "inputs": [
        {
          "internalType": "address",
          "name": "operator",
          "type": "address"
        },
        {
          "internalType": "bool",
          "name": "approved",
          "type": "bool"
        }
      ],
      "name": "setApprovalForAll",
      "outputs": [],
      "stateMutability": "nonpayable",
      "type": "function"
    },
    {
      "inputs": [
        {
          "internalType": "uint256",
          "name": "_collectionId",
          "type": "uint256"
        },
        {
          "internalType": "bool",
          "name": "_isActive",
          "type": "bool"
        }
      ],
      "name": "setCollectionActive",
      "outputs": [],
      "stateMutability": "nonpayable",
      "type": "function"
    },
    {
      "inputs": [
        {
          "internalType": "address",
          "name": "_newTreasury",
          "type": "address"
        }
      ],
      "name": "setTreasuryWallet",
      "outputs": [],
      "stateMutability": "nonpayable",
      "type": "function"
    },
    {
      "inputs": [
        {
          "internalType": "bytes4",
          "name": "interfaceId",
          "type": "bytes4"
        }
      ],
      "name": "supportsInterface",
      "outputs": [
        {
          "internalType": "bool",
          "name": "",
          "type": "bool"
        }
      ],
      "stateMutability": "view",
      "type": "function"
    },
    {
      "inputs": [],
      "name": "symbol",
      "outputs": [
        {
          "internalType": "string",
          "name": "",
          "type": "string"
        }
      ],
      "stateMutability": "view",
      "type": "function"
    },
    {
      "inputs": [
        {
          "internalType": "uint256",
          "name": "",
          "type": "uint256"
        }
      ],
      "name": "tokenSerialNumber",
      "outputs": [
        {
          "internalType": "uint256",
          "name": "",
          "type": "uint256"
        }
      ],
      "stateMutability": "view",
      "type": "function"
    },
    {
      "inputs": [
        {
          "internalType": "uint256",
          "name": "",
          "type": "uint256"
        }
      ],
      "name": "tokenToCollection",
      "outputs": [
        {
          "internalType": "uint256",
          "name": "",
          "type": "uint256"
        }
      ],
      "stateMutability": "view",
      "type": "function"
    },
    {
      "inputs": [
        {
          "internalType": "uint256",
          "name": "tokenId",
          "type": "uint256"
        }
      ],
      "name": "tokenURI",
      "outputs": [
        {
          "internalType": "string",
          "name": "",
          "type": "string"
        }
      ],
      "stateMutability": "view",
      "type": "function"
    },
    {
      "inputs": [],
      "name": "totalSupply",
      "outputs": [
        {
          "internalType": "uint256",
          "name": "",
          "type": "uint256"
        }
      ],
      "stateMutability": "view",
      "type": "function"
    },
    {
      "inputs": [
        {
          "internalType": "address",
          "name": "from",
          "type": "address"
        },
        {
          "internalType": "address",
          "name": "to",
          "type": "address"
        },
        {
          "internalType": "uint256",
          "name": "tokenId",
          "type": "uint256"
        }
      ],
      "name": "transferFrom",
      "outputs": [],
      "stateMutability": "nonpayable",
      "type": "function"
    },
    {
      "inputs": [
        {
          "internalType": "address",
          "name": "newOwner",
          "type": "address"
        }
      ],
      "name": "transferOwnership",
      "outputs": [],
      "stateMutability": "nonpayable",
      "type": "function"
    },
    {
      "inputs": [],
      "name": "treasuryWallet",
      "outputs": [
        {
          "internalType": "address",
          "name": "",
          "type": "address"
        }
      ],
      "stateMutability": "view",
      "type": "function"
    },
    {
      "inputs": [
        {
          "internalType": "uint256",
          "name": "_collectionId",
          "type": "uint256"
        },
        {
          "internalType": "uint256",
          "name": "_newPrice",
          "type": "uint256"
        }
      ],
      "name": "updateCollectionPrice",
      "outputs": [],
      "stateMutability": "nonpayable",
      "type": "function"
    },
    {
      "inputs": [
        {
          "internalType": "address",
          "name": "",
          "type": "address"
        },
        {
          "internalType": "uint256",
          "name": "",
          "type": "uint256"
        }
      ],
      "name": "userSkins",
      "outputs": [
        {
          "internalType": "uint256",
          "name": "",
          "type": "uint256"
        }
      ],
      "stateMutability": "view",
      "type": "function"
    }
  ],
  "bytecode": "0x6080346200047d5762002bd1906001600160401b03601f601f19388590038281018216850190848211868310176200046757808691604098899485528339810103126200047d576200005184620004a2565b92620000616020809601620004a2565b906200006c62000482565b936012855271426c617a652057616c6c657420536b696e7360701b878601526200009562000482565b6009815268212620ad22a9a5a4a760b91b8882015285519483861162000467576000958654976001988981811c911680156200045c575b8c8210146200044857908b8287859411620003f2575b50508b908683116001146200038f57899262000383575b5050600019600383901b1c191690881b1786555b81519384116200036f5786548781811c9116801562000364575b8a82101462000350579081848695949311620002f9575b508992841160011462000298575085926200028c575b5050600019600383901b1c191690841b1783555b331562000274576007549160018060a01b031994338685161760075587519460018060a01b039485937f8be0079c531659141344cd1fd0a4f28419497f9722a3daafe3b4186f6b6457e0853393169180a36008551692831562000232575016928315620001ef57508160095416176009556010541617601055516127199081620004b88239f35b60649085519062461bcd60e51b82526004820152601760248201527f496e76616c69642074726561737572792077616c6c65740000000000000000006044820152fd5b62461bcd60e51b815260048101869052601360248201527f496e76616c696420424c415a4520746f6b656e000000000000000000000000006044820152606490fd5b8551631e4fbdf760e01b815260048101839052602490fd5b01519050388062000154565b87875289872088959093929116875b8b828210620002e25750508411620002c8575b505050811b01835562000168565b015160001960f88460031b161c19169055388080620002ba565b8385015186558a97909501949384019301620002a7565b90919293508787528987208480870160051c8201928c881062000346575b9187968b92969594930160051c01915b828110620003375750506200013e565b8981558796508a910162000327565b9250819262000317565b634e487b7160e01b87526022600452602487fd5b90607f169062000127565b634e487b7160e01b86526041600452602486fd5b015190503880620000f9565b908c91858c95168b8052838c20938c905b828210620003da5750508411620003c0575b505050811b0186556200010d565b015160001960f88460031b161c19169055388080620003b2565b8385015186558e979095019493840193018f620003a0565b9091925089805286828b209181860160051c83019386106200043e575b918c91869594930160051c01915b8281106200042f57508d9150620000e2565b8b81558594508c91016200041d565b925081926200040f565b634e487b7160e01b89526022600452602489fd5b90607f1690620000cc565b634e487b7160e01b600052604160045260246000fd5b600080fd5b60408051919082016001600160401b038111838210176200046757604052565b51906001600160a01b03821682036200047d5756fe608080604052600436101561001357600080fd5b60003560e01c90816301ffc9a7146119955750806306fdde03146118f2578063081812fc146118b4578063095ea7b3146117cd5780630b2680f9146117385780630d8be97d146111ff57806318160ddd146111e1578063195f78ae146111b557806323b872dd1461119e5780632e32ea101461114657806338e3341f1461111d57806342842e0e146110ef57806344188f5e146110d35780634626402b146110aa5780634978c38a1461107d5780635a1f3c2814610fae5780636352211e14610f7e5780636e140ef814610eb757806370a0823114610e5e578063715018a614610e0157806387b626d814610b5c5780638da5cb5b14610b3357806395d89b4114610a685780639af01c2d14610a44578063a1b24b1714610990578063a22cb465146108e5578063a8602fea14610861578063b88d4fde146107f4578063c7c9c15f14610766578063c87b56dd14610733578063ce0b08fb146106bf578063d57f966b146106a1578063dfe1aab814610675578063e985e9c51461061f578063f03526511461031b578063f2fde38b1461028d5763fdbda0ec146101b657600080fd5b3461028857602036600319011261028857600435600052600c602052604060002080546102846101e860018401611c09565b926101f560028201611c09565b60ff6003830154169160048101546005820154600683015491610260610255610228600860ff6007890154169701611c09565b966102476040519c8d9c8d5260208d61012091829101528d0190611a3d565b908b820360408d0152611a3d565b9660608a0190611bac565b608088015260a087015260c0860152151560e0850152838203610100850152611a3d565b0390f35b600080fd5b34610288576020366003190112610288576102a6611a62565b6102ae611caf565b6001600160a01b0390811690811561030257600754826bffffffffffffffffffffffff60a01b821617600755167f8be0079c531659141344cd1fd0a4f28419497f9722a3daafe3b4186f6b6457e0600080a3005b604051631e4fbdf760e01b815260006004820152602490fd5b34610288576020806003193601126102885760043560026008541461060d57600260085580600052600c8252604060002081151580610601575b61035e90612028565b61036e60ff600783015416612069565b600581015480159081156105f3575b50156105c35760048101549160018060a01b038060095416906040516370a0823160e01b81523360048201528681602481865afa80156105585760009061058d575b683635c9adc5dea000009150101561057a575b6010541660405190868201906323b872dd60e01b825233602484015260448301528560648301526064825260a08201908282106001600160401b03831117610564578792600092604052519082855af115610558576000513d61054f5750803b155b6105375750610444600b54612003565b9283600b556104f96104ba6104f36006808701966104628854612003565b80985561046f8933612180565b88600052600d8a5286604060002055600e8a528760406000205533600052600f8a5261049f8960406000206120c3565b6104a8886125f2565b60405194859260088d850191016120fd565b602f60f81b81526104d58c8351938491600185019101611a1a565b0164173539b7b760d91b600182015203601919810184520182611ab8565b856123ae565b60405192835284830152827f888cd96e1751f324b26052cb55c34eb79fc024da9356a5c04103f39f7c0a30c060403394a46001600855604051908152f35b60249060405190635274afe760e01b82526004820152fd5b60011415610434565b6040513d6000823e3d90fd5b634e487b7160e01b600052604160045260246000fd5b936105866064916120ad565b04936103d2565b508681813d83116105bc575b6105a38183611ab8565b8101031261028857683635c9adc5dea0000090516103bf565b503d610599565b60405162461bcd60e51b815260048101849052600860248201526714dbdb19081bdd5d60c21b6044820152606490fd5b90506006820154108461037d565b50600a54821115610355565b604051633ee5aeb560e01b8152600490fd5b3461028857604036600319011261028857610638611a62565b610640611a78565b9060018060a01b03809116600052600560205260406000209116600052602052602060ff604060002054166040519015158152f35b3461028857602036600319011261028857600435600052600e6020526020604060002054604051908152f35b34610288576000366003190112610288576020600a54604051908152f35b346102885760403660031901126102885760206004356106dd611a78565b9080151580610727575b6106f090612028565b600052600c825261070960046040600020015491612537565b610716575b604051908152f35b6107216064916120ad565b0461070e565b50600a548111156106e7565b34610288576020366003190112610288576102846107526004356125c1565b604051918291602083526020830190611a3d565b3461028857604036600319011261028857602435600435610785611caf565b801515806107e8575b61079790612028565b81156107b357600052600c602052600460406000200155600080f35b60405162461bcd60e51b815260206004820152600d60248201526c496e76616c696420707269636560981b6044820152606490fd5b50600a5481111561078e565b346102885760803660031901126102885761080d611a62565b610815611a78565b90604435606435926001600160401b03841161028857366023850112156102885761084d61085f943690602481600401359101611af4565b92610859838383611cdb565b33611eb5565b005b346102885760203660031901126102885761087a611a62565b610882611caf565b6001600160a01b031680156108ae576bffffffffffffffffffffffff60a01b6010541617601055600080f35b60405162461bcd60e51b815260206004820152600f60248201526e496e76616c6964206164647265737360881b6044820152606490fd5b34610288576040366003190112610288576108fe611a62565b610906611a8e565b6001600160a01b03909116908115610977573360005260056020526040600020826000526020526109478160406000209060ff801983541691151516179055565b60405190151581527f17307eab39ab6107e8899845ad3d59bd9653f200f220920489ca2b5937696c3160203392a3005b604051630b61174360e31b815260048101839052602490fd5b3461028857602080600319360112610288576001600160a01b036109b2611a62565b16600052600f8152604060002060405190818382549182815201908192600052846000209060005b86828210610a305786866109f082880383611ab8565b604051928392818401908285525180915260408401929160005b828110610a1957505050500390f35b835185528695509381019392810192600101610a0a565b8354855290930192600192830192016109da565b34610288576000366003190112610288576020604051683635c9adc5dea000008152f35b346102885760003660031901126102885760405160006001805490610a8c82611bcf565b80855291818116908115610b0c5750600114610ab3575b6102848461075281860382611ab8565b600081815292507fb10e2d527612073b26eecdfd717e6a320cf44b4afac2b0732d9fcbe2b7fa0cf65b828410610af457505050810160200161075282610aa3565b80546020858701810191909152909301928101610adc565b60ff191660208087019190915292151560051b850190920192506107529150839050610aa3565b34610288576000366003190112610288576007546040516001600160a01b039091168152602090f35b346102885760403660031901126102885760246001600160401b0360043582358281116102885736602382011215610288578060040135928311610dec578260051b9060405191602094610bb286830185611ab8565b8352858584019183010191368311610288578601905b828210610dcd57505050610bda611caf565b81600052600c8352604060002082151580610dc1575b610bfc90959295612028565b610c0c60ff600783015416612069565b600091600582019560069360088585019401905b825181101561085f576001600160a01b0380610c3c8386612523565b511615610d895789548015159081610d7d575b5061085f5787600b8054610c6290612003565b8091558754610c7090612003565b928389558181610c80878a612523565b511690610c8c91612180565b81600052600d8c5282604060002055600e8c528360406000205580610cb18689612523565b5116600052600f8c5281604060002090610cca916120c3565b8b8a610cd5866125f2565b604051928391610ce78284018c6120fd565b602f60f81b815281519182600194858401920191610d0492611a1a565b0190810164173539b7b760d91b9052036019198101835201610d269082611ab8565b610d3090836123ae565b610d3a8588612523565b5116926040519081528b81016000905260407f888cd96e1751f324b26052cb55c34eb79fc024da9356a5c04103f39f7c0a30c091a4610d7890612003565b610c20565b9050865410158b610c4f565b60405162461bcd60e51b8152600481018a905260118187015270125b9d985b1a59081c9958da5c1a595b9d607a1b6044820152606490fd5b50600a54831115610bf0565b81356001600160a01b0381168103610288578152908501908501610bc8565b83634e487b7160e01b60005260416004526000fd5b3461028857600036600319011261028857610e1a611caf565b600780546001600160a01b031981169091556000906001600160a01b03167f8be0079c531659141344cd1fd0a4f28419497f9722a3daafe3b4186f6b6457e08280a3005b34610288576020366003190112610288576001600160a01b03610e7f611a62565b168015610e9e5760005260036020526020604060002054604051908152f35b6040516322718ad960e21b815260006004820152602490fd5b34610288576020806003193601126102885760043560008181526002835260409020546001600160a01b0390811615610f42576102849082600052600d845260406000205490600e8552604060002054610f1085611e7a565b90610f1a866125c1565b936040519788978852870152604086015216606084015260a0608084015260a0830190611a3d565b60405162461bcd60e51b8152600481018490526014602482015273151bdad95b88191bd95cc81b9bdd08195e1a5cdd60621b6044820152606490fd5b34610288576020366003190112610288576020610f9c600435611e7a565b6040516001600160a01b039091168152f35b346102885760203660031901126102885760043580151580611071575b610fd490612028565b600052600c6020526040600020805460ff6003830154166004830154600584015460068501549060ff6007870154169261105761104c611022600261101b60018c01611c09565b9a01611c09565b61103e6040519a8b9a8b526101008060208d01528b0190611a3d565b9089820360408b0152611a3d565b956060880190611bac565b608086015260a085015260c0840152151560e08301520390f35b50600a54811115610fcb565b346102885760203660031901126102885760206110a061109b611a62565b612537565b6040519015158152f35b34610288576000366003190112610288576010546040516001600160a01b039091168152602090f35b3461028857600036600319011261028857602060405160328152f35b346102885761085f61110036611b49565b906040519261110e84611a9d565b60008452610859838383611cdb565b34610288576000366003190112610288576009546040516001600160a01b039091168152602090f35b346102885760403660031901126102885761115f611a62565b6001600160a01b03166000908152600f60205260409020805460243591908210156102885760209161119091611b7e565b90546040519160031b1c8152f35b346102885761085f6111af36611b49565b91611cdb565b3461028857602036600319011261028857600435600052600d6020526020604060002054604051908152f35b34610288576000366003190112610288576020600b54604051908152f35b346102885760c0366003190112610288576004356001600160401b0381116102885761122f903690600401611b2b565b6024356001600160401b0381116102885761124e903690600401611b2b565b600460443510156102885760a4356001600160401b03811161028857611278903690600401611b2b565b90611281611caf565b82511561170357606435156116cd5761129b600a54612003565b9182600a5582600052600c60205260406000209183835584516001600160401b038111610564576112cf6001850154611bcf565b601f8111611686575b50806020601f82116001146116195760009161160e575b508160011b916000199060031b1c19161760018401555b8051906001600160401b0382116105645781906113266002860154611bcf565b601f81116115bb575b50602090601f83116001146115495760009261153e575b50508160011b916000199060031b1c19161760028301555b6008600383019260ff19938481541660ff60443516179055606435600482015560843593846005830155600060068301556001600783019182541617905501908051906001600160401b038211610564576113b98354611bcf565b601f81116114f6575b5091849391602096938790601f83116001146114665791807f6a56f2de7ff8d4c1f06bbc6a04fdc5015a3c8b4b3f6543b75e29e3ae9d6d35f8969492611434969460009261145b575b50508160011b916000199060031b1c19161790555b604051928392608084526080840190611a3d565b90611443888401604435611bac565b606435604084015260608301520390a2604051908152f35b015190508a8061140b565b90601f1983169184600052896000209260005b8181106114dc575092600192859261143498967f6a56f2de7ff8d4c1f06bbc6a04fdc5015a3c8b4b3f6543b75e29e3ae9d6d35f89a9896106114c3575b505050811b019055611420565b015160001960f88460031b161c191690558a80806114b6565b8284015185558a9950600190940193928b01928b01611479565b836000526020600020601f840160051c81019160208510611534575b601f0160051c01905b81811061152857506113c2565b6000815560010161151b565b9091508190611512565b015190508680611346565b9250600285016000526020600020906000935b601f19841685106115a0576001945083601f19811610611587575b505050811b01600283015561135e565b015160001960f88460031b161c19169055868080611577565b8181015183556020948501946001909301929091019061155c565b909150600285016000526020600020601f840160051c810160208510611607575b90849392915b601f830160051c820181106115f857505061132f565b600081558594506001016115e2565b50806115dc565b9050860151876112ef565b91506001850160005260206000206000925b601f198316841061166e576001935082601f19811610611655575b5050811b016001840155611306565b88015160001960f88460031b161c191690558780611646565b8881015182556020938401936001909201910161162b565b600185016000526020600020601f830160051c8101602084106116c6575b601f830160051c820181106116ba5750506112d8565b600081556001016116a4565b50806116a4565b60405162461bcd60e51b815260206004820152600e60248201526d141c9a58d9481c995c5d5a5c995960921b6044820152606490fd5b60405162461bcd60e51b815260206004820152600d60248201526c13985b59481c995c5d5a5c9959609a1b6044820152606490fd5b34610288576040366003190112610288576004357fddff2e0904df6dec2b9ce7db538095bdb975e6ba0a1dd2948f4deb60c7bf66286020611777611a8e565b61177f611caf565b831515806117c1575b61179190612028565b83600052600c82526117b68160076040600020019060ff801983541691151516179055565b6040519015158152a2005b50600a54841115611788565b34610288576040366003190112610288576117e6611a62565b6024356117f281611e7a565b331515806118a1575b80611874575b61185c576001600160a01b039283169282918491167f8c5be1e5ebec7d5bd14f71427d1e84f3dd0314c0f7b2291e5b200ac8c7c3b925600080a4600090815260046020526040902080546001600160a01b0319169091179055005b60405163a9fbf51f60e01b8152336004820152602490fd5b5060018060a01b038116600052600560205260406000203360005260205260ff6040600020541615611801565b506001600160a01b0381163314156117fb565b34610288576020366003190112610288576004356118d181611e7a565b506000526004602052602060018060a01b0360406000205416604051908152f35b34610288576000366003190112610288576040516000805461191381611bcf565b80845290600190818116908115610b0c575060011461193c576102848461075281860382611ab8565b600080805292507f290decd9548b62a8d60345a988386fc84ba6bc95484008f6362f93160ef3e5635b82841061197d57505050810160200161075282610aa3565b80546020858701810191909152909301928101611965565b34610288576020366003190112610288576004359063ffffffff60e01b821680920361028857602091632483248360e11b81149081156119d7575b5015158152f35b6380ac58cd60e01b811491508115611a09575b81156119f8575b50836119d0565b6301ffc9a760e01b149050836119f1565b635b5e139f60e01b811491506119ea565b60005b838110611a2d5750506000910152565b8181015183820152602001611a1d565b90602091611a5681518092818552858086019101611a1a565b601f01601f1916010190565b600435906001600160a01b038216820361028857565b602435906001600160a01b038216820361028857565b60243590811515820361028857565b602081019081106001600160401b0382111761056457604052565b90601f801991011681019081106001600160401b0382111761056457604052565b6001600160401b03811161056457601f01601f191660200190565b929192611b0082611ad9565b91611b0e6040519384611ab8565b829481845281830111610288578281602093846000960137010152565b9080601f8301121561028857816020611b4693359101611af4565b90565b6060906003190112610288576001600160a01b0390600435828116810361028857916024359081168103610288579060443590565b8054821015611b965760005260206000200190600090565b634e487b7160e01b600052603260045260246000fd5b906004821015611bb95752565b634e487b7160e01b600052602160045260246000fd5b90600182811c92168015611bff575b6020831014611be957565b634e487b7160e01b600052602260045260246000fd5b91607f1691611bde565b9060405191826000825492611c1d84611bcf565b908184526001948581169081600014611c8c5750600114611c49575b5050611c4792500383611ab8565b565b9093915060005260209081600020936000915b818310611c74575050611c4793508201013880611c39565b85548884018501529485019487945091830191611c5c565b915050611c4794506020925060ff191682840152151560051b8201013880611c39565b6007546001600160a01b03163303611cc357565b60405163118cdaa760e01b8152336004820152602490fd5b6001600160a01b039182169290918315611e6157600092828452826020956002875260409684888820541696879133151580611dcb575b509060027fddf252ad1be2c89b69c2b068fc378daa952ba7f163c4a11628f55a4df523b3ef9284611d98575b858352600381528b8320805460010190558683525289812080546001600160a01b0319168517905580a41692838303611d775750505050565b6064945051926364283d7b60e01b8452600484015260248301526044820152fd5b600087815260046020526040902080546001600160a01b0319169055848352600381528b83208054600019019055611d3e565b91939450915080611e20575b15611de757859291879138611d12565b878688611e04576024915190637e27328960e01b82526004820152fd5b604491519063177e802f60e01b82523360048301526024820152fd5b503387148015611e45575b80611dd75750858252600481523385898420541614611dd7565b5086825260058152878220338352815260ff8883205416611e2b565b604051633250574960e11b815260006004820152602490fd5b6000818152600260205260409020546001600160a01b0316908115611e9d575090565b60249060405190637e27328960e01b82526004820152fd5b90939192833b611ec7575b5050505050565b604051630a85bd0160e11b8082526001600160a01b039384166004830152958316602482015260448101919091526080606482015294921692602092918590611f14906084830190611a3d565b039483816000978189895af1869181611fbf575b50611f89575050503d600014611f80573d611f4281611ad9565b90611f506040519283611ab8565b81528093823d92013e5b82519283611f7b57604051633250574960e11b815260048101849052602490fd5b019050fd5b60609250611f5a565b919450915063ffffffff60e01b1603611fa757503880808080611ec0565b60249060405190633250574960e11b82526004820152fd5b9091508481813d8311611ffc575b611fd78183611ab8565b81010312611ff857516001600160e01b031981168103611ff8579038611f28565b8680fd5b503d611fcd565b60001981146120125760010190565b634e487b7160e01b600052601160045260246000fd5b1561202f57565b60405162461bcd60e51b815260206004820152601260248201527124b73b30b634b21031b7b63632b1ba34b7b760711b6044820152606490fd5b1561207057565b60405162461bcd60e51b8152602060048201526015602482015274436f6c6c656374696f6e206e6f742061637469766560581b6044820152606490fd5b9060328202918083046032149015171561201257565b805468010000000000000000811015610564576120e591600182018155611b7e565b819291549060031b91821b91600019901b1916179055565b60009291815461210c81611bcf565b926001918083169081156121655750600114612129575b50505050565b90919293945060005260209081600020906000915b8583106121545750505050019038808080612123565b80548584015291830191810161213e565b60ff1916845250505081151590910201915038808080612123565b6040805161218d81611a9d565b6000808252936001600160a01b038481169490929085156123965782875260209360028552858820541683878215159283612363575b818b5260038852888b2080546001019055828b5260028852888b2080546001600160a01b031916831790557fddf252ad1be2c89b69c2b068fc378daa952ba7f163c4a11628f55a4df523b3ef8b80a461234b573b612224575b505050505050565b82612262918596979894955180938192630a85bd0160e11b968784523360048501528c60248501526044840152608060648401526084830190611a3d565b03818a8a5af1879181612307575b506122d0575050503d6000146122c7573d61228a81611ad9565b9061229784519283611ab8565b81528094823d92013e5b835193846122c1578251633250574960e11b815260048101859052602490fd5b84925001fd5b606093506122a1565b919550915063ffffffff60e01b16036122f057505038808080808061221c565b602492505190633250574960e11b82526004820152fd5b9091508481813d8311612344575b61231f8183611ab8565b8101031261234057516001600160e01b031981168103612340579038612270565b8780fd5b503d612315565b84516339e3563760e11b815260048101889052602490fd5b600083815260046020526040902080546001600160a01b0319169055808b5260038852888b2080546000190190556121c3565b8451633250574960e11b815260048101889052602490fd5b9190916000908082526020916006835260408120908551906001600160401b03821161250f576123de8354611bcf565b601f81116124cc575b508490601f831160011461244857907ff8e1a15aba9398e019f0b49df1a4fde98ee17ae345cb5f6b5e2c27f5033e8ce796978361243d575b50508160011b916000199060031b1c19161790555b604051908152a1565b01519050388061241f565b9196601f198816848452868420935b8181106124b557509160019391897ff8e1a15aba9398e019f0b49df1a4fde98ee17ae345cb5f6b5e2c27f5033e8ce7999a941061249c575b505050811b019055612434565b015160001960f88460031b161c1916905538808061248f565b929387600181928786015181550195019301612457565b838252858220601f840160051c810191878510612505575b601f0160051c01905b8181106124fa57506123e7565b8281556001016124ed565b90915081906124e4565b634e487b7160e01b81526041600452602490fd5b8051821015611b965760209160051b010190565b6009546040516370a0823160e01b81526001600160a01b0392831660048201529160209183916024918391165afa801561055857600090612584575b683635c9adc5dea000009150101590565b6020823d82116125b9575b8161259c60209383611ab8565b810103126125b65750683635c9adc5dea000009051612573565b80fd5b3d915061258f565b6125ca81611e7a565b5060005260066020526125e06040600020611c09565b60006040516125ee81611a9d565b5290565b80156126b55780816000925b6126a1575061260c82611ad9565b9161261a6040519384611ab8565b80835281601f1961262a83611ad9565b01916020923684870137925b6126405750505090565b60001983019283116120125782600a91828104928084029084820414841517156120125781039081116120125760ff809116603001908111612012578551821015611b965760f81b6001600160f81b03191660001a90850183015380612636565b916126ad600a91612003565b9204806125fe565b50604051604081018181106001600160401b038211176105645760405260018152600360fc1b60208201529056fea26469706673582212209428f19686a08f77edff86206f70c67bb587e3aa46d122ba90ab39b1a20b8a8d64736f6c63430008140033",
  "linkReferences": {},
  "deployedLinkReferences": {}
}