{
  "_format": "hh-sol-artifact-1",
  "contractName": "FounderVesting",
  "sourceName": "contracts/FounderVesting.sol",
  "abi": [
    {
      "inputs": [
        {
          "internalType": "address",
          "name": "_arcToken",
          "type": "address"
        },
        {
          "internalType": "address",
          "name": "_founder",
          "type": "address"
        }
      ],
      "stateMutability": "nonpayable",
      "type": "constructor"
    },
    {
      "inputs": [
        {
          "internalType": "address",
          "name": "owner",
          "type": "address"
        }
      ],
      "name": "OwnableInvalidOwner",
      "type": "error"
    },
    {
      "inputs": [
        {
          "internalType": "address",
          "name": "account",
          "type": "address"
        }
      ],
      "name": "OwnableUnauthorizedAccount",
      "type": "error"
    },
    {
      "inputs": [],
      "name": "ReentrancyGuardReentrantCall",
      "type": "error"
    },
    {
      "anonymous": false,
      "inputs": [
        {
          "indexed": true,
          "internalType": "address",
          "name": "previousOwner",
          "type": "address"
        },
        {
          "indexed": true,
          "internalType": "address",
          "name": "newOwner",
          "type": "address"
        }
      ],
      "name": "OwnershipTransferred",
      "type": "event"
    },
    {
      "anonymous": false,
      "inputs": [
        {
          "indexed": false,
          "internalType": "uint256",
          "name": "amount",
          "type": "uint256"
        },
        {
          "indexed": false,
          "internalType": "uint256",
          "name": "timestamp",
          "type": "uint256"
        }
      ],
      "name": "TokensReleased",
      "type": "event"
    },
    {
      "anonymous": false,
      "inputs": [
        {
          "indexed": false,
          "internalType": "uint256",
          "name": "startTime",
          "type": "uint256"
        },
        {
          "indexed": true,
          "internalType": "address",
          "name": "founder",
          "type": "address"
        }
      ],
      "name": "VestingStarted",
      "type": "event"
    },
    {
      "inputs": [],
      "name": "CLIFF_DURATION",
      "outputs": [
        {
          "internalType": "uint256",
          "name": "",
          "type": "uint256"
        }
      ],
      "stateMutability": "view",
      "type": "function"
    },
    {
      "inputs": [],
      "name": "TOTAL_ALLOCATION",
      "outputs": [
        {
          "internalType": "uint256",
          "name": "",
          "type": "uint256"
        }
      ],
      "stateMutability": "view",
      "type": "function"
    },
    {
      "inputs": [],
      "name": "VESTING_DURATION",
      "outputs": [
        {
          "internalType": "uint256",
          "name": "",
          "type": "uint256"
        }
      ],
      "stateMutability": "view",
      "type": "function"
    },
    {
      "inputs": [],
      "name": "arcToken",
      "outputs": [
        {
          "internalType": "contract IERC20",
          "name": "",
          "type": "address"
        }
      ],
      "stateMutability": "view",
      "type": "function"
    },
    {
      "inputs": [],
      "name": "cliffEnd",
      "outputs": [
        {
          "internalType": "uint256",
          "name": "",
          "type": "uint256"
        }
      ],
      "stateMutability": "view",
      "type": "function"
    },
    {
      "inputs": [],
      "name": "founder",
      "outputs": [
        {
          "internalType": "address",
          "name": "",
          "type": "address"
        }
      ],
      "stateMutability": "view",
      "type": "function"
    },
    {
      "inputs": [],
      "name": "getTimeUntilNextMilestone",
      "outputs": [
        {
          "internalType": "string",
          "name": "milestone",
          "type": "string"
        },
        {
          "internalType": "uint256",
          "name": "secondsRemaining",
          "type": "uint256"
        }
      ],
      "stateMutability": "view",
      "type": "function"
    },
    {
      "inputs": [],
      "name": "getVestingInfo",
      "outputs": [
        {
          "internalType": "uint256",
          "name": "_vestingStart",
          "type": "uint256"
        },
        {
          "internalType": "uint256",
          "name": "_cliffEnd",
          "type": "uint256"
        },
        {
          "internalType": "uint256",
          "name": "_vestingEnd",
          "type": "uint256"
        },
        {
          "internalType": "uint256",
          "name": "_totalAllocation",
          "type": "uint256"
        },
        {
          "internalType": "uint256",
          "name": "_vestedAmount",
          "type": "uint256"
        },
        {
          "internalType": "uint256",
          "name": "_releasedAmount",
          "type": "uint256"
        },
        {
          "internalType": "uint256",
          "name": "_releasableAmount",
          "type": "uint256"
        },
        {
          "internalType": "uint256",
          "name": "_remainingAmount",
          "type": "uint256"
        }
      ],
      "stateMutability": "view",
      "type": "function"
    },
    {
      "inputs": [],
      "name": "getVestingProgress",
      "outputs": [
        {
          "internalType": "uint256",
          "name": "",
          "type": "uint256"
        }
      ],
      "stateMutability": "view",
      "type": "function"
    },
    {
      "inputs": [],
      "name": "owner",
      "outputs": [
        {
          "internalType": "address",
          "name": "",
          "type": "address"
        }
      ],
      "stateMutability": "view",
      "type": "function"
    },
    {
      "inputs": [
        {
          "internalType": "address",
          "name": "token",
          "type": "address"
        },
        {
          "internalType": "uint256",
          "name": "amount",
          "type": "uint256"
        }
      ],
      "name": "recoverToken",
      "outputs": [],
      "stateMutability": "nonpayable",
      "type": "function"
    },
    {
      "inputs": [],
      "name": "releasableAmount",
      "outputs": [
        {
          "internalType": "uint256",
          "name": "",
          "type": "uint256"
        }
      ],
      "stateMutability": "view",
      "type": "function"
    },
    {
      "inputs": [],
      "name": "release",
      "outputs": [],
      "stateMutability": "nonpayable",
      "type": "function"
    },
    {
      "inputs": [],
      "name": "released",
      "outputs": [
        {
          "internalType": "uint256",
          "name": "",
          "type": "uint256"
        }
      ],
      "stateMutability": "view",
      "type": "function"
    },
    {
      "inputs": [],
      "name": "renounceOwnership",
      "outputs": [],
      "stateMutability": "nonpayable",
      "type": "function"
    },
    {
      "inputs": [
        {
          "internalType": "address",
          "name": "newOwner",
          "type": "address"
        }
      ],
      "name": "transferOwnership",
      "outputs": [],
      "stateMutability": "nonpayable",
      "type": "function"
    },
    {
      "inputs": [],
      "name": "vestedAmount",
      "outputs": [
        {
          "internalType": "uint256",
          "name": "",
          "type": "uint256"
        }
      ],
      "stateMutability": "view",
      "type": "function"
    },
    {
      "inputs": [],
      "name": "vestingEnd",
      "outputs": [
        {
          "internalType": "uint256",
          "name": "",
          "type": "uint256"
        }
      ],
      "stateMutability": "view",
      "type": "function"
    },
    {
      "inputs": [],
      "name": "vestingStart",
      "outputs": [
        {
          "internalType": "uint256",
          "name": "",
          "type": "uint256"
        }
      ],
      "stateMutability": "view",
      "type": "function"
    }
  ],
  "bytecode": "0x6101203461027057610ec3601f38829003908101601f19168301906001600160401b03821184831017610275578084916040948594855283398101031261027057610055602061004e8461028b565b930161028b565b9133156102585760008054336001600160a01b03198216811783558451929592936001600160a01b039283929083167f8be0079c531659141344cd1fd0a4f28419497f9722a3daafe3b4186f6b6457e08980a36001805516928315610216575081169182156101d25760805260a0524260c05262ed4e0042018042116101be5760e052630784ce004201928342116101aa57506101009283527f3c3d0e5fab118b0fbfa3a8dc747d9c175e16b5d6b5cf7cc9bd576d0f813b7b9760208351428152a251610c2391826102a0833960805182818161027e015281816102ff0152610567015260a0518281816104ce01526107a6015260c0518281816101cc01528181610829015281816109cc0152610a81015260e0518281816101ef01528181610461015281816109660152610b06015251818181610215015281816106e40152818161099301528181610aa90152610b640152f35b634e487b7160e01b81526011600452602490fd5b634e487b7160e01b84526011600452602484fd5b835162461bcd60e51b815260206004820152601760248201527f496e76616c696420666f756e64657220616464726573730000000000000000006044820152606490fd5b62461bcd60e51b815260206004820152601560248201527f496e76616c696420746f6b656e206164647265737300000000000000000000006044820152606490fd5b8151631e4fbdf760e01b815260006004820152602490fd5b600080fd5b634e487b7160e01b600052604160045260246000fd5b51906001600160a01b03821682036102705756fe6040608081526004908136101561001557600080fd5b600091823560e01c80630a7fc3431461088f5780630dac7bea14610869578063154e4e561461084c578063254800d41461081157806344b1231f146107f45780634cfc4d30146107d55780634d853ee5146107915780635b94008114610761578063715018a61461070757806384a1931f146106cc57806386d1a69f146104ac5780638da5cb5b146104845780639130297b14610449578063961325211461042a578063b29a8140146102cf578063b3daa652146102b1578063c011267814610269578063dc25a3001461017b5763f2fde38b146100f257600080fd5b346101775760203660031901126101775761010b6108fa565b90610114610915565b6001600160a01b0391821692831561016157505082546001600160a01b0319811683178455167f8be0079c531659141344cd1fd0a4f28419497f9722a3daafe3b4186f6b6457e08380a380f35b51631e4fbdf760e01b8152908101849052602490fd5b8280fd5b509134610266578060031936011261026657610195610964565b6002546101a9816101a4610964565b610941565b916a7c13bc4b2c133c5600000082810394818611610253575061010096508551957f000000000000000000000000000000000000000000000000000000000000000087527f000000000000000000000000000000000000000000000000000000000000000060208801527f0000000000000000000000000000000000000000000000000000000000000000908701526060860152608085015260a084015260c083015260e0820152f35b634e487b7160e01b815260118852602490fd5b80fd5b5050346102ad57816003193601126102ad57517f00000000000000000000000000000000000000000000000000000000000000006001600160a01b03168152602090f35b5080fd5b5050346102ad57816003193601126102ad576020905162ed4e008152f35b5090346101775780600319360112610177576102e96108fa565b6102f1610915565b6001600160a01b03908116907f0000000000000000000000000000000000000000000000000000000000000000811682146103e7578454835163a9059cbb60e01b815291166001600160a01b03168482019081526024356020808301919091529192839182908890829060400103925af19081156103dd5784916103af575b501561037a578280f35b906020606492519162461bcd60e51b8352820152600f60248201526e149958dbdd995c9e4819985a5b1959608a1b6044820152fd5b6103d0915060203d81116103d6575b6103c88183610a45565b810190610a67565b38610370565b503d6103be565b82513d86823e3d90fd5b825162461bcd60e51b8152602081860152601960248201527f43616e6e6f74207265636f7665722041524320746f6b656e73000000000000006044820152606490fd5b5050346102ad57816003193601126102ad576020906002549051908152f35b5050346102ad57816003193601126102ad57602090517f00000000000000000000000000000000000000000000000000000000000000008152f35b5050346102ad57816003193601126102ad57905490516001600160a01b039091168152602090f35b50346101775782600319360112610177576002600154146106be5760026001557f0000000000000000000000000000000000000000000000000000000000000000906001600160a01b03338184161480156106b2575b1561067e5761050f610964565b9261051d6002548095610941565b9384156106445784810180911161063157600255845163a9059cbb60e01b81526001600160a01b0390911683820190815260208181018690529192839182908990829060400103927f0000000000000000000000000000000000000000000000000000000000000000165af1908115610627578591610609575b50156105d45750907f06bfc9e66ca14afa6b27c5211d92e2453d2007b51cd69146f7d2b2b5654cf2b9918151908152426020820152a16001805580f35b606490602084519162461bcd60e51b8352820152600f60248201526e151c985b9cd9995c8819985a5b1959608a1b6044820152fd5b610621915060203d81116103d6576103c88183610a45565b38610597565b84513d87823e3d90fd5b634e487b7160e01b875260118452602487fd5b855162461bcd60e51b815260208186015260146024820152734e6f20746f6b656e7320746f2072656c6561736560601b6044820152606490fd5b835162461bcd60e51b8152602081840152600e60248201526d139bdd08185d5d1a1bdc9a5e995960921b6044820152606490fd5b50808554163314610502565b9051633ee5aeb560e01b8152fd5b5050346102ad57816003193601126102ad57602090517f00000000000000000000000000000000000000000000000000000000000000008152f35b8334610266578060031936011261026657610720610915565b80546001600160a01b03198116825581906001600160a01b03167f8be0079c531659141344cd1fd0a4f28419497f9722a3daafe3b4186f6b6457e08280a380f35b5050346102ad57816003193601126102ad5760209061078a610781610964565b60025490610941565b9051908152f35b5050346102ad57816003193601126102ad57517f00000000000000000000000000000000000000000000000000000000000000006001600160a01b03168152602090f35b5050346102ad57816003193601126102ad5760209051630784ce008152f35b5050346102ad57816003193601126102ad5760209061078a610964565b5050346102ad57816003193601126102ad57602090517f00000000000000000000000000000000000000000000000000000000000000008152f35b5050346102ad57816003193601126102ad5760209061078a610a7f565b5050346102ad57816003193601126102ad57602090516a7c13bc4b2c133c560000008152f35b5050346102ad57816003193601126102ad576108a9610b04565b929091805193849282845284518093850152805b8381106108e25750606080955083850101526020830152601f80199101168101030190f35b602086820181015160608984010152879550016108bd565b600435906001600160a01b038216820361091057565b600080fd5b6000546001600160a01b0316330361092957565b60405163118cdaa760e01b8152336004820152602490fd5b9190820391821161094e57565b634e487b7160e01b600052601160045260246000fd5b7f000000000000000000000000000000000000000000000000000000000000000042101561099157600090565b7f000000000000000000000000000000000000000000000000000000000000000042106109c7576a7c13bc4b2c133c5600000090565b6109f17f000000000000000000000000000000000000000000000000000000000000000042610941565b6a7c13bc4b2c133c56000000908082029182040361094e57630784ce00900490565b6040810190811067ffffffffffffffff821117610a2f57604052565b634e487b7160e01b600052604160045260246000fd5b90601f8019910116810190811067ffffffffffffffff821117610a2f57604052565b90816020910312610910575180151581036109105790565b7f0000000000000000000000000000000000000000000000000000000000000000804210610afe577f0000000000000000000000000000000000000000000000000000000000000000421015610af757610ad99042610941565b6127109081810291818304149015171561094e57630784ce00900490565b5061271090565b50600090565b7f0000000000000000000000000000000000000000000000000000000000000000804210600014610b6157610b3a904290610941565b90604051610b4781610a13565b600981526810db1a599988115b9960ba1b60208201529190565b507f0000000000000000000000000000000000000000000000000000000000000000804210600014610bc157610b98904290610941565b90604051610ba581610a13565b600b81526a15995cdd1a5b99c8115b9960aa1b60208201529190565b50604051610bce81610a13565b600c81526b119d5b1b1e4815995cdd195960a21b60208201529060009056fea2646970667358221220397a5576c093a3f4eeeb907b4491d0df3857f8405f92ac1a988e877fcffb324e64736f6c63430008140033",
  "linkReferences": {},
  "deployedLinkReferences": {}
}