{
  "_format": "hh-sol-artifact-1",
  "contractName": "FounderVesting",
  "sourceName": "contracts/FounderVesting.sol",
  "abi": [
    {
      "inputs": [
        {
          "internalType": "address",
          "name": "_arcToken",
          "type": "address"
        },
        {
          "internalType": "address",
          "name": "_founder",
          "type": "address"
        }
      ],
      "stateMutability": "nonpayable",
      "type": "constructor"
    },
    {
      "inputs": [
        {
          "internalType": "address",
          "name": "owner",
          "type": "address"
        }
      ],
      "name": "OwnableInvalidOwner",
      "type": "error"
    },
    {
      "inputs": [
        {
          "internalType": "address",
          "name": "account",
          "type": "address"
        }
      ],
      "name": "OwnableUnauthorizedAccount",
      "type": "error"
    },
    {
      "inputs": [],
      "name": "ReentrancyGuardReentrantCall",
      "type": "error"
    },
    {
      "anonymous": false,
      "inputs": [
        {
          "indexed": true,
          "internalType": "address",
          "name": "previousOwner",
          "type": "address"
        },
        {
          "indexed": true,
          "internalType": "address",
          "name": "newOwner",
          "type": "address"
        }
      ],
      "name": "OwnershipTransferred",
      "type": "event"
    },
    {
      "anonymous": false,
      "inputs": [
        {
          "indexed": false,
          "internalType": "uint256",
          "name": "amount",
          "type": "uint256"
        },
        {
          "indexed": false,
          "internalType": "uint256",
          "name": "timestamp",
          "type": "uint256"
        }
      ],
      "name": "TokensReleased",
      "type": "event"
    },
    {
      "anonymous": false,
      "inputs": [
        {
          "indexed": false,
          "internalType": "uint256",
          "name": "startTime",
          "type": "uint256"
        },
        {
          "indexed": true,
          "internalType": "address",
          "name": "founder",
          "type": "address"
        }
      ],
      "name": "VestingStarted",
      "type": "event"
    },
    {
      "inputs": [],
      "name": "CLIFF_DURATION",
      "outputs": [
        {
          "internalType": "uint256",
          "name": "",
          "type": "uint256"
        }
      ],
      "stateMutability": "view",
      "type": "function"
    },
    {
      "inputs": [],
      "name": "TOTAL_ALLOCATION",
      "outputs": [
        {
          "internalType": "uint256",
          "name": "",
          "type": "uint256"
        }
      ],
      "stateMutability": "view",
      "type": "function"
    },
    {
      "inputs": [],
      "name": "VESTING_DURATION",
      "outputs": [
        {
          "internalType": "uint256",
          "name": "",
          "type": "uint256"
        }
      ],
      "stateMutability": "view",
      "type": "function"
    },
    {
      "inputs": [],
      "name": "arcToken",
      "outputs": [
        {
          "internalType": "contract IERC20",
          "name": "",
          "type": "address"
        }
      ],
      "stateMutability": "view",
      "type": "function"
    },
    {
      "inputs": [],
      "name": "cliffEnd",
      "outputs": [
        {
          "internalType": "uint256",
          "name": "",
          "type": "uint256"
        }
      ],
      "stateMutability": "view",
      "type": "function"
    },
    {
      "inputs": [],
      "name": "founder",
      "outputs": [
        {
          "internalType": "address",
          "name": "",
          "type": "address"
        }
      ],
      "stateMutability": "view",
      "type": "function"
    },
    {
      "inputs": [],
      "name": "getTimeUntilNextMilestone",
      "outputs": [
        {
          "internalType": "string",
          "name": "milestone",
          "type": "string"
        },
        {
          "internalType": "uint256",
          "name": "secondsRemaining",
          "type": "uint256"
        }
      ],
      "stateMutability": "view",
      "type": "function"
    },
    {
      "inputs": [],
      "name": "getVestingInfo",
      "outputs": [
        {
          "internalType": "uint256",
          "name": "_vestingStart",
          "type": "uint256"
        },
        {
          "internalType": "uint256",
          "name": "_cliffEnd",
          "type": "uint256"
        },
        {
          "internalType": "uint256",
          "name": "_vestingEnd",
          "type": "uint256"
        },
        {
          "internalType": "uint256",
          "name": "_totalAllocation",
          "type": "uint256"
        },
        {
          "internalType": "uint256",
          "name": "_vestedAmount",
          "type": "uint256"
        },
        {
          "internalType": "uint256",
          "name": "_releasedAmount",
          "type": "uint256"
        },
        {
          "internalType": "uint256",
          "name": "_releasableAmount",
          "type": "uint256"
        },
        {
          "internalType": "uint256",
          "name": "_remainingAmount",
          "type": "uint256"
        }
      ],
      "stateMutability": "view",
      "type": "function"
    },
    {
      "inputs": [],
      "name": "getVestingProgress",
      "outputs": [
        {
          "internalType": "uint256",
          "name": "",
          "type": "uint256"
        }
      ],
      "stateMutability": "view",
      "type": "function"
    },
    {
      "inputs": [],
      "name": "owner",
      "outputs": [
        {
          "internalType": "address",
          "name": "",
          "type": "address"
        }
      ],
      "stateMutability": "view",
      "type": "function"
    },
    {
      "inputs": [
        {
          "internalType": "address",
          "name": "token",
          "type": "address"
        },
        {
          "internalType": "uint256",
          "name": "amount",
          "type": "uint256"
        }
      ],
      "name": "recoverToken",
      "outputs": [],
      "stateMutability": "nonpayable",
      "type": "function"
    },
    {
      "inputs": [],
      "name": "releasableAmount",
      "outputs": [
        {
          "internalType": "uint256",
          "name": "",
          "type": "uint256"
        }
      ],
      "stateMutability": "view",
      "type": "function"
    },
    {
      "inputs": [],
      "name": "release",
      "outputs": [],
      "stateMutability": "nonpayable",
      "type": "function"
    },
    {
      "inputs": [],
      "name": "released",
      "outputs": [
        {
          "internalType": "uint256",
          "name": "",
          "type": "uint256"
        }
      ],
      "stateMutability": "view",
      "type": "function"
    },
    {
      "inputs": [],
      "name": "renounceOwnership",
      "outputs": [],
      "stateMutability": "nonpayable",
      "type": "function"
    },
    {
      "inputs": [
        {
          "internalType": "address",
          "name": "newOwner",
          "type": "address"
        }
      ],
      "name": "transferOwnership",
      "outputs": [],
      "stateMutability": "nonpayable",
      "type": "function"
    },
    {
      "inputs": [],
      "name": "vestedAmount",
      "outputs": [
        {
          "internalType": "uint256",
          "name": "",
          "type": "uint256"
        }
      ],
      "stateMutability": "view",
      "type": "function"
    },
    {
      "inputs": [],
      "name": "vestingEnd",
      "outputs": [
        {
          "internalType": "uint256",
          "name": "",
          "type": "uint256"
        }
      ],
      "stateMutability": "view",
      "type": "function"
    },
    {
      "inputs": [],
      "name": "vestingStart",
      "outputs": [
        {
          "internalType": "uint256",
          "name": "",
          "type": "uint256"
        }
      ],
      "stateMutability": "view",
      "type": "function"
    }
  ],
  "bytecode": "0x6101206040523480156200001257600080fd5b5060405162000f9e38038062000f9e833981016040819052620000359162000217565b33806200005d57604051631e4fbdf760e01b8152600060048201526024015b60405180910390fd5b6200006881620001aa565b50600180556001600160a01b038216620000c55760405162461bcd60e51b815260206004820152601560248201527f496e76616c696420746f6b656e20616464726573730000000000000000000000604482015260640162000054565b6001600160a01b0381166200011d5760405162461bcd60e51b815260206004820152601760248201527f496e76616c696420666f756e6465722061646472657373000000000000000000604482015260640162000054565b6001600160a01b03808316608052811660a0524260c0819052620001469062ed4e00906200024f565b60e05260c0516200015d90630784ce00906200024f565b6101005260c0516040519081526001600160a01b038216907f3c3d0e5fab118b0fbfa3a8dc747d9c175e16b5d6b5cf7cc9bd576d0f813b7b979060200160405180910390a2505062000277565b600080546001600160a01b038381166001600160a01b0319831681178455604051919092169283917f8be0079c531659141344cd1fd0a4f28419497f9722a3daafe3b4186f6b6457e09190a35050565b80516001600160a01b03811681146200021257600080fd5b919050565b600080604083850312156200022b57600080fd5b6200023683620001fa565b91506200024660208401620001fa565b90509250929050565b808201808211156200027157634e487b7160e01b600052601160045260246000fd5b92915050565b60805160a05160c05160e05161010051610c6b62000333600039600081816101fd01528181610382015281816103ae0152818161045901528181610506015261098801526000818161023d0152818161030801528181610334015281816104d801526109670152600081816101720152818161042b0152818161048c0152818161054201526109460152600081816101ac015281816105c601526106bf01526000818161028a015281816106ee01526107e50152610c6b6000f3fe608060405234801561001057600080fd5b50600436106101215760003560e01c806384a1931f116100ad578063b29a814011610071578063b29a814014610268578063b3daa6521461027b578063c011267814610285578063dc25a300146102ac578063f2fde38b146102ef57600080fd5b806384a1931f146101f857806386d1a69f1461021f5780638da5cb5b146102275780639130297b14610238578063961325211461025f57600080fd5b806344b1231f116100f457806344b1231f146101945780634cfc4d301461019c5780634d853ee5146101a75780635b940081146101e6578063715018a6146101ee57600080fd5b80630a7fc343146101265780630dac7bea14610145578063154e4e5614610165578063254800d41461016d575b600080fd5b61012e610302565b60405161013c929190610adb565b60405180910390f35b6101576a7c13bc4b2c133c5600000081565b60405190815260200161013c565b610157610427565b6101577f000000000000000000000000000000000000000000000000000000000000000081565b6101576104d4565b610157630784ce0081565b6101ce7f000000000000000000000000000000000000000000000000000000000000000081565b6040516001600160a01b03909116815260200161013c565b610157610583565b6101f661059f565b005b6101577f000000000000000000000000000000000000000000000000000000000000000081565b6101f66105b3565b6000546001600160a01b03166101ce565b6101577f000000000000000000000000000000000000000000000000000000000000000081565b61015760025481565b6101f6610276366004610b4c565b6107db565b61015762ed4e0081565b6101ce7f000000000000000000000000000000000000000000000000000000000000000081565b6102b4610938565b604080519889526020890197909752958701949094526060860192909252608085015260a084015260c083015260e08201526101000161013c565b6101f66102fd366004610b76565b6109f6565b606060007f000000000000000000000000000000000000000000000000000000000000000042101561038057610358427f0000000000000000000000000000000000000000000000000000000000000000610bae565b60408051808201909152600981526810db1a599988115b9960ba1b6020820152939092509050565b7f00000000000000000000000000000000000000000000000000000000000000004210156103fc576103d2427f0000000000000000000000000000000000000000000000000000000000000000610bae565b60408051808201909152600b81526a15995cdd1a5b99c8115b9960aa1b6020820152939092509050565b505060408051808201909152600c81526b119d5b1b1e4815995cdd195960a21b602082015290600090565b60007f00000000000000000000000000000000000000000000000000000000000000004210156104575750600090565b7f00000000000000000000000000000000000000000000000000000000000000004210610485575061271090565b60006104b17f000000000000000000000000000000000000000000000000000000000000000042610bae565b9050630784ce006104c482612710610bc7565b6104ce9190610bde565b91505090565b60007f00000000000000000000000000000000000000000000000000000000000000004210156105045750600090565b7f0000000000000000000000000000000000000000000000000000000000000000421061053b57506a7c13bc4b2c133c5600000090565b60006105677f000000000000000000000000000000000000000000000000000000000000000042610bae565b9050630784ce006104c4826a7c13bc4b2c133c56000000610bc7565b60006002546105906104d4565b61059a9190610bae565b905090565b6105a7610a34565b6105b16000610a61565b565b6105bb610ab1565b336001600160a01b037f00000000000000000000000000000000000000000000000000000000000000001614806105fc57506000546001600160a01b031633145b61063e5760405162461bcd60e51b815260206004820152600e60248201526d139bdd08185d5d1a1bdc9a5e995960921b60448201526064015b60405180910390fd5b6000610648610583565b9050600081116106915760405162461bcd60e51b81526020600482015260146024820152734e6f20746f6b656e7320746f2072656c6561736560601b6044820152606401610635565b80600260008282546106a39190610c00565b909155505060405163a9059cbb60e01b81526001600160a01b037f000000000000000000000000000000000000000000000000000000000000000081166004830152602482018390527f0000000000000000000000000000000000000000000000000000000000000000169063a9059cbb906044016020604051808303816000875af1158015610737573d6000803e3d6000fd5b505050506040513d601f19601f8201168201806040525081019061075b9190610c13565b6107995760405162461bcd60e51b815260206004820152600f60248201526e151c985b9cd9995c8819985a5b1959608a1b6044820152606401610635565b604080518281524260208201527f06bfc9e66ca14afa6b27c5211d92e2453d2007b51cd69146f7d2b2b5654cf2b9910160405180910390a1506105b160018055565b6107e3610a34565b7f00000000000000000000000000000000000000000000000000000000000000006001600160a01b0316826001600160a01b0316036108645760405162461bcd60e51b815260206004820152601960248201527f43616e6e6f74207265636f7665722041524320746f6b656e73000000000000006044820152606401610635565b816001600160a01b031663a9059cbb6108856000546001600160a01b031690565b6040516001600160e01b031960e084901b1681526001600160a01b039091166004820152602481018490526044016020604051808303816000875af11580156108d2573d6000803e3d6000fd5b505050506040513d601f19601f820116820180604052508101906108f69190610c13565b6109345760405162461bcd60e51b815260206004820152600f60248201526e149958dbdd995c9e4819985a5b1959608a1b6044820152606401610635565b5050565b6000806000806000806000807f00000000000000000000000000000000000000000000000000000000000000007f00000000000000000000000000000000000000000000000000000000000000007f00000000000000000000000000000000000000000000000000000000000000006a7c13bc4b2c133c560000006109bb6104d4565b6002546109c6610583565b6002546109de906a7c13bc4b2c133c56000000610bae565b969f959e50939c50919a509850965094509092509050565b6109fe610a34565b6001600160a01b038116610a2857604051631e4fbdf760e01b815260006004820152602401610635565b610a3181610a61565b50565b6000546001600160a01b031633146105b15760405163118cdaa760e01b8152336004820152602401610635565b600080546001600160a01b038381166001600160a01b0319831681178455604051919092169283917f8be0079c531659141344cd1fd0a4f28419497f9722a3daafe3b4186f6b6457e09190a35050565b600260015403610ad457604051633ee5aeb560e01b815260040160405180910390fd5b6002600155565b604081526000835180604084015260005b81811015610b095760208187018101516060868401015201610aec565b506000606082850101526060601f19601f8301168401019150508260208301529392505050565b80356001600160a01b0381168114610b4757600080fd5b919050565b60008060408385031215610b5f57600080fd5b610b6883610b30565b946020939093013593505050565b600060208284031215610b8857600080fd5b610b9182610b30565b9392505050565b634e487b7160e01b600052601160045260246000fd5b81810381811115610bc157610bc1610b98565b92915050565b8082028115828204841417610bc157610bc1610b98565b600082610bfb57634e487b7160e01b600052601260045260246000fd5b500490565b80820180821115610bc157610bc1610b98565b600060208284031215610c2557600080fd5b81518015158114610b9157600080fdfea2646970667358221220d1603e33d36803b9acc0ca88fc40b1c2faf45de7921282f7d466e6f5987e532764736f6c63430008140033",
  "linkReferences": {},
  "deployedLinkReferences": {}
}