{
  "_format": "hh-sol-artifact-1",
  "contractName": "BlazeGovernance",
  "sourceName": "contracts/BlazeGovernance.sol",
  "abi": [
    {
      "inputs": [
        {
          "internalType": "address",
          "name": "_blazeToken",
          "type": "address"
        }
      ],
      "stateMutability": "nonpayable",
      "type": "constructor"
    },
    {
      "inputs": [
        {
          "internalType": "address",
          "name": "owner",
          "type": "address"
        }
      ],
      "name": "OwnableInvalidOwner",
      "type": "error"
    },
    {
      "inputs": [
        {
          "internalType": "address",
          "name": "account",
          "type": "address"
        }
      ],
      "name": "OwnableUnauthorizedAccount",
      "type": "error"
    },
    {
      "inputs": [],
      "name": "ReentrancyGuardReentrantCall",
      "type": "error"
    },
    {
      "anonymous": false,
      "inputs": [
        {
          "indexed": true,
          "internalType": "address",
          "name": "previousOwner",
          "type": "address"
        },
        {
          "indexed": true,
          "internalType": "address",
          "name": "newOwner",
          "type": "address"
        }
      ],
      "name": "OwnershipTransferred",
      "type": "event"
    },
    {
      "anonymous": false,
      "inputs": [
        {
          "indexed": true,
          "internalType": "uint256",
          "name": "proposalId",
          "type": "uint256"
        }
      ],
      "name": "ProposalCancelled",
      "type": "event"
    },
    {
      "anonymous": false,
      "inputs": [
        {
          "indexed": true,
          "internalType": "uint256",
          "name": "proposalId",
          "type": "uint256"
        },
        {
          "indexed": true,
          "internalType": "address",
          "name": "proposer",
          "type": "address"
        },
        {
          "indexed": false,
          "internalType": "string",
          "name": "title",
          "type": "string"
        },
        {
          "indexed": false,
          "internalType": "enum BlazeGovernance.ProposalType",
          "name": "proposalType",
          "type": "uint8"
        },
        {
          "indexed": false,
          "internalType": "uint256",
          "name": "startTime",
          "type": "uint256"
        },
        {
          "indexed": false,
          "internalType": "uint256",
          "name": "endTime",
          "type": "uint256"
        }
      ],
      "name": "ProposalCreated",
      "type": "event"
    },
    {
      "anonymous": false,
      "inputs": [
        {
          "indexed": true,
          "internalType": "uint256",
          "name": "proposalId",
          "type": "uint256"
        }
      ],
      "name": "ProposalExecuted",
      "type": "event"
    },
    {
      "anonymous": false,
      "inputs": [
        {
          "indexed": true,
          "internalType": "uint256",
          "name": "proposalId",
          "type": "uint256"
        },
        {
          "indexed": true,
          "internalType": "address",
          "name": "voter",
          "type": "address"
        },
        {
          "indexed": false,
          "internalType": "bool",
          "name": "support",
          "type": "bool"
        },
        {
          "indexed": false,
          "internalType": "uint256",
          "name": "votes",
          "type": "uint256"
        }
      ],
      "name": "VoteCast",
      "type": "event"
    },
    {
      "inputs": [],
      "name": "EXECUTION_DELAY",
      "outputs": [
        {
          "internalType": "uint256",
          "name": "",
          "type": "uint256"
        }
      ],
      "stateMutability": "view",
      "type": "function"
    },
    {
      "inputs": [],
      "name": "PROPOSAL_THRESHOLD",
      "outputs": [
        {
          "internalType": "uint256",
          "name": "",
          "type": "uint256"
        }
      ],
      "stateMutability": "view",
      "type": "function"
    },
    {
      "inputs": [],
      "name": "QUORUM_PERCENTAGE",
      "outputs": [
        {
          "internalType": "uint256",
          "name": "",
          "type": "uint256"
        }
      ],
      "stateMutability": "view",
      "type": "function"
    },
    {
      "inputs": [],
      "name": "VOTING_PERIOD",
      "outputs": [
        {
          "internalType": "uint256",
          "name": "",
          "type": "uint256"
        }
      ],
      "stateMutability": "view",
      "type": "function"
    },
    {
      "inputs": [],
      "name": "blazeToken",
      "outputs": [
        {
          "internalType": "contract IERC20",
          "name": "",
          "type": "address"
        }
      ],
      "stateMutability": "view",
      "type": "function"
    },
    {
      "inputs": [
        {
          "internalType": "uint256",
          "name": "_proposalId",
          "type": "uint256"
        }
      ],
      "name": "cancelProposal",
      "outputs": [],
      "stateMutability": "nonpayable",
      "type": "function"
    },
    {
      "inputs": [
        {
          "internalType": "string",
          "name": "_title",
          "type": "string"
        },
        {
          "internalType": "string",
          "name": "_description",
          "type": "string"
        },
        {
          "internalType": "enum BlazeGovernance.ProposalType",
          "name": "_proposalType",
          "type": "uint8"
        }
      ],
      "name": "createProposal",
      "outputs": [
        {
          "internalType": "uint256",
          "name": "",
          "type": "uint256"
        }
      ],
      "stateMutability": "nonpayable",
      "type": "function"
    },
    {
      "inputs": [
        {
          "internalType": "uint256",
          "name": "_proposalId",
          "type": "uint256"
        }
      ],
      "name": "executeProposal",
      "outputs": [],
      "stateMutability": "nonpayable",
      "type": "function"
    },
    {
      "inputs": [
        {
          "internalType": "uint256",
          "name": "_proposalId",
          "type": "uint256"
        }
      ],
      "name": "getProposal",
      "outputs": [
        {
          "internalType": "uint256",
          "name": "id",
          "type": "uint256"
        },
        {
          "internalType": "address",
          "name": "proposer",
          "type": "address"
        },
        {
          "internalType": "string",
          "name": "title",
          "type": "string"
        },
        {
          "internalType": "string",
          "name": "description",
          "type": "string"
        },
        {
          "internalType": "enum BlazeGovernance.ProposalType",
          "name": "proposalType",
          "type": "uint8"
        },
        {
          "internalType": "uint256",
          "name": "forVotes",
          "type": "uint256"
        },
        {
          "internalType": "uint256",
          "name": "againstVotes",
          "type": "uint256"
        },
        {
          "internalType": "uint256",
          "name": "startTime",
          "type": "uint256"
        },
        {
          "internalType": "uint256",
          "name": "endTime",
          "type": "uint256"
        },
        {
          "internalType": "bool",
          "name": "executed",
          "type": "bool"
        },
        {
          "internalType": "bool",
          "name": "cancelled",
          "type": "bool"
        },
        {
          "internalType": "enum BlazeGovernance.ProposalState",
          "name": "state",
          "type": "uint8"
        }
      ],
      "stateMutability": "view",
      "type": "function"
    },
    {
      "inputs": [
        {
          "internalType": "uint256",
          "name": "_proposalId",
          "type": "uint256"
        }
      ],
      "name": "getProposalState",
      "outputs": [
        {
          "internalType": "enum BlazeGovernance.ProposalState",
          "name": "",
          "type": "uint8"
        }
      ],
      "stateMutability": "view",
      "type": "function"
    },
    {
      "inputs": [
        {
          "internalType": "address",
          "name": "_user",
          "type": "address"
        }
      ],
      "name": "getUserProposals",
      "outputs": [
        {
          "internalType": "uint256[]",
          "name": "",
          "type": "uint256[]"
        }
      ],
      "stateMutability": "view",
      "type": "function"
    },
    {
      "inputs": [
        {
          "internalType": "uint256",
          "name": "_proposalId",
          "type": "uint256"
        },
        {
          "internalType": "address",
          "name": "_voter",
          "type": "address"
        }
      ],
      "name": "getUserVote",
      "outputs": [
        {
          "internalType": "uint256",
          "name": "",
          "type": "uint256"
        }
      ],
      "stateMutability": "view",
      "type": "function"
    },
    {
      "inputs": [
        {
          "internalType": "address",
          "name": "_voter",
          "type": "address"
        }
      ],
      "name": "getVotingPower",
      "outputs": [
        {
          "internalType": "uint256",
          "name": "",
          "type": "uint256"
        }
      ],
      "stateMutability": "view",
      "type": "function"
    },
    {
      "inputs": [
        {
          "internalType": "uint256",
          "name": "_proposalId",
          "type": "uint256"
        },
        {
          "internalType": "address",
          "name": "_voter",
          "type": "address"
        }
      ],
      "name": "hasVoted",
      "outputs": [
        {
          "internalType": "bool",
          "name": "",
          "type": "bool"
        }
      ],
      "stateMutability": "view",
      "type": "function"
    },
    {
      "inputs": [],
      "name": "owner",
      "outputs": [
        {
          "internalType": "address",
          "name": "",
          "type": "address"
        }
      ],
      "stateMutability": "view",
      "type": "function"
    },
    {
      "inputs": [],
      "name": "proposalCount",
      "outputs": [
        {
          "internalType": "uint256",
          "name": "",
          "type": "uint256"
        }
      ],
      "stateMutability": "view",
      "type": "function"
    },
    {
      "inputs": [
        {
          "internalType": "uint256",
          "name": "",
          "type": "uint256"
        }
      ],
      "name": "proposals",
      "outputs": [
        {
          "internalType": "uint256",
          "name": "id",
          "type": "uint256"
        },
        {
          "internalType": "address",
          "name": "proposer",
          "type": "address"
        },
        {
          "internalType": "string",
          "name": "title",
          "type": "string"
        },
        {
          "internalType": "string",
          "name": "description",
          "type": "string"
        },
        {
          "internalType": "enum BlazeGovernance.ProposalType",
          "name": "proposalType",
          "type": "uint8"
        },
        {
          "internalType": "uint256",
          "name": "forVotes",
          "type": "uint256"
        },
        {
          "internalType": "uint256",
          "name": "againstVotes",
          "type": "uint256"
        },
        {
          "internalType": "uint256",
          "name": "startTime",
          "type": "uint256"
        },
        {
          "internalType": "uint256",
          "name": "endTime",
          "type": "uint256"
        },
        {
          "internalType": "bool",
          "name": "executed",
          "type": "bool"
        },
        {
          "internalType": "bool",
          "name": "cancelled",
          "type": "bool"
        }
      ],
      "stateMutability": "view",
      "type": "function"
    },
    {
      "inputs": [],
      "name": "renounceOwnership",
      "outputs": [],
      "stateMutability": "nonpayable",
      "type": "function"
    },
    {
      "inputs": [
        {
          "internalType": "address",
          "name": "newOwner",
          "type": "address"
        }
      ],
      "name": "transferOwnership",
      "outputs": [],
      "stateMutability": "nonpayable",
      "type": "function"
    },
    {
      "inputs": [
        {
          "internalType": "address",
          "name": "",
          "type": "address"
        },
        {
          "internalType": "uint256",
          "name": "",
          "type": "uint256"
        }
      ],
      "name": "userProposals",
      "outputs": [
        {
          "internalType": "uint256",
          "name": "",
          "type": "uint256"
        }
      ],
      "stateMutability": "view",
      "type": "function"
    },
    {
      "inputs": [
        {
          "internalType": "uint256",
          "name": "_proposalId",
          "type": "uint256"
        },
        {
          "internalType": "bool",
          "name": "_support",
          "type": "bool"
        }
      ],
      "name": "vote",
      "outputs": [],
      "stateMutability": "nonpayable",
      "type": "function"
    }
  ],
  "bytecode": "0x60803461011657601f61178138819003918201601f19168301916001600160401b0383118484101761011b5780849260209460405283398101031261011657516001600160a01b03808216918290036101165733156100fd576000549060018060a01b0319913383821617600055604051913391167f8be0079c531659141344cd1fd0a4f28419497f9722a3daafe3b4186f6b6457e0600080a36001805582156100bb5750600254161760025560405161164f90816101328239f35b62461bcd60e51b815260206004820152601560248201527f496e76616c696420746f6b656e206164647265737300000000000000000000006044820152606490fd5b604051631e4fbdf760e01b815260006004820152602490fd5b600080fd5b634e487b7160e01b600052604160045260246000fdfe6080604052600436101561001257600080fd5b60003560e01c8063013cf08b1461115557806303c7881a1461110a5780630d61b51914610f555780631b31527f14610efd57806337f135d714610edf57806338e3341f14610eb65780634385963214610e66578063715018a614610e0d57806378ef113814610d595780638da5cb5b14610d305780639080936f14610d03578063a6c2660314610cde578063b1610d7e14610cc0578063bb4d443614610c34578063c7f758a814610b16578063c9d27afe14610861578063da35c66414610843578063e0a8f6f514610717578063eccc51fd146101b2578063ee8a7c15146101965763f2fde38b1461010357600080fd5b346101915760203660031901126101915761011c61139e565b610124611446565b6001600160a01b0390811690811561017857600054826bffffffffffffffffffffffff60a01b821617600055167f8be0079c531659141344cd1fd0a4f28419497f9722a3daafe3b4186f6b6457e0600080a3005b604051631e4fbdf760e01b815260006004820152602490fd5b600080fd5b3461019157600036600319011261019157602060405160338152f35b346101915760603660031901126101915760043567ffffffffffffffff8111610191576101e39036906004016113ef565b60243567ffffffffffffffff8111610191576102039036906004016113ef565b90600460443510156101915761021761147f565b8051156106da57815115610695576002546040516370a0823160e01b815233600482015290602090829060249082906001600160a01b03165afa80156106895760009061064d575b69021e19e0c9bab2400000915010610608576003546000198114610472576001810160035560018101600052600460205260406000209160018201835560018301336bffffffffffffffffffffffff60a01b825416179055805167ffffffffffffffff811161045c576102d56002850154611239565b601f81116105c1575b50806020601f821160011461055457600091610549575b508160011b916000199060031b1c19161760028401555b835167ffffffffffffffff811161045c5761032a6003850154611239565b601f8111610502575b506020601f8211600114610493578192939495600092610488575b50508160011b916000199060031b1c19161760038401555b6004830160ff1981541660ff60443516179055600783019242845562093a8042019081421161047257806008600992019283550161ffff1981541690553360005260056020526040600020938454946801000000000000000086101561045c57856103d89160016020980181556113b4565b81549060031b9060018701821b91600019901b19161790555490546104086040519360808552608085019061133b565b9161041786850160443561137b565b604084015260608301527ffd3a4372829eebfa1fcdd5a6e4bbbeb5b140261c36928520367a19665a17a99633928060018601930390a360018055600160405191018152f35b634e487b7160e01b600052604160045260246000fd5b634e487b7160e01b600052601160045260246000fd5b01519050858061034e565b6003850160005260206000209060005b601f19841681106104ea575060019394959683601f198116106104d1575b505050811b016003840155610366565b015160001960f88460031b161c191690558580806104c1565b9091602060018192858b0151815501930191016104a3565b600385016000526020600020601f830160051c810160208410610542575b601f830160051c82018110610536575050610333565b60008155600101610520565b5080610520565b9050820151866102f5565b91506002850160005260206000206000925b601f19831684106105a9576001935082601f19811610610590575b5050811b01600284015561030c565b84015160001960f88460031b161c191690558680610581565b84810151825560209384019360019092019101610566565b600285016000526020600020601f830160051c810160208410610601575b601f830160051c820181106105f55750506102de565b600081556001016105df565b50806105df565b60405162461bcd60e51b815260206004820152601a60248201527f496e73756666696369656e7420424c415a452062616c616e63650000000000006044820152606490fd5b506020813d602011610681575b8161066760209383611273565b810103126101915769021e19e0c9bab2400000905161025f565b3d915061065a565b6040513d6000823e3d90fd5b60405162461bcd60e51b815260206004820152601b60248201527f4465736372697074696f6e2063616e6e6f7420626520656d70747900000000006044820152606490fd5b60405162461bcd60e51b81526020600482015260156024820152745469746c652063616e6e6f7420626520656d70747960581b6044820152606490fd5b3461019157602036600319011261019157600435806000526004602052604060002081151580610837575b61074b906114a2565b6001810154336001600160a01b0391821614908115610829575b50156107f357600901805461077d60ff821615611522565b60ff8160081c166107ba5761ff0019166101001790557f416e669c63d9a3a5e36ee7cc7e2104b8db28ccd286aa18966e98fa230c73b08c600080a2005b60405162461bcd60e51b8152602060048201526011602482015270105b1c9958591e4818d85b98d95b1b1959607a1b6044820152606490fd5b60405162461bcd60e51b815260206004820152600e60248201526d139bdd08185d5d1a1bdc9a5e995960921b6044820152606490fd5b905060005416331483610765565b50600354821115610742565b34610191576000366003190112610191576020600354604051908152f35b34610191576040366003190112610191576024803580151591600435918381036101915761088d61147f565b826000526020906004825260406000209084151580610b0a575b6108b0906114a2565b60078201544210610ad15760088201544211610a9e57600a82013360005280845260ff60406000205416610a6a57600983015460ff8116610a265760ff6108fb9160081c16156114e1565b6002546040516370a0823160e01b8152336004820152959085908790839082906001600160a01b03165afa958615610689576000966109f7575b5085156109c257503360005283526040600020600160ff19825416179055600b82018352836040600020556000146109ad57600501610975838254611472565b90555b6040519384528301527fcbdf6214089cba887ecbf35a0b6a734589959c9763342c756bb2a80ca2bc9f6e60403393a360018055005b6006016109bb838254611472565b9055610978565b84600f6064926040519262461bcd60e51b845260048401528201526e2737903b37ba34b733903837bbb2b960891b6044820152fd5b9095508481813d8311610a1f575b610a0f8183611273565b8101031261019157519488610935565b503d610a05565b60405162461bcd60e51b8152600481018690526019818801527f50726f706f73616c20616c7265616479206578656375746564000000000000006044820152606490fd5b60405162461bcd60e51b815260048101859052600d818701526c105b1c9958591e481d9bdd1959609a1b6044820152606490fd5b60405162461bcd60e51b815260048101849052600c818601526b159bdd1a5b99c8195b99195960a21b6044820152606490fd5b60405162461bcd60e51b81526004810184905260128186015271159bdd1a5b99c81b9bdd081cdd185c9d195960721b6044820152606490fd5b506003548511156108a7565b346101915760203660031901126101915760043580151580610c28575b610b3c906114a2565b806000526004602052604060002090815490600160a01b6001900360018401541692600481015460ff169160058201546006830154600784015490600885015492600986015494610b8c90611561565b95610b9960028201611295565b90600301610ba690611295565b906040519a8b9a8b5260208b01526101808060408c01528a01610bc89161133b565b89810360608b0152610bd99161133b565b9660808901610be79161137b565b60a088015260c087015260e086015261010085015260ff8116151561012085015260081c60ff1615156101408401526101608301610c24916113e2565b0390f35b50600354811115610b33565b346101915760208060031936011261019157610c4e61139e565b6002546040516370a0823160e01b81526001600160a01b03928316600482015291839183916024918391165afa90811561068957600091610c93575b50604051908152f35b90508181813d8311610cb9575b610caa8183611273565b81010312610191575182610c8a565b503d610ca0565b3461019157600036600319011261019157602060405162093a808152f35b3461019157600036600319011261019157602060405169021e19e0c9bab24000008152f35b34610191576020366003190112610191576020610d21600435611561565b610d2e60405180926113e2565bf35b34610191576000366003190112610191576000546040516001600160a01b039091168152602090f35b3461019157602080600319360112610191576001600160a01b03610d7b61139e565b1660005260058152604060002060405190818382549182815201908192600052846000209060005b86828210610df9578686610db982880383611273565b604051928392818401908285525180915260408401929160005b828110610de257505050500390f35b835185528695509381019392810192600101610dd3565b835485529093019260019283019201610da3565b3461019157600036600319011261019157610e26611446565b600080546001600160a01b0319811682556001600160a01b03167f8be0079c531659141344cd1fd0a4f28419497f9722a3daafe3b4186f6b6457e08280a3005b3461019157604036600319011261019157610e7f611388565b6004356000526004602052600a6040600020019060018060a01b0316600052602052602060ff604060002054166040519015158152f35b34610191576000366003190112610191576002546040516001600160a01b039091168152602090f35b346101915760003660031901126101915760206040516202a3008152f35b3461019157604036600319011261019157610f1661139e565b6001600160a01b031660009081526005602052604090208054602435919082101561019157602091610f47916113b4565b90546040519160031b1c8152f35b3461019157602036600319011261019157600435610f7161147f565b8060005260046020526040600020811515806110fe575b610f91906114a2565b600881015490814211156110c35760090190815490610fb360ff831615611522565b610fc360ff8360081c16156114e1565b610fcc84611561565b60068110156110ad57600303611068576202a30081018091116104725742106110235760ff191660011790557f712ae1383f79ac853f8d882153778e0260ef8f03b504e2866e0593e04d2b291f600080a260018055005b60405162461bcd60e51b815260206004820152601a60248201527f457865637574696f6e2064656c6179206e6f74207061737365640000000000006044820152606490fd5b60405162461bcd60e51b815260206004820152601760248201527f50726f706f73616c206e6f74207375636365737366756c0000000000000000006044820152606490fd5b634e487b7160e01b600052602160045260246000fd5b60405162461bcd60e51b8152602060048201526013602482015272566f74696e67207374696c6c2061637469766560681b6044820152606490fd5b50600354821115610f88565b3461019157604036600319011261019157611123611388565b6004356000526004602052600b6040600020019060018060a01b03166000526020526020604060002054604051908152f35b346101915760203660031901126101915760043560005260046020526020604060002080549060ff60018060a01b0360018301541661119660028401611295565b926111a360038201611295565b93836004830154169460058301546112096111fe6006860154936111f0600788015496600960088a0154990154996040519e8f9e8f908152015260408d61016091829101528d019061133b565b908b820360608d015261133b565b9760808a019061137b565b60a088015260c087015260e0860152610100850152818116151561012085015260081c1615156101408301520390f35b90600182811c92168015611269575b602083101461125357565b634e487b7160e01b600052602260045260246000fd5b91607f1691611248565b90601f8019910116810190811067ffffffffffffffff82111761045c57604052565b90604051918260008254926112a984611239565b90818452600194858116908160001461131857506001146112d5575b50506112d392500383611273565b565b9093915060005260209081600020936000915b8183106113005750506112d3935082010138806112c5565b855488840185015294850194879450918301916112e8565b9150506112d394506020925060ff191682840152151560051b82010138806112c5565b919082519283825260005b848110611367575050826000602080949584010152601f8019910116010190565b602081830181015184830182015201611346565b9060048210156110ad5752565b602435906001600160a01b038216820361019157565b600435906001600160a01b038216820361019157565b80548210156113cc5760005260206000200190600090565b634e487b7160e01b600052603260045260246000fd5b9060068210156110ad5752565b81601f820112156101915780359067ffffffffffffffff821161045c5760405192611424601f8401601f191660200185611273565b8284526020838301011161019157816000926020809301838601378301015290565b6000546001600160a01b0316330361145a57565b60405163118cdaa760e01b8152336004820152602490fd5b9190820180921161047257565b600260015414611490576002600155565b604051633ee5aeb560e01b8152600490fd5b156114a957565b60405162461bcd60e51b815260206004820152601060248201526f125b9d985b1a59081c1c9bdc1bdcd85b60821b6044820152606490fd5b156114e857565b60405162461bcd60e51b8152602060048201526012602482015271141c9bdc1bdcd85b0818d85b98d95b1b195960721b6044820152606490fd5b1561152957565b60405162461bcd60e51b815260206004820152601060248201526f105b1c9958591e48195e1958dd5d195960821b6044820152606490fd5b8015158061160d575b611573906114a2565b60005260046020526040600020600981015460ff8160081c166116065760ff1661160057600781015442106115fa5760088101544211156115f4576115c16006600583015492015482611472565b80156115ed576064820291808304606414901517156104725760339104106115e857600390565b600290565b5050600290565b50600190565b50600090565b50600490565b5050600590565b5060035481111561156a56fea26469706673582212203ec8765809de4a5dfc5575a82c0b68dc27bde46bbeaed6ea3cadcc3f7e336b8564736f6c63430008140033",
  "linkReferences": {},
  "deployedLinkReferences": {}
}