{
  "_format": "hh-sol-artifact-1",
  "contractName": "ArcToken",
  "sourceName": "contracts/ArcToken.sol",
  "abi": [
    {
      "inputs": [
        {
          "internalType": "address",
          "name": "_publicSaleWallet",
          "type": "address"
        },
        {
          "internalType": "address",
          "name": "_founderWallet",
          "type": "address"
        },
        {
          "internalType": "address",
          "name": "_communityWallet",
          "type": "address"
        },
        {
          "internalType": "address",
          "name": "_treasuryWallet",
          "type": "address"
        },
        {
          "internalType": "address",
          "name": "_teamWallet",
          "type": "address"
        },
        {
          "internalType": "address",
          "name": "_strategicWallet",
          "type": "address"
        },
        {
          "internalType": "address",
          "name": "_liquidityWallet",
          "type": "address"
        }
      ],
      "stateMutability": "nonpayable",
      "type": "constructor"
    },
    {
      "inputs": [
        {
          "internalType": "address",
          "name": "spender",
          "type": "address"
        },
        {
          "internalType": "uint256",
          "name": "allowance",
          "type": "uint256"
        },
        {
          "internalType": "uint256",
          "name": "needed",
          "type": "uint256"
        }
      ],
      "name": "ERC20InsufficientAllowance",
      "type": "error"
    },
    {
      "inputs": [
        {
          "internalType": "address",
          "name": "sender",
          "type": "address"
        },
        {
          "internalType": "uint256",
          "name": "balance",
          "type": "uint256"
        },
        {
          "internalType": "uint256",
          "name": "needed",
          "type": "uint256"
        }
      ],
      "name": "ERC20InsufficientBalance",
      "type": "error"
    },
    {
      "inputs": [
        {
          "internalType": "address",
          "name": "approver",
          "type": "address"
        }
      ],
      "name": "ERC20InvalidApprover",
      "type": "error"
    },
    {
      "inputs": [
        {
          "internalType": "address",
          "name": "receiver",
          "type": "address"
        }
      ],
      "name": "ERC20InvalidReceiver",
      "type": "error"
    },
    {
      "inputs": [
        {
          "internalType": "address",
          "name": "sender",
          "type": "address"
        }
      ],
      "name": "ERC20InvalidSender",
      "type": "error"
    },
    {
      "inputs": [
        {
          "internalType": "address",
          "name": "spender",
          "type": "address"
        }
      ],
      "name": "ERC20InvalidSpender",
      "type": "error"
    },
    {
      "inputs": [],
      "name": "EnforcedPause",
      "type": "error"
    },
    {
      "inputs": [],
      "name": "ExpectedPause",
      "type": "error"
    },
    {
      "inputs": [
        {
          "internalType": "address",
          "name": "owner",
          "type": "address"
        }
      ],
      "name": "OwnableInvalidOwner",
      "type": "error"
    },
    {
      "inputs": [
        {
          "internalType": "address",
          "name": "account",
          "type": "address"
        }
      ],
      "name": "OwnableUnauthorizedAccount",
      "type": "error"
    },
    {
      "inputs": [],
      "name": "ReentrancyGuardReentrantCall",
      "type": "error"
    },
    {
      "anonymous": false,
      "inputs": [
        {
          "indexed": true,
          "internalType": "address",
          "name": "owner",
          "type": "address"
        },
        {
          "indexed": true,
          "internalType": "address",
          "name": "spender",
          "type": "address"
        },
        {
          "indexed": false,
          "internalType": "uint256",
          "name": "value",
          "type": "uint256"
        }
      ],
      "name": "Approval",
      "type": "event"
    },
    {
      "anonymous": false,
      "inputs": [
        {
          "indexed": true,
          "internalType": "address",
          "name": "user",
          "type": "address"
        },
        {
          "indexed": false,
          "internalType": "uint256",
          "name": "discount",
          "type": "uint256"
        }
      ],
      "name": "FeeDiscountUpdated",
      "type": "event"
    },
    {
      "anonymous": false,
      "inputs": [
        {
          "indexed": true,
          "internalType": "address",
          "name": "previousOwner",
          "type": "address"
        },
        {
          "indexed": true,
          "internalType": "address",
          "name": "newOwner",
          "type": "address"
        }
      ],
      "name": "OwnershipTransferred",
      "type": "event"
    },
    {
      "anonymous": false,
      "inputs": [
        {
          "indexed": false,
          "internalType": "address",
          "name": "account",
          "type": "address"
        }
      ],
      "name": "Paused",
      "type": "event"
    },
    {
      "anonymous": false,
      "inputs": [
        {
          "indexed": true,
          "internalType": "address",
          "name": "user",
          "type": "address"
        }
      ],
      "name": "PremiumActivated",
      "type": "event"
    },
    {
      "anonymous": false,
      "inputs": [
        {
          "indexed": true,
          "internalType": "address",
          "name": "user",
          "type": "address"
        },
        {
          "indexed": false,
          "internalType": "uint256",
          "name": "reward",
          "type": "uint256"
        }
      ],
      "name": "RewardClaimed",
      "type": "event"
    },
    {
      "anonymous": false,
      "inputs": [
        {
          "indexed": true,
          "internalType": "address",
          "name": "user",
          "type": "address"
        },
        {
          "indexed": false,
          "internalType": "uint256",
          "name": "amount",
          "type": "uint256"
        },
        {
          "indexed": false,
          "internalType": "uint256",
          "name": "lockPeriod",
          "type": "uint256"
        }
      ],
      "name": "Staked",
      "type": "event"
    },
    {
      "anonymous": false,
      "inputs": [
        {
          "indexed": true,
          "internalType": "address",
          "name": "from",
          "type": "address"
        },
        {
          "indexed": false,
          "internalType": "uint256",
          "name": "amount",
          "type": "uint256"
        },
        {
          "indexed": false,
          "internalType": "string",
          "name": "reason",
          "type": "string"
        }
      ],
      "name": "TokensBurned",
      "type": "event"
    },
    {
      "anonymous": false,
      "inputs": [
        {
          "indexed": true,
          "internalType": "address",
          "name": "from",
          "type": "address"
        },
        {
          "indexed": true,
          "internalType": "address",
          "name": "to",
          "type": "address"
        },
        {
          "indexed": false,
          "internalType": "uint256",
          "name": "value",
          "type": "uint256"
        }
      ],
      "name": "Transfer",
      "type": "event"
    },
    {
      "anonymous": false,
      "inputs": [
        {
          "indexed": false,
          "internalType": "address",
          "name": "account",
          "type": "address"
        }
      ],
      "name": "Unpaused",
      "type": "event"
    },
    {
      "anonymous": false,
      "inputs": [
        {
          "indexed": true,
          "internalType": "address",
          "name": "user",
          "type": "address"
        },
        {
          "indexed": false,
          "internalType": "uint256",
          "name": "amount",
          "type": "uint256"
        },
        {
          "indexed": false,
          "internalType": "uint256",
          "name": "reward",
          "type": "uint256"
        }
      ],
      "name": "Unstaked",
      "type": "event"
    },
    {
      "inputs": [],
      "name": "BURN_RATE",
      "outputs": [
        {
          "internalType": "uint256",
          "name": "",
          "type": "uint256"
        }
      ],
      "stateMutability": "view",
      "type": "function"
    },
    {
      "inputs": [],
      "name": "FLEXIBLE_APY",
      "outputs": [
        {
          "internalType": "uint256",
          "name": "",
          "type": "uint256"
        }
      ],
      "stateMutability": "view",
      "type": "function"
    },
    {
      "inputs": [],
      "name": "ONE_YEAR_APY",
      "outputs": [
        {
          "internalType": "uint256",
          "name": "",
          "type": "uint256"
        }
      ],
      "stateMutability": "view",
      "type": "function"
    },
    {
      "inputs": [],
      "name": "PREMIUM_THRESHOLD",
      "outputs": [
        {
          "internalType": "uint256",
          "name": "",
          "type": "uint256"
        }
      ],
      "stateMutability": "view",
      "type": "function"
    },
    {
      "inputs": [],
      "name": "SIX_MONTH_APY",
      "outputs": [
        {
          "internalType": "uint256",
          "name": "",
          "type": "uint256"
        }
      ],
      "stateMutability": "view",
      "type": "function"
    },
    {
      "inputs": [
        {
          "internalType": "address",
          "name": "owner",
          "type": "address"
        },
        {
          "internalType": "address",
          "name": "spender",
          "type": "address"
        }
      ],
      "name": "allowance",
      "outputs": [
        {
          "internalType": "uint256",
          "name": "",
          "type": "uint256"
        }
      ],
      "stateMutability": "view",
      "type": "function"
    },
    {
      "inputs": [
        {
          "internalType": "address",
          "name": "spender",
          "type": "address"
        },
        {
          "internalType": "uint256",
          "name": "value",
          "type": "uint256"
        }
      ],
      "name": "approve",
      "outputs": [
        {
          "internalType": "bool",
          "name": "",
          "type": "bool"
        }
      ],
      "stateMutability": "nonpayable",
      "type": "function"
    },
    {
      "inputs": [
        {
          "internalType": "address",
          "name": "account",
          "type": "address"
        }
      ],
      "name": "balanceOf",
      "outputs": [
        {
          "internalType": "uint256",
          "name": "",
          "type": "uint256"
        }
      ],
      "stateMutability": "view",
      "type": "function"
    },
    {
      "inputs": [
        {
          "internalType": "uint256",
          "name": "value",
          "type": "uint256"
        }
      ],
      "name": "burn",
      "outputs": [],
      "stateMutability": "nonpayable",
      "type": "function"
    },
    {
      "inputs": [
        {
          "internalType": "address",
          "name": "account",
          "type": "address"
        },
        {
          "internalType": "uint256",
          "name": "value",
          "type": "uint256"
        }
      ],
      "name": "burnFrom",
      "outputs": [],
      "stateMutability": "nonpayable",
      "type": "function"
    },
    {
      "inputs": [
        {
          "internalType": "uint256",
          "name": "amount",
          "type": "uint256"
        }
      ],
      "name": "burnFromTreasury",
      "outputs": [],
      "stateMutability": "nonpayable",
      "type": "function"
    },
    {
      "inputs": [
        {
          "internalType": "address",
          "name": "user",
          "type": "address"
        }
      ],
      "name": "calculateReward",
      "outputs": [
        {
          "internalType": "uint256",
          "name": "",
          "type": "uint256"
        }
      ],
      "stateMutability": "view",
      "type": "function"
    },
    {
      "inputs": [],
      "name": "claimRewards",
      "outputs": [],
      "stateMutability": "nonpayable",
      "type": "function"
    },
    {
      "inputs": [],
      "name": "communityWallet",
      "outputs": [
        {
          "internalType": "address",
          "name": "",
          "type": "address"
        }
      ],
      "stateMutability": "view",
      "type": "function"
    },
    {
      "inputs": [],
      "name": "decimals",
      "outputs": [
        {
          "internalType": "uint8",
          "name": "",
          "type": "uint8"
        }
      ],
      "stateMutability": "view",
      "type": "function"
    },
    {
      "inputs": [
        {
          "internalType": "address",
          "name": "",
          "type": "address"
        }
      ],
      "name": "feeDiscounts",
      "outputs": [
        {
          "internalType": "uint256",
          "name": "",
          "type": "uint256"
        }
      ],
      "stateMutability": "view",
      "type": "function"
    },
    {
      "inputs": [],
      "name": "founderWallet",
      "outputs": [
        {
          "internalType": "address",
          "name": "",
          "type": "address"
        }
      ],
      "stateMutability": "view",
      "type": "function"
    },
    {
      "inputs": [
        {
          "internalType": "address",
          "name": "user",
          "type": "address"
        }
      ],
      "name": "getStakeInfo",
      "outputs": [
        {
          "internalType": "uint256",
          "name": "amount",
          "type": "uint256"
        },
        {
          "internalType": "uint256",
          "name": "timestamp",
          "type": "uint256"
        },
        {
          "internalType": "uint256",
          "name": "lockPeriod",
          "type": "uint256"
        },
        {
          "internalType": "uint256",
          "name": "pendingReward",
          "type": "uint256"
        },
        {
          "internalType": "bool",
          "name": "premium",
          "type": "bool"
        },
        {
          "internalType": "uint256",
          "name": "feeDiscount",
          "type": "uint256"
        }
      ],
      "stateMutability": "view",
      "type": "function"
    },
    {
      "inputs": [],
      "name": "getTokenStats",
      "outputs": [
        {
          "internalType": "uint256",
          "name": "circulatingSupply",
          "type": "uint256"
        },
        {
          "internalType": "uint256",
          "name": "burnedSupply",
          "type": "uint256"
        },
        {
          "internalType": "uint256",
          "name": "stakedSupply",
          "type": "uint256"
        },
        {
          "internalType": "uint256",
          "name": "effectiveSupply",
          "type": "uint256"
        }
      ],
      "stateMutability": "view",
      "type": "function"
    },
    {
      "inputs": [
        {
          "internalType": "address",
          "name": "",
          "type": "address"
        }
      ],
      "name": "isPremium",
      "outputs": [
        {
          "internalType": "bool",
          "name": "",
          "type": "bool"
        }
      ],
      "stateMutability": "view",
      "type": "function"
    },
    {
      "inputs": [],
      "name": "liquidityWallet",
      "outputs": [
        {
          "internalType": "address",
          "name": "",
          "type": "address"
        }
      ],
      "stateMutability": "view",
      "type": "function"
    },
    {
      "inputs": [],
      "name": "name",
      "outputs": [
        {
          "internalType": "string",
          "name": "",
          "type": "string"
        }
      ],
      "stateMutability": "view",
      "type": "function"
    },
    {
      "inputs": [],
      "name": "owner",
      "outputs": [
        {
          "internalType": "address",
          "name": "",
          "type": "address"
        }
      ],
      "stateMutability": "view",
      "type": "function"
    },
    {
      "inputs": [],
      "name": "pause",
      "outputs": [],
      "stateMutability": "nonpayable",
      "type": "function"
    },
    {
      "inputs": [],
      "name": "paused",
      "outputs": [
        {
          "internalType": "bool",
          "name": "",
          "type": "bool"
        }
      ],
      "stateMutability": "view",
      "type": "function"
    },
    {
      "inputs": [],
      "name": "publicSaleWallet",
      "outputs": [
        {
          "internalType": "address",
          "name": "",
          "type": "address"
        }
      ],
      "stateMutability": "view",
      "type": "function"
    },
    {
      "inputs": [],
      "name": "renounceOwnership",
      "outputs": [],
      "stateMutability": "nonpayable",
      "type": "function"
    },
    {
      "inputs": [
        {
          "internalType": "uint256",
          "name": "amount",
          "type": "uint256"
        },
        {
          "internalType": "uint256",
          "name": "lockPeriod",
          "type": "uint256"
        }
      ],
      "name": "stake",
      "outputs": [],
      "stateMutability": "nonpayable",
      "type": "function"
    },
    {
      "inputs": [
        {
          "internalType": "address",
          "name": "",
          "type": "address"
        }
      ],
      "name": "stakes",
      "outputs": [
        {
          "internalType": "uint256",
          "name": "amount",
          "type": "uint256"
        },
        {
          "internalType": "uint256",
          "name": "timestamp",
          "type": "uint256"
        },
        {
          "internalType": "uint256",
          "name": "lockPeriod",
          "type": "uint256"
        },
        {
          "internalType": "uint256",
          "name": "rewardDebt",
          "type": "uint256"
        }
      ],
      "stateMutability": "view",
      "type": "function"
    },
    {
      "inputs": [],
      "name": "strategicWallet",
      "outputs": [
        {
          "internalType": "address",
          "name": "",
          "type": "address"
        }
      ],
      "stateMutability": "view",
      "type": "function"
    },
    {
      "inputs": [],
      "name": "symbol",
      "outputs": [
        {
          "internalType": "string",
          "name": "",
          "type": "string"
        }
      ],
      "stateMutability": "view",
      "type": "function"
    },
    {
      "inputs": [],
      "name": "teamWallet",
      "outputs": [
        {
          "internalType": "address",
          "name": "",
          "type": "address"
        }
      ],
      "stateMutability": "view",
      "type": "function"
    },
    {
      "inputs": [],
      "name": "totalBurned",
      "outputs": [
        {
          "internalType": "uint256",
          "name": "",
          "type": "uint256"
        }
      ],
      "stateMutability": "view",
      "type": "function"
    },
    {
      "inputs": [],
      "name": "totalStaked",
      "outputs": [
        {
          "internalType": "uint256",
          "name": "",
          "type": "uint256"
        }
      ],
      "stateMutability": "view",
      "type": "function"
    },
    {
      "inputs": [],
      "name": "totalSupply",
      "outputs": [
        {
          "internalType": "uint256",
          "name": "",
          "type": "uint256"
        }
      ],
      "stateMutability": "view",
      "type": "function"
    },
    {
      "inputs": [
        {
          "internalType": "address",
          "name": "to",
          "type": "address"
        },
        {
          "internalType": "uint256",
          "name": "value",
          "type": "uint256"
        }
      ],
      "name": "transfer",
      "outputs": [
        {
          "internalType": "bool",
          "name": "",
          "type": "bool"
        }
      ],
      "stateMutability": "nonpayable",
      "type": "function"
    },
    {
      "inputs": [
        {
          "internalType": "address",
          "name": "from",
          "type": "address"
        },
        {
          "internalType": "address",
          "name": "to",
          "type": "address"
        },
        {
          "internalType": "uint256",
          "name": "value",
          "type": "uint256"
        }
      ],
      "name": "transferFrom",
      "outputs": [
        {
          "internalType": "bool",
          "name": "",
          "type": "bool"
        }
      ],
      "stateMutability": "nonpayable",
      "type": "function"
    },
    {
      "inputs": [
        {
          "internalType": "address",
          "name": "newOwner",
          "type": "address"
        }
      ],
      "name": "transferOwnership",
      "outputs": [],
      "stateMutability": "nonpayable",
      "type": "function"
    },
    {
      "inputs": [],
      "name": "treasuryWallet",
      "outputs": [
        {
          "internalType": "address",
          "name": "",
          "type": "address"
        }
      ],
      "stateMutability": "view",
      "type": "function"
    },
    {
      "inputs": [],
      "name": "unpause",
      "outputs": [],
      "stateMutability": "nonpayable",
      "type": "function"
    },
    {
      "inputs": [],
      "name": "unstake",
      "outputs": [],
      "stateMutability": "nonpayable",
      "type": "function"
    }
  ],
  "bytecode": "0x6080346200080c57601f6200259c38819003918201601f19168301916001600160401b03831184841017620006de5780849260e0946040528339810103126200080c576200004d8162000831565b6200005b6020830162000831565b916200006a6040820162000831565b92620000796060830162000831565b91620000886080820162000831565b91620000a560c06200009d60a0850162000831565b930162000831565b95620000b062000811565b600981526820b931902a37b5b2b760b91b6020820152620000d062000811565b600381526241524360e81b6020820152815190916001600160401b038211620006de5760035490600182811c9216801562000801575b6020831014620006bd5781601f8493116200078f575b50602090601f83116001146200070057600092620006f4575b50508160011b916000199060031b1c1916176003555b8051906001600160401b038211620006de5760045490600182811c92168015620006d3575b6020831014620006bd5781601f8493116200064b575b50602090601f8311600114620005c057600092620005b4575b50508160011b916000199060031b1c1916176004555b33156200059b5760058054610100600160a81b0319811633600881811b610100600160a81b0316929092179093556040516001600160a01b039a90949093909290911c8a167f8be0079c531659141344cd1fd0a4f28419497f9722a3daafe3b4186f6b6457e0600080a3600160065588881692831562000559575088841690811562000514578916978815620004cf578988169384156200048a578a881696871562000445578b169a8b1562000400578416908115620003bb57620002d397620002cd96620002cd9560018060a01b0319938460075416176007558360085416176008558c83600954161760095582600a541617600a5581600b541617600b558b81600c541617600c55600d541617600d5562000846565b620008c6565b60ff60055416620003a957600254916aa56fa5b99019a5c80000009081840180941162000393576020946000620002cd936200033c96600255828252818852604082208181540190556040519081526000805160206200257c833981519152978891a362000846565b60ff60055416620003a957600254906a295be96e6406697200000091828101809111620003935760009260209160025584845283825260408420818154019055604051908152a3604051611c4e90816200092e8239f35b634e487b7160e01b600052601160045260246000fd5b60405163d93c066560e01b8152600490fd5b60405162461bcd60e51b815260206004820152601860248201527f496e76616c6964206c69717569646974792077616c6c657400000000000000006044820152606490fd5b60405162461bcd60e51b815260206004820152601860248201527f496e76616c6964207374726174656769632077616c6c657400000000000000006044820152606490fd5b60405162461bcd60e51b815260206004820152601360248201527f496e76616c6964207465616d2077616c6c6574000000000000000000000000006044820152606490fd5b60405162461bcd60e51b815260206004820152601760248201527f496e76616c69642074726561737572792077616c6c65740000000000000000006044820152606490fd5b60405162461bcd60e51b815260206004820152601860248201527f496e76616c696420636f6d6d756e6974792077616c6c657400000000000000006044820152606490fd5b60405162461bcd60e51b815260206004820152601660248201527f496e76616c696420666f756e6465722077616c6c6574000000000000000000006044820152606490fd5b62461bcd60e51b815260206004820152601a60248201527f496e76616c6964207075626c69632073616c652077616c6c65740000000000006044820152606490fd5b604051631e4fbdf760e01b815260006004820152602490fd5b0151905038806200019f565b600460009081527f8a35acfbc15ff81a39ae7d344fd709f28e8600b4aa8c65c6b64bfe7fe36bd19b9350601f198516905b81811062000632575090846001959493921062000618575b505050811b01600455620001b5565b015160001960f88460031b161c1916905538808062000609565b92936020600181928786015181550195019301620005f1565b60046000529091507f8a35acfbc15ff81a39ae7d344fd709f28e8600b4aa8c65c6b64bfe7fe36bd19b601f840160051c810160208510620006b5575b90849392915b601f830160051c82018110620006a557505062000186565b600081558594506001016200068d565b508062000687565b634e487b7160e01b600052602260045260246000fd5b91607f169162000170565b634e487b7160e01b600052604160045260246000fd5b01519050388062000135565b6003600090815293507fc2575a0e9e593c00f959f8c92f12db2869c3395a3b0502d05e2516446f71f85b91905b601f198416851062000773576001945083601f1981161062000759575b505050811b016003556200014b565b015160001960f88460031b161c191690553880806200074a565b818101518355602094850194600190930192909101906200072d565b60036000529091507fc2575a0e9e593c00f959f8c92f12db2869c3395a3b0502d05e2516446f71f85b601f840160051c810160208510620007f9575b90849392915b601f830160051c82018110620007e95750506200011c565b60008155859450600101620007d1565b5080620007cb565b91607f169162000106565b600080fd5b60408051919082016001600160401b03811183821017620006de57604052565b51906001600160a01b03821682036200080c57565b6001600160a01b03168015620008ad5760ff60055416620003a9576002546a7c13bc4b2c133c56000000808201809211620003935760206000805160206200257c8339815191529160009360025584845283825260408420818154019055604051908152a3565b60405163ec442f0560e01b815260006004820152602490fd5b6001600160a01b03168015620008ad5760ff60055416620003a9576002546a52b7d2dcc80cd2e4000000808201809211620003935760206000805160206200257c8339815191529160009360025584845283825260408420818154019055604051908152a356fe608060408181526004918236101561001657600080fd5b600092833560e01c918263040a4f42146111685750816306fdde031461107357816308014d8b14611056578163095ea7b314610fac578163097cd9bf14610f6057816316934fc414610ef857816318160ddd14610ed957816323b872dd14610e9c5781632def662014610d10578163313ce56714610cf4578163372500ab14610cca578163373c619314610cad5781633f4ba83a14610c4357816342966c6814610c255781634626402b14610bfc5781635992704414610bd35781635c975abb14610baf5781635f9d990914610ac057816363546f0c14610aa35781636cb1359514610a7a57816370a0823114610a43578163715018a6146109e2578163742fe0d4146109a457816379cc67901461096e5781637b0472f014610681578163817b1cd2146106625781638456cb59146106075781638922e021146105de5781638da5cb5b146105b157816395d89b41146104ae5781639af01c2d1461048a578163a23d3c3514610461578163a9059cbb14610430578163c34531531461038e578163c757483914610365578163d46980161461033c578163d82e39621461030f578163d89135cd146102f0578163dd62ed3e146102a7578163f2fde38b14610206575063f846a885146101e857600080fd5b3461020257816003193601126102025760209051600a8152f35b5080fd5b9050346102a35760203660031901126102a35761022161119c565b610229611216565b6001600160a01b0381811693909290841561028d57505060058054610100600160a81b03198116600893841b610100600160a81b031617909155901c167f8be0079c531659141344cd1fd0a4f28419497f9722a3daafe3b4186f6b6457e08380a380f35b51631e4fbdf760e01b8152908101859052602490fd5b8280fd5b505034610202578060031936011261020257806020926102c561119c565b6102cd6111b7565b6001600160a01b0391821683526001865283832091168252845220549051908152f35b505034610202578160031936011261020257602090600e549051908152f35b5050346102025760203660031901126102025760209061033561033061119c565b61151e565b9051908152f35b505034610202578160031936011261020257600d5490516001600160a01b039091168152602090f35b50503461020257816003193601126102025760095490516001600160a01b039091168152602090f35b505034610202576020806003193601126102a35760c0926103ad61119c565b9260018060a01b03841690818352600f84528083209080516103ce81611245565b6103fb8354978883526001850154928389820152606060036002880154978888850152015491015261151e565b938552601286528160ff81872054169560118852205495825197885287015285015260608401521515608083015260a0820152f35b50503461020257806003193601126102025760209061045a61045061119c565b6024359033611299565b5160018152f35b50503461020257816003193601126102025760085490516001600160a01b039091168152602090f35b50503461020257816003193601126102025760209051683635c9adc5dea000008152f35b838334610202578160031936011261020257805191809380549160019083821c928285169485156105a7575b6020958686108114610594578589529081156105705750600114610518575b610514878761050a828c0383611277565b51918291826111cd565b0390f35b81529295507f8a35acfbc15ff81a39ae7d344fd709f28e8600b4aa8c65c6b64bfe7fe36bd19b5b82841061055d57505050826105149461050a928201019486806104f9565b805486850188015292860192810161053f565b60ff19168887015250505050151560051b830101925061050a8261051486806104f9565b634e487b7160e01b845260228352602484fd5b93607f16936104da565b505034610202578160031936011261020257600554905160089190911c6001600160a01b03168152602090f35b505034610202578160031936011261020257600c5490516001600160a01b039091168152602090f35b50503461020257816003193601126102025760207f62e78cea01bee320cd4e420270b5ea74000d11b0c9f74754ebdbfc544b05a25891610645611216565b61064d611411565b600160ff19600554161760055551338152a180f35b5050346102025781600319360112610202576020906010549051908152f35b8383346102025780600319360112610202578235906024356106a161142f565b6106a9611411565b8215610933578015808015610929575b801561091e575b156108e5573385526020908582528484872054106108ab57338652600f908183528487205461089d575b6106f5863033611299565b3387528183528487206107098782546113db565b9055338752818352426001868920015562015180908185029185830414171561088a577f1449c6dd7851abc30abf37f57715f492010519147cc2652fbc38202c18a6ee90959697503388528183526002858920015561076a866010546113db565b601055338752808252683635c9adc5dea00000908185892054101580610878575b61083c575b82528387205469152d02c7e14af680000081106107f3575050611d4c5b60118252808488205583519081527f8c8213355f8c4b06cfd938d2a83ec5b9d1f2ef7af5d62a51a06e8e229c1fdc59823392a282519485528401523392a2600160065580f35b690a968163f0a57b400000811061080e5750506113886107ad565b69021e19e0c9bab240000081106108295750506109c46107ad565b10610836576103e86107ad565b856107ad565b60128352848820805460ff19166001179055337faa8ccf229bb4a5182c5122d8450416e8ae3b78f457eebea8b2028be23f6d5ab18980a2610790565b506012835260ff85892054161561078b565b634e487b7160e01b875260118852602487fd5b6108a63361145f565b6106ea565b835162461bcd60e51b81528088018390526014602482015273496e73756666696369656e742062616c616e636560601b6044820152606490fd5b825162461bcd60e51b81526020818801526013602482015272125b9d985b1a59081b1bd8dac81c195c9a5bd9606a1b6044820152606490fd5b5061016d82146106c0565b5060b482146106b9565b815162461bcd60e51b8152602081870152601560248201527443616e6e6f74207374616b65203020746f6b656e7360581b6044820152606490fd5b505034610202573660031901126109a15761099e61098a61119c565b602435906109998233836112ef565b6113c2565b80f35b80fd5b5050346102025760203660031901126102025760209160ff9082906001600160a01b036109cf61119c565b1681526012855220541690519015158152f35b83346109a157806003193601126109a1576109fb611216565b60058054610100600160a81b03198116909155819060081c6001600160a01b03167f8be0079c531659141344cd1fd0a4f28419497f9722a3daafe3b4186f6b6457e08280a380f35b5050346102025760203660031901126102025760209181906001600160a01b03610a6b61119c565b16815280845220549051908152f35b50503461020257816003193601126102025760075490516001600160a01b039091168152602090f35b505034610202578160031936011261020257602090516103208152f35b9050346102a35760203660031901126102a357803590610ade611216565b8115610b6c575060807ffad31924d655455395c87544c8aa1ffdb5a7505a22a3c2e03f28003b6556a75f91601760018060a01b03610b208382600a54166113c2565b610b2c83600e546113db565b600e55600a54169480519283528060208401528201527f5472656173757279206275796261636b2026206275726e0000000000000000006060820152a280f35b606490602084519162461bcd60e51b8352820152601d60248201527f416d6f756e74206d7573742062652067726561746572207468616e20300000006044820152fd5b50503461020257816003193601126102025760209060ff6005541690519015158152f35b505034610202578160031936011261020257600b5490516001600160a01b039091168152602090f35b505034610202578160031936011261020257600a5490516001600160a01b039091168152602090f35b8390346102025760203660031901126102025761099e9035336113c2565b9050346102a357826003193601126102a357610c5d611216565b6005549060ff821615610c9f575060ff1916600555513381527f5db9ee0a495bf2e6ff9c91a7834c1ba4fdd244a5e8aa4e537bd38aeae4b073aa90602090a180f35b8251638dfc202b60e01b8152fd5b505034610202578160031936011261020257602090516105dc8152f35b83346109a157806003193601126109a157610ce361142f565b610cec3361145f565b600160065580f35b5050346102025781600319360112610202576020905160128152f35b838334610202578160031936011261020257610d2a61142f565b338252602090600f825280832093815194610d4486611245565b80548087526001820154908588019182526003600284015493868a019485520154606089015215610e6857519051610d7b916113db565b4210610e3157507f7fc4727e062e336010f2c282598ef5f14facb3de68cf8195c2f23e1454b2b74e9084610dae3361151e565b90610e0f610dbd8383516113db565b610dca8351601054611452565b601055338852600f8752876003868220828155826001820155826002820155015560128752848820805460ff8116610e24575b50506011875287858120553330611299565b519382519485528401523392a2600160065580f35b60ff191690558880610dfd565b82606492519162461bcd60e51b83528201526013602482015272151bdad95b9cc81cdd1a5b1b081b1bd8dad959606a1b6044820152fd5b835162461bcd60e51b8152808401869052600e60248201526d139bc81cdd185ad948199bdd5b9960921b6044820152606490fd5b5050346102025760603660031901126102025760209061045a610ebd61119c565b610ec56111b7565b60443591610ed48333836112ef565b611299565b5050346102025781600319360112610202576020906002549051908152f35b505034610202576020366003190112610202579081906001600160a01b03610f1e61119c565b168152600f6020522090610514825491600184015493600360028201549101549151948594859094939260609260808301968352602083015260408201520152565b8284346109a157806003193601126109a15750600254610514600e5492601054610f8a8585611452565b9151948594859094939260609260808301968352602083015260408201520152565b9050346102a357816003193601126102a357610fc661119c565b60243590331561103f576001600160a01b031691821561102857508083602095338152600187528181208582528752205582519081527f8c5be1e5ebec7d5bd14f71427d1e84f3dd0314c0f7b2291e5b200ac8c7c3b925843392a35160018152f35b8351634a1406b160e11b8152908101859052602490fd5b835163e602df0560e01b8152808401869052602490fd5b505034610202578160031936011261020257602090516107d08152f35b919050346102a357826003193601126102a357805191836003549060019082821c92828116801561115e575b602095868610821461114b575084885290811561112957506001146110d0575b610514868661050a828b0383611277565b929550600383527fc2575a0e9e593c00f959f8c92f12db2869c3395a3b0502d05e2516446f71f85b5b82841061111657505050826105149461050a9282010194386110bf565b80548685018801529286019281016110f9565b60ff191687860152505050151560051b830101925061050a82610514386110bf565b634e487b7160e01b845260229052602483fd5b93607f169361109f565b849084346102a35760203660031901126102a3576020926001600160a01b0361118f61119c565b1681526011845220548152f35b600435906001600160a01b03821682036111b257565b600080fd5b602435906001600160a01b03821682036111b257565b6020808252825181830181905290939260005b82811061120257505060409293506000838284010152601f8019910116010190565b8181018601518482016040015285016111e0565b60055460081c6001600160a01b0316330361122d57565b60405163118cdaa760e01b8152336004820152602490fd5b6080810190811067ffffffffffffffff82111761126157604052565b634e487b7160e01b600052604160045260246000fd5b90601f8019910116810190811067ffffffffffffffff82111761126157604052565b91906001600160a01b03808416156112d6578116156112bd576112bb926118cf565b565b60405163ec442f0560e01b815260006004820152602490fd5b604051634b637e8f60e11b815260006004820152602490fd5b9160018060a01b03809316916000938385526001602052604093848620918316918287526020528486205492600019841061132e575b50505050505050565b8484106113925750801561137a57811561136257855260016020528385209085526020520391205538808080808080611325565b8451634a1406b160e11b815260048101879052602490fd5b845163e602df0560e01b815260048101879052602490fd5b8551637dc7a0d960e11b81526001600160a01b039190911660048201526024810184905260448101859052606490fd5b906001600160a01b038216156112d6576112bb916115ce565b919082018092116113e857565b634e487b7160e01b600052601160045260246000fd5b818102929181159184041417156113e857565b60ff6005541661141d57565b60405163d93c066560e01b8152600490fd5b600260065414611440576002600655565b604051633ee5aeb560e01b8152600490fd5b919082039182116113e857565b6114688161151e565b80156114e3576020816114da7f106f923f993c2149d49b4255ff723acafa1f2d94393f561d3eda32ae348f72419360018060a01b03958681169687600052600f865260036040600020016114bd8482546113db565b905587600052600f86524260016040600020015560095416611299565b604051908152a2565b60405162461bcd60e51b81526020600482015260136024820152724e6f207265776172647320746f20636c61696d60681b6044820152606490fd5b60018060a01b0316600052600f602052604060002060405161153f81611245565b815491828252600181015492836020840152600360028301549260408501938452015460608401521561159d576115946115999261158d61158664496cebb8009642611452565b93516115a5565b90516113fe565b6113fe565b0490565b505050600090565b6301e133808110156115c75762ed4e0011156115c15761032090565b6105dc90565b506107d090565b9091906001600160a01b038082169190821590819081156118c6575b81156118bc575b81156118b3575b81156118a5575b8115611898575b501580611890575b6116c9575b61161b611411565b156116575750600080516020611bf9833981519152602084611642600095966002546113db565b6002555b8060025403600255604051908152a3565b92600082815280602052604081205494828610611698575081816040600080516020611bf98339815191529460009798876020965283865203912055611646565b60405163391434e360e21b81526001600160a01b039190911660048201526024810186905260448101839052606490fd5b600a8502858104600a14861517156113e8576127109004806116eb5750611613565b948394956116fa949394611411565b821561182b5760209394611710826002546113db565b6002555b6117a0600292808454038455604094855182815260009a8b91600080516020611bf98339815191529a8b91a361174c82600e546113db565b600e55887ffad31924d655455395c87544c8aa1ffdb5a7505a22a3c2e03f28003b6556a75f60808851858152896020820152600d8a8201526c2a3930b739b332b910313ab93760991b6060820152a2611452565b936117a9611411565b156117cf575090816117bf8460209594546113db565b81555b82815403905551908152a3565b8587528660205282872054908482106117fa57509083602094939287895288865203828820556117c2565b835163391434e360e21b81526001600160a01b03919091166004820152602481019190915260448101849052606490fd5b91939092506000858152806020526040812054838110611860579181604085602097958a809a98965283895203912055611714565b60405163391434e360e21b81526001600160a01b0384166004820152602481019190915260448101849052606490fd5b50600161160e565b9050600d54161538611606565b600d548116851491506115ff565b301591506115f8565b30851491506115f1565b600191506115ea565b6001600160a01b038082169290918315808015611bee575b8015611be5575b8015611bda575b8015611bcd575b8015611bbe575b1580611bb6575b6119e2575b611917611411565b156119715750600080516020611bf98339815191529160209161193c866002546113db565b6002555b1693846119595780600254036002555b604051908152a3565b84600052600082526040600020818154019055611950565b600090848252816020526040822054908682106119b05750918160408760209588600080516020611bf983398151915298965283875203912055611940565b60405163391434e360e21b81526001600160a01b03919091166004820152602481019190915260448101869052606490fd5b600a8602868104600a14871517156113e857612710900480611a04575061190f565b9593909192611a11611411565b8215611b5d57611a23876002546113db565b6002555b60029087825403825560409283918251968a8852611ab960009b600080516020611bf98339815191529a8d8d8d6020809ea3611a6582600e546113db565b600e558c7ffad31924d655455395c87544c8aa1ffdb5a7505a22a3c2e03f28003b6556a75f60808d8a805191878352820152600d8b8201526c2a3930b739b332b910313ab93760991b6060820152a2611452565b96611ac2611411565b15611b005750611ad38685546113db565b84555b169788611aed5750508281540390555b51908152a3565b8881528086522080548401905550611ae6565b90919250888a52898752848a205490868210611b2c575090858593928a8c528b895203838b2055611ad6565b855163391434e360e21b81526001600160a01b03919091166004820152602481019190915260448101869052606490fd5b6000868152806020526040812054888110611b8657886040918984528360205203912055611a27565b60405163391434e360e21b81526001600160a01b0387166004820152602481019190915260448101899052606490fd5b50600161190a565b5083600d541684841614611903565b5083600d541685146118fc565b5030848416146118f5565b503085146118ee565b50838316156118e756feddf252ad1be2c89b69c2b068fc378daa952ba7f163c4a11628f55a4df523b3efa2646970667358221220c8dcb70f4d505b64362fa0a29eae3583dd7c6831d985c980d5b39a61ce6b331f64736f6c63430008140033ddf252ad1be2c89b69c2b068fc378daa952ba7f163c4a11628f55a4df523b3ef",
  "linkReferences": {},
  "deployedLinkReferences": {}
}