{"contracts/BlazeTokenV3.sol":{"BlazeTokenV3":{"abi":[{"inputs":[{"internalType":"address","name":"_publicSaleWallet","type":"address"},{"internalType":"address","name":"_founderWallet","type":"address"},{"internalType":"address","name":"_communityWallet","type":"address"},{"internalType":"address","name":"_treasuryWallet","type":"address"},{"internalType":"address","name":"_teamWallet","type":"address"},{"internalType":"address","name":"_strategicWallet","type":"address"},{"internalType":"address","name":"_liquidityWallet","type":"address"}],"stateMutability":"nonpayable","type":"constructor"},{"inputs":[{"internalType":"address","name":"spender","type":"address"},{"internalType":"uint256","name":"allowance","type":"uint256"},{"internalType":"uint256","name":"needed","type":"uint256"}],"name":"ERC20InsufficientAllowance","type":"error"},{"inputs":[{"internalType":"address","name":"sender","type":"address"},{"internalType":"uint256","name":"balance","type":"uint256"},{"internalType":"uint256","name":"needed","type":"uint256"}],"name":"ERC20InsufficientBalance","type":"error"},{"inputs":[{"internalType":"address","name":"approver","type":"address"}],"name":"ERC20InvalidApprover","type":"error"},{"inputs":[{"internalType":"address","name":"receiver","type":"address"}],"name":"ERC20InvalidReceiver","type":"error"},{"inputs":[{"internalType":"address","name":"sender","type":"address"}],"name":"ERC20InvalidSender","type":"error"},{"inputs":[{"internalType":"address","name":"spender","type":"address"}],"name":"ERC20InvalidSpender","type":"error"},{"inputs":[],"name":"EnforcedPause","type":"error"},{"inputs":[],"name":"ExpectedPause","type":"error"},{"inputs":[{"internalType":"address","name":"owner","type":"address"}],"name":"OwnableInvalidOwner","type":"error"},{"inputs":[{"internalType":"address","name":"account","type":"address"}],"name":"OwnableUnauthorizedAccount","type":"error"},{"inputs":[],"name":"ReentrancyGuardReentrantCall","type":"error"},{"anonymous":false,"inputs":[{"indexed":true,"internalType":"address","name":"owner","type":"address"},{"indexed":true,"internalType":"address","name":"spender","type":"address"},{"indexed":false,"internalType":"uint256","name":"value","type":"uint256"}],"name":"Approval","type":"event"},{"anonymous":false,"inputs":[{"indexed":true,"internalType":"address","name":"user","type":"address"},{"indexed":false,"internalType":"uint256","name":"amount","type":"uint256"}],"name":"CashbackPaid","type":"event"},{"anonymous":false,"inputs":[{"indexed":true,"internalType":"address","name":"user","type":"address"},{"indexed":false,"internalType":"bool","name":"status","type":"bool"}],"name":"LaunchpadWhitelistUpdated","type":"event"},{"anonymous":false,"inputs":[{"indexed":true,"internalType":"address","name":"previousOwner","type":"address"},{"indexed":true,"internalType":"address","name":"newOwner","type":"address"}],"name":"OwnershipTransferred","type":"event"},{"anonymous":false,"inputs":[{"indexed":false,"internalType":"address","name":"account","type":"address"}],"name":"Paused","type":"event"},{"anonymous":false,"inputs":[{"indexed":true,"internalType":"address","name":"user","type":"address"}],"name":"PremiumActivated","type":"event"},{"anonymous":false,"inputs":[{"indexed":true,"internalType":"address","name":"user","type":"address"}],"name":"PremiumRevoked","type":"event"},{"anonymous":false,"inputs":[{"indexed":true,"internalType":"uint256","name":"proposalId","type":"uint256"},{"indexed":false,"internalType":"string","name":"description","type":"string"}],"name":"ProposalCreated","type":"event"},{"anonymous":false,"inputs":[{"indexed":true,"internalType":"uint256","name":"proposalId","type":"uint256"}],"name":"ProposalExecuted","type":"event"},{"anonymous":false,"inputs":[{"indexed":true,"internalType":"address","name":"referee","type":"address"},{"indexed":true,"internalType":"address","name":"referrer","type":"address"}],"name":"ReferralRegistered","type":"event"},{"anonymous":false,"inputs":[{"indexed":true,"internalType":"address","name":"referrer","type":"address"},{"indexed":true,"internalType":"address","name":"referee","type":"address"},{"indexed":false,"internalType":"uint256","name":"amount","type":"uint256"}],"name":"ReferralRewardPaid","type":"event"},{"anonymous":false,"inputs":[{"indexed":true,"internalType":"address","name":"user","type":"address"},{"indexed":false,"internalType":"uint256","name":"reward","type":"uint256"}],"name":"RewardClaimed","type":"event"},{"anonymous":false,"inputs":[{"indexed":true,"internalType":"address","name":"user","type":"address"},{"indexed":false,"internalType":"uint256","name":"amount","type":"uint256"},{"indexed":false,"internalType":"uint256","name":"lockPeriod","type":"uint256"}],"name":"Staked","type":"event"},{"anonymous":false,"inputs":[{"indexed":true,"internalType":"address","name":"user","type":"address"},{"indexed":false,"internalType":"uint256","name":"amount","type":"uint256"}],"name":"SwapFeePaid","type":"event"},{"anonymous":false,"inputs":[{"indexed":true,"internalType":"address","name":"from","type":"address"},{"indexed":false,"internalType":"uint256","name":"amount","type":"uint256"},{"indexed":false,"internalType":"string","name":"reason","type":"string"}],"name":"TokensBurned","type":"event"},{"anonymous":false,"inputs":[{"indexed":true,"internalType":"address","name":"from","type":"address"},{"indexed":true,"internalType":"address","name":"to","type":"address"},{"indexed":false,"internalType":"uint256","name":"value","type":"uint256"}],"name":"Transfer","type":"event"},{"anonymous":false,"inputs":[{"indexed":false,"internalType":"address","name":"account","type":"address"}],"name":"Unpaused","type":"event"},{"anonymous":false,"inputs":[{"indexed":true,"internalType":"address","name":"user","type":"address"},{"indexed":false,"internalType":"uint256","name":"amount","type":"uint256"},{"indexed":false,"internalType":"uint256","name":"reward","type":"uint256"}],"name":"Unstaked","type":"event"},{"anonymous":false,"inputs":[{"indexed":true,"internalType":"uint256","name":"proposalId","type":"uint256"},{"indexed":true,"internalType":"address","name":"voter","type":"address"},{"indexed":false,"internalType":"bool","name":"support","type":"bool"},{"indexed":false,"internalType":"uint256","name":"weight","type":"uint256"}],"name":"Voted","type":"event"},{"inputs":[],"name":"BURN_RATE","outputs":[{"internalType":"uint256","name":"","type":"uint256"}],"stateMutability":"view","type":"function"},{"inputs":[],"name":"CASHBACK_RATE","outputs":[{"internalType":"uint256","name":"","type":"uint256"}],"stateMutability":"view","type":"function"},{"inputs":[],"name":"FLEXIBLE_APY","outputs":[{"internalType":"uint256","name":"","type":"uint256"}],"stateMutability":"view","type":"function"},{"inputs":[],"name":"LAUNCHPAD_THRESHOLD","outputs":[{"internalType":"uint256","name":"","type":"uint256"}],"stateMutability":"view","type":"function"},{"inputs":[],"name":"MIN_VOTE_TOKENS","outputs":[{"internalType":"uint256","name":"","type":"uint256"}],"stateMutability":"view","type":"function"},{"inputs":[],"name":"ONE_YEAR_APY","outputs":[{"internalType":"uint256","name":"","type":"uint256"}],"stateMutability":"view","type":"function"},{"inputs":[],"name":"PREMIUM_THRESHOLD","outputs":[{"internalType":"uint256","name":"","type":"uint256"}],"stateMutability":"view","type":"function"},{"inputs":[],"name":"REFERRAL_FEE_SHARE","outputs":[{"internalType":"uint256","name":"","type":"uint256"}],"stateMutability":"view","type":"function"},{"inputs":[],"name":"REFERRAL_REWARD","outputs":[{"internalType":"uint256","name":"","type":"uint256"}],"stateMutability":"view","type":"function"},{"inputs":[],"name":"SIX_MONTH_APY","outputs":[{"internalType":"uint256","name":"","type":"uint256"}],"stateMutability":"view","type":"function"},{"inputs":[],"name":"SWAP_BURN_RATE","outputs":[{"internalType":"uint256","name":"","type":"uint256"}],"stateMutability":"view","type":"function"},{"inputs":[],"name":"VOTING_PERIOD","outputs":[{"internalType":"uint256","name":"","type":"uint256"}],"stateMutability":"view","type":"function"},{"inputs":[{"internalType":"address","name":"owner","type":"address"},{"internalType":"address","name":"spender","type":"address"}],"name":"allowance","outputs":[{"internalType":"uint256","name":"","type":"uint256"}],"stateMutability":"view","type":"function"},{"inputs":[{"internalType":"address","name":"spender","type":"address"},{"internalType":"uint256","name":"value","type":"uint256"}],"name":"approve","outputs":[{"internalType":"bool","name":"","type":"bool"}],"stateMutability":"nonpayable","type":"function"},{"inputs":[{"internalType":"address","name":"account","type":"address"}],"name":"balanceOf","outputs":[{"internalType":"uint256","name":"","type":"uint256"}],"stateMutability":"view","type":"function"},{"inputs":[{"internalType":"uint256","name":"value","type":"uint256"}],"name":"burn","outputs":[],"stateMutability":"nonpayable","type":"function"},{"inputs":[{"internalType":"address","name":"account","type":"address"},{"internalType":"uint256","name":"value","type":"uint256"}],"name":"burnFrom","outputs":[],"stateMutability":"nonpayable","type":"function"},{"inputs":[{"internalType":"uint256","name":"amount","type":"uint256"}],"name":"burnFromTreasury","outputs":[],"stateMutability":"nonpayable","type":"function"},{"inputs":[{"internalType":"address","name":"user","type":"address"}],"name":"calculateReward","outputs":[{"internalType":"uint256","name":"","type":"uint256"}],"stateMutability":"view","type":"function"},{"inputs":[],"name":"claimRewards","outputs":[],"stateMutability":"nonpayable","type":"function"},{"inputs":[],"name":"communityWallet","outputs":[{"internalType":"address","name":"","type":"address"}],"stateMutability":"view","type":"function"},{"inputs":[{"internalType":"string","name":"description","type":"string"}],"name":"createProposal","outputs":[{"internalType":"uint256","name":"","type":"uint256"}],"stateMutability":"nonpayable","type":"function"},{"inputs":[],"name":"decimals","outputs":[{"internalType":"uint8","name":"","type":"uint8"}],"stateMutability":"view","type":"function"},{"inputs":[{"internalType":"uint256","name":"proposalId","type":"uint256"}],"name":"executeProposal","outputs":[],"stateMutability":"nonpayable","type":"function"},{"inputs":[{"internalType":"address","name":"","type":"address"}],"name":"feeDiscounts","outputs":[{"internalType":"uint256","name":"","type":"uint256"}],"stateMutability":"view","type":"function"},{"inputs":[],"name":"founderWallet","outputs":[{"internalType":"address","name":"","type":"address"}],"stateMutability":"view","type":"function"},{"inputs":[{"internalType":"address","name":"user","type":"address"}],"name":"getStakeInfo","outputs":[{"internalType":"uint256","name":"amount","type":"uint256"},{"internalType":"uint256","name":"timestamp","type":"uint256"},{"internalType":"uint256","name":"lockPeriod","type":"uint256"},{"internalType":"uint256","name":"pendingReward","type":"uint256"},{"internalType":"bool","name":"premium","type":"bool"},{"internalType":"uint256","name":"discount","type":"uint256"}],"stateMutability":"view","type":"function"},{"inputs":[],"name":"getTokenStats","outputs":[{"internalType":"uint256","name":"circulatingSupply","type":"uint256"},{"internalType":"uint256","name":"burnedSupply","type":"uint256"},{"internalType":"uint256","name":"stakedSupply","type":"uint256"},{"internalType":"uint256","name":"cashbackDistributed","type":"uint256"}],"stateMutability":"view","type":"function"},{"inputs":[{"internalType":"address","name":"user","type":"address"}],"name":"getUserStats","outputs":[{"internalType":"uint256","name":"totalHoldings","type":"uint256"},{"internalType":"bool","name":"premium","type":"bool"},{"internalType":"bool","name":"launchpadWhitelisted","type":"bool"},{"internalType":"uint256","name":"referrals","type":"uint256"},{"internalType":"uint256","name":"referralEarned","type":"uint256"},{"internalType":"uint256","name":"cashbackEarned","type":"uint256"}],"stateMutability":"view","type":"function"},{"inputs":[{"internalType":"address","name":"","type":"address"}],"name":"isPremium","outputs":[{"internalType":"bool","name":"","type":"bool"}],"stateMutability":"view","type":"function"},{"inputs":[{"internalType":"address","name":"","type":"address"}],"name":"isWhitelistedForLaunchpad","outputs":[{"internalType":"bool","name":"","type":"bool"}],"stateMutability":"view","type":"function"},{"inputs":[],"name":"liquidityWallet","outputs":[{"internalType":"address","name":"","type":"address"}],"stateMutability":"view","type":"function"},{"inputs":[],"name":"name","outputs":[{"internalType":"string","name":"","type":"string"}],"stateMutability":"view","type":"function"},{"inputs":[],"name":"owner","outputs":[{"internalType":"address","name":"","type":"address"}],"stateMutability":"view","type":"function"},{"inputs":[],"name":"pause","outputs":[],"stateMutability":"nonpayable","type":"function"},{"inputs":[],"name":"paused","outputs":[{"internalType":"bool","name":"","type":"bool"}],"stateMutability":"view","type":"function"},{"inputs":[{"internalType":"address","name":"user","type":"address"},{"internalType":"uint256","name":"transactionAmount","type":"uint256"}],"name":"payCashback","outputs":[],"stateMutability":"nonpayable","type":"function"},{"inputs":[{"internalType":"address","name":"user","type":"address"},{"internalType":"uint256","name":"feeAmount","type":"uint256"}],"name":"payReferralFeeShare","outputs":[],"stateMutability":"nonpayable","type":"function"},{"inputs":[{"internalType":"address","name":"","type":"address"}],"name":"premiumSince","outputs":[{"internalType":"uint256","name":"","type":"uint256"}],"stateMutability":"view","type":"function"},{"inputs":[{"internalType":"address","name":"user","type":"address"},{"internalType":"uint256","name":"swapAmount","type":"uint256"}],"name":"processSwapFee","outputs":[{"internalType":"uint256","name":"","type":"uint256"}],"stateMutability":"nonpayable","type":"function"},{"inputs":[],"name":"proposalCount","outputs":[{"internalType":"uint256","name":"","type":"uint256"}],"stateMutability":"view","type":"function"},{"inputs":[{"internalType":"uint256","name":"","type":"uint256"}],"name":"proposals","outputs":[{"internalType":"string","name":"description","type":"string"},{"internalType":"uint256","name":"votesFor","type":"uint256"},{"internalType":"uint256","name":"votesAgainst","type":"uint256"},{"internalType":"uint256","name":"startTime","type":"uint256"},{"internalType":"uint256","name":"endTime","type":"uint256"},{"internalType":"bool","name":"executed","type":"bool"}],"stateMutability":"view","type":"function"},{"inputs":[],"name":"publicSaleWallet","outputs":[{"internalType":"address","name":"","type":"address"}],"stateMutability":"view","type":"function"},{"inputs":[{"internalType":"address","name":"","type":"address"}],"name":"referralCount","outputs":[{"internalType":"uint256","name":"","type":"uint256"}],"stateMutability":"view","type":"function"},{"inputs":[{"internalType":"address","name":"","type":"address"}],"name":"referralEarnings","outputs":[{"internalType":"uint256","name":"","type":"uint256"}],"stateMutability":"view","type":"function"},{"inputs":[{"internalType":"address","name":"","type":"address"}],"name":"referredBy","outputs":[{"internalType":"address","name":"","type":"address"}],"stateMutability":"view","type":"function"},{"inputs":[{"internalType":"address","name":"referrer","type":"address"}],"name":"registerReferral","outputs":[],"stateMutability":"nonpayable","type":"function"},{"inputs":[],"name":"renounceOwnership","outputs":[],"stateMutability":"nonpayable","type":"function"},{"inputs":[{"internalType":"uint256","name":"newRate","type":"uint256"}],"name":"setSwapFeeRate","outputs":[],"stateMutability":"nonpayable","type":"function"},{"inputs":[{"internalType":"uint256","name":"amount","type":"uint256"},{"internalType":"uint256","name":"lockPeriod","type":"uint256"}],"name":"stake","outputs":[],"stateMutability":"nonpayable","type":"function"},{"inputs":[{"internalType":"address","name":"","type":"address"}],"name":"stakes","outputs":[{"internalType":"uint256","name":"amount","type":"uint256"},{"internalType":"uint256","name":"timestamp","type":"uint256"},{"internalType":"uint256","name":"lockPeriod","type":"uint256"},{"internalType":"uint256","name":"rewardDebt","type":"uint256"}],"stateMutability":"view","type":"function"},{"inputs":[],"name":"strategicWallet","outputs":[{"internalType":"address","name":"","type":"address"}],"stateMutability":"view","type":"function"},{"inputs":[],"name":"swapFeeRate","outputs":[{"internalType":"uint256","name":"","type":"uint256"}],"stateMutability":"view","type":"function"},{"inputs":[],"name":"symbol","outputs":[{"internalType":"string","name":"","type":"string"}],"stateMutability":"view","type":"function"},{"inputs":[],"name":"teamWallet","outputs":[{"internalType":"address","name":"","type":"address"}],"stateMutability":"view","type":"function"},{"inputs":[],"name":"totalBurned","outputs":[{"internalType":"uint256","name":"","type":"uint256"}],"stateMutability":"view","type":"function"},{"inputs":[],"name":"totalCashbackDistributed","outputs":[{"internalType":"uint256","name":"","type":"uint256"}],"stateMutability":"view","type":"function"},{"inputs":[{"internalType":"address","name":"","type":"address"}],"name":"totalCashbackEarned","outputs":[{"internalType":"uint256","name":"","type":"uint256"}],"stateMutability":"view","type":"function"},{"inputs":[],"name":"totalStaked","outputs":[{"internalType":"uint256","name":"","type":"uint256"}],"stateMutability":"view","type":"function"},{"inputs":[],"name":"totalSupply","outputs":[{"internalType":"uint256","name":"","type":"uint256"}],"stateMutability":"view","type":"function"},{"inputs":[{"internalType":"address","name":"to","type":"address"},{"internalType":"uint256","name":"value","type":"uint256"}],"name":"transfer","outputs":[{"internalType":"bool","name":"","type":"bool"}],"stateMutability":"nonpayable","type":"function"},{"inputs":[{"internalType":"address","name":"from","type":"address"},{"internalType":"address","name":"to","type":"address"},{"internalType":"uint256","name":"value","type":"uint256"}],"name":"transferFrom","outputs":[{"internalType":"bool","name":"","type":"bool"}],"stateMutability":"nonpayable","type":"function"},{"inputs":[{"internalType":"address","name":"newOwner","type":"address"}],"name":"transferOwnership","outputs":[],"stateMutability":"nonpayable","type":"function"},{"inputs":[],"name":"treasuryWallet","outputs":[{"internalType":"address","name":"","type":"address"}],"stateMutability":"view","type":"function"},{"inputs":[],"name":"unpause","outputs":[],"stateMutability":"nonpayable","type":"function"},{"inputs":[],"name":"unstake","outputs":[],"stateMutability":"nonpayable","type":"function"},{"inputs":[{"internalType":"uint256","name":"proposalId","type":"uint256"},{"internalType":"bool","name":"support","type":"bool"}],"name":"vote","outputs":[],"stateMutability":"nonpayable","type":"function"}],"evm":{"bytecode":{"linkReferences":{},"object":"60806040526032601b553480156200001657600080fd5b50604051620034a4380380620034a483398101604081905262000039916200080b565b336040518060400160405280600b81526020016a213630bd32902a37b5b2b760a91b81525060405180604001604052806005815260200164424c415a4560d81b81525081600390816200008d919062000944565b5060046200009c828262000944565b5050506001600160a01b038116620000cf57604051631e4fbdf760e01b8152600060048201526024015b60405180910390fd5b620000da8162000464565b5060016006556001600160a01b038716620001385760405162461bcd60e51b815260206004820152601a60248201527f496e76616c6964207075626c69632073616c652077616c6c65740000000000006044820152606401620000c6565b6001600160a01b038616620001905760405162461bcd60e51b815260206004820152601660248201527f496e76616c696420666f756e6465722077616c6c6574000000000000000000006044820152606401620000c6565b6001600160a01b038516620001e85760405162461bcd60e51b815260206004820152601860248201527f496e76616c696420636f6d6d756e6974792077616c6c657400000000000000006044820152606401620000c6565b6001600160a01b038416620002405760405162461bcd60e51b815260206004820152601760248201527f496e76616c69642074726561737572792077616c6c65740000000000000000006044820152606401620000c6565b6001600160a01b038316620002985760405162461bcd60e51b815260206004820152601360248201527f496e76616c6964207465616d2077616c6c6574000000000000000000000000006044820152606401620000c6565b6001600160a01b038216620002f05760405162461bcd60e51b815260206004820152601860248201527f496e76616c6964207374726174656769632077616c6c657400000000000000006044820152606401620000c6565b6001600160a01b038116620003485760405162461bcd60e51b815260206004820152601860248201527f496e76616c6964206c69717569646974792077616c6c657400000000000000006044820152606401620000c6565b600780546001600160a01b03199081166001600160a01b038a811691909117909255600880548216898416179055600980548216888416179055600a80548216878416179055600b80548216868416179055600c80548216858416179055600d8054909116918316919091179055620003cd876a7c13bc4b2c133c56000000620004be565b620003e4816a52b7d2dcc80cd2e4000000620004be565b620003fb866a52b7d2dcc80cd2e4000000620004be565b62000412856aa56fa5b99019a5c8000000620004be565b62000429846a7c13bc4b2c133c56000000620004be565b62000440836a52b7d2dcc80cd2e4000000620004be565b62000457826a295be96e64066972000000620004be565b5050505050505062000a95565b600580546001600160a01b03838116610100818102610100600160a81b031985161790945560405193909204169182907f8be0079c531659141344cd1fd0a4f28419497f9722a3daafe3b4186f6b6457e090600090a35050565b6001600160a01b038216620004ea5760405163ec442f0560e01b815260006004820152602401620000c6565b620004f860008383620004fc565b5050565b60006001600160a01b03841615806200051c57506001600160a01b038316155b806200053057506001600160a01b03841630145b806200054457506001600160a01b03831630145b806200055d5750600d546001600160a01b038581169116145b80620005765750600d546001600160a01b038481169116145b90508015801562000585575060015b15620006655760006127106200059d600a8562000a26565b620005a9919062000a46565b905080156200066357620005c08560008362000678565b8060196000828254620005d4919062000a69565b92505081905550846001600160a01b03167ffad31924d655455395c87544c8aa1ffdb5a7505a22a3c2e03f28003b6556a75f826040516200063c918152604060208201819052600d908201526c2a3930b739b332b910313ab93760991b606082015260800190565b60405180910390a26200065c858562000656848762000a7f565b62000678565b5050505050565b505b6200067284848462000678565b50505050565b6200068262000694565b6200068f838383620006bb565b505050565b60055460ff1615620006b95760405163d93c066560e01b815260040160405180910390fd5b565b6001600160a01b038316620006ea578060026000828254620006de919062000a69565b909155506200075e9050565b6001600160a01b038316600090815260208190526040902054818110156200073f5760405163391434e360e21b81526001600160a01b03851660048201526024810182905260448101839052606401620000c6565b6001600160a01b03841660009081526020819052604090209082900390555b6001600160a01b0382166200077c576002805482900390556200079b565b6001600160a01b03821660009081526020819052604090208054820190555b816001600160a01b0316836001600160a01b03167fddf252ad1be2c89b69c2b068fc378daa952ba7f163c4a11628f55a4df523b3ef83604051620007e191815260200190565b60405180910390a3505050565b80516001600160a01b03811681146200080657600080fd5b919050565b600080600080600080600060e0888a0312156200082757600080fd5b6200083288620007ee565b96506200084260208901620007ee565b95506200085260408901620007ee565b94506200086260608901620007ee565b93506200087260808901620007ee565b92506200088260a08901620007ee565b91506200089260c08901620007ee565b905092959891949750929550565b634e487b7160e01b600052604160045260246000fd5b600181811c90821680620008cb57607f821691505b602082108103620008ec57634e487b7160e01b600052602260045260246000fd5b50919050565b601f8211156200068f57600081815260208120601f850160051c810160208610156200091b5750805b601f850160051c820191505b818110156200093c5782815560010162000927565b505050505050565b81516001600160401b03811115620009605762000960620008a0565b6200097881620009718454620008b6565b84620008f2565b602080601f831160018114620009b05760008415620009975750858301515b600019600386901b1c1916600185901b1785556200093c565b600085815260208120601f198616915b82811015620009e157888601518255948401946001909101908401620009c0565b508582101562000a005787850151600019600388901b60f8161c191681555b5050505050600190811b01905550565b634e487b7160e01b600052601160045260246000fd5b808202811582820484141762000a405762000a4062000a10565b92915050565b60008262000a6457634e487b7160e01b600052601260045260246000fd5b500490565b8082018082111562000a405762000a4062000a10565b8181038181111562000a405762000a4062000a10565b6129ff8062000aa56000396000f3fe608060405234801561001057600080fd5b50600436106103f15760003560e01c806373b6f89011610215578063b29f6ef211610125578063d4698016116100b8578063db74559b11610087578063db74559b14610902578063dd62ed3e14610922578063f2fde38b1461095b578063f846a8851461096e578063fa1c3eda1461097657600080fd5b8063d4698016146108ca578063d82e3962146108dd578063d89135cd146108f0578063da35c664146108f957600080fd5b8063c35b7b64116100f4578063c35b7b641461087e578063c757483914610891578063c9d27afe146108a4578063d1154ff0146108b757600080fd5b8063b29f6ef2146107f0578063c07b528a146107f9578063c2b0d16f14610819578063c34531531461083c57600080fd5b80638922e021116101a8578063a1c82b1811610177578063a1c82b181461078f578063a23d3c3514610797578063a9059cbb146107aa578063a90f8e9a146107bd578063b1610d7e146107e657600080fd5b80638922e0211461074d5780638da5cb5b1461076057806395d89b41146107765780639af01c2d1461077e57600080fd5b8063817b1cd2116101e4578063817b1cd21461072457806382d975451461072d5780638456cb591461073557806384a3a0f31461073d57600080fd5b806373b6f890146106d2578063742fe0d4146106db57806379cc6790146106fe5780637b0472f01461071157600080fd5b8063372500ab116103105780634e43603a116102a35780635f9d9909116102725780635f9d99091461068857806363546f0c1461069b5780636cb13595146106a457806370a08231146106b7578063715018a6146106ca57600080fd5b80634e43603a14610614578063599270441461065a5780635c975abb1461066d5780635cb90abe1461067857600080fd5b806342966c68116102df57806342966c68146105a35780634596ce20146105b65780634626402b146105d657806349c2a1a61461060157600080fd5b8063372500ab14610581578063373c6193146105895780633a04801d146105925780633f4ba83a1461059b57600080fd5b80630e614b8c1161038857806323b872dd1161035757806323b872dd146105445780632def662014610557578063313ce5671461055f578063320f01a51461056e57600080fd5b80630e614b8c146104e357806316934fc4146104f457806318160ddd14610529578063209ab7111461053157600080fd5b806308014d8b116103c457806308014d8b1461047a578063095ea7b314610483578063097cd9bf146104a65780630d61b519146104ce57600080fd5b8063013cf08b146103f6578063040a4f42146104245780630653badc1461045257806306fdde0314610465575b600080fd5b61040961040436600461254e565b610996565b60405161041b969594939291906125ad565b60405180910390f35b610444610432366004612607565b601c6020526000908152604090205481565b60405190815260200161041b565b610444610460366004612629565b610a56565b61046d610bee565b60405161041b9190612653565b6104446109c481565b610496610491366004612629565b610c80565b604051901515815260200161041b565b6104ae610c98565b60408051948552602085019390935291830152606082015260800161041b565b6104e16104dc36600461254e565b610cbe565b005b61044469010f0cf064dd5920000081565b6104ae610502366004612607565b600e6020526000908152604090208054600182015460028301546003909301549192909184565b600254610444565b6104e161053f366004612607565b610df0565b610496610552366004612666565b610ff3565b6104e1611017565b6040516012815260200161041b565b6104e161057c366004612629565b6111b8565b6104e161124a565b6104446105dc81565b610444601b5481565b6104e1611265565b6104e16105b136600461254e565b611275565b6104446105c4366004612607565b60116020526000908152604090205481565b600a546105e9906001600160a01b031681565b6040516001600160a01b03909116815260200161041b565b61044461060f3660046126b8565b611282565b610627610622366004612607565b61136c565b604080519687529415156020870152921515938501939093526060840152608083019190915260a082015260c00161041b565b600b546105e9906001600160a01b031681565b60055460ff16610496565b610444683635c9adc5dea0000081565b6104e161069636600461254e565b6113fd565b61044461032081565b6007546105e9906001600160a01b031681565b6104446106c5366004612607565b6114f8565b6104e1611513565b6104446103e881565b6104966106e9366004612607565b60106020526000908152604090205460ff1681565b6104e161070c366004612629565b611525565b6104e161071f366004612769565b61153e565b610444600f5481565b61044460c881565b6104e161172e565b6104446802b5e3af16b188000081565b600c546105e9906001600160a01b031681565b60055461010090046001600160a01b03166105e9565b61046d61173e565b61044469021e19e0c9bab240000081565b610444603281565b6008546105e9906001600160a01b031681565b6104966107b8366004612629565b61174d565b6105e96107cb366004612607565b6014602052600090815260409020546001600160a01b031681565b6104446203f48081565b61044460185481565b610444610807366004612607565b60166020526000908152604090205481565b610496610827366004612607565b601a6020526000908152604090205460ff1681565b61084f61084a366004612607565b61175b565b6040805196875260208701959095529385019290925260608401521515608083015260a082015260c00161041b565b6104e161088c366004612629565b6117f8565b6009546105e9906001600160a01b031681565b6104e16108b236600461278b565b6118be565b6104e16108c536600461254e565b611ad0565b600d546105e9906001600160a01b031681565b6104446108eb366004612607565b611b1d565b61044460195481565b61044460135481565b610444610910366004612607565b60156020526000908152604090205481565b6104446109303660046127c0565b6001600160a01b03918216600090815260016020908152604080832093909416825291909152205490565b6104e1610969366004612607565b611bcf565b610444600a81565b610444610984366004612607565b60176020526000908152604090205481565b6012602052600090815260409020805481906109b1906127f3565b80601f01602080910402602001604051908101604052809291908181526020018280546109dd906127f3565b8015610a2a5780601f106109ff57610100808354040283529160200191610a2a565b820191906000526020600020905b815481529060010190602001808311610a0d57829003601f168201915b505050600184015460028501546003860154600487015460059097015495969295919450925060ff1686565b6000610a60611c0a565b6000612710601b5484610a739190612843565b610a7d919061285a565b6001600160a01b0385166000908152601c60205260408120549192509061271090610aa89084612843565b610ab2919061285a565b90506000610ac0828461287c565b90508015610be357600a54610ae09087906001600160a01b031683611c3d565b6000612710610af0603284612843565b610afa919061285a565b90508015610b9e57600a54610b18906001600160a01b031682611c9c565b8060196000828254610b2a919061288f565b9091555050600a546040516001600160a01b03909116907ffad31924d655455395c87544c8aa1ffdb5a7505a22a3c2e03f28003b6556a75f90610b9590848152604060208201819052600d908201526c29bbb0b8103332b290313ab93760991b606082015260800190565b60405180910390a25b866001600160a01b03167fa9fe54ef5a1158a86c9de1049b90da1dfb1cca22e1cd10beb8fcaee1e8386af183604051610bd991815260200190565b60405180910390a2505b925050505b92915050565b606060038054610bfd906127f3565b80601f0160208091040260200160405190810160405280929190818152602001828054610c29906127f3565b8015610c765780601f10610c4b57610100808354040283529160200191610c76565b820191906000526020600020905b815481529060010190602001808311610c5957829003601f168201915b5050505050905090565b600033610c8e818585611cd2565b5060019392505050565b600080600080610ca760025490565b601954600f54601854935093509350935090919293565b610cc6611c0a565b600081815260126020526040902060048101544211610d1f5760405162461bcd60e51b815260206004820152601060248201526f159bdd1a5b99c81b9bdd08195b99195960821b60448201526064015b60405180910390fd5b600581015460ff1615610d675760405162461bcd60e51b815260206004820152601060248201526f105b1c9958591e48195e1958dd5d195960821b6044820152606401610d16565b8060020154816001015411610db25760405162461bcd60e51b8152602060048201526011602482015270141c9bdc1bdcd85b081c995a9958dd1959607a1b6044820152606401610d16565b60058101805460ff1916600117905560405182907f712ae1383f79ac853f8d882153778e0260ef8f03b504e2866e0593e04d2b291f90600090a25050565b336000908152601460205260409020546001600160a01b031615610e495760405162461bcd60e51b815260206004820152601060248201526f105b1c9958591e481c9959995c9c995960821b6044820152606401610d16565b336001600160a01b03821603610e995760405162461bcd60e51b815260206004820152601560248201527421b0b73737ba103932b332b9103cb7bab939b2b63360591b6044820152606401610d16565b6001600160a01b038116610ee25760405162461bcd60e51b815260206004820152601060248201526f24b73b30b634b2103932b332b93932b960811b6044820152606401610d16565b33600090815260146020908152604080832080546001600160a01b0319166001600160a01b038616908117909155835260159091528120805491610f25836128a2565b90915550506009546802b5e3af16b188000090610f4c906001600160a01b03168383611c3d565b6001600160a01b03821660009081526016602052604081208054839290610f7490849061288f565b90915550506040516001600160a01b0383169033907f5f1ca2fcc108b751843a763e60d2201f593516109d7dbb1b700468f2d4190bb790600090a360405181815233906001600160a01b038416907f94ccb86446750660ec532b1beb1fb55f5ba2fffca042c4c53f4c080e72595b389060200160405180910390a35050565b600033611001858285611cdf565b61100c858585611c3d565b506001949350505050565b61101f611d5e565b336000908152600e60209081526040918290208251608081018452815480825260018301549382019390935260028201549381019390935260030154606083015261109d5760405162461bcd60e51b815260206004820152600e60248201526d139bc81cdd185ad948199bdd5b9960921b6044820152606401610d16565b806040015181602001516110b1919061288f565b4210156110ef5760405162461bcd60e51b815260206004820152600c60248201526b14dd1a5b1b081b1bd8dad95960a21b6044820152606401610d16565b60006110fa33611b1d565b9050600081836000015161110e919061288f565b90508260000151600f6000828254611126919061287c565b9091555050336000818152600e6020526040812081815560018101829055600281018290556003015561115890611d88565b61116133611ee4565b61116c303383611c3d565b8251604080519182526020820184905233917f7fc4727e062e336010f2c282598ef5f14facb3de68cf8195c2f23e1454b2b74e910160405180910390a25050506111b66001600655565b565b6111c0611c0a565b6001600160a01b038083166000908152601460205260409020541680156112455760006127106111f26103e885612843565b6111fc919061285a565b600a54909150611216906001600160a01b03168383611c3d565b6001600160a01b0382166000908152601660205260408120805483929061123e90849061288f565b9091555050505b505050565b611252611d5e565b61125b33611f9e565b6111b66001600655565b61126d611c0a565b6111b661208e565b61127f3382611c9c565b50565b6000683635c9adc5dea00000611297336114f8565b10156112de5760405162461bcd60e51b81526020600482015260166024820152754e65656420746f6b656e7320746f2070726f706f736560501b6044820152606401610d16565b60138054600091826112ef836128a2565b9091555060008181526012602052604090209091508061130f8582612909565b504260038201819055611326906203f4809061288f565b600482015560405182907f9c770c289ab5bf7e57cb1d23c8ceae993aea46eb64847072fd3d78ca60d3e4329061135d908790612653565b60405180910390a25092915050565b6001600160a01b0381166000908152600e602052604081205481908190819081908190611398886114f8565b6113a2919061288f565b6001600160a01b0397909716600090815260106020908152604080832054601a83528184205460158452828520546016855283862054601790955292909420549a9b60ff9182169b9190941699509097509095509350915050565b611405611c0a565b6000811161144a5760405162461bcd60e51b81526020600482015260126024820152710416d6f756e74206d757374206265203e20360741b6044820152606401610d16565b600a54611460906001600160a01b031682611c9c565b8060196000828254611472919061288f565b9091555050600a546040516001600160a01b03909116907ffad31924d655455395c87544c8aa1ffdb5a7505a22a3c2e03f28003b6556a75f906114ed908481526040602082018190526017908201527f5472656173757279206275796261636b2026206275726e000000000000000000606082015260800190565b60405180910390a250565b6001600160a01b031660009081526020819052604090205490565b61151b611c0a565b6111b660006120e0565b611530823383611cdf565b61153a8282611c9c565b5050565b611546611d5e565b61154e61213a565b6000821161158f5760405162461bcd60e51b815260206004820152600e60248201526d043616e6e6f74207374616b6520360941b6044820152606401610d16565b80158061159c57508060b4145b806115a857508061016d145b6115ea5760405162461bcd60e51b8152602060048201526013602482015272125b9d985b1a59081b1bd8dac81c195c9a5bd9606a1b6044820152606401610d16565b816115f4336114f8565b10156116395760405162461bcd60e51b8152602060048201526014602482015273496e73756666696369656e742062616c616e636560601b6044820152606401610d16565b336000908152600e6020526040902054156116575761165733611f9e565b611662333084611c3d565b336000908152600e60205260408120805484929061168190849061288f565b9091555050336000908152600e60205260409020426001909101556116a98162015180612843565b336000908152600e6020526040812060020191909155600f80548492906116d190849061288f565b909155506116e0905033611d88565b6116e933611ee4565b604080518381526020810183905233917f1449c6dd7851abc30abf37f57715f492010519147cc2652fbc38202c18a6ee90910160405180910390a261153a6001600655565b611736611c0a565b6111b661215e565b606060048054610bfd906127f3565b600033610c8e818585611c3d565b6001600160a01b0381166000908152600e60209081526040808320815160808101835281548082526001830154948201859052600283015493820184905260039092015460608201528493849384938493849390926117b98b611b1d565b6001600160a01b039b909b16600090815260106020908152604080832054601c90925290912054939c929b919a5090985060ff16965090945092505050565b611800611c0a565b600061271061181060c884612843565b61181a919061285a565b600954909150611834906001600160a01b03168483611c3d565b6001600160a01b0383166000908152601760205260408120805483929061185c90849061288f565b925050819055508060186000828254611875919061288f565b90915550506040518181526001600160a01b038416907f2e2e974120c7ee5c5bebbacf723734f32eea4ff459008ee5d6df087c5ffec6b4906020015b60405180910390a2505050565b600082815260126020526040902060038101544210156119155760405162461bcd60e51b8152602060048201526012602482015271159bdd1a5b99c81b9bdd081cdd185c9d195960721b6044820152606401610d16565b80600401544211156119585760405162461bcd60e51b815260206004820152600c60248201526b159bdd1a5b99c8195b99195960a21b6044820152606401610d16565b33600090815260068201602052604090205460ff16156119aa5760405162461bcd60e51b815260206004820152600d60248201526c105b1c9958591e481d9bdd1959609a1b6044820152606401610d16565b683635c9adc5dea000006119bd336114f8565b1015611a015760405162461bcd60e51b81526020600482015260136024820152724e65656420746f6b656e7320746f20766f746560681b6044820152606401610d16565b336000818152600e60205260408120549091611a1c906114f8565b611a26919061288f565b90508215611a4d5780826001016000828254611a42919061288f565b90915550611a679050565b80826002016000828254611a61919061288f565b90915550505b33600081815260068401602052604090819020805460ff191660011790555185907f7c2de587c00d75474a0c6c6fa96fd3b45dc974cd4e8a75f712bb84c950dce1b590611ac290879086909115158252602082015260400190565b60405180910390a350505050565b611ad8611c0a565b6064811115611b185760405162461bcd60e51b815260206004820152600c60248201526b08ccaca40e8dede40d0d2ced60a31b6044820152606401610d16565b601b55565b6001600160a01b0381166000908152600e6020908152604080832081516080810183528154808252600183015494820194909452600282015492810192909252600301546060820152908203611b765750600092915050565b6000816020015142611b88919061287c565b90506000611b99836040015161219b565b905064496cebb80082828560000151611bb29190612843565b611bbc9190612843565b611bc6919061285a565b95945050505050565b611bd7611c0a565b6001600160a01b038116611c0157604051631e4fbdf760e01b815260006004820152602401610d16565b61127f816120e0565b6005546001600160a01b036101009091041633146111b65760405163118cdaa760e01b8152336004820152602401610d16565b6001600160a01b038316611c6757604051634b637e8f60e11b815260006004820152602401610d16565b6001600160a01b038216611c915760405163ec442f0560e01b815260006004820152602401610d16565b6112458383836121cd565b6001600160a01b038216611cc657604051634b637e8f60e11b815260006004820152602401610d16565b61153a826000836121cd565b611245838383600161232c565b6001600160a01b03838116600090815260016020908152604080832093861683529290522054600019811015611d585781811015611d4957604051637dc7a0d960e11b81526001600160a01b03841660048201526024810182905260448101839052606401610d16565b611d588484848403600061232c565b50505050565b600260065403611d8157604051633ee5aeb560e01b815260040160405180910390fd5b6002600655565b6001600160a01b0381166000908152600e6020526040812054611daa836114f8565b611db4919061288f565b905069021e19e0c9bab240000081108015908190611deb57506001600160a01b03831660009081526010602052604090205460ff16155b15611e57576001600160a01b0383166000818152601060209081526040808320805460ff1916600117905560118252808320429055601c9091528082206127109055517faa8ccf229bb4a5182c5122d8450416e8ae3b78f457eebea8b2028be23f6d5ab19190a2505050565b80158015611e7d57506001600160a01b03831660009081526010602052604090205460ff165b15611245576001600160a01b0383166000818152601060209081526040808320805460ff1916905560118252808320839055601c909152808220829055517fc482be7b538fcb24453784f77a37339089565519b675c87f5de0d6b24e281fa89190a2505050565b6001600160a01b0381166000908152600e6020526040812054611f06836114f8565b611f10919061288f565b6001600160a01b0383166000908152601a602052604090205490915069010f0cf064dd592000008210159060ff1615158114611245576001600160a01b0383166000818152601a6020908152604091829020805460ff191685151590811790915591519182527f2ac89bd75f75496bfcf152024c8bc900a9d51ea4326df527c1a53120ddd8b8a991016118b1565b6000611fa982611b1d565b905060008111611fe85760405162461bcd60e51b815260206004820152600a6024820152694e6f207265776172647360b01b6044820152606401610d16565b6001600160a01b0382166000908152600e60205260408120600301805483929061201390849061288f565b90915550506001600160a01b038083166000908152600e602052604090204260019091015560095461204791168383611c3d565b816001600160a01b03167f106f923f993c2149d49b4255ff723acafa1f2d94393f561d3eda32ae348f72418260405161208291815260200190565b60405180910390a25050565b6120966123f3565b6005805460ff191690557f5db9ee0a495bf2e6ff9c91a7834c1ba4fdd244a5e8aa4e537bd38aeae4b073aa335b6040516001600160a01b03909116815260200160405180910390a1565b600580546001600160a01b03838116610100818102610100600160a81b031985161790945560405193909204169182907f8be0079c531659141344cd1fd0a4f28419497f9722a3daafe3b4186f6b6457e090600090a35050565b60055460ff16156111b65760405163d93c066560e01b815260040160405180910390fd5b61216661213a565b6005805460ff191660011790557f62e78cea01bee320cd4e420270b5ea74000d11b0c9f74754ebdbfc544b05a2586120c33390565b60006301e1338082106121b157506109c4919050565b62ed4e0082106121c457506105dc919050565b50610320919050565b60006001600160a01b03841615806121ec57506001600160a01b038316155b806121ff57506001600160a01b03841630145b8061221257506001600160a01b03831630145b8061222a5750600d546001600160a01b038581169116145b806122425750600d546001600160a01b038481169116145b905080158015612250575060015b15612321576000612710612265600a85612843565b61226f919061285a565b9050801561231f5761228385600083612416565b8060196000828254612295919061288f565b92505081905550846001600160a01b03167ffad31924d655455395c87544c8aa1ffdb5a7505a22a3c2e03f28003b6556a75f826040516122fc918152604060208201819052600d908201526c2a3930b739b332b910313ab93760991b606082015260800190565b60405180910390a26123188585612313848761287c565b612416565b5050505050565b505b611d58848484612416565b6001600160a01b0384166123565760405163e602df0560e01b815260006004820152602401610d16565b6001600160a01b03831661238057604051634a1406b160e11b815260006004820152602401610d16565b6001600160a01b0380851660009081526001602090815260408083209387168352929052208290558015611d5857826001600160a01b0316846001600160a01b03167f8c5be1e5ebec7d5bd14f71427d1e84f3dd0314c0f7b2291e5b200ac8c7c3b92584604051611ac291815260200190565b60055460ff166111b657604051638dfc202b60e01b815260040160405180910390fd5b61241e61213a565b6112458383836001600160a01b03831661244f578060026000828254612444919061288f565b909155506124c19050565b6001600160a01b038316600090815260208190526040902054818110156124a25760405163391434e360e21b81526001600160a01b03851660048201526024810182905260448101839052606401610d16565b6001600160a01b03841660009081526020819052604090209082900390555b6001600160a01b0382166124dd576002805482900390556124fc565b6001600160a01b03821660009081526020819052604090208054820190555b816001600160a01b0316836001600160a01b03167fddf252ad1be2c89b69c2b068fc378daa952ba7f163c4a11628f55a4df523b3ef8360405161254191815260200190565b60405180910390a3505050565b60006020828403121561256057600080fd5b5035919050565b6000815180845260005b8181101561258d57602081850181015186830182015201612571565b506000602082860101526020601f19601f83011685010191505092915050565b60c0815260006125c060c0830189612567565b602083019790975250604081019490945260608401929092526080830152151560a090910152919050565b80356001600160a01b038116811461260257600080fd5b919050565b60006020828403121561261957600080fd5b612622826125eb565b9392505050565b6000806040838503121561263c57600080fd5b612645836125eb565b946020939093013593505050565b6020815260006126226020830184612567565b60008060006060848603121561267b57600080fd5b612684846125eb565b9250612692602085016125eb565b9150604084013590509250925092565b634e487b7160e01b600052604160045260246000fd5b6000602082840312156126ca57600080fd5b813567ffffffffffffffff808211156126e257600080fd5b818401915084601f8301126126f657600080fd5b813581811115612708576127086126a2565b604051601f8201601f19908116603f01168101908382118183101715612730576127306126a2565b8160405282815287602084870101111561274957600080fd5b826020860160208301376000928101602001929092525095945050505050565b6000806040838503121561277c57600080fd5b50508035926020909101359150565b6000806040838503121561279e57600080fd5b82359150602083013580151581146127b557600080fd5b809150509250929050565b600080604083850312156127d357600080fd5b6127dc836125eb565b91506127ea602084016125eb565b90509250929050565b600181811c9082168061280757607f821691505b60208210810361282757634e487b7160e01b600052602260045260246000fd5b50919050565b634e487b7160e01b600052601160045260246000fd5b8082028115828204841417610be857610be861282d565b60008261287757634e487b7160e01b600052601260045260246000fd5b500490565b81810381811115610be857610be861282d565b80820180821115610be857610be861282d565b6000600182016128b4576128b461282d565b5060010190565b601f82111561124557600081815260208120601f850160051c810160208610156128e25750805b601f850160051c820191505b81811015612901578281556001016128ee565b505050505050565b815167ffffffffffffffff811115612923576129236126a2565b6129378161293184546127f3565b846128bb565b602080601f83116001811461296c57600084156129545750858301515b600019600386901b1c1916600185901b178555612901565b600085815260208120601f198616915b8281101561299b5788860151825594840194600190910190840161297c565b50858210156129b95787850151600019600388901b60f8161c191681555b5050505050600190811b0190555056fea26469706673582212209651d72ee3c2774ca5e96253868614de25793b42995490870c0788a8b3af34fa64736f6c63430008140033","opcodes":"PUSH1 0x80 PUSH1 0x40 MSTORE PUSH1 0x32 PUSH1 0x1B SSTORE CALLVALUE DUP1 ISZERO PUSH3 0x16 JUMPI PUSH1 0x0 DUP1 REVERT JUMPDEST POP PUSH1 0x40 MLOAD PUSH3 0x34A4 CODESIZE SUB DUP1 PUSH3 0x34A4 DUP4 CODECOPY DUP2 ADD PUSH1 0x40 DUP2 SWAP1 MSTORE PUSH3 0x39 SWAP2 PUSH3 0x80B JUMP JUMPDEST CALLER PUSH1 0x40 MLOAD DUP1 PUSH1 0x40 ADD PUSH1 0x40 MSTORE DUP1 PUSH1 0xB DUP2 MSTORE PUSH1 0x20 ADD PUSH11 0x213630BD32902A37B5B2B7 PUSH1 0xA9 SHL DUP2 MSTORE POP PUSH1 0x40 MLOAD DUP1 PUSH1 0x40 ADD PUSH1 0x40 MSTORE DUP1 PUSH1 0x5 DUP2 MSTORE PUSH1 0x20 ADD PUSH5 0x424C415A45 PUSH1 0xD8 SHL DUP2 MSTORE POP DUP2 PUSH1 0x3 SWAP1 DUP2 PUSH3 0x8D SWAP2 SWAP1 PUSH3 0x944 JUMP JUMPDEST POP PUSH1 0x4 PUSH3 0x9C DUP3 DUP3 PUSH3 0x944 JUMP JUMPDEST POP POP POP PUSH1 0x1 PUSH1 0x1 PUSH1 0xA0 SHL SUB DUP2 AND PUSH3 0xCF JUMPI PUSH1 0x40 MLOAD PUSH4 0x1E4FBDF7 PUSH1 0xE0 SHL DUP2 MSTORE PUSH1 0x0 PUSH1 0x4 DUP3 ADD MSTORE PUSH1 0x24 ADD JUMPDEST PUSH1 0x40 MLOAD DUP1 SWAP2 SUB SWAP1 REVERT JUMPDEST PUSH3 0xDA DUP2 PUSH3 0x464 JUMP JUMPDEST POP PUSH1 0x1 PUSH1 0x6 SSTORE PUSH1 0x1 PUSH1 0x1 PUSH1 0xA0 SHL SUB DUP8 AND PUSH3 0x138 JUMPI PUSH1 0x40 MLOAD PUSH3 0x461BCD PUSH1 0xE5 SHL DUP2 MSTORE PUSH1 0x20 PUSH1 0x4 DUP3 ADD MSTORE PUSH1 0x1A PUSH1 0x24 DUP3 ADD MSTORE PUSH32 0x496E76616C6964207075626C69632073616C652077616C6C6574000000000000 PUSH1 0x44 DUP3 ADD MSTORE PUSH1 0x64 ADD PUSH3 0xC6 JUMP JUMPDEST PUSH1 0x1 PUSH1 0x1 PUSH1 0xA0 SHL SUB DUP7 AND PUSH3 0x190 JUMPI PUSH1 0x40 MLOAD PUSH3 0x461BCD PUSH1 0xE5 SHL DUP2 MSTORE PUSH1 0x20 PUSH1 0x4 DUP3 ADD MSTORE PUSH1 0x16 PUSH1 0x24 DUP3 ADD MSTORE PUSH32 0x496E76616C696420666F756E6465722077616C6C657400000000000000000000 PUSH1 0x44 DUP3 ADD MSTORE PUSH1 0x64 ADD PUSH3 0xC6 JUMP JUMPDEST PUSH1 0x1 PUSH1 0x1 PUSH1 0xA0 SHL SUB DUP6 AND PUSH3 0x1E8 JUMPI PUSH1 0x40 MLOAD PUSH3 0x461BCD PUSH1 0xE5 SHL DUP2 MSTORE PUSH1 0x20 PUSH1 0x4 DUP3 ADD MSTORE PUSH1 0x18 PUSH1 0x24 DUP3 ADD MSTORE PUSH32 0x496E76616C696420636F6D6D756E6974792077616C6C65740000000000000000 PUSH1 0x44 DUP3 ADD MSTORE PUSH1 0x64 ADD PUSH3 0xC6 JUMP JUMPDEST PUSH1 0x1 PUSH1 0x1 PUSH1 0xA0 SHL SUB DUP5 AND PUSH3 0x240 JUMPI PUSH1 0x40 MLOAD PUSH3 0x461BCD PUSH1 0xE5 SHL DUP2 MSTORE PUSH1 0x20 PUSH1 0x4 DUP3 ADD MSTORE PUSH1 0x17 PUSH1 0x24 DUP3 ADD MSTORE PUSH32 0x496E76616C69642074726561737572792077616C6C6574000000000000000000 PUSH1 0x44 DUP3 ADD MSTORE PUSH1 0x64 ADD PUSH3 0xC6 JUMP JUMPDEST PUSH1 0x1 PUSH1 0x1 PUSH1 0xA0 SHL SUB DUP4 AND PUSH3 0x298 JUMPI PUSH1 0x40 MLOAD PUSH3 0x461BCD PUSH1 0xE5 SHL DUP2 MSTORE PUSH1 0x20 PUSH1 0x4 DUP3 ADD MSTORE PUSH1 0x13 PUSH1 0x24 DUP3 ADD MSTORE PUSH32 0x496E76616C6964207465616D2077616C6C657400000000000000000000000000 PUSH1 0x44 DUP3 ADD MSTORE PUSH1 0x64 ADD PUSH3 0xC6 JUMP JUMPDEST PUSH1 0x1 PUSH1 0x1 PUSH1 0xA0 SHL SUB DUP3 AND PUSH3 0x2F0 JUMPI PUSH1 0x40 MLOAD PUSH3 0x461BCD PUSH1 0xE5 SHL DUP2 MSTORE PUSH1 0x20 PUSH1 0x4 DUP3 ADD MSTORE PUSH1 0x18 PUSH1 0x24 DUP3 ADD MSTORE PUSH32 0x496E76616C6964207374726174656769632077616C6C65740000000000000000 PUSH1 0x44 DUP3 ADD MSTORE PUSH1 0x64 ADD PUSH3 0xC6 JUMP JUMPDEST PUSH1 0x1 PUSH1 0x1 PUSH1 0xA0 SHL SUB DUP2 AND PUSH3 0x348 JUMPI PUSH1 0x40 MLOAD PUSH3 0x461BCD PUSH1 0xE5 SHL DUP2 MSTORE PUSH1 0x20 PUSH1 0x4 DUP3 ADD MSTORE PUSH1 0x18 PUSH1 0x24 DUP3 ADD MSTORE PUSH32 0x496E76616C6964206C69717569646974792077616C6C65740000000000000000 PUSH1 0x44 DUP3 ADD MSTORE PUSH1 0x64 ADD PUSH3 0xC6 JUMP JUMPDEST PUSH1 0x7 DUP1 SLOAD PUSH1 0x1 PUSH1 0x1 PUSH1 0xA0 SHL SUB NOT SWAP1 DUP2 AND PUSH1 0x1 PUSH1 0x1 PUSH1 0xA0 SHL SUB DUP11 DUP2 AND SWAP2 SWAP1 SWAP2 OR SWAP1 SWAP3 SSTORE PUSH1 0x8 DUP1 SLOAD DUP3 AND DUP10 DUP5 AND OR SWAP1 SSTORE PUSH1 0x9 DUP1 SLOAD DUP3 AND DUP9 DUP5 AND OR SWAP1 SSTORE PUSH1 0xA DUP1 SLOAD DUP3 AND DUP8 DUP5 AND OR SWAP1 SSTORE PUSH1 0xB DUP1 SLOAD DUP3 AND DUP7 DUP5 AND OR SWAP1 SSTORE PUSH1 0xC DUP1 SLOAD DUP3 AND DUP6 DUP5 AND OR SWAP1 SSTORE PUSH1 0xD DUP1 SLOAD SWAP1 SWAP2 AND SWAP2 DUP4 AND SWAP2 SWAP1 SWAP2 OR SWAP1 SSTORE PUSH3 0x3CD DUP8 PUSH11 0x7C13BC4B2C133C56000000 PUSH3 0x4BE JUMP JUMPDEST PUSH3 0x3E4 DUP2 PUSH11 0x52B7D2DCC80CD2E4000000 PUSH3 0x4BE JUMP JUMPDEST PUSH3 0x3FB DUP7 PUSH11 0x52B7D2DCC80CD2E4000000 PUSH3 0x4BE JUMP JUMPDEST PUSH3 0x412 DUP6 PUSH11 0xA56FA5B99019A5C8000000 PUSH3 0x4BE JUMP JUMPDEST PUSH3 0x429 DUP5 PUSH11 0x7C13BC4B2C133C56000000 PUSH3 0x4BE JUMP JUMPDEST PUSH3 0x440 DUP4 PUSH11 0x52B7D2DCC80CD2E4000000 PUSH3 0x4BE JUMP JUMPDEST PUSH3 0x457 DUP3 PUSH11 0x295BE96E64066972000000 PUSH3 0x4BE JUMP JUMPDEST POP POP POP POP POP POP POP PUSH3 0xA95 JUMP JUMPDEST PUSH1 0x5 DUP1 SLOAD PUSH1 0x1 PUSH1 0x1 PUSH1 0xA0 SHL SUB DUP4 DUP2 AND PUSH2 0x100 DUP2 DUP2 MUL PUSH2 0x100 PUSH1 0x1 PUSH1 0xA8 SHL SUB NOT DUP6 AND OR SWAP1 SWAP5 SSTORE PUSH1 0x40 MLOAD SWAP4 SWAP1 SWAP3 DIV AND SWAP2 DUP3 SWAP1 PUSH32 0x8BE0079C531659141344CD1FD0A4F28419497F9722A3DAAFE3B4186F6B6457E0 SWAP1 PUSH1 0x0 SWAP1 LOG3 POP POP JUMP JUMPDEST PUSH1 0x1 PUSH1 0x1 PUSH1 0xA0 SHL SUB DUP3 AND PUSH3 0x4EA JUMPI PUSH1 0x40 MLOAD PUSH4 0xEC442F05 PUSH1 0xE0 SHL DUP2 MSTORE PUSH1 0x0 PUSH1 0x4 DUP3 ADD MSTORE PUSH1 0x24 ADD PUSH3 0xC6 JUMP JUMPDEST PUSH3 0x4F8 PUSH1 0x0 DUP4 DUP4 PUSH3 0x4FC JUMP JUMPDEST POP POP JUMP JUMPDEST PUSH1 0x0 PUSH1 0x1 PUSH1 0x1 PUSH1 0xA0 SHL SUB DUP5 AND ISZERO DUP1 PUSH3 0x51C JUMPI POP PUSH1 0x1 PUSH1 0x1 PUSH1 0xA0 SHL SUB DUP4 AND ISZERO JUMPDEST DUP1 PUSH3 0x530 JUMPI POP PUSH1 0x1 PUSH1 0x1 PUSH1 0xA0 SHL SUB DUP5 AND ADDRESS EQ JUMPDEST DUP1 PUSH3 0x544 JUMPI POP PUSH1 0x1 PUSH1 0x1 PUSH1 0xA0 SHL SUB DUP4 AND ADDRESS EQ JUMPDEST DUP1 PUSH3 0x55D JUMPI POP PUSH1 0xD SLOAD PUSH1 0x1 PUSH1 0x1 PUSH1 0xA0 SHL SUB DUP6 DUP2 AND SWAP2 AND EQ JUMPDEST DUP1 PUSH3 0x576 JUMPI POP PUSH1 0xD SLOAD PUSH1 0x1 PUSH1 0x1 PUSH1 0xA0 SHL SUB DUP5 DUP2 AND SWAP2 AND EQ JUMPDEST SWAP1 POP DUP1 ISZERO DUP1 ISZERO PUSH3 0x585 JUMPI POP PUSH1 0x1 JUMPDEST ISZERO PUSH3 0x665 JUMPI PUSH1 0x0 PUSH2 0x2710 PUSH3 0x59D PUSH1 0xA DUP6 PUSH3 0xA26 JUMP JUMPDEST PUSH3 0x5A9 SWAP2 SWAP1 PUSH3 0xA46 JUMP JUMPDEST SWAP1 POP DUP1 ISZERO PUSH3 0x663 JUMPI PUSH3 0x5C0 DUP6 PUSH1 0x0 DUP4 PUSH3 0x678 JUMP JUMPDEST DUP1 PUSH1 0x19 PUSH1 0x0 DUP3 DUP3 SLOAD PUSH3 0x5D4 SWAP2 SWAP1 PUSH3 0xA69 JUMP JUMPDEST SWAP3 POP POP DUP2 SWAP1 SSTORE POP DUP5 PUSH1 0x1 PUSH1 0x1 PUSH1 0xA0 SHL SUB AND PUSH32 0xFAD31924D655455395C87544C8AA1FFDB5A7505A22A3C2E03F28003B6556A75F DUP3 PUSH1 0x40 MLOAD PUSH3 0x63C SWAP2 DUP2 MSTORE PUSH1 0x40 PUSH1 0x20 DUP3 ADD DUP2 SWAP1 MSTORE PUSH1 0xD SWAP1 DUP3 ADD MSTORE PUSH13 0x2A3930B739B332B910313AB937 PUSH1 0x99 SHL PUSH1 0x60 DUP3 ADD MSTORE PUSH1 0x80 ADD SWAP1 JUMP JUMPDEST PUSH1 0x40 MLOAD DUP1 SWAP2 SUB SWAP1 LOG2 PUSH3 0x65C DUP6 DUP6 PUSH3 0x656 DUP5 DUP8 PUSH3 0xA7F JUMP JUMPDEST PUSH3 0x678 JUMP JUMPDEST POP POP POP POP POP JUMP JUMPDEST POP JUMPDEST PUSH3 0x672 DUP5 DUP5 DUP5 PUSH3 0x678 JUMP JUMPDEST POP POP POP POP JUMP JUMPDEST PUSH3 0x682 PUSH3 0x694 JUMP JUMPDEST PUSH3 0x68F DUP4 DUP4 DUP4 PUSH3 0x6BB JUMP JUMPDEST POP POP POP JUMP JUMPDEST PUSH1 0x5 SLOAD PUSH1 0xFF AND ISZERO PUSH3 0x6B9 JUMPI PUSH1 0x40 MLOAD PUSH4 0xD93C0665 PUSH1 0xE0 SHL DUP2 MSTORE PUSH1 0x4 ADD PUSH1 0x40 MLOAD DUP1 SWAP2 SUB SWAP1 REVERT JUMPDEST JUMP JUMPDEST PUSH1 0x1 PUSH1 0x1 PUSH1 0xA0 SHL SUB DUP4 AND PUSH3 0x6EA JUMPI DUP1 PUSH1 0x2 PUSH1 0x0 DUP3 DUP3 SLOAD PUSH3 0x6DE SWAP2 SWAP1 PUSH3 0xA69 JUMP JUMPDEST SWAP1 SWAP2 SSTORE POP PUSH3 0x75E SWAP1 POP JUMP JUMPDEST PUSH1 0x1 PUSH1 0x1 PUSH1 0xA0 SHL SUB DUP4 AND PUSH1 0x0 SWAP1 DUP2 MSTORE PUSH1 0x20 DUP2 SWAP1 MSTORE PUSH1 0x40 SWAP1 KECCAK256 SLOAD DUP2 DUP2 LT ISZERO PUSH3 0x73F JUMPI PUSH1 0x40 MLOAD PUSH4 0x391434E3 PUSH1 0xE2 SHL DUP2 MSTORE PUSH1 0x1 PUSH1 0x1 PUSH1 0xA0 SHL SUB DUP6 AND PUSH1 0x4 DUP3 ADD MSTORE PUSH1 0x24 DUP2 ADD DUP3 SWAP1 MSTORE PUSH1 0x44 DUP2 ADD DUP4 SWAP1 MSTORE PUSH1 0x64 ADD PUSH3 0xC6 JUMP JUMPDEST PUSH1 0x1 PUSH1 0x1 PUSH1 0xA0 SHL SUB DUP5 AND PUSH1 0x0 SWAP1 DUP2 MSTORE PUSH1 0x20 DUP2 SWAP1 MSTORE PUSH1 0x40 SWAP1 KECCAK256 SWAP1 DUP3 SWAP1 SUB SWAP1 SSTORE JUMPDEST PUSH1 0x1 PUSH1 0x1 PUSH1 0xA0 SHL SUB DUP3 AND PUSH3 0x77C JUMPI PUSH1 0x2 DUP1 SLOAD DUP3 SWAP1 SUB SWAP1 SSTORE PUSH3 0x79B JUMP JUMPDEST PUSH1 0x1 PUSH1 0x1 PUSH1 0xA0 SHL SUB DUP3 AND PUSH1 0x0 SWAP1 DUP2 MSTORE PUSH1 0x20 DUP2 SWAP1 MSTORE PUSH1 0x40 SWAP1 KECCAK256 DUP1 SLOAD DUP3 ADD SWAP1 SSTORE JUMPDEST DUP2 PUSH1 0x1 PUSH1 0x1 PUSH1 0xA0 SHL SUB AND DUP4 PUSH1 0x1 PUSH1 0x1 PUSH1 0xA0 SHL SUB AND PUSH32 0xDDF252AD1BE2C89B69C2B068FC378DAA952BA7F163C4A11628F55A4DF523B3EF DUP4 PUSH1 0x40 MLOAD PUSH3 0x7E1 SWAP2 DUP2 MSTORE PUSH1 0x20 ADD SWAP1 JUMP JUMPDEST PUSH1 0x40 MLOAD DUP1 SWAP2 SUB SWAP1 LOG3 POP POP POP JUMP JUMPDEST DUP1 MLOAD PUSH1 0x1 PUSH1 0x1 PUSH1 0xA0 SHL SUB DUP2 AND DUP2 EQ PUSH3 0x806 JUMPI PUSH1 0x0 DUP1 REVERT JUMPDEST SWAP2 SWAP1 POP JUMP JUMPDEST PUSH1 0x0 DUP1 PUSH1 0x0 DUP1 PUSH1 0x0 DUP1 PUSH1 0x0 PUSH1 0xE0 DUP9 DUP11 SUB SLT ISZERO PUSH3 0x827 JUMPI PUSH1 0x0 DUP1 REVERT JUMPDEST PUSH3 0x832 DUP9 PUSH3 0x7EE JUMP JUMPDEST SWAP7 POP PUSH3 0x842 PUSH1 0x20 DUP10 ADD PUSH3 0x7EE JUMP JUMPDEST SWAP6 POP PUSH3 0x852 PUSH1 0x40 DUP10 ADD PUSH3 0x7EE JUMP JUMPDEST SWAP5 POP PUSH3 0x862 PUSH1 0x60 DUP10 ADD PUSH3 0x7EE JUMP JUMPDEST SWAP4 POP PUSH3 0x872 PUSH1 0x80 DUP10 ADD PUSH3 0x7EE JUMP JUMPDEST SWAP3 POP PUSH3 0x882 PUSH1 0xA0 DUP10 ADD PUSH3 0x7EE JUMP JUMPDEST SWAP2 POP PUSH3 0x892 PUSH1 0xC0 DUP10 ADD PUSH3 0x7EE JUMP JUMPDEST SWAP1 POP SWAP3 SWAP6 SWAP9 SWAP2 SWAP5 SWAP8 POP SWAP3 SWAP6 POP JUMP JUMPDEST PUSH4 0x4E487B71 PUSH1 0xE0 SHL PUSH1 0x0 MSTORE PUSH1 0x41 PUSH1 0x4 MSTORE PUSH1 0x24 PUSH1 0x0 REVERT JUMPDEST PUSH1 0x1 DUP2 DUP2 SHR SWAP1 DUP3 AND DUP1 PUSH3 0x8CB JUMPI PUSH1 0x7F DUP3 AND SWAP2 POP JUMPDEST PUSH1 0x20 DUP3 LT DUP2 SUB PUSH3 0x8EC JUMPI PUSH4 0x4E487B71 PUSH1 0xE0 SHL PUSH1 0x0 MSTORE PUSH1 0x22 PUSH1 0x4 MSTORE PUSH1 0x24 PUSH1 0x0 REVERT JUMPDEST POP SWAP2 SWAP1 POP JUMP JUMPDEST PUSH1 0x1F DUP3 GT ISZERO PUSH3 0x68F JUMPI PUSH1 0x0 DUP2 DUP2 MSTORE PUSH1 0x20 DUP2 KECCAK256 PUSH1 0x1F DUP6 ADD PUSH1 0x5 SHR DUP2 ADD PUSH1 0x20 DUP7 LT ISZERO PUSH3 0x91B JUMPI POP DUP1 JUMPDEST PUSH1 0x1F DUP6 ADD PUSH1 0x5 SHR DUP3 ADD SWAP2 POP JUMPDEST DUP2 DUP2 LT ISZERO PUSH3 0x93C JUMPI DUP3 DUP2 SSTORE PUSH1 0x1 ADD PUSH3 0x927 JUMP JUMPDEST POP POP POP POP POP POP JUMP JUMPDEST DUP2 MLOAD PUSH1 0x1 PUSH1 0x1 PUSH1 0x40 SHL SUB DUP2 GT ISZERO PUSH3 0x960 JUMPI PUSH3 0x960 PUSH3 0x8A0 JUMP JUMPDEST PUSH3 0x978 DUP2 PUSH3 0x971 DUP5 SLOAD PUSH3 0x8B6 JUMP JUMPDEST DUP5 PUSH3 0x8F2 JUMP JUMPDEST PUSH1 0x20 DUP1 PUSH1 0x1F DUP4 GT PUSH1 0x1 DUP2 EQ PUSH3 0x9B0 JUMPI PUSH1 0x0 DUP5 ISZERO PUSH3 0x997 JUMPI POP DUP6 DUP4 ADD MLOAD JUMPDEST PUSH1 0x0 NOT PUSH1 0x3 DUP7 SWAP1 SHL SHR NOT AND PUSH1 0x1 DUP6 SWAP1 SHL OR DUP6 SSTORE PUSH3 0x93C JUMP JUMPDEST PUSH1 0x0 DUP6 DUP2 MSTORE PUSH1 0x20 DUP2 KECCAK256 PUSH1 0x1F NOT DUP7 AND SWAP2 JUMPDEST DUP3 DUP2 LT ISZERO PUSH3 0x9E1 JUMPI DUP9 DUP7 ADD MLOAD DUP3 SSTORE SWAP5 DUP5 ADD SWAP5 PUSH1 0x1 SWAP1 SWAP2 ADD SWAP1 DUP5 ADD PUSH3 0x9C0 JUMP JUMPDEST POP DUP6 DUP3 LT ISZERO PUSH3 0xA00 JUMPI DUP8 DUP6 ADD MLOAD PUSH1 0x0 NOT PUSH1 0x3 DUP9 SWAP1 SHL PUSH1 0xF8 AND SHR NOT AND DUP2 SSTORE JUMPDEST POP POP POP POP POP PUSH1 0x1 SWAP1 DUP2 SHL ADD SWAP1 SSTORE POP JUMP JUMPDEST PUSH4 0x4E487B71 PUSH1 0xE0 SHL PUSH1 0x0 MSTORE PUSH1 0x11 PUSH1 0x4 MSTORE PUSH1 0x24 PUSH1 0x0 REVERT JUMPDEST DUP1 DUP3 MUL DUP2 ISZERO DUP3 DUP3 DIV DUP5 EQ OR PUSH3 0xA40 JUMPI PUSH3 0xA40 PUSH3 0xA10 JUMP JUMPDEST SWAP3 SWAP2 POP POP JUMP JUMPDEST PUSH1 0x0 DUP3 PUSH3 0xA64 JUMPI PUSH4 0x4E487B71 PUSH1 0xE0 SHL PUSH1 0x0 MSTORE PUSH1 0x12 PUSH1 0x4 MSTORE PUSH1 0x24 PUSH1 0x0 REVERT JUMPDEST POP DIV SWAP1 JUMP JUMPDEST DUP1 DUP3 ADD DUP1 DUP3 GT ISZERO PUSH3 0xA40 JUMPI PUSH3 0xA40 PUSH3 0xA10 JUMP JUMPDEST DUP2 DUP2 SUB DUP2 DUP2 GT ISZERO PUSH3 0xA40 JUMPI PUSH3 0xA40 PUSH3 0xA10 JUMP JUMPDEST PUSH2 0x29FF DUP1 PUSH3 0xAA5 PUSH1 0x0 CODECOPY PUSH1 0x0 RETURN INVALID PUSH1 0x80 PUSH1 0x40 MSTORE CALLVALUE DUP1 ISZERO PUSH2 0x10 JUMPI PUSH1 0x0 DUP1 REVERT JUMPDEST POP PUSH1 0x4 CALLDATASIZE LT PUSH2 0x3F1 JUMPI PUSH1 0x0 CALLDATALOAD PUSH1 0xE0 SHR DUP1 PUSH4 0x73B6F890 GT PUSH2 0x215 JUMPI DUP1 PUSH4 0xB29F6EF2 GT PUSH2 0x125 JUMPI DUP1 PUSH4 0xD4698016 GT PUSH2 0xB8 JUMPI DUP1 PUSH4 0xDB74559B GT PUSH2 0x87 JUMPI DUP1 PUSH4 0xDB74559B EQ PUSH2 0x902 JUMPI DUP1 PUSH4 0xDD62ED3E EQ PUSH2 0x922 JUMPI DUP1 PUSH4 0xF2FDE38B EQ PUSH2 0x95B JUMPI DUP1 PUSH4 0xF846A885 EQ PUSH2 0x96E JUMPI DUP1 PUSH4 0xFA1C3EDA EQ PUSH2 0x976 JUMPI PUSH1 0x0 DUP1 REVERT JUMPDEST DUP1 PUSH4 0xD4698016 EQ PUSH2 0x8CA JUMPI DUP1 PUSH4 0xD82E3962 EQ PUSH2 0x8DD JUMPI DUP1 PUSH4 0xD89135CD EQ PUSH2 0x8F0 JUMPI DUP1 PUSH4 0xDA35C664 EQ PUSH2 0x8F9 JUMPI PUSH1 0x0 DUP1 REVERT JUMPDEST DUP1 PUSH4 0xC35B7B64 GT PUSH2 0xF4 JUMPI DUP1 PUSH4 0xC35B7B64 EQ PUSH2 0x87E JUMPI DUP1 PUSH4 0xC7574839 EQ PUSH2 0x891 JUMPI DUP1 PUSH4 0xC9D27AFE EQ PUSH2 0x8A4 JUMPI DUP1 PUSH4 0xD1154FF0 EQ PUSH2 0x8B7 JUMPI PUSH1 0x0 DUP1 REVERT JUMPDEST DUP1 PUSH4 0xB29F6EF2 EQ PUSH2 0x7F0 JUMPI DUP1 PUSH4 0xC07B528A EQ PUSH2 0x7F9 JUMPI DUP1 PUSH4 0xC2B0D16F EQ PUSH2 0x819 JUMPI DUP1 PUSH4 0xC3453153 EQ PUSH2 0x83C JUMPI PUSH1 0x0 DUP1 REVERT JUMPDEST DUP1 PUSH4 0x8922E021 GT PUSH2 0x1A8 JUMPI DUP1 PUSH4 0xA1C82B18 GT PUSH2 0x177 JUMPI DUP1 PUSH4 0xA1C82B18 EQ PUSH2 0x78F JUMPI DUP1 PUSH4 0xA23D3C35 EQ PUSH2 0x797 JUMPI DUP1 PUSH4 0xA9059CBB EQ PUSH2 0x7AA JUMPI DUP1 PUSH4 0xA90F8E9A EQ PUSH2 0x7BD JUMPI DUP1 PUSH4 0xB1610D7E EQ PUSH2 0x7E6 JUMPI PUSH1 0x0 DUP1 REVERT JUMPDEST DUP1 PUSH4 0x8922E021 EQ PUSH2 0x74D JUMPI DUP1 PUSH4 0x8DA5CB5B EQ PUSH2 0x760 JUMPI DUP1 PUSH4 0x95D89B41 EQ PUSH2 0x776 JUMPI DUP1 PUSH4 0x9AF01C2D EQ PUSH2 0x77E JUMPI PUSH1 0x0 DUP1 REVERT JUMPDEST DUP1 PUSH4 0x817B1CD2 GT PUSH2 0x1E4 JUMPI DUP1 PUSH4 0x817B1CD2 EQ PUSH2 0x724 JUMPI DUP1 PUSH4 0x82D97545 EQ PUSH2 0x72D JUMPI DUP1 PUSH4 0x8456CB59 EQ PUSH2 0x735 JUMPI DUP1 PUSH4 0x84A3A0F3 EQ PUSH2 0x73D JUMPI PUSH1 0x0 DUP1 REVERT JUMPDEST DUP1 PUSH4 0x73B6F890 EQ PUSH2 0x6D2 JUMPI DUP1 PUSH4 0x742FE0D4 EQ PUSH2 0x6DB JUMPI DUP1 PUSH4 0x79CC6790 EQ PUSH2 0x6FE JUMPI DUP1 PUSH4 0x7B0472F0 EQ PUSH2 0x711 JUMPI PUSH1 0x0 DUP1 REVERT JUMPDEST DUP1 PUSH4 0x372500AB GT PUSH2 0x310 JUMPI DUP1 PUSH4 0x4E43603A GT PUSH2 0x2A3 JUMPI DUP1 PUSH4 0x5F9D9909 GT PUSH2 0x272 JUMPI DUP1 PUSH4 0x5F9D9909 EQ PUSH2 0x688 JUMPI DUP1 PUSH4 0x63546F0C EQ PUSH2 0x69B JUMPI DUP1 PUSH4 0x6CB13595 EQ PUSH2 0x6A4 JUMPI DUP1 PUSH4 0x70A08231 EQ PUSH2 0x6B7 JUMPI DUP1 PUSH4 0x715018A6 EQ PUSH2 0x6CA JUMPI PUSH1 0x0 DUP1 REVERT JUMPDEST DUP1 PUSH4 0x4E43603A EQ PUSH2 0x614 JUMPI DUP1 PUSH4 0x59927044 EQ PUSH2 0x65A JUMPI DUP1 PUSH4 0x5C975ABB EQ PUSH2 0x66D JUMPI DUP1 PUSH4 0x5CB90ABE EQ PUSH2 0x678 JUMPI PUSH1 0x0 DUP1 REVERT JUMPDEST DUP1 PUSH4 0x42966C68 GT PUSH2 0x2DF JUMPI DUP1 PUSH4 0x42966C68 EQ PUSH2 0x5A3 JUMPI DUP1 PUSH4 0x4596CE20 EQ PUSH2 0x5B6 JUMPI DUP1 PUSH4 0x4626402B EQ PUSH2 0x5D6 JUMPI DUP1 PUSH4 0x49C2A1A6 EQ PUSH2 0x601 JUMPI PUSH1 0x0 DUP1 REVERT JUMPDEST DUP1 PUSH4 0x372500AB EQ PUSH2 0x581 JUMPI DUP1 PUSH4 0x373C6193 EQ PUSH2 0x589 JUMPI DUP1 PUSH4 0x3A04801D EQ PUSH2 0x592 JUMPI DUP1 PUSH4 0x3F4BA83A EQ PUSH2 0x59B JUMPI PUSH1 0x0 DUP1 REVERT JUMPDEST DUP1 PUSH4 0xE614B8C GT PUSH2 0x388 JUMPI DUP1 PUSH4 0x23B872DD GT PUSH2 0x357 JUMPI DUP1 PUSH4 0x23B872DD EQ PUSH2 0x544 JUMPI DUP1 PUSH4 0x2DEF6620 EQ PUSH2 0x557 JUMPI DUP1 PUSH4 0x313CE567 EQ PUSH2 0x55F JUMPI DUP1 PUSH4 0x320F01A5 EQ PUSH2 0x56E JUMPI PUSH1 0x0 DUP1 REVERT JUMPDEST DUP1 PUSH4 0xE614B8C EQ PUSH2 0x4E3 JUMPI DUP1 PUSH4 0x16934FC4 EQ PUSH2 0x4F4 JUMPI DUP1 PUSH4 0x18160DDD EQ PUSH2 0x529 JUMPI DUP1 PUSH4 0x209AB711 EQ PUSH2 0x531 JUMPI PUSH1 0x0 DUP1 REVERT JUMPDEST DUP1 PUSH4 0x8014D8B GT PUSH2 0x3C4 JUMPI DUP1 PUSH4 0x8014D8B EQ PUSH2 0x47A JUMPI DUP1 PUSH4 0x95EA7B3 EQ PUSH2 0x483 JUMPI DUP1 PUSH4 0x97CD9BF EQ PUSH2 0x4A6 JUMPI DUP1 PUSH4 0xD61B519 EQ PUSH2 0x4CE JUMPI PUSH1 0x0 DUP1 REVERT JUMPDEST DUP1 PUSH4 0x13CF08B EQ PUSH2 0x3F6 JUMPI DUP1 PUSH4 0x40A4F42 EQ PUSH2 0x424 JUMPI DUP1 PUSH4 0x653BADC EQ PUSH2 0x452 JUMPI DUP1 PUSH4 0x6FDDE03 EQ PUSH2 0x465 JUMPI JUMPDEST PUSH1 0x0 DUP1 REVERT JUMPDEST PUSH2 0x409 PUSH2 0x404 CALLDATASIZE PUSH1 0x4 PUSH2 0x254E JUMP JUMPDEST PUSH2 0x996 JUMP JUMPDEST PUSH1 0x40 MLOAD PUSH2 0x41B SWAP7 SWAP6 SWAP5 SWAP4 SWAP3 SWAP2 SWAP1 PUSH2 0x25AD JUMP JUMPDEST PUSH1 0x40 MLOAD DUP1 SWAP2 SUB SWAP1 RETURN JUMPDEST PUSH2 0x444 PUSH2 0x432 CALLDATASIZE PUSH1 0x4 PUSH2 0x2607 JUMP JUMPDEST PUSH1 0x1C PUSH1 0x20 MSTORE PUSH1 0x0 SWAP1 DUP2 MSTORE PUSH1 0x40 SWAP1 KECCAK256 SLOAD DUP2 JUMP JUMPDEST PUSH1 0x40 MLOAD SWAP1 DUP2 MSTORE PUSH1 0x20 ADD PUSH2 0x41B JUMP JUMPDEST PUSH2 0x444 PUSH2 0x460 CALLDATASIZE PUSH1 0x4 PUSH2 0x2629 JUMP JUMPDEST PUSH2 0xA56 JUMP JUMPDEST PUSH2 0x46D PUSH2 0xBEE JUMP JUMPDEST PUSH1 0x40 MLOAD PUSH2 0x41B SWAP2 SWAP1 PUSH2 0x2653 JUMP JUMPDEST PUSH2 0x444 PUSH2 0x9C4 DUP2 JUMP JUMPDEST PUSH2 0x496 PUSH2 0x491 CALLDATASIZE PUSH1 0x4 PUSH2 0x2629 JUMP JUMPDEST PUSH2 0xC80 JUMP JUMPDEST PUSH1 0x40 MLOAD SWAP1 ISZERO ISZERO DUP2 MSTORE PUSH1 0x20 ADD PUSH2 0x41B JUMP JUMPDEST PUSH2 0x4AE PUSH2 0xC98 JUMP JUMPDEST PUSH1 0x40 DUP1 MLOAD SWAP5 DUP6 MSTORE PUSH1 0x20 DUP6 ADD SWAP4 SWAP1 SWAP4 MSTORE SWAP2 DUP4 ADD MSTORE PUSH1 0x60 DUP3 ADD MSTORE PUSH1 0x80 ADD PUSH2 0x41B JUMP JUMPDEST PUSH2 0x4E1 PUSH2 0x4DC CALLDATASIZE PUSH1 0x4 PUSH2 0x254E JUMP JUMPDEST PUSH2 0xCBE JUMP JUMPDEST STOP JUMPDEST PUSH2 0x444 PUSH10 0x10F0CF064DD59200000 DUP2 JUMP JUMPDEST PUSH2 0x4AE PUSH2 0x502 CALLDATASIZE PUSH1 0x4 PUSH2 0x2607 JUMP JUMPDEST PUSH1 0xE PUSH1 0x20 MSTORE PUSH1 0x0 SWAP1 DUP2 MSTORE PUSH1 0x40 SWAP1 KECCAK256 DUP1 SLOAD PUSH1 0x1 DUP3 ADD SLOAD PUSH1 0x2 DUP4 ADD SLOAD PUSH1 0x3 SWAP1 SWAP4 ADD SLOAD SWAP2 SWAP3 SWAP1 SWAP2 DUP5 JUMP JUMPDEST PUSH1 0x2 SLOAD PUSH2 0x444 JUMP JUMPDEST PUSH2 0x4E1 PUSH2 0x53F CALLDATASIZE PUSH1 0x4 PUSH2 0x2607 JUMP JUMPDEST PUSH2 0xDF0 JUMP JUMPDEST PUSH2 0x496 PUSH2 0x552 CALLDATASIZE PUSH1 0x4 PUSH2 0x2666 JUMP JUMPDEST PUSH2 0xFF3 JUMP JUMPDEST PUSH2 0x4E1 PUSH2 0x1017 JUMP JUMPDEST PUSH1 0x40 MLOAD PUSH1 0x12 DUP2 MSTORE PUSH1 0x20 ADD PUSH2 0x41B JUMP JUMPDEST PUSH2 0x4E1 PUSH2 0x57C CALLDATASIZE PUSH1 0x4 PUSH2 0x2629 JUMP JUMPDEST PUSH2 0x11B8 JUMP JUMPDEST PUSH2 0x4E1 PUSH2 0x124A JUMP JUMPDEST PUSH2 0x444 PUSH2 0x5DC DUP2 JUMP JUMPDEST PUSH2 0x444 PUSH1 0x1B SLOAD DUP2 JUMP JUMPDEST PUSH2 0x4E1 PUSH2 0x1265 JUMP JUMPDEST PUSH2 0x4E1 PUSH2 0x5B1 CALLDATASIZE PUSH1 0x4 PUSH2 0x254E JUMP JUMPDEST PUSH2 0x1275 JUMP JUMPDEST PUSH2 0x444 PUSH2 0x5C4 CALLDATASIZE PUSH1 0x4 PUSH2 0x2607 JUMP JUMPDEST PUSH1 0x11 PUSH1 0x20 MSTORE PUSH1 0x0 SWAP1 DUP2 MSTORE PUSH1 0x40 SWAP1 KECCAK256 SLOAD DUP2 JUMP JUMPDEST PUSH1 0xA SLOAD PUSH2 0x5E9 SWAP1 PUSH1 0x1 PUSH1 0x1 PUSH1 0xA0 SHL SUB AND DUP2 JUMP JUMPDEST PUSH1 0x40 MLOAD PUSH1 0x1 PUSH1 0x1 PUSH1 0xA0 SHL SUB SWAP1 SWAP2 AND DUP2 MSTORE PUSH1 0x20 ADD PUSH2 0x41B JUMP JUMPDEST PUSH2 0x444 PUSH2 0x60F CALLDATASIZE PUSH1 0x4 PUSH2 0x26B8 JUMP JUMPDEST PUSH2 0x1282 JUMP JUMPDEST PUSH2 0x627 PUSH2 0x622 CALLDATASIZE PUSH1 0x4 PUSH2 0x2607 JUMP JUMPDEST PUSH2 0x136C JUMP JUMPDEST PUSH1 0x40 DUP1 MLOAD SWAP7 DUP8 MSTORE SWAP5 ISZERO ISZERO PUSH1 0x20 DUP8 ADD MSTORE SWAP3 ISZERO ISZERO SWAP4 DUP6 ADD SWAP4 SWAP1 SWAP4 MSTORE PUSH1 0x60 DUP5 ADD MSTORE PUSH1 0x80 DUP4 ADD SWAP2 SWAP1 SWAP2 MSTORE PUSH1 0xA0 DUP3 ADD MSTORE PUSH1 0xC0 ADD PUSH2 0x41B JUMP JUMPDEST PUSH1 0xB SLOAD PUSH2 0x5E9 SWAP1 PUSH1 0x1 PUSH1 0x1 PUSH1 0xA0 SHL SUB AND DUP2 JUMP JUMPDEST PUSH1 0x5 SLOAD PUSH1 0xFF AND PUSH2 0x496 JUMP JUMPDEST PUSH2 0x444 PUSH9 0x3635C9ADC5DEA00000 DUP2 JUMP JUMPDEST PUSH2 0x4E1 PUSH2 0x696 CALLDATASIZE PUSH1 0x4 PUSH2 0x254E JUMP JUMPDEST PUSH2 0x13FD JUMP JUMPDEST PUSH2 0x444 PUSH2 0x320 DUP2 JUMP JUMPDEST PUSH1 0x7 SLOAD PUSH2 0x5E9 SWAP1 PUSH1 0x1 PUSH1 0x1 PUSH1 0xA0 SHL SUB AND DUP2 JUMP JUMPDEST PUSH2 0x444 PUSH2 0x6C5 CALLDATASIZE PUSH1 0x4 PUSH2 0x2607 JUMP JUMPDEST PUSH2 0x14F8 JUMP JUMPDEST PUSH2 0x4E1 PUSH2 0x1513 JUMP JUMPDEST PUSH2 0x444 PUSH2 0x3E8 DUP2 JUMP JUMPDEST PUSH2 0x496 PUSH2 0x6E9 CALLDATASIZE PUSH1 0x4 PUSH2 0x2607 JUMP JUMPDEST PUSH1 0x10 PUSH1 0x20 MSTORE PUSH1 0x0 SWAP1 DUP2 MSTORE PUSH1 0x40 SWAP1 KECCAK256 SLOAD PUSH1 0xFF AND DUP2 JUMP JUMPDEST PUSH2 0x4E1 PUSH2 0x70C CALLDATASIZE PUSH1 0x4 PUSH2 0x2629 JUMP JUMPDEST PUSH2 0x1525 JUMP JUMPDEST PUSH2 0x4E1 PUSH2 0x71F CALLDATASIZE PUSH1 0x4 PUSH2 0x2769 JUMP JUMPDEST PUSH2 0x153E JUMP JUMPDEST PUSH2 0x444 PUSH1 0xF SLOAD DUP2 JUMP JUMPDEST PUSH2 0x444 PUSH1 0xC8 DUP2 JUMP JUMPDEST PUSH2 0x4E1 PUSH2 0x172E JUMP JUMPDEST PUSH2 0x444 PUSH9 0x2B5E3AF16B1880000 DUP2 JUMP JUMPDEST PUSH1 0xC SLOAD PUSH2 0x5E9 SWAP1 PUSH1 0x1 PUSH1 0x1 PUSH1 0xA0 SHL SUB AND DUP2 JUMP JUMPDEST PUSH1 0x5 SLOAD PUSH2 0x100 SWAP1 DIV PUSH1 0x1 PUSH1 0x1 PUSH1 0xA0 SHL SUB AND PUSH2 0x5E9 JUMP JUMPDEST PUSH2 0x46D PUSH2 0x173E JUMP JUMPDEST PUSH2 0x444 PUSH10 0x21E19E0C9BAB2400000 DUP2 JUMP JUMPDEST PUSH2 0x444 PUSH1 0x32 DUP2 JUMP JUMPDEST PUSH1 0x8 SLOAD PUSH2 0x5E9 SWAP1 PUSH1 0x1 PUSH1 0x1 PUSH1 0xA0 SHL SUB AND DUP2 JUMP JUMPDEST PUSH2 0x496 PUSH2 0x7B8 CALLDATASIZE PUSH1 0x4 PUSH2 0x2629 JUMP JUMPDEST PUSH2 0x174D JUMP JUMPDEST PUSH2 0x5E9 PUSH2 0x7CB CALLDATASIZE PUSH1 0x4 PUSH2 0x2607 JUMP JUMPDEST PUSH1 0x14 PUSH1 0x20 MSTORE PUSH1 0x0 SWAP1 DUP2 MSTORE PUSH1 0x40 SWAP1 KECCAK256 SLOAD PUSH1 0x1 PUSH1 0x1 PUSH1 0xA0 SHL SUB AND DUP2 JUMP JUMPDEST PUSH2 0x444 PUSH3 0x3F480 DUP2 JUMP JUMPDEST PUSH2 0x444 PUSH1 0x18 SLOAD DUP2 JUMP JUMPDEST PUSH2 0x444 PUSH2 0x807 CALLDATASIZE PUSH1 0x4 PUSH2 0x2607 JUMP JUMPDEST PUSH1 0x16 PUSH1 0x20 MSTORE PUSH1 0x0 SWAP1 DUP2 MSTORE PUSH1 0x40 SWAP1 KECCAK256 SLOAD DUP2 JUMP JUMPDEST PUSH2 0x496 PUSH2 0x827 CALLDATASIZE PUSH1 0x4 PUSH2 0x2607 JUMP JUMPDEST PUSH1 0x1A PUSH1 0x20 MSTORE PUSH1 0x0 SWAP1 DUP2 MSTORE PUSH1 0x40 SWAP1 KECCAK256 SLOAD PUSH1 0xFF AND DUP2 JUMP JUMPDEST PUSH2 0x84F PUSH2 0x84A CALLDATASIZE PUSH1 0x4 PUSH2 0x2607 JUMP JUMPDEST PUSH2 0x175B JUMP JUMPDEST PUSH1 0x40 DUP1 MLOAD SWAP7 DUP8 MSTORE PUSH1 0x20 DUP8 ADD SWAP6 SWAP1 SWAP6 MSTORE SWAP4 DUP6 ADD SWAP3 SWAP1 SWAP3 MSTORE PUSH1 0x60 DUP5 ADD MSTORE ISZERO ISZERO PUSH1 0x80 DUP4 ADD MSTORE PUSH1 0xA0 DUP3 ADD MSTORE PUSH1 0xC0 ADD PUSH2 0x41B JUMP JUMPDEST PUSH2 0x4E1 PUSH2 0x88C CALLDATASIZE PUSH1 0x4 PUSH2 0x2629 JUMP JUMPDEST PUSH2 0x17F8 JUMP JUMPDEST PUSH1 0x9 SLOAD PUSH2 0x5E9 SWAP1 PUSH1 0x1 PUSH1 0x1 PUSH1 0xA0 SHL SUB AND DUP2 JUMP JUMPDEST PUSH2 0x4E1 PUSH2 0x8B2 CALLDATASIZE PUSH1 0x4 PUSH2 0x278B JUMP JUMPDEST PUSH2 0x18BE JUMP JUMPDEST PUSH2 0x4E1 PUSH2 0x8C5 CALLDATASIZE PUSH1 0x4 PUSH2 0x254E JUMP JUMPDEST PUSH2 0x1AD0 JUMP JUMPDEST PUSH1 0xD SLOAD PUSH2 0x5E9 SWAP1 PUSH1 0x1 PUSH1 0x1 PUSH1 0xA0 SHL SUB AND DUP2 JUMP JUMPDEST PUSH2 0x444 PUSH2 0x8EB CALLDATASIZE PUSH1 0x4 PUSH2 0x2607 JUMP JUMPDEST PUSH2 0x1B1D JUMP JUMPDEST PUSH2 0x444 PUSH1 0x19 SLOAD DUP2 JUMP JUMPDEST PUSH2 0x444 PUSH1 0x13 SLOAD DUP2 JUMP JUMPDEST PUSH2 0x444 PUSH2 0x910 CALLDATASIZE PUSH1 0x4 PUSH2 0x2607 JUMP JUMPDEST PUSH1 0x15 PUSH1 0x20 MSTORE PUSH1 0x0 SWAP1 DUP2 MSTORE PUSH1 0x40 SWAP1 KECCAK256 SLOAD DUP2 JUMP JUMPDEST PUSH2 0x444 PUSH2 0x930 CALLDATASIZE PUSH1 0x4 PUSH2 0x27C0 JUMP JUMPDEST PUSH1 0x1 PUSH1 0x1 PUSH1 0xA0 SHL SUB SWAP2 DUP3 AND PUSH1 0x0 SWAP1 DUP2 MSTORE PUSH1 0x1 PUSH1 0x20 SWAP1 DUP2 MSTORE PUSH1 0x40 DUP1 DUP4 KECCAK256 SWAP4 SWAP1 SWAP5 AND DUP3 MSTORE SWAP2 SWAP1 SWAP2 MSTORE KECCAK256 SLOAD SWAP1 JUMP JUMPDEST PUSH2 0x4E1 PUSH2 0x969 CALLDATASIZE PUSH1 0x4 PUSH2 0x2607 JUMP JUMPDEST PUSH2 0x1BCF JUMP JUMPDEST PUSH2 0x444 PUSH1 0xA DUP2 JUMP JUMPDEST PUSH2 0x444 PUSH2 0x984 CALLDATASIZE PUSH1 0x4 PUSH2 0x2607 JUMP JUMPDEST PUSH1 0x17 PUSH1 0x20 MSTORE PUSH1 0x0 SWAP1 DUP2 MSTORE PUSH1 0x40 SWAP1 KECCAK256 SLOAD DUP2 JUMP JUMPDEST PUSH1 0x12 PUSH1 0x20 MSTORE PUSH1 0x0 SWAP1 DUP2 MSTORE PUSH1 0x40 SWAP1 KECCAK256 DUP1 SLOAD DUP2 SWAP1 PUSH2 0x9B1 SWAP1 PUSH2 0x27F3 JUMP JUMPDEST DUP1 PUSH1 0x1F ADD PUSH1 0x20 DUP1 SWAP2 DIV MUL PUSH1 0x20 ADD PUSH1 0x40 MLOAD SWAP1 DUP2 ADD PUSH1 0x40 MSTORE DUP1 SWAP3 SWAP2 SWAP1 DUP2 DUP2 MSTORE PUSH1 0x20 ADD DUP3 DUP1 SLOAD PUSH2 0x9DD SWAP1 PUSH2 0x27F3 JUMP JUMPDEST DUP1 ISZERO PUSH2 0xA2A JUMPI DUP1 PUSH1 0x1F LT PUSH2 0x9FF JUMPI PUSH2 0x100 DUP1 DUP4 SLOAD DIV MUL DUP4 MSTORE SWAP2 PUSH1 0x20 ADD SWAP2 PUSH2 0xA2A JUMP JUMPDEST DUP3 ADD SWAP2 SWAP1 PUSH1 0x0 MSTORE PUSH1 0x20 PUSH1 0x0 KECCAK256 SWAP1 JUMPDEST DUP2 SLOAD DUP2 MSTORE SWAP1 PUSH1 0x1 ADD SWAP1 PUSH1 0x20 ADD DUP1 DUP4 GT PUSH2 0xA0D JUMPI DUP3 SWAP1 SUB PUSH1 0x1F AND DUP3 ADD SWAP2 JUMPDEST POP POP POP PUSH1 0x1 DUP5 ADD SLOAD PUSH1 0x2 DUP6 ADD SLOAD PUSH1 0x3 DUP7 ADD SLOAD PUSH1 0x4 DUP8 ADD SLOAD PUSH1 0x5 SWAP1 SWAP8 ADD SLOAD SWAP6 SWAP7 SWAP3 SWAP6 SWAP2 SWAP5 POP SWAP3 POP PUSH1 0xFF AND DUP7 JUMP JUMPDEST PUSH1 0x0 PUSH2 0xA60 PUSH2 0x1C0A JUMP JUMPDEST PUSH1 0x0 PUSH2 0x2710 PUSH1 0x1B SLOAD DUP5 PUSH2 0xA73 SWAP2 SWAP1 PUSH2 0x2843 JUMP JUMPDEST PUSH2 0xA7D SWAP2 SWAP1 PUSH2 0x285A JUMP JUMPDEST PUSH1 0x1 PUSH1 0x1 PUSH1 0xA0 SHL SUB DUP6 AND PUSH1 0x0 SWAP1 DUP2 MSTORE PUSH1 0x1C PUSH1 0x20 MSTORE PUSH1 0x40 DUP2 KECCAK256 SLOAD SWAP2 SWAP3 POP SWAP1 PUSH2 0x2710 SWAP1 PUSH2 0xAA8 SWAP1 DUP5 PUSH2 0x2843 JUMP JUMPDEST PUSH2 0xAB2 SWAP2 SWAP1 PUSH2 0x285A JUMP JUMPDEST SWAP1 POP PUSH1 0x0 PUSH2 0xAC0 DUP3 DUP5 PUSH2 0x287C JUMP JUMPDEST SWAP1 POP DUP1 ISZERO PUSH2 0xBE3 JUMPI PUSH1 0xA SLOAD PUSH2 0xAE0 SWAP1 DUP8 SWAP1 PUSH1 0x1 PUSH1 0x1 PUSH1 0xA0 SHL SUB AND DUP4 PUSH2 0x1C3D JUMP JUMPDEST PUSH1 0x0 PUSH2 0x2710 PUSH2 0xAF0 PUSH1 0x32 DUP5 PUSH2 0x2843 JUMP JUMPDEST PUSH2 0xAFA SWAP2 SWAP1 PUSH2 0x285A JUMP JUMPDEST SWAP1 POP DUP1 ISZERO PUSH2 0xB9E JUMPI PUSH1 0xA SLOAD PUSH2 0xB18 SWAP1 PUSH1 0x1 PUSH1 0x1 PUSH1 0xA0 SHL SUB AND DUP3 PUSH2 0x1C9C JUMP JUMPDEST DUP1 PUSH1 0x19 PUSH1 0x0 DUP3 DUP3 SLOAD PUSH2 0xB2A SWAP2 SWAP1 PUSH2 0x288F JUMP JUMPDEST SWAP1 SWAP2 SSTORE POP POP PUSH1 0xA SLOAD PUSH1 0x40 MLOAD PUSH1 0x1 PUSH1 0x1 PUSH1 0xA0 SHL SUB SWAP1 SWAP2 AND SWAP1 PUSH32 0xFAD31924D655455395C87544C8AA1FFDB5A7505A22A3C2E03F28003B6556A75F SWAP1 PUSH2 0xB95 SWAP1 DUP5 DUP2 MSTORE PUSH1 0x40 PUSH1 0x20 DUP3 ADD DUP2 SWAP1 MSTORE PUSH1 0xD SWAP1 DUP3 ADD MSTORE PUSH13 0x29BBB0B8103332B290313AB937 PUSH1 0x99 SHL PUSH1 0x60 DUP3 ADD MSTORE PUSH1 0x80 ADD SWAP1 JUMP JUMPDEST PUSH1 0x40 MLOAD DUP1 SWAP2 SUB SWAP1 LOG2 JUMPDEST DUP7 PUSH1 0x1 PUSH1 0x1 PUSH1 0xA0 SHL SUB AND PUSH32 0xA9FE54EF5A1158A86C9DE1049B90DA1DFB1CCA22E1CD10BEB8FCAEE1E8386AF1 DUP4 PUSH1 0x40 MLOAD PUSH2 0xBD9 SWAP2 DUP2 MSTORE PUSH1 0x20 ADD SWAP1 JUMP JUMPDEST PUSH1 0x40 MLOAD DUP1 SWAP2 SUB SWAP1 LOG2 POP JUMPDEST SWAP3 POP POP POP JUMPDEST SWAP3 SWAP2 POP POP JUMP JUMPDEST PUSH1 0x60 PUSH1 0x3 DUP1 SLOAD PUSH2 0xBFD SWAP1 PUSH2 0x27F3 JUMP JUMPDEST DUP1 PUSH1 0x1F ADD PUSH1 0x20 DUP1 SWAP2 DIV MUL PUSH1 0x20 ADD PUSH1 0x40 MLOAD SWAP1 DUP2 ADD PUSH1 0x40 MSTORE DUP1 SWAP3 SWAP2 SWAP1 DUP2 DUP2 MSTORE PUSH1 0x20 ADD DUP3 DUP1 SLOAD PUSH2 0xC29 SWAP1 PUSH2 0x27F3 JUMP JUMPDEST DUP1 ISZERO PUSH2 0xC76 JUMPI DUP1 PUSH1 0x1F LT PUSH2 0xC4B JUMPI PUSH2 0x100 DUP1 DUP4 SLOAD DIV MUL DUP4 MSTORE SWAP2 PUSH1 0x20 ADD SWAP2 PUSH2 0xC76 JUMP JUMPDEST DUP3 ADD SWAP2 SWAP1 PUSH1 0x0 MSTORE PUSH1 0x20 PUSH1 0x0 KECCAK256 SWAP1 JUMPDEST DUP2 SLOAD DUP2 MSTORE SWAP1 PUSH1 0x1 ADD SWAP1 PUSH1 0x20 ADD DUP1 DUP4 GT PUSH2 0xC59 JUMPI DUP3 SWAP1 SUB PUSH1 0x1F AND DUP3 ADD SWAP2 JUMPDEST POP POP POP POP POP SWAP1 POP SWAP1 JUMP JUMPDEST PUSH1 0x0 CALLER PUSH2 0xC8E DUP2 DUP6 DUP6 PUSH2 0x1CD2 JUMP JUMPDEST POP PUSH1 0x1 SWAP4 SWAP3 POP POP POP JUMP JUMPDEST PUSH1 0x0 DUP1 PUSH1 0x0 DUP1 PUSH2 0xCA7 PUSH1 0x2 SLOAD SWAP1 JUMP JUMPDEST PUSH1 0x19 SLOAD PUSH1 0xF SLOAD PUSH1 0x18 SLOAD SWAP4 POP SWAP4 POP SWAP4 POP SWAP4 POP SWAP1 SWAP2 SWAP3 SWAP4 JUMP JUMPDEST PUSH2 0xCC6 PUSH2 0x1C0A JUMP JUMPDEST PUSH1 0x0 DUP2 DUP2 MSTORE PUSH1 0x12 PUSH1 0x20 MSTORE PUSH1 0x40 SWAP1 KECCAK256 PUSH1 0x4 DUP2 ADD SLOAD TIMESTAMP GT PUSH2 0xD1F JUMPI PUSH1 0x40 MLOAD PUSH3 0x461BCD PUSH1 0xE5 SHL DUP2 MSTORE PUSH1 0x20 PUSH1 0x4 DUP3 ADD MSTORE PUSH1 0x10 PUSH1 0x24 DUP3 ADD MSTORE PUSH16 0x159BDD1A5B99C81B9BDD08195B991959 PUSH1 0x82 SHL PUSH1 0x44 DUP3 ADD MSTORE PUSH1 0x64 ADD JUMPDEST PUSH1 0x40 MLOAD DUP1 SWAP2 SUB SWAP1 REVERT JUMPDEST PUSH1 0x5 DUP2 ADD SLOAD PUSH1 0xFF AND ISZERO PUSH2 0xD67 JUMPI PUSH1 0x40 MLOAD PUSH3 0x461BCD PUSH1 0xE5 SHL DUP2 MSTORE PUSH1 0x20 PUSH1 0x4 DUP3 ADD MSTORE PUSH1 0x10 PUSH1 0x24 DUP3 ADD MSTORE PUSH16 0x105B1C9958591E48195E1958DD5D1959 PUSH1 0x82 SHL PUSH1 0x44 DUP3 ADD MSTORE PUSH1 0x64 ADD PUSH2 0xD16 JUMP JUMPDEST DUP1 PUSH1 0x2 ADD SLOAD DUP2 PUSH1 0x1 ADD SLOAD GT PUSH2 0xDB2 JUMPI PUSH1 0x40 MLOAD PUSH3 0x461BCD PUSH1 0xE5 SHL DUP2 MSTORE PUSH1 0x20 PUSH1 0x4 DUP3 ADD MSTORE PUSH1 0x11 PUSH1 0x24 DUP3 ADD MSTORE PUSH17 0x141C9BDC1BDCD85B081C995A9958DD1959 PUSH1 0x7A SHL PUSH1 0x44 DUP3 ADD MSTORE PUSH1 0x64 ADD PUSH2 0xD16 JUMP JUMPDEST PUSH1 0x5 DUP2 ADD DUP1 SLOAD PUSH1 0xFF NOT AND PUSH1 0x1 OR SWAP1 SSTORE PUSH1 0x40 MLOAD DUP3 SWAP1 PUSH32 0x712AE1383F79AC853F8D882153778E0260EF8F03B504E2866E0593E04D2B291F SWAP1 PUSH1 0x0 SWAP1 LOG2 POP POP JUMP JUMPDEST CALLER PUSH1 0x0 SWAP1 DUP2 MSTORE PUSH1 0x14 PUSH1 0x20 MSTORE PUSH1 0x40 SWAP1 KECCAK256 SLOAD PUSH1 0x1 PUSH1 0x1 PUSH1 0xA0 SHL SUB AND ISZERO PUSH2 0xE49 JUMPI PUSH1 0x40 MLOAD PUSH3 0x461BCD PUSH1 0xE5 SHL DUP2 MSTORE PUSH1 0x20 PUSH1 0x4 DUP3 ADD MSTORE PUSH1 0x10 PUSH1 0x24 DUP3 ADD MSTORE PUSH16 0x105B1C9958591E481C9959995C9C9959 PUSH1 0x82 SHL PUSH1 0x44 DUP3 ADD MSTORE PUSH1 0x64 ADD PUSH2 0xD16 JUMP JUMPDEST CALLER PUSH1 0x1 PUSH1 0x1 PUSH1 0xA0 SHL SUB DUP3 AND SUB PUSH2 0xE99 JUMPI PUSH1 0x40 MLOAD PUSH3 0x461BCD PUSH1 0xE5 SHL DUP2 MSTORE PUSH1 0x20 PUSH1 0x4 DUP3 ADD MSTORE PUSH1 0x15 PUSH1 0x24 DUP3 ADD MSTORE PUSH21 0x21B0B73737BA103932B332B9103CB7BAB939B2B633 PUSH1 0x59 SHL PUSH1 0x44 DUP3 ADD MSTORE PUSH1 0x64 ADD PUSH2 0xD16 JUMP JUMPDEST PUSH1 0x1 PUSH1 0x1 PUSH1 0xA0 SHL SUB DUP2 AND PUSH2 0xEE2 JUMPI PUSH1 0x40 MLOAD PUSH3 0x461BCD PUSH1 0xE5 SHL DUP2 MSTORE PUSH1 0x20 PUSH1 0x4 DUP3 ADD MSTORE PUSH1 0x10 PUSH1 0x24 DUP3 ADD MSTORE PUSH16 0x24B73B30B634B2103932B332B93932B9 PUSH1 0x81 SHL PUSH1 0x44 DUP3 ADD MSTORE PUSH1 0x64 ADD PUSH2 0xD16 JUMP JUMPDEST CALLER PUSH1 0x0 SWAP1 DUP2 MSTORE PUSH1 0x14 PUSH1 0x20 SWAP1 DUP2 MSTORE PUSH1 0x40 DUP1 DUP4 KECCAK256 DUP1 SLOAD PUSH1 0x1 PUSH1 0x1 PUSH1 0xA0 SHL SUB NOT AND PUSH1 0x1 PUSH1 0x1 PUSH1 0xA0 SHL SUB DUP7 AND SWAP1 DUP2 OR SWAP1 SWAP2 SSTORE DUP4 MSTORE PUSH1 0x15 SWAP1 SWAP2 MSTORE DUP2 KECCAK256 DUP1 SLOAD SWAP2 PUSH2 0xF25 DUP4 PUSH2 0x28A2 JUMP JUMPDEST SWAP1 SWAP2 SSTORE POP POP PUSH1 0x9 SLOAD PUSH9 0x2B5E3AF16B1880000 SWAP1 PUSH2 0xF4C SWAP1 PUSH1 0x1 PUSH1 0x1 PUSH1 0xA0 SHL SUB AND DUP4 DUP4 PUSH2 0x1C3D JUMP JUMPDEST PUSH1 0x1 PUSH1 0x1 PUSH1 0xA0 SHL SUB DUP3 AND PUSH1 0x0 SWAP1 DUP2 MSTORE PUSH1 0x16 PUSH1 0x20 MSTORE PUSH1 0x40 DUP2 KECCAK256 DUP1 SLOAD DUP4 SWAP3 SWAP1 PUSH2 0xF74 SWAP1 DUP5 SWAP1 PUSH2 0x288F JUMP JUMPDEST SWAP1 SWAP2 SSTORE POP POP PUSH1 0x40 MLOAD PUSH1 0x1 PUSH1 0x1 PUSH1 0xA0 SHL SUB DUP4 AND SWAP1 CALLER SWAP1 PUSH32 0x5F1CA2FCC108B751843A763E60D2201F593516109D7DBB1B700468F2D4190BB7 SWAP1 PUSH1 0x0 SWAP1 LOG3 PUSH1 0x40 MLOAD DUP2 DUP2 MSTORE CALLER SWAP1 PUSH1 0x1 PUSH1 0x1 PUSH1 0xA0 SHL SUB DUP5 AND SWAP1 PUSH32 0x94CCB86446750660EC532B1BEB1FB55F5BA2FFFCA042C4C53F4C080E72595B38 SWAP1 PUSH1 0x20 ADD PUSH1 0x40 MLOAD DUP1 SWAP2 SUB SWAP1 LOG3 POP POP JUMP JUMPDEST PUSH1 0x0 CALLER PUSH2 0x1001 DUP6 DUP3 DUP6 PUSH2 0x1CDF JUMP JUMPDEST PUSH2 0x100C DUP6 DUP6 DUP6 PUSH2 0x1C3D JUMP JUMPDEST POP PUSH1 0x1 SWAP5 SWAP4 POP POP POP POP JUMP JUMPDEST PUSH2 0x101F PUSH2 0x1D5E JUMP JUMPDEST CALLER PUSH1 0x0 SWAP1 DUP2 MSTORE PUSH1 0xE PUSH1 0x20 SWAP1 DUP2 MSTORE PUSH1 0x40 SWAP2 DUP3 SWAP1 KECCAK256 DUP3 MLOAD PUSH1 0x80 DUP2 ADD DUP5 MSTORE DUP2 SLOAD DUP1 DUP3 MSTORE PUSH1 0x1 DUP4 ADD SLOAD SWAP4 DUP3 ADD SWAP4 SWAP1 SWAP4 MSTORE PUSH1 0x2 DUP3 ADD SLOAD SWAP4 DUP2 ADD SWAP4 SWAP1 SWAP4 MSTORE PUSH1 0x3 ADD SLOAD PUSH1 0x60 DUP4 ADD MSTORE PUSH2 0x109D JUMPI PUSH1 0x40 MLOAD PUSH3 0x461BCD PUSH1 0xE5 SHL DUP2 MSTORE PUSH1 0x20 PUSH1 0x4 DUP3 ADD MSTORE PUSH1 0xE PUSH1 0x24 DUP3 ADD MSTORE PUSH14 0x139BC81CDD185AD948199BDD5B99 PUSH1 0x92 SHL PUSH1 0x44 DUP3 ADD MSTORE PUSH1 0x64 ADD PUSH2 0xD16 JUMP JUMPDEST DUP1 PUSH1 0x40 ADD MLOAD DUP2 PUSH1 0x20 ADD MLOAD PUSH2 0x10B1 SWAP2 SWAP1 PUSH2 0x288F JUMP JUMPDEST TIMESTAMP LT ISZERO PUSH2 0x10EF JUMPI PUSH1 0x40 MLOAD PUSH3 0x461BCD PUSH1 0xE5 SHL DUP2 MSTORE PUSH1 0x20 PUSH1 0x4 DUP3 ADD MSTORE PUSH1 0xC PUSH1 0x24 DUP3 ADD MSTORE PUSH12 0x14DD1A5B1B081B1BD8DAD959 PUSH1 0xA2 SHL PUSH1 0x44 DUP3 ADD MSTORE PUSH1 0x64 ADD PUSH2 0xD16 JUMP JUMPDEST PUSH1 0x0 PUSH2 0x10FA CALLER PUSH2 0x1B1D JUMP JUMPDEST SWAP1 POP PUSH1 0x0 DUP2 DUP4 PUSH1 0x0 ADD MLOAD PUSH2 0x110E SWAP2 SWAP1 PUSH2 0x288F JUMP JUMPDEST SWAP1 POP DUP3 PUSH1 0x0 ADD MLOAD PUSH1 0xF PUSH1 0x0 DUP3 DUP3 SLOAD PUSH2 0x1126 SWAP2 SWAP1 PUSH2 0x287C JUMP JUMPDEST SWAP1 SWAP2 SSTORE POP POP CALLER PUSH1 0x0 DUP2 DUP2 MSTORE PUSH1 0xE PUSH1 0x20 MSTORE PUSH1 0x40 DUP2 KECCAK256 DUP2 DUP2 SSTORE PUSH1 0x1 DUP2 ADD DUP3 SWAP1 SSTORE PUSH1 0x2 DUP2 ADD DUP3 SWAP1 SSTORE PUSH1 0x3 ADD SSTORE PUSH2 0x1158 SWAP1 PUSH2 0x1D88 JUMP JUMPDEST PUSH2 0x1161 CALLER PUSH2 0x1EE4 JUMP JUMPDEST PUSH2 0x116C ADDRESS CALLER DUP4 PUSH2 0x1C3D JUMP JUMPDEST DUP3 MLOAD PUSH1 0x40 DUP1 MLOAD SWAP2 DUP3 MSTORE PUSH1 0x20 DUP3 ADD DUP5 SWAP1 MSTORE CALLER SWAP2 PUSH32 0x7FC4727E062E336010F2C282598EF5F14FACB3DE68CF8195C2F23E1454B2B74E SWAP2 ADD PUSH1 0x40 MLOAD DUP1 SWAP2 SUB SWAP1 LOG2 POP POP POP PUSH2 0x11B6 PUSH1 0x1 PUSH1 0x6 SSTORE JUMP JUMPDEST JUMP JUMPDEST PUSH2 0x11C0 PUSH2 0x1C0A JUMP JUMPDEST PUSH1 0x1 PUSH1 0x1 PUSH1 0xA0 SHL SUB DUP1 DUP4 AND PUSH1 0x0 SWAP1 DUP2 MSTORE PUSH1 0x14 PUSH1 0x20 MSTORE PUSH1 0x40 SWAP1 KECCAK256 SLOAD AND DUP1 ISZERO PUSH2 0x1245 JUMPI PUSH1 0x0 PUSH2 0x2710 PUSH2 0x11F2 PUSH2 0x3E8 DUP6 PUSH2 0x2843 JUMP JUMPDEST PUSH2 0x11FC SWAP2 SWAP1 PUSH2 0x285A JUMP JUMPDEST PUSH1 0xA SLOAD SWAP1 SWAP2 POP PUSH2 0x1216 SWAP1 PUSH1 0x1 PUSH1 0x1 PUSH1 0xA0 SHL SUB AND DUP4 DUP4 PUSH2 0x1C3D JUMP JUMPDEST PUSH1 0x1 PUSH1 0x1 PUSH1 0xA0 SHL SUB DUP3 AND PUSH1 0x0 SWAP1 DUP2 MSTORE PUSH1 0x16 PUSH1 0x20 MSTORE PUSH1 0x40 DUP2 KECCAK256 DUP1 SLOAD DUP4 SWAP3 SWAP1 PUSH2 0x123E SWAP1 DUP5 SWAP1 PUSH2 0x288F JUMP JUMPDEST SWAP1 SWAP2 SSTORE POP POP POP JUMPDEST POP POP POP JUMP JUMPDEST PUSH2 0x1252 PUSH2 0x1D5E JUMP JUMPDEST PUSH2 0x125B CALLER PUSH2 0x1F9E JUMP JUMPDEST PUSH2 0x11B6 PUSH1 0x1 PUSH1 0x6 SSTORE JUMP JUMPDEST PUSH2 0x126D PUSH2 0x1C0A JUMP JUMPDEST PUSH2 0x11B6 PUSH2 0x208E JUMP JUMPDEST PUSH2 0x127F CALLER DUP3 PUSH2 0x1C9C JUMP JUMPDEST POP JUMP JUMPDEST PUSH1 0x0 PUSH9 0x3635C9ADC5DEA00000 PUSH2 0x1297 CALLER PUSH2 0x14F8 JUMP JUMPDEST LT ISZERO PUSH2 0x12DE JUMPI PUSH1 0x40 MLOAD PUSH3 0x461BCD PUSH1 0xE5 SHL DUP2 MSTORE PUSH1 0x20 PUSH1 0x4 DUP3 ADD MSTORE PUSH1 0x16 PUSH1 0x24 DUP3 ADD MSTORE PUSH22 0x4E65656420746F6B656E7320746F2070726F706F7365 PUSH1 0x50 SHL PUSH1 0x44 DUP3 ADD MSTORE PUSH1 0x64 ADD PUSH2 0xD16 JUMP JUMPDEST PUSH1 0x13 DUP1 SLOAD PUSH1 0x0 SWAP2 DUP3 PUSH2 0x12EF DUP4 PUSH2 0x28A2 JUMP JUMPDEST SWAP1 SWAP2 SSTORE POP PUSH1 0x0 DUP2 DUP2 MSTORE PUSH1 0x12 PUSH1 0x20 MSTORE PUSH1 0x40 SWAP1 KECCAK256 SWAP1 SWAP2 POP DUP1 PUSH2 0x130F DUP6 DUP3 PUSH2 0x2909 JUMP JUMPDEST POP TIMESTAMP PUSH1 0x3 DUP3 ADD DUP2 SWAP1 SSTORE PUSH2 0x1326 SWAP1 PUSH3 0x3F480 SWAP1 PUSH2 0x288F JUMP JUMPDEST PUSH1 0x4 DUP3 ADD SSTORE PUSH1 0x40 MLOAD DUP3 SWAP1 PUSH32 0x9C770C289AB5BF7E57CB1D23C8CEAE993AEA46EB64847072FD3D78CA60D3E432 SWAP1 PUSH2 0x135D SWAP1 DUP8 SWAP1 PUSH2 0x2653 JUMP JUMPDEST PUSH1 0x40 MLOAD DUP1 SWAP2 SUB SWAP1 LOG2 POP SWAP3 SWAP2 POP POP JUMP JUMPDEST PUSH1 0x1 PUSH1 0x1 PUSH1 0xA0 SHL SUB DUP2 AND PUSH1 0x0 SWAP1 DUP2 MSTORE PUSH1 0xE PUSH1 0x20 MSTORE PUSH1 0x40 DUP2 KECCAK256 SLOAD DUP2 SWAP1 DUP2 SWAP1 DUP2 SWAP1 DUP2 SWAP1 DUP2 SWAP1 PUSH2 0x1398 DUP9 PUSH2 0x14F8 JUMP JUMPDEST PUSH2 0x13A2 SWAP2 SWAP1 PUSH2 0x288F JUMP JUMPDEST PUSH1 0x1 PUSH1 0x1 PUSH1 0xA0 SHL SUB SWAP8 SWAP1 SWAP8 AND PUSH1 0x0 SWAP1 DUP2 MSTORE PUSH1 0x10 PUSH1 0x20 SWAP1 DUP2 MSTORE PUSH1 0x40 DUP1 DUP4 KECCAK256 SLOAD PUSH1 0x1A DUP4 MSTORE DUP2 DUP5 KECCAK256 SLOAD PUSH1 0x15 DUP5 MSTORE DUP3 DUP6 KECCAK256 SLOAD PUSH1 0x16 DUP6 MSTORE DUP4 DUP7 KECCAK256 SLOAD PUSH1 0x17 SWAP1 SWAP6 MSTORE SWAP3 SWAP1 SWAP5 KECCAK256 SLOAD SWAP11 SWAP12 PUSH1 0xFF SWAP2 DUP3 AND SWAP12 SWAP2 SWAP1 SWAP5 AND SWAP10 POP SWAP1 SWAP8 POP SWAP1 SWAP6 POP SWAP4 POP SWAP2 POP POP JUMP JUMPDEST PUSH2 0x1405 PUSH2 0x1C0A JUMP JUMPDEST PUSH1 0x0 DUP2 GT PUSH2 0x144A JUMPI PUSH1 0x40 MLOAD PUSH3 0x461BCD PUSH1 0xE5 SHL DUP2 MSTORE PUSH1 0x20 PUSH1 0x4 DUP3 ADD MSTORE PUSH1 0x12 PUSH1 0x24 DUP3 ADD MSTORE PUSH18 0x416D6F756E74206D757374206265203E203 PUSH1 0x74 SHL PUSH1 0x44 DUP3 ADD MSTORE PUSH1 0x64 ADD PUSH2 0xD16 JUMP JUMPDEST PUSH1 0xA SLOAD PUSH2 0x1460 SWAP1 PUSH1 0x1 PUSH1 0x1 PUSH1 0xA0 SHL SUB AND DUP3 PUSH2 0x1C9C JUMP JUMPDEST DUP1 PUSH1 0x19 PUSH1 0x0 DUP3 DUP3 SLOAD PUSH2 0x1472 SWAP2 SWAP1 PUSH2 0x288F JUMP JUMPDEST SWAP1 SWAP2 SSTORE POP POP PUSH1 0xA SLOAD PUSH1 0x40 MLOAD PUSH1 0x1 PUSH1 0x1 PUSH1 0xA0 SHL SUB SWAP1 SWAP2 AND SWAP1 PUSH32 0xFAD31924D655455395C87544C8AA1FFDB5A7505A22A3C2E03F28003B6556A75F SWAP1 PUSH2 0x14ED SWAP1 DUP5 DUP2 MSTORE PUSH1 0x40 PUSH1 0x20 DUP3 ADD DUP2 SWAP1 MSTORE PUSH1 0x17 SWAP1 DUP3 ADD MSTORE PUSH32 0x5472656173757279206275796261636B2026206275726E000000000000000000 PUSH1 0x60 DUP3 ADD MSTORE PUSH1 0x80 ADD SWAP1 JUMP JUMPDEST PUSH1 0x40 MLOAD DUP1 SWAP2 SUB SWAP1 LOG2 POP JUMP JUMPDEST PUSH1 0x1 PUSH1 0x1 PUSH1 0xA0 SHL SUB AND PUSH1 0x0 SWAP1 DUP2 MSTORE PUSH1 0x20 DUP2 SWAP1 MSTORE PUSH1 0x40 SWAP1 KECCAK256 SLOAD SWAP1 JUMP JUMPDEST PUSH2 0x151B PUSH2 0x1C0A JUMP JUMPDEST PUSH2 0x11B6 PUSH1 0x0 PUSH2 0x20E0 JUMP JUMPDEST PUSH2 0x1530 DUP3 CALLER DUP4 PUSH2 0x1CDF JUMP JUMPDEST PUSH2 0x153A DUP3 DUP3 PUSH2 0x1C9C JUMP JUMPDEST POP POP JUMP JUMPDEST PUSH2 0x1546 PUSH2 0x1D5E JUMP JUMPDEST PUSH2 0x154E PUSH2 0x213A JUMP JUMPDEST PUSH1 0x0 DUP3 GT PUSH2 0x158F JUMPI PUSH1 0x40 MLOAD PUSH3 0x461BCD PUSH1 0xE5 SHL DUP2 MSTORE PUSH1 0x20 PUSH1 0x4 DUP3 ADD MSTORE PUSH1 0xE PUSH1 0x24 DUP3 ADD MSTORE PUSH14 0x43616E6E6F74207374616B65203 PUSH1 0x94 SHL PUSH1 0x44 DUP3 ADD MSTORE PUSH1 0x64 ADD PUSH2 0xD16 JUMP JUMPDEST DUP1 ISZERO DUP1 PUSH2 0x159C JUMPI POP DUP1 PUSH1 0xB4 EQ JUMPDEST DUP1 PUSH2 0x15A8 JUMPI POP DUP1 PUSH2 0x16D EQ JUMPDEST PUSH2 0x15EA JUMPI PUSH1 0x40 MLOAD PUSH3 0x461BCD PUSH1 0xE5 SHL DUP2 MSTORE PUSH1 0x20 PUSH1 0x4 DUP3 ADD MSTORE PUSH1 0x13 PUSH1 0x24 DUP3 ADD MSTORE PUSH19 0x125B9D985B1A59081B1BD8DAC81C195C9A5BD9 PUSH1 0x6A SHL PUSH1 0x44 DUP3 ADD MSTORE PUSH1 0x64 ADD PUSH2 0xD16 JUMP JUMPDEST DUP2 PUSH2 0x15F4 CALLER PUSH2 0x14F8 JUMP JUMPDEST LT ISZERO PUSH2 0x1639 JUMPI PUSH1 0x40 MLOAD PUSH3 0x461BCD PUSH1 0xE5 SHL DUP2 MSTORE PUSH1 0x20 PUSH1 0x4 DUP3 ADD MSTORE PUSH1 0x14 PUSH1 0x24 DUP3 ADD MSTORE PUSH20 0x496E73756666696369656E742062616C616E6365 PUSH1 0x60 SHL PUSH1 0x44 DUP3 ADD MSTORE PUSH1 0x64 ADD PUSH2 0xD16 JUMP JUMPDEST CALLER PUSH1 0x0 SWAP1 DUP2 MSTORE PUSH1 0xE PUSH1 0x20 MSTORE PUSH1 0x40 SWAP1 KECCAK256 SLOAD ISZERO PUSH2 0x1657 JUMPI PUSH2 0x1657 CALLER PUSH2 0x1F9E JUMP JUMPDEST PUSH2 0x1662 CALLER ADDRESS DUP5 PUSH2 0x1C3D JUMP JUMPDEST CALLER PUSH1 0x0 SWAP1 DUP2 MSTORE PUSH1 0xE PUSH1 0x20 MSTORE PUSH1 0x40 DUP2 KECCAK256 DUP1 SLOAD DUP5 SWAP3 SWAP1 PUSH2 0x1681 SWAP1 DUP5 SWAP1 PUSH2 0x288F JUMP JUMPDEST SWAP1 SWAP2 SSTORE POP POP CALLER PUSH1 0x0 SWAP1 DUP2 MSTORE PUSH1 0xE PUSH1 0x20 MSTORE PUSH1 0x40 SWAP1 KECCAK256 TIMESTAMP PUSH1 0x1 SWAP1 SWAP2 ADD SSTORE PUSH2 0x16A9 DUP2 PUSH3 0x15180 PUSH2 0x2843 JUMP JUMPDEST CALLER PUSH1 0x0 SWAP1 DUP2 MSTORE PUSH1 0xE PUSH1 0x20 MSTORE PUSH1 0x40 DUP2 KECCAK256 PUSH1 0x2 ADD SWAP2 SWAP1 SWAP2 SSTORE PUSH1 0xF DUP1 SLOAD DUP5 SWAP3 SWAP1 PUSH2 0x16D1 SWAP1 DUP5 SWAP1 PUSH2 0x288F JUMP JUMPDEST SWAP1 SWAP2 SSTORE POP PUSH2 0x16E0 SWAP1 POP CALLER PUSH2 0x1D88 JUMP JUMPDEST PUSH2 0x16E9 CALLER PUSH2 0x1EE4 JUMP JUMPDEST PUSH1 0x40 DUP1 MLOAD DUP4 DUP2 MSTORE PUSH1 0x20 DUP2 ADD DUP4 SWAP1 MSTORE CALLER SWAP2 PUSH32 0x1449C6DD7851ABC30ABF37F57715F492010519147CC2652FBC38202C18A6EE90 SWAP2 ADD PUSH1 0x40 MLOAD DUP1 SWAP2 SUB SWAP1 LOG2 PUSH2 0x153A PUSH1 0x1 PUSH1 0x6 SSTORE JUMP JUMPDEST PUSH2 0x1736 PUSH2 0x1C0A JUMP JUMPDEST PUSH2 0x11B6 PUSH2 0x215E JUMP JUMPDEST PUSH1 0x60 PUSH1 0x4 DUP1 SLOAD PUSH2 0xBFD SWAP1 PUSH2 0x27F3 JUMP JUMPDEST PUSH1 0x0 CALLER PUSH2 0xC8E DUP2 DUP6 DUP6 PUSH2 0x1C3D JUMP JUMPDEST PUSH1 0x1 PUSH1 0x1 PUSH1 0xA0 SHL SUB DUP2 AND PUSH1 0x0 SWAP1 DUP2 MSTORE PUSH1 0xE PUSH1 0x20 SWAP1 DUP2 MSTORE PUSH1 0x40 DUP1 DUP4 KECCAK256 DUP2 MLOAD PUSH1 0x80 DUP2 ADD DUP4 MSTORE DUP2 SLOAD DUP1 DUP3 MSTORE PUSH1 0x1 DUP4 ADD SLOAD SWAP5 DUP3 ADD DUP6 SWAP1 MSTORE PUSH1 0x2 DUP4 ADD SLOAD SWAP4 DUP3 ADD DUP5 SWAP1 MSTORE PUSH1 0x3 SWAP1 SWAP3 ADD SLOAD PUSH1 0x60 DUP3 ADD MSTORE DUP5 SWAP4 DUP5 SWAP4 DUP5 SWAP4 DUP5 SWAP4 DUP5 SWAP4 SWAP1 SWAP3 PUSH2 0x17B9 DUP12 PUSH2 0x1B1D JUMP JUMPDEST PUSH1 0x1 PUSH1 0x1 PUSH1 0xA0 SHL SUB SWAP12 SWAP1 SWAP12 AND PUSH1 0x0 SWAP1 DUP2 MSTORE PUSH1 0x10 PUSH1 0x20 SWAP1 DUP2 MSTORE PUSH1 0x40 DUP1 DUP4 KECCAK256 SLOAD PUSH1 0x1C SWAP1 SWAP3 MSTORE SWAP1 SWAP2 KECCAK256 SLOAD SWAP4 SWAP13 SWAP3 SWAP12 SWAP2 SWAP11 POP SWAP1 SWAP9 POP PUSH1 0xFF AND SWAP7 POP SWAP1 SWAP5 POP SWAP3 POP POP POP JUMP JUMPDEST PUSH2 0x1800 PUSH2 0x1C0A JUMP JUMPDEST PUSH1 0x0 PUSH2 0x2710 PUSH2 0x1810 PUSH1 0xC8 DUP5 PUSH2 0x2843 JUMP JUMPDEST PUSH2 0x181A SWAP2 SWAP1 PUSH2 0x285A JUMP JUMPDEST PUSH1 0x9 SLOAD SWAP1 SWAP2 POP PUSH2 0x1834 SWAP1 PUSH1 0x1 PUSH1 0x1 PUSH1 0xA0 SHL SUB AND DUP5 DUP4 PUSH2 0x1C3D JUMP JUMPDEST PUSH1 0x1 PUSH1 0x1 PUSH1 0xA0 SHL SUB DUP4 AND PUSH1 0x0 SWAP1 DUP2 MSTORE PUSH1 0x17 PUSH1 0x20 MSTORE PUSH1 0x40 DUP2 KECCAK256 DUP1 SLOAD DUP4 SWAP3 SWAP1 PUSH2 0x185C SWAP1 DUP5 SWAP1 PUSH2 0x288F JUMP JUMPDEST SWAP3 POP POP DUP2 SWAP1 SSTORE POP DUP1 PUSH1 0x18 PUSH1 0x0 DUP3 DUP3 SLOAD PUSH2 0x1875 SWAP2 SWAP1 PUSH2 0x288F JUMP JUMPDEST SWAP1 SWAP2 SSTORE POP POP PUSH1 0x40 MLOAD DUP2 DUP2 MSTORE PUSH1 0x1 PUSH1 0x1 PUSH1 0xA0 SHL SUB DUP5 AND SWAP1 PUSH32 0x2E2E974120C7EE5C5BEBBACF723734F32EEA4FF459008EE5D6DF087C5FFEC6B4 SWAP1 PUSH1 0x20 ADD JUMPDEST PUSH1 0x40 MLOAD DUP1 SWAP2 SUB SWAP1 LOG2 POP POP POP JUMP JUMPDEST PUSH1 0x0 DUP3 DUP2 MSTORE PUSH1 0x12 PUSH1 0x20 MSTORE PUSH1 0x40 SWAP1 KECCAK256 PUSH1 0x3 DUP2 ADD SLOAD TIMESTAMP LT ISZERO PUSH2 0x1915 JUMPI PUSH1 0x40 MLOAD PUSH3 0x461BCD PUSH1 0xE5 SHL DUP2 MSTORE PUSH1 0x20 PUSH1 0x4 DUP3 ADD MSTORE PUSH1 0x12 PUSH1 0x24 DUP3 ADD MSTORE PUSH18 0x159BDD1A5B99C81B9BDD081CDD185C9D1959 PUSH1 0x72 SHL PUSH1 0x44 DUP3 ADD MSTORE PUSH1 0x64 ADD PUSH2 0xD16 JUMP JUMPDEST DUP1 PUSH1 0x4 ADD SLOAD TIMESTAMP GT ISZERO PUSH2 0x1958 JUMPI PUSH1 0x40 MLOAD PUSH3 0x461BCD PUSH1 0xE5 SHL DUP2 MSTORE PUSH1 0x20 PUSH1 0x4 DUP3 ADD MSTORE PUSH1 0xC PUSH1 0x24 DUP3 ADD MSTORE PUSH12 0x159BDD1A5B99C8195B991959 PUSH1 0xA2 SHL PUSH1 0x44 DUP3 ADD MSTORE PUSH1 0x64 ADD PUSH2 0xD16 JUMP JUMPDEST CALLER PUSH1 0x0 SWAP1 DUP2 MSTORE PUSH1 0x6 DUP3 ADD PUSH1 0x20 MSTORE PUSH1 0x40 SWAP1 KECCAK256 SLOAD PUSH1 0xFF AND ISZERO PUSH2 0x19AA JUMPI PUSH1 0x40 MLOAD PUSH3 0x461BCD PUSH1 0xE5 SHL DUP2 MSTORE PUSH1 0x20 PUSH1 0x4 DUP3 ADD MSTORE PUSH1 0xD PUSH1 0x24 DUP3 ADD MSTORE PUSH13 0x105B1C9958591E481D9BDD1959 PUSH1 0x9A SHL PUSH1 0x44 DUP3 ADD MSTORE PUSH1 0x64 ADD PUSH2 0xD16 JUMP JUMPDEST PUSH9 0x3635C9ADC5DEA00000 PUSH2 0x19BD CALLER PUSH2 0x14F8 JUMP JUMPDEST LT ISZERO PUSH2 0x1A01 JUMPI PUSH1 0x40 MLOAD PUSH3 0x461BCD PUSH1 0xE5 SHL DUP2 MSTORE PUSH1 0x20 PUSH1 0x4 DUP3 ADD MSTORE PUSH1 0x13 PUSH1 0x24 DUP3 ADD MSTORE PUSH19 0x4E65656420746F6B656E7320746F20766F7465 PUSH1 0x68 SHL PUSH1 0x44 DUP3 ADD MSTORE PUSH1 0x64 ADD PUSH2 0xD16 JUMP JUMPDEST CALLER PUSH1 0x0 DUP2 DUP2 MSTORE PUSH1 0xE PUSH1 0x20 MSTORE PUSH1 0x40 DUP2 KECCAK256 SLOAD SWAP1 SWAP2 PUSH2 0x1A1C SWAP1 PUSH2 0x14F8 JUMP JUMPDEST PUSH2 0x1A26 SWAP2 SWAP1 PUSH2 0x288F JUMP JUMPDEST SWAP1 POP DUP3 ISZERO PUSH2 0x1A4D JUMPI DUP1 DUP3 PUSH1 0x1 ADD PUSH1 0x0 DUP3 DUP3 SLOAD PUSH2 0x1A42 SWAP2 SWAP1 PUSH2 0x288F JUMP JUMPDEST SWAP1 SWAP2 SSTORE POP PUSH2 0x1A67 SWAP1 POP JUMP JUMPDEST DUP1 DUP3 PUSH1 0x2 ADD PUSH1 0x0 DUP3 DUP3 SLOAD PUSH2 0x1A61 SWAP2 SWAP1 PUSH2 0x288F JUMP JUMPDEST SWAP1 SWAP2 SSTORE POP POP JUMPDEST CALLER PUSH1 0x0 DUP2 DUP2 MSTORE PUSH1 0x6 DUP5 ADD PUSH1 0x20 MSTORE PUSH1 0x40 SWAP1 DUP2 SWAP1 KECCAK256 DUP1 SLOAD PUSH1 0xFF NOT AND PUSH1 0x1 OR SWAP1 SSTORE MLOAD DUP6 SWAP1 PUSH32 0x7C2DE587C00D75474A0C6C6FA96FD3B45DC974CD4E8A75F712BB84C950DCE1B5 SWAP1 PUSH2 0x1AC2 SWAP1 DUP8 SWAP1 DUP7 SWAP1 SWAP2 ISZERO ISZERO DUP3 MSTORE PUSH1 0x20 DUP3 ADD MSTORE PUSH1 0x40 ADD SWAP1 JUMP JUMPDEST PUSH1 0x40 MLOAD DUP1 SWAP2 SUB SWAP1 LOG3 POP POP POP POP JUMP JUMPDEST PUSH2 0x1AD8 PUSH2 0x1C0A JUMP JUMPDEST PUSH1 0x64 DUP2 GT ISZERO PUSH2 0x1B18 JUMPI PUSH1 0x40 MLOAD PUSH3 0x461BCD PUSH1 0xE5 SHL DUP2 MSTORE PUSH1 0x20 PUSH1 0x4 DUP3 ADD MSTORE PUSH1 0xC PUSH1 0x24 DUP3 ADD MSTORE PUSH12 0x8CCACA40E8DEDE40D0D2CED PUSH1 0xA3 SHL PUSH1 0x44 DUP3 ADD MSTORE PUSH1 0x64 ADD PUSH2 0xD16 JUMP JUMPDEST PUSH1 0x1B SSTORE JUMP JUMPDEST PUSH1 0x1 PUSH1 0x1 PUSH1 0xA0 SHL SUB DUP2 AND PUSH1 0x0 SWAP1 DUP2 MSTORE PUSH1 0xE PUSH1 0x20 SWAP1 DUP2 MSTORE PUSH1 0x40 DUP1 DUP4 KECCAK256 DUP2 MLOAD PUSH1 0x80 DUP2 ADD DUP4 MSTORE DUP2 SLOAD DUP1 DUP3 MSTORE PUSH1 0x1 DUP4 ADD SLOAD SWAP5 DUP3 ADD SWAP5 SWAP1 SWAP5 MSTORE PUSH1 0x2 DUP3 ADD SLOAD SWAP3 DUP2 ADD SWAP3 SWAP1 SWAP3 MSTORE PUSH1 0x3 ADD SLOAD PUSH1 0x60 DUP3 ADD MSTORE SWAP1 DUP3 SUB PUSH2 0x1B76 JUMPI POP PUSH1 0x0 SWAP3 SWAP2 POP POP JUMP JUMPDEST PUSH1 0x0 DUP2 PUSH1 0x20 ADD MLOAD TIMESTAMP PUSH2 0x1B88 SWAP2 SWAP1 PUSH2 0x287C JUMP JUMPDEST SWAP1 POP PUSH1 0x0 PUSH2 0x1B99 DUP4 PUSH1 0x40 ADD MLOAD PUSH2 0x219B JUMP JUMPDEST SWAP1 POP PUSH5 0x496CEBB800 DUP3 DUP3 DUP6 PUSH1 0x0 ADD MLOAD PUSH2 0x1BB2 SWAP2 SWAP1 PUSH2 0x2843 JUMP JUMPDEST PUSH2 0x1BBC SWAP2 SWAP1 PUSH2 0x2843 JUMP JUMPDEST PUSH2 0x1BC6 SWAP2 SWAP1 PUSH2 0x285A JUMP JUMPDEST SWAP6 SWAP5 POP POP POP POP POP JUMP JUMPDEST PUSH2 0x1BD7 PUSH2 0x1C0A JUMP JUMPDEST PUSH1 0x1 PUSH1 0x1 PUSH1 0xA0 SHL SUB DUP2 AND PUSH2 0x1C01 JUMPI PUSH1 0x40 MLOAD PUSH4 0x1E4FBDF7 PUSH1 0xE0 SHL DUP2 MSTORE PUSH1 0x0 PUSH1 0x4 DUP3 ADD MSTORE PUSH1 0x24 ADD PUSH2 0xD16 JUMP JUMPDEST PUSH2 0x127F DUP2 PUSH2 0x20E0 JUMP JUMPDEST PUSH1 0x5 SLOAD PUSH1 0x1 PUSH1 0x1 PUSH1 0xA0 SHL SUB PUSH2 0x100 SWAP1 SWAP2 DIV AND CALLER EQ PUSH2 0x11B6 JUMPI PUSH1 0x40 MLOAD PUSH4 0x118CDAA7 PUSH1 0xE0 SHL DUP2 MSTORE CALLER PUSH1 0x4 DUP3 ADD MSTORE PUSH1 0x24 ADD PUSH2 0xD16 JUMP JUMPDEST PUSH1 0x1 PUSH1 0x1 PUSH1 0xA0 SHL SUB DUP4 AND PUSH2 0x1C67 JUMPI PUSH1 0x40 MLOAD PUSH4 0x4B637E8F PUSH1 0xE1 SHL DUP2 MSTORE PUSH1 0x0 PUSH1 0x4 DUP3 ADD MSTORE PUSH1 0x24 ADD PUSH2 0xD16 JUMP JUMPDEST PUSH1 0x1 PUSH1 0x1 PUSH1 0xA0 SHL SUB DUP3 AND PUSH2 0x1C91 JUMPI PUSH1 0x40 MLOAD PUSH4 0xEC442F05 PUSH1 0xE0 SHL DUP2 MSTORE PUSH1 0x0 PUSH1 0x4 DUP3 ADD MSTORE PUSH1 0x24 ADD PUSH2 0xD16 JUMP JUMPDEST PUSH2 0x1245 DUP4 DUP4 DUP4 PUSH2 0x21CD JUMP JUMPDEST PUSH1 0x1 PUSH1 0x1 PUSH1 0xA0 SHL SUB DUP3 AND PUSH2 0x1CC6 JUMPI PUSH1 0x40 MLOAD PUSH4 0x4B637E8F PUSH1 0xE1 SHL DUP2 MSTORE PUSH1 0x0 PUSH1 0x4 DUP3 ADD MSTORE PUSH1 0x24 ADD PUSH2 0xD16 JUMP JUMPDEST PUSH2 0x153A DUP3 PUSH1 0x0 DUP4 PUSH2 0x21CD JUMP JUMPDEST PUSH2 0x1245 DUP4 DUP4 DUP4 PUSH1 0x1 PUSH2 0x232C JUMP JUMPDEST PUSH1 0x1 PUSH1 0x1 PUSH1 0xA0 SHL SUB DUP4 DUP2 AND PUSH1 0x0 SWAP1 DUP2 MSTORE PUSH1 0x1 PUSH1 0x20 SWAP1 DUP2 MSTORE PUSH1 0x40 DUP1 DUP4 KECCAK256 SWAP4 DUP7 AND DUP4 MSTORE SWAP3 SWAP1 MSTORE KECCAK256 SLOAD PUSH1 0x0 NOT DUP2 LT ISZERO PUSH2 0x1D58 JUMPI DUP2 DUP2 LT ISZERO PUSH2 0x1D49 JUMPI PUSH1 0x40 MLOAD PUSH4 0x7DC7A0D9 PUSH1 0xE1 SHL DUP2 MSTORE PUSH1 0x1 PUSH1 0x1 PUSH1 0xA0 SHL SUB DUP5 AND PUSH1 0x4 DUP3 ADD MSTORE PUSH1 0x24 DUP2 ADD DUP3 SWAP1 MSTORE PUSH1 0x44 DUP2 ADD DUP4 SWAP1 MSTORE PUSH1 0x64 ADD PUSH2 0xD16 JUMP JUMPDEST PUSH2 0x1D58 DUP5 DUP5 DUP5 DUP5 SUB PUSH1 0x0 PUSH2 0x232C JUMP JUMPDEST POP POP POP POP JUMP JUMPDEST PUSH1 0x2 PUSH1 0x6 SLOAD SUB PUSH2 0x1D81 JUMPI PUSH1 0x40 MLOAD PUSH4 0x3EE5AEB5 PUSH1 0xE0 SHL DUP2 MSTORE PUSH1 0x4 ADD PUSH1 0x40 MLOAD DUP1 SWAP2 SUB SWAP1 REVERT JUMPDEST PUSH1 0x2 PUSH1 0x6 SSTORE JUMP JUMPDEST PUSH1 0x1 PUSH1 0x1 PUSH1 0xA0 SHL SUB DUP2 AND PUSH1 0x0 SWAP1 DUP2 MSTORE PUSH1 0xE PUSH1 0x20 MSTORE PUSH1 0x40 DUP2 KECCAK256 SLOAD PUSH2 0x1DAA DUP4 PUSH2 0x14F8 JUMP JUMPDEST PUSH2 0x1DB4 SWAP2 SWAP1 PUSH2 0x288F JUMP JUMPDEST SWAP1 POP PUSH10 0x21E19E0C9BAB2400000 DUP2 LT DUP1 ISZERO SWAP1 DUP2 SWAP1 PUSH2 0x1DEB JUMPI POP PUSH1 0x1 PUSH1 0x1 PUSH1 0xA0 SHL SUB DUP4 AND PUSH1 0x0 SWAP1 DUP2 MSTORE PUSH1 0x10 PUSH1 0x20 MSTORE PUSH1 0x40 SWAP1 KECCAK256 SLOAD PUSH1 0xFF AND ISZERO JUMPDEST ISZERO PUSH2 0x1E57 JUMPI PUSH1 0x1 PUSH1 0x1 PUSH1 0xA0 SHL SUB DUP4 AND PUSH1 0x0 DUP2 DUP2 MSTORE PUSH1 0x10 PUSH1 0x20 SWAP1 DUP2 MSTORE PUSH1 0x40 DUP1 DUP4 KECCAK256 DUP1 SLOAD PUSH1 0xFF NOT AND PUSH1 0x1 OR SWAP1 SSTORE PUSH1 0x11 DUP3 MSTORE DUP1 DUP4 KECCAK256 TIMESTAMP SWAP1 SSTORE PUSH1 0x1C SWAP1 SWAP2 MSTORE DUP1 DUP3 KECCAK256 PUSH2 0x2710 SWAP1 SSTORE MLOAD PUSH32 0xAA8CCF229BB4A5182C5122D8450416E8AE3B78F457EEBEA8B2028BE23F6D5AB1 SWAP2 SWAP1 LOG2 POP POP POP JUMP JUMPDEST DUP1 ISZERO DUP1 ISZERO PUSH2 0x1E7D JUMPI POP PUSH1 0x1 PUSH1 0x1 PUSH1 0xA0 SHL SUB DUP4 AND PUSH1 0x0 SWAP1 DUP2 MSTORE PUSH1 0x10 PUSH1 0x20 MSTORE PUSH1 0x40 SWAP1 KECCAK256 SLOAD PUSH1 0xFF AND JUMPDEST ISZERO PUSH2 0x1245 JUMPI PUSH1 0x1 PUSH1 0x1 PUSH1 0xA0 SHL SUB DUP4 AND PUSH1 0x0 DUP2 DUP2 MSTORE PUSH1 0x10 PUSH1 0x20 SWAP1 DUP2 MSTORE PUSH1 0x40 DUP1 DUP4 KECCAK256 DUP1 SLOAD PUSH1 0xFF NOT AND SWAP1 SSTORE PUSH1 0x11 DUP3 MSTORE DUP1 DUP4 KECCAK256 DUP4 SWAP1 SSTORE PUSH1 0x1C SWAP1 SWAP2 MSTORE DUP1 DUP3 KECCAK256 DUP3 SWAP1 SSTORE MLOAD PUSH32 0xC482BE7B538FCB24453784F77A37339089565519B675C87F5DE0D6B24E281FA8 SWAP2 SWAP1 LOG2 POP POP POP JUMP JUMPDEST PUSH1 0x1 PUSH1 0x1 PUSH1 0xA0 SHL SUB DUP2 AND PUSH1 0x0 SWAP1 DUP2 MSTORE PUSH1 0xE PUSH1 0x20 MSTORE PUSH1 0x40 DUP2 KECCAK256 SLOAD PUSH2 0x1F06 DUP4 PUSH2 0x14F8 JUMP JUMPDEST PUSH2 0x1F10 SWAP2 SWAP1 PUSH2 0x288F JUMP JUMPDEST PUSH1 0x1 PUSH1 0x1 PUSH1 0xA0 SHL SUB DUP4 AND PUSH1 0x0 SWAP1 DUP2 MSTORE PUSH1 0x1A PUSH1 0x20 MSTORE PUSH1 0x40 SWAP1 KECCAK256 SLOAD SWAP1 SWAP2 POP PUSH10 0x10F0CF064DD59200000 DUP3 LT ISZERO SWAP1 PUSH1 0xFF AND ISZERO ISZERO DUP2 EQ PUSH2 0x1245 JUMPI PUSH1 0x1 PUSH1 0x1 PUSH1 0xA0 SHL SUB DUP4 AND PUSH1 0x0 DUP2 DUP2 MSTORE PUSH1 0x1A PUSH1 0x20 SWAP1 DUP2 MSTORE PUSH1 0x40 SWAP2 DUP3 SWAP1 KECCAK256 DUP1 SLOAD PUSH1 0xFF NOT AND DUP6 ISZERO ISZERO SWAP1 DUP2 OR SWAP1 SWAP2 SSTORE SWAP2 MLOAD SWAP2 DUP3 MSTORE PUSH32 0x2AC89BD75F75496BFCF152024C8BC900A9D51EA4326DF527C1A53120DDD8B8A9 SWAP2 ADD PUSH2 0x18B1 JUMP JUMPDEST PUSH1 0x0 PUSH2 0x1FA9 DUP3 PUSH2 0x1B1D JUMP JUMPDEST SWAP1 POP PUSH1 0x0 DUP2 GT PUSH2 0x1FE8 JUMPI PUSH1 0x40 MLOAD PUSH3 0x461BCD PUSH1 0xE5 SHL DUP2 MSTORE PUSH1 0x20 PUSH1 0x4 DUP3 ADD MSTORE PUSH1 0xA PUSH1 0x24 DUP3 ADD MSTORE PUSH10 0x4E6F2072657761726473 PUSH1 0xB0 SHL PUSH1 0x44 DUP3 ADD MSTORE PUSH1 0x64 ADD PUSH2 0xD16 JUMP JUMPDEST PUSH1 0x1 PUSH1 0x1 PUSH1 0xA0 SHL SUB DUP3 AND PUSH1 0x0 SWAP1 DUP2 MSTORE PUSH1 0xE PUSH1 0x20 MSTORE PUSH1 0x40 DUP2 KECCAK256 PUSH1 0x3 ADD DUP1 SLOAD DUP4 SWAP3 SWAP1 PUSH2 0x2013 SWAP1 DUP5 SWAP1 PUSH2 0x288F JUMP JUMPDEST SWAP1 SWAP2 SSTORE POP POP PUSH1 0x1 PUSH1 0x1 PUSH1 0xA0 SHL SUB DUP1 DUP4 AND PUSH1 0x0 SWAP1 DUP2 MSTORE PUSH1 0xE PUSH1 0x20 MSTORE PUSH1 0x40 SWAP1 KECCAK256 TIMESTAMP PUSH1 0x1 SWAP1 SWAP2 ADD SSTORE PUSH1 0x9 SLOAD PUSH2 0x2047 SWAP2 AND DUP4 DUP4 PUSH2 0x1C3D JUMP JUMPDEST DUP2 PUSH1 0x1 PUSH1 0x1 PUSH1 0xA0 SHL SUB AND PUSH32 0x106F923F993C2149D49B4255FF723ACAFA1F2D94393F561D3EDA32AE348F7241 DUP3 PUSH1 0x40 MLOAD PUSH2 0x2082 SWAP2 DUP2 MSTORE PUSH1 0x20 ADD SWAP1 JUMP JUMPDEST PUSH1 0x40 MLOAD DUP1 SWAP2 SUB SWAP1 LOG2 POP POP JUMP JUMPDEST PUSH2 0x2096 PUSH2 0x23F3 JUMP JUMPDEST PUSH1 0x5 DUP1 SLOAD PUSH1 0xFF NOT AND SWAP1 SSTORE PUSH32 0x5DB9EE0A495BF2E6FF9C91A7834C1BA4FDD244A5E8AA4E537BD38AEAE4B073AA CALLER JUMPDEST PUSH1 0x40 MLOAD PUSH1 0x1 PUSH1 0x1 PUSH1 0xA0 SHL SUB SWAP1 SWAP2 AND DUP2 MSTORE PUSH1 0x20 ADD PUSH1 0x40 MLOAD DUP1 SWAP2 SUB SWAP1 LOG1 JUMP JUMPDEST PUSH1 0x5 DUP1 SLOAD PUSH1 0x1 PUSH1 0x1 PUSH1 0xA0 SHL SUB DUP4 DUP2 AND PUSH2 0x100 DUP2 DUP2 MUL PUSH2 0x100 PUSH1 0x1 PUSH1 0xA8 SHL SUB NOT DUP6 AND OR SWAP1 SWAP5 SSTORE PUSH1 0x40 MLOAD SWAP4 SWAP1 SWAP3 DIV AND SWAP2 DUP3 SWAP1 PUSH32 0x8BE0079C531659141344CD1FD0A4F28419497F9722A3DAAFE3B4186F6B6457E0 SWAP1 PUSH1 0x0 SWAP1 LOG3 POP POP JUMP JUMPDEST PUSH1 0x5 SLOAD PUSH1 0xFF AND ISZERO PUSH2 0x11B6 JUMPI PUSH1 0x40 MLOAD PUSH4 0xD93C0665 PUSH1 0xE0 SHL DUP2 MSTORE PUSH1 0x4 ADD PUSH1 0x40 MLOAD DUP1 SWAP2 SUB SWAP1 REVERT JUMPDEST PUSH2 0x2166 PUSH2 0x213A JUMP JUMPDEST PUSH1 0x5 DUP1 SLOAD PUSH1 0xFF NOT AND PUSH1 0x1 OR SWAP1 SSTORE PUSH32 0x62E78CEA01BEE320CD4E420270B5EA74000D11B0C9F74754EBDBFC544B05A258 PUSH2 0x20C3 CALLER SWAP1 JUMP JUMPDEST PUSH1 0x0 PUSH4 0x1E13380 DUP3 LT PUSH2 0x21B1 JUMPI POP PUSH2 0x9C4 SWAP2 SWAP1 POP JUMP JUMPDEST PUSH3 0xED4E00 DUP3 LT PUSH2 0x21C4 JUMPI POP PUSH2 0x5DC SWAP2 SWAP1 POP JUMP JUMPDEST POP PUSH2 0x320 SWAP2 SWAP1 POP JUMP JUMPDEST PUSH1 0x0 PUSH1 0x1 PUSH1 0x1 PUSH1 0xA0 SHL SUB DUP5 AND ISZERO DUP1 PUSH2 0x21EC JUMPI POP PUSH1 0x1 PUSH1 0x1 PUSH1 0xA0 SHL SUB DUP4 AND ISZERO JUMPDEST DUP1 PUSH2 0x21FF JUMPI POP PUSH1 0x1 PUSH1 0x1 PUSH1 0xA0 SHL SUB DUP5 AND ADDRESS EQ JUMPDEST DUP1 PUSH2 0x2212 JUMPI POP PUSH1 0x1 PUSH1 0x1 PUSH1 0xA0 SHL SUB DUP4 AND ADDRESS EQ JUMPDEST DUP1 PUSH2 0x222A JUMPI POP PUSH1 0xD SLOAD PUSH1 0x1 PUSH1 0x1 PUSH1 0xA0 SHL SUB DUP6 DUP2 AND SWAP2 AND EQ JUMPDEST DUP1 PUSH2 0x2242 JUMPI POP PUSH1 0xD SLOAD PUSH1 0x1 PUSH1 0x1 PUSH1 0xA0 SHL SUB DUP5 DUP2 AND SWAP2 AND EQ JUMPDEST SWAP1 POP DUP1 ISZERO DUP1 ISZERO PUSH2 0x2250 JUMPI POP PUSH1 0x1 JUMPDEST ISZERO PUSH2 0x2321 JUMPI PUSH1 0x0 PUSH2 0x2710 PUSH2 0x2265 PUSH1 0xA DUP6 PUSH2 0x2843 JUMP JUMPDEST PUSH2 0x226F SWAP2 SWAP1 PUSH2 0x285A JUMP JUMPDEST SWAP1 POP DUP1 ISZERO PUSH2 0x231F JUMPI PUSH2 0x2283 DUP6 PUSH1 0x0 DUP4 PUSH2 0x2416 JUMP JUMPDEST DUP1 PUSH1 0x19 PUSH1 0x0 DUP3 DUP3 SLOAD PUSH2 0x2295 SWAP2 SWAP1 PUSH2 0x288F JUMP JUMPDEST SWAP3 POP POP DUP2 SWAP1 SSTORE POP DUP5 PUSH1 0x1 PUSH1 0x1 PUSH1 0xA0 SHL SUB AND PUSH32 0xFAD31924D655455395C87544C8AA1FFDB5A7505A22A3C2E03F28003B6556A75F DUP3 PUSH1 0x40 MLOAD PUSH2 0x22FC SWAP2 DUP2 MSTORE PUSH1 0x40 PUSH1 0x20 DUP3 ADD DUP2 SWAP1 MSTORE PUSH1 0xD SWAP1 DUP3 ADD MSTORE PUSH13 0x2A3930B739B332B910313AB937 PUSH1 0x99 SHL PUSH1 0x60 DUP3 ADD MSTORE PUSH1 0x80 ADD SWAP1 JUMP JUMPDEST PUSH1 0x40 MLOAD DUP1 SWAP2 SUB SWAP1 LOG2 PUSH2 0x2318 DUP6 DUP6 PUSH2 0x2313 DUP5 DUP8 PUSH2 0x287C JUMP JUMPDEST PUSH2 0x2416 JUMP JUMPDEST POP POP POP POP POP JUMP JUMPDEST POP JUMPDEST PUSH2 0x1D58 DUP5 DUP5 DUP5 PUSH2 0x2416 JUMP JUMPDEST PUSH1 0x1 PUSH1 0x1 PUSH1 0xA0 SHL SUB DUP5 AND PUSH2 0x2356 JUMPI PUSH1 0x40 MLOAD PUSH4 0xE602DF05 PUSH1 0xE0 SHL DUP2 MSTORE PUSH1 0x0 PUSH1 0x4 DUP3 ADD MSTORE PUSH1 0x24 ADD PUSH2 0xD16 JUMP JUMPDEST PUSH1 0x1 PUSH1 0x1 PUSH1 0xA0 SHL SUB DUP4 AND PUSH2 0x2380 JUMPI PUSH1 0x40 MLOAD PUSH4 0x4A1406B1 PUSH1 0xE1 SHL DUP2 MSTORE PUSH1 0x0 PUSH1 0x4 DUP3 ADD MSTORE PUSH1 0x24 ADD PUSH2 0xD16 JUMP JUMPDEST PUSH1 0x1 PUSH1 0x1 PUSH1 0xA0 SHL SUB DUP1 DUP6 AND PUSH1 0x0 SWAP1 DUP2 MSTORE PUSH1 0x1 PUSH1 0x20 SWAP1 DUP2 MSTORE PUSH1 0x40 DUP1 DUP4 KECCAK256 SWAP4 DUP8 AND DUP4 MSTORE SWAP3 SWAP1 MSTORE KECCAK256 DUP3 SWAP1 SSTORE DUP1 ISZERO PUSH2 0x1D58 JUMPI DUP3 PUSH1 0x1 PUSH1 0x1 PUSH1 0xA0 SHL SUB AND DUP5 PUSH1 0x1 PUSH1 0x1 PUSH1 0xA0 SHL SUB AND PUSH32 0x8C5BE1E5EBEC7D5BD14F71427D1E84F3DD0314C0F7B2291E5B200AC8C7C3B925 DUP5 PUSH1 0x40 MLOAD PUSH2 0x1AC2 SWAP2 DUP2 MSTORE PUSH1 0x20 ADD SWAP1 JUMP JUMPDEST PUSH1 0x5 SLOAD PUSH1 0xFF AND PUSH2 0x11B6 JUMPI PUSH1 0x40 MLOAD PUSH4 0x8DFC202B PUSH1 0xE0 SHL DUP2 MSTORE PUSH1 0x4 ADD PUSH1 0x40 MLOAD DUP1 SWAP2 SUB SWAP1 REVERT JUMPDEST PUSH2 0x241E PUSH2 0x213A JUMP JUMPDEST PUSH2 0x1245 DUP4 DUP4 DUP4 PUSH1 0x1 PUSH1 0x1 PUSH1 0xA0 SHL SUB DUP4 AND PUSH2 0x244F JUMPI DUP1 PUSH1 0x2 PUSH1 0x0 DUP3 DUP3 SLOAD PUSH2 0x2444 SWAP2 SWAP1 PUSH2 0x288F JUMP JUMPDEST SWAP1 SWAP2 SSTORE POP PUSH2 0x24C1 SWAP1 POP JUMP JUMPDEST PUSH1 0x1 PUSH1 0x1 PUSH1 0xA0 SHL SUB DUP4 AND PUSH1 0x0 SWAP1 DUP2 MSTORE PUSH1 0x20 DUP2 SWAP1 MSTORE PUSH1 0x40 SWAP1 KECCAK256 SLOAD DUP2 DUP2 LT ISZERO PUSH2 0x24A2 JUMPI PUSH1 0x40 MLOAD PUSH4 0x391434E3 PUSH1 0xE2 SHL DUP2 MSTORE PUSH1 0x1 PUSH1 0x1 PUSH1 0xA0 SHL SUB DUP6 AND PUSH1 0x4 DUP3 ADD MSTORE PUSH1 0x24 DUP2 ADD DUP3 SWAP1 MSTORE PUSH1 0x44 DUP2 ADD DUP4 SWAP1 MSTORE PUSH1 0x64 ADD PUSH2 0xD16 JUMP JUMPDEST PUSH1 0x1 PUSH1 0x1 PUSH1 0xA0 SHL SUB DUP5 AND PUSH1 0x0 SWAP1 DUP2 MSTORE PUSH1 0x20 DUP2 SWAP1 MSTORE PUSH1 0x40 SWAP1 KECCAK256 SWAP1 DUP3 SWAP1 SUB SWAP1 SSTORE JUMPDEST PUSH1 0x1 PUSH1 0x1 PUSH1 0xA0 SHL SUB DUP3 AND PUSH2 0x24DD JUMPI PUSH1 0x2 DUP1 SLOAD DUP3 SWAP1 SUB SWAP1 SSTORE PUSH2 0x24FC JUMP JUMPDEST PUSH1 0x1 PUSH1 0x1 PUSH1 0xA0 SHL SUB DUP3 AND PUSH1 0x0 SWAP1 DUP2 MSTORE PUSH1 0x20 DUP2 SWAP1 MSTORE PUSH1 0x40 SWAP1 KECCAK256 DUP1 SLOAD DUP3 ADD SWAP1 SSTORE JUMPDEST DUP2 PUSH1 0x1 PUSH1 0x1 PUSH1 0xA0 SHL SUB AND DUP4 PUSH1 0x1 PUSH1 0x1 PUSH1 0xA0 SHL SUB AND PUSH32 0xDDF252AD1BE2C89B69C2B068FC378DAA952BA7F163C4A11628F55A4DF523B3EF DUP4 PUSH1 0x40 MLOAD PUSH2 0x2541 SWAP2 DUP2 MSTORE PUSH1 0x20 ADD SWAP1 JUMP JUMPDEST PUSH1 0x40 MLOAD DUP1 SWAP2 SUB SWAP1 LOG3 POP POP POP JUMP JUMPDEST PUSH1 0x0 PUSH1 0x20 DUP3 DUP5 SUB SLT ISZERO PUSH2 0x2560 JUMPI PUSH1 0x0 DUP1 REVERT JUMPDEST POP CALLDATALOAD SWAP2 SWAP1 POP JUMP JUMPDEST PUSH1 0x0 DUP2 MLOAD DUP1 DUP5 MSTORE PUSH1 0x0 JUMPDEST DUP2 DUP2 LT ISZERO PUSH2 0x258D JUMPI PUSH1 0x20 DUP2 DUP6 ADD DUP2 ADD MLOAD DUP7 DUP4 ADD DUP3 ADD MSTORE ADD PUSH2 0x2571 JUMP JUMPDEST POP PUSH1 0x0 PUSH1 0x20 DUP3 DUP7 ADD ADD MSTORE PUSH1 0x20 PUSH1 0x1F NOT PUSH1 0x1F DUP4 ADD AND DUP6 ADD ADD SWAP2 POP POP SWAP3 SWAP2 POP POP JUMP JUMPDEST PUSH1 0xC0 DUP2 MSTORE PUSH1 0x0 PUSH2 0x25C0 PUSH1 0xC0 DUP4 ADD DUP10 PUSH2 0x2567 JUMP JUMPDEST PUSH1 0x20 DUP4 ADD SWAP8 SWAP1 SWAP8 MSTORE POP PUSH1 0x40 DUP2 ADD SWAP5 SWAP1 SWAP5 MSTORE PUSH1 0x60 DUP5 ADD SWAP3 SWAP1 SWAP3 MSTORE PUSH1 0x80 DUP4 ADD MSTORE ISZERO ISZERO PUSH1 0xA0 SWAP1 SWAP2 ADD MSTORE SWAP2 SWAP1 POP JUMP JUMPDEST DUP1 CALLDATALOAD PUSH1 0x1 PUSH1 0x1 PUSH1 0xA0 SHL SUB DUP2 AND DUP2 EQ PUSH2 0x2602 JUMPI PUSH1 0x0 DUP1 REVERT JUMPDEST SWAP2 SWAP1 POP JUMP JUMPDEST PUSH1 0x0 PUSH1 0x20 DUP3 DUP5 SUB SLT ISZERO PUSH2 0x2619 JUMPI PUSH1 0x0 DUP1 REVERT JUMPDEST PUSH2 0x2622 DUP3 PUSH2 0x25EB JUMP JUMPDEST SWAP4 SWAP3 POP POP POP JUMP JUMPDEST PUSH1 0x0 DUP1 PUSH1 0x40 DUP4 DUP6 SUB SLT ISZERO PUSH2 0x263C JUMPI PUSH1 0x0 DUP1 REVERT JUMPDEST PUSH2 0x2645 DUP4 PUSH2 0x25EB JUMP JUMPDEST SWAP5 PUSH1 0x20 SWAP4 SWAP1 SWAP4 ADD CALLDATALOAD SWAP4 POP POP POP JUMP JUMPDEST PUSH1 0x20 DUP2 MSTORE PUSH1 0x0 PUSH2 0x2622 PUSH1 0x20 DUP4 ADD DUP5 PUSH2 0x2567 JUMP JUMPDEST PUSH1 0x0 DUP1 PUSH1 0x0 PUSH1 0x60 DUP5 DUP7 SUB SLT ISZERO PUSH2 0x267B JUMPI PUSH1 0x0 DUP1 REVERT JUMPDEST PUSH2 0x2684 DUP5 PUSH2 0x25EB JUMP JUMPDEST SWAP3 POP PUSH2 0x2692 PUSH1 0x20 DUP6 ADD PUSH2 0x25EB JUMP JUMPDEST SWAP2 POP PUSH1 0x40 DUP5 ADD CALLDATALOAD SWAP1 POP SWAP3 POP SWAP3 POP SWAP3 JUMP JUMPDEST PUSH4 0x4E487B71 PUSH1 0xE0 SHL PUSH1 0x0 MSTORE PUSH1 0x41 PUSH1 0x4 MSTORE PUSH1 0x24 PUSH1 0x0 REVERT JUMPDEST PUSH1 0x0 PUSH1 0x20 DUP3 DUP5 SUB SLT ISZERO PUSH2 0x26CA JUMPI PUSH1 0x0 DUP1 REVERT JUMPDEST DUP2 CALLDATALOAD PUSH8 0xFFFFFFFFFFFFFFFF DUP1 DUP3 GT ISZERO PUSH2 0x26E2 JUMPI PUSH1 0x0 DUP1 REVERT JUMPDEST DUP2 DUP5 ADD SWAP2 POP DUP5 PUSH1 0x1F DUP4 ADD SLT PUSH2 0x26F6 JUMPI PUSH1 0x0 DUP1 REVERT JUMPDEST DUP2 CALLDATALOAD DUP2 DUP2 GT ISZERO PUSH2 0x2708 JUMPI PUSH2 0x2708 PUSH2 0x26A2 JUMP JUMPDEST PUSH1 0x40 MLOAD PUSH1 0x1F DUP3 ADD PUSH1 0x1F NOT SWAP1 DUP2 AND PUSH1 0x3F ADD AND DUP2 ADD SWAP1 DUP4 DUP3 GT DUP2 DUP4 LT OR ISZERO PUSH2 0x2730 JUMPI PUSH2 0x2730 PUSH2 0x26A2 JUMP JUMPDEST DUP2 PUSH1 0x40 MSTORE DUP3 DUP2 MSTORE DUP8 PUSH1 0x20 DUP5 DUP8 ADD ADD GT ISZERO PUSH2 0x2749 JUMPI PUSH1 0x0 DUP1 REVERT JUMPDEST DUP3 PUSH1 0x20 DUP7 ADD PUSH1 0x20 DUP4 ADD CALLDATACOPY PUSH1 0x0 SWAP3 DUP2 ADD PUSH1 0x20 ADD SWAP3 SWAP1 SWAP3 MSTORE POP SWAP6 SWAP5 POP POP POP POP POP JUMP JUMPDEST PUSH1 0x0 DUP1 PUSH1 0x40 DUP4 DUP6 SUB SLT ISZERO PUSH2 0x277C JUMPI PUSH1 0x0 DUP1 REVERT JUMPDEST POP POP DUP1 CALLDATALOAD SWAP3 PUSH1 0x20 SWAP1 SWAP2 ADD CALLDATALOAD SWAP2 POP JUMP JUMPDEST PUSH1 0x0 DUP1 PUSH1 0x40 DUP4 DUP6 SUB SLT ISZERO PUSH2 0x279E JUMPI PUSH1 0x0 DUP1 REVERT JUMPDEST DUP3 CALLDATALOAD SWAP2 POP PUSH1 0x20 DUP4 ADD CALLDATALOAD DUP1 ISZERO ISZERO DUP2 EQ PUSH2 0x27B5 JUMPI PUSH1 0x0 DUP1 REVERT JUMPDEST DUP1 SWAP2 POP POP SWAP3 POP SWAP3 SWAP1 POP JUMP JUMPDEST PUSH1 0x0 DUP1 PUSH1 0x40 DUP4 DUP6 SUB SLT ISZERO PUSH2 0x27D3 JUMPI PUSH1 0x0 DUP1 REVERT JUMPDEST PUSH2 0x27DC DUP4 PUSH2 0x25EB JUMP JUMPDEST SWAP2 POP PUSH2 0x27EA PUSH1 0x20 DUP5 ADD PUSH2 0x25EB JUMP JUMPDEST SWAP1 POP SWAP3 POP SWAP3 SWAP1 POP JUMP JUMPDEST PUSH1 0x1 DUP2 DUP2 SHR SWAP1 DUP3 AND DUP1 PUSH2 0x2807 JUMPI PUSH1 0x7F DUP3 AND SWAP2 POP JUMPDEST PUSH1 0x20 DUP3 LT DUP2 SUB PUSH2 0x2827 JUMPI PUSH4 0x4E487B71 PUSH1 0xE0 SHL PUSH1 0x0 MSTORE PUSH1 0x22 PUSH1 0x4 MSTORE PUSH1 0x24 PUSH1 0x0 REVERT JUMPDEST POP SWAP2 SWAP1 POP JUMP JUMPDEST PUSH4 0x4E487B71 PUSH1 0xE0 SHL PUSH1 0x0 MSTORE PUSH1 0x11 PUSH1 0x4 MSTORE PUSH1 0x24 PUSH1 0x0 REVERT JUMPDEST DUP1 DUP3 MUL DUP2 ISZERO DUP3 DUP3 DIV DUP5 EQ OR PUSH2 0xBE8 JUMPI PUSH2 0xBE8 PUSH2 0x282D JUMP JUMPDEST PUSH1 0x0 DUP3 PUSH2 0x2877 JUMPI PUSH4 0x4E487B71 PUSH1 0xE0 SHL PUSH1 0x0 MSTORE PUSH1 0x12 PUSH1 0x4 MSTORE PUSH1 0x24 PUSH1 0x0 REVERT JUMPDEST POP DIV SWAP1 JUMP JUMPDEST DUP2 DUP2 SUB DUP2 DUP2 GT ISZERO PUSH2 0xBE8 JUMPI PUSH2 0xBE8 PUSH2 0x282D JUMP JUMPDEST DUP1 DUP3 ADD DUP1 DUP3 GT ISZERO PUSH2 0xBE8 JUMPI PUSH2 0xBE8 PUSH2 0x282D JUMP JUMPDEST PUSH1 0x0 PUSH1 0x1 DUP3 ADD PUSH2 0x28B4 JUMPI PUSH2 0x28B4 PUSH2 0x282D JUMP JUMPDEST POP PUSH1 0x1 ADD SWAP1 JUMP JUMPDEST PUSH1 0x1F DUP3 GT ISZERO PUSH2 0x1245 JUMPI PUSH1 0x0 DUP2 DUP2 MSTORE PUSH1 0x20 DUP2 KECCAK256 PUSH1 0x1F DUP6 ADD PUSH1 0x5 SHR DUP2 ADD PUSH1 0x20 DUP7 LT ISZERO PUSH2 0x28E2 JUMPI POP DUP1 JUMPDEST PUSH1 0x1F DUP6 ADD PUSH1 0x5 SHR DUP3 ADD SWAP2 POP JUMPDEST DUP2 DUP2 LT ISZERO PUSH2 0x2901 JUMPI DUP3 DUP2 SSTORE PUSH1 0x1 ADD PUSH2 0x28EE JUMP JUMPDEST POP POP POP POP POP POP JUMP JUMPDEST DUP2 MLOAD PUSH8 0xFFFFFFFFFFFFFFFF DUP2 GT ISZERO PUSH2 0x2923 JUMPI PUSH2 0x2923 PUSH2 0x26A2 JUMP JUMPDEST PUSH2 0x2937 DUP2 PUSH2 0x2931 DUP5 SLOAD PUSH2 0x27F3 JUMP JUMPDEST DUP5 PUSH2 0x28BB JUMP JUMPDEST PUSH1 0x20 DUP1 PUSH1 0x1F DUP4 GT PUSH1 0x1 DUP2 EQ PUSH2 0x296C JUMPI PUSH1 0x0 DUP5 ISZERO PUSH2 0x2954 JUMPI POP DUP6 DUP4 ADD MLOAD JUMPDEST PUSH1 0x0 NOT PUSH1 0x3 DUP7 SWAP1 SHL SHR NOT AND PUSH1 0x1 DUP6 SWAP1 SHL OR DUP6 SSTORE PUSH2 0x2901 JUMP JUMPDEST PUSH1 0x0 DUP6 DUP2 MSTORE PUSH1 0x20 DUP2 KECCAK256 PUSH1 0x1F NOT DUP7 AND SWAP2 JUMPDEST DUP3 DUP2 LT ISZERO PUSH2 0x299B JUMPI DUP9 DUP7 ADD MLOAD DUP3 SSTORE SWAP5 DUP5 ADD SWAP5 PUSH1 0x1 SWAP1 SWAP2 ADD SWAP1 DUP5 ADD PUSH2 0x297C JUMP JUMPDEST POP DUP6 DUP3 LT ISZERO PUSH2 0x29B9 JUMPI DUP8 DUP6 ADD MLOAD PUSH1 0x0 NOT PUSH1 0x3 DUP9 SWAP1 SHL PUSH1 0xF8 AND SHR NOT AND DUP2 SSTORE JUMPDEST POP POP POP POP POP PUSH1 0x1 SWAP1 DUP2 SHL ADD SWAP1 SSTORE POP JUMP INVALID LOG2 PUSH5 0x6970667358 0x22 SLT KECCAK256 SWAP7 MLOAD 0xD7 0x2E 0xE3 0xC2 PUSH24 0x4CA5E96253868614DE25793B42995490870C0788A8B3AF34 STATICCALL PUSH5 0x736F6C6343 STOP ADDMOD EQ STOP CALLER "},"methodIdentifiers":{"BURN_RATE()":"f846a885","CASHBACK_RATE()":"82d97545","FLEXIBLE_APY()":"63546f0c","LAUNCHPAD_THRESHOLD()":"0e614b8c","MIN_VOTE_TOKENS()":"5cb90abe","ONE_YEAR_APY()":"08014d8b","PREMIUM_THRESHOLD()":"9af01c2d","REFERRAL_FEE_SHARE()":"73b6f890","REFERRAL_REWARD()":"84a3a0f3","SIX_MONTH_APY()":"373c6193","SWAP_BURN_RATE()":"a1c82b18","VOTING_PERIOD()":"b1610d7e","allowance(address,address)":"dd62ed3e","approve(address,uint256)":"095ea7b3","balanceOf(address)":"70a08231","burn(uint256)":"42966c68","burnFrom(address,uint256)":"79cc6790","burnFromTreasury(uint256)":"5f9d9909","calculateReward(address)":"d82e3962","claimRewards()":"372500ab","communityWallet()":"c7574839","createProposal(string)":"49c2a1a6","decimals()":"313ce567","executeProposal(uint256)":"0d61b519","feeDiscounts(address)":"040a4f42","founderWallet()":"a23d3c35","getStakeInfo(address)":"c3453153","getTokenStats()":"097cd9bf","getUserStats(address)":"4e43603a","isPremium(address)":"742fe0d4","isWhitelistedForLaunchpad(address)":"c2b0d16f","liquidityWallet()":"d4698016","name()":"06fdde03","owner()":"8da5cb5b","pause()":"8456cb59","paused()":"5c975abb","payCashback(address,uint256)":"c35b7b64","payReferralFeeShare(address,uint256)":"320f01a5","premiumSince(address)":"4596ce20","processSwapFee(address,uint256)":"0653badc","proposalCount()":"da35c664","proposals(uint256)":"013cf08b","publicSaleWallet()":"6cb13595","referralCount(address)":"db74559b","referralEarnings(address)":"c07b528a","referredBy(address)":"a90f8e9a","registerReferral(address)":"209ab711","renounceOwnership()":"715018a6","setSwapFeeRate(uint256)":"d1154ff0","stake(uint256,uint256)":"7b0472f0","stakes(address)":"16934fc4","strategicWallet()":"8922e021","swapFeeRate()":"3a04801d","symbol()":"95d89b41","teamWallet()":"59927044","totalBurned()":"d89135cd","totalCashbackDistributed()":"b29f6ef2","totalCashbackEarned(address)":"fa1c3eda","totalStaked()":"817b1cd2","totalSupply()":"18160ddd","transfer(address,uint256)":"a9059cbb","transferFrom(address,address,uint256)":"23b872dd","transferOwnership(address)":"f2fde38b","treasuryWallet()":"4626402b","unpause()":"3f4ba83a","unstake()":"2def6620","vote(uint256,bool)":"c9d27afe"}}}}}