{"contracts/FounderVesting.sol":{"FounderVesting":{"abi":[{"inputs":[{"internalType":"address","name":"_arcToken","type":"address"},{"internalType":"address","name":"_founder","type":"address"}],"stateMutability":"nonpayable","type":"constructor"},{"inputs":[{"internalType":"address","name":"owner","type":"address"}],"name":"OwnableInvalidOwner","type":"error"},{"inputs":[{"internalType":"address","name":"account","type":"address"}],"name":"OwnableUnauthorizedAccount","type":"error"},{"inputs":[],"name":"ReentrancyGuardReentrantCall","type":"error"},{"anonymous":false,"inputs":[{"indexed":true,"internalType":"address","name":"previousOwner","type":"address"},{"indexed":true,"internalType":"address","name":"newOwner","type":"address"}],"name":"OwnershipTransferred","type":"event"},{"anonymous":false,"inputs":[{"indexed":false,"internalType":"uint256","name":"amount","type":"uint256"},{"indexed":false,"internalType":"uint256","name":"timestamp","type":"uint256"}],"name":"TokensReleased","type":"event"},{"anonymous":false,"inputs":[{"indexed":false,"internalType":"uint256","name":"startTime","type":"uint256"},{"indexed":true,"internalType":"address","name":"founder","type":"address"}],"name":"VestingStarted","type":"event"},{"inputs":[],"name":"CLIFF_DURATION","outputs":[{"internalType":"uint256","name":"","type":"uint256"}],"stateMutability":"view","type":"function"},{"inputs":[],"name":"TOTAL_ALLOCATION","outputs":[{"internalType":"uint256","name":"","type":"uint256"}],"stateMutability":"view","type":"function"},{"inputs":[],"name":"VESTING_DURATION","outputs":[{"internalType":"uint256","name":"","type":"uint256"}],"stateMutability":"view","type":"function"},{"inputs":[],"name":"arcToken","outputs":[{"internalType":"contract IERC20","name":"","type":"address"}],"stateMutability":"view","type":"function"},{"inputs":[],"name":"cliffEnd","outputs":[{"internalType":"uint256","name":"","type":"uint256"}],"stateMutability":"view","type":"function"},{"inputs":[],"name":"founder","outputs":[{"internalType":"address","name":"","type":"address"}],"stateMutability":"view","type":"function"},{"inputs":[],"name":"getTimeUntilNextMilestone","outputs":[{"internalType":"string","name":"milestone","type":"string"},{"internalType":"uint256","name":"secondsRemaining","type":"uint256"}],"stateMutability":"view","type":"function"},{"inputs":[],"name":"getVestingInfo","outputs":[{"internalType":"uint256","name":"_vestingStart","type":"uint256"},{"internalType":"uint256","name":"_cliffEnd","type":"uint256"},{"internalType":"uint256","name":"_vestingEnd","type":"uint256"},{"internalType":"uint256","name":"_totalAllocation","type":"uint256"},{"internalType":"uint256","name":"_vestedAmount","type":"uint256"},{"internalType":"uint256","name":"_releasedAmount","type":"uint256"},{"internalType":"uint256","name":"_releasableAmount","type":"uint256"},{"internalType":"uint256","name":"_remainingAmount","type":"uint256"}],"stateMutability":"view","type":"function"},{"inputs":[],"name":"getVestingProgress","outputs":[{"internalType":"uint256","name":"","type":"uint256"}],"stateMutability":"view","type":"function"},{"inputs":[],"name":"owner","outputs":[{"internalType":"address","name":"","type":"address"}],"stateMutability":"view","type":"function"},{"inputs":[{"internalType":"address","name":"token","type":"address"},{"internalType":"uint256","name":"amount","type":"uint256"}],"name":"recoverToken","outputs":[],"stateMutability":"nonpayable","type":"function"},{"inputs":[],"name":"releasableAmount","outputs":[{"internalType":"uint256","name":"","type":"uint256"}],"stateMutability":"view","type":"function"},{"inputs":[],"name":"release","outputs":[],"stateMutability":"nonpayable","type":"function"},{"inputs":[],"name":"released","outputs":[{"internalType":"uint256","name":"","type":"uint256"}],"stateMutability":"view","type":"function"},{"inputs":[],"name":"renounceOwnership","outputs":[],"stateMutability":"nonpayable","type":"function"},{"inputs":[{"internalType":"address","name":"newOwner","type":"address"}],"name":"transferOwnership","outputs":[],"stateMutability":"nonpayable","type":"function"},{"inputs":[],"name":"vestedAmount","outputs":[{"internalType":"uint256","name":"","type":"uint256"}],"stateMutability":"view","type":"function"},{"inputs":[],"name":"vestingEnd","outputs":[{"internalType":"uint256","name":"","type":"uint256"}],"stateMutability":"view","type":"function"},{"inputs":[],"name":"vestingStart","outputs":[{"internalType":"uint256","name":"","type":"uint256"}],"stateMutability":"view","type":"function"}],"evm":{"bytecode":{"linkReferences":{},"object":"6101206040523480156200001257600080fd5b5060405162000f9e38038062000f9e833981016040819052620000359162000217565b33806200005d57604051631e4fbdf760e01b8152600060048201526024015b60405180910390fd5b6200006881620001aa565b50600180556001600160a01b038216620000c55760405162461bcd60e51b815260206004820152601560248201527f496e76616c696420746f6b656e20616464726573730000000000000000000000604482015260640162000054565b6001600160a01b0381166200011d5760405162461bcd60e51b815260206004820152601760248201527f496e76616c696420666f756e6465722061646472657373000000000000000000604482015260640162000054565b6001600160a01b03808316608052811660a0524260c0819052620001469062ed4e00906200024f565b60e05260c0516200015d90630784ce00906200024f565b6101005260c0516040519081526001600160a01b038216907f3c3d0e5fab118b0fbfa3a8dc747d9c175e16b5d6b5cf7cc9bd576d0f813b7b979060200160405180910390a2505062000277565b600080546001600160a01b038381166001600160a01b0319831681178455604051919092169283917f8be0079c531659141344cd1fd0a4f28419497f9722a3daafe3b4186f6b6457e09190a35050565b80516001600160a01b03811681146200021257600080fd5b919050565b600080604083850312156200022b57600080fd5b6200023683620001fa565b91506200024660208401620001fa565b90509250929050565b808201808211156200027157634e487b7160e01b600052601160045260246000fd5b92915050565b60805160a05160c05160e05161010051610c6b62000333600039600081816101fd01528181610382015281816103ae0152818161045901528181610506015261098801526000818161023d0152818161030801528181610334015281816104d801526109670152600081816101720152818161042b0152818161048c0152818161054201526109460152600081816101ac015281816105c601526106bf01526000818161028a015281816106ee01526107e50152610c6b6000f3fe608060405234801561001057600080fd5b50600436106101215760003560e01c806384a1931f116100ad578063b29a814011610071578063b29a814014610268578063b3daa6521461027b578063c011267814610285578063dc25a300146102ac578063f2fde38b146102ef57600080fd5b806384a1931f146101f857806386d1a69f1461021f5780638da5cb5b146102275780639130297b14610238578063961325211461025f57600080fd5b806344b1231f116100f457806344b1231f146101945780634cfc4d301461019c5780634d853ee5146101a75780635b940081146101e6578063715018a6146101ee57600080fd5b80630a7fc343146101265780630dac7bea14610145578063154e4e5614610165578063254800d41461016d575b600080fd5b61012e610302565b60405161013c929190610adb565b60405180910390f35b6101576a7c13bc4b2c133c5600000081565b60405190815260200161013c565b610157610427565b6101577f000000000000000000000000000000000000000000000000000000000000000081565b6101576104d4565b610157630784ce0081565b6101ce7f000000000000000000000000000000000000000000000000000000000000000081565b6040516001600160a01b03909116815260200161013c565b610157610583565b6101f661059f565b005b6101577f000000000000000000000000000000000000000000000000000000000000000081565b6101f66105b3565b6000546001600160a01b03166101ce565b6101577f000000000000000000000000000000000000000000000000000000000000000081565b61015760025481565b6101f6610276366004610b4c565b6107db565b61015762ed4e0081565b6101ce7f000000000000000000000000000000000000000000000000000000000000000081565b6102b4610938565b604080519889526020890197909752958701949094526060860192909252608085015260a084015260c083015260e08201526101000161013c565b6101f66102fd366004610b76565b6109f6565b606060007f000000000000000000000000000000000000000000000000000000000000000042101561038057610358427f0000000000000000000000000000000000000000000000000000000000000000610bae565b60408051808201909152600981526810db1a599988115b9960ba1b6020820152939092509050565b7f00000000000000000000000000000000000000000000000000000000000000004210156103fc576103d2427f0000000000000000000000000000000000000000000000000000000000000000610bae565b60408051808201909152600b81526a15995cdd1a5b99c8115b9960aa1b6020820152939092509050565b505060408051808201909152600c81526b119d5b1b1e4815995cdd195960a21b602082015290600090565b60007f00000000000000000000000000000000000000000000000000000000000000004210156104575750600090565b7f00000000000000000000000000000000000000000000000000000000000000004210610485575061271090565b60006104b17f000000000000000000000000000000000000000000000000000000000000000042610bae565b9050630784ce006104c482612710610bc7565b6104ce9190610bde565b91505090565b60007f00000000000000000000000000000000000000000000000000000000000000004210156105045750600090565b7f0000000000000000000000000000000000000000000000000000000000000000421061053b57506a7c13bc4b2c133c5600000090565b60006105677f000000000000000000000000000000000000000000000000000000000000000042610bae565b9050630784ce006104c4826a7c13bc4b2c133c56000000610bc7565b60006002546105906104d4565b61059a9190610bae565b905090565b6105a7610a34565b6105b16000610a61565b565b6105bb610ab1565b336001600160a01b037f00000000000000000000000000000000000000000000000000000000000000001614806105fc57506000546001600160a01b031633145b61063e5760405162461bcd60e51b815260206004820152600e60248201526d139bdd08185d5d1a1bdc9a5e995960921b60448201526064015b60405180910390fd5b6000610648610583565b9050600081116106915760405162461bcd60e51b81526020600482015260146024820152734e6f20746f6b656e7320746f2072656c6561736560601b6044820152606401610635565b80600260008282546106a39190610c00565b909155505060405163a9059cbb60e01b81526001600160a01b037f000000000000000000000000000000000000000000000000000000000000000081166004830152602482018390527f0000000000000000000000000000000000000000000000000000000000000000169063a9059cbb906044016020604051808303816000875af1158015610737573d6000803e3d6000fd5b505050506040513d601f19601f8201168201806040525081019061075b9190610c13565b6107995760405162461bcd60e51b815260206004820152600f60248201526e151c985b9cd9995c8819985a5b1959608a1b6044820152606401610635565b604080518281524260208201527f06bfc9e66ca14afa6b27c5211d92e2453d2007b51cd69146f7d2b2b5654cf2b9910160405180910390a1506105b160018055565b6107e3610a34565b7f00000000000000000000000000000000000000000000000000000000000000006001600160a01b0316826001600160a01b0316036108645760405162461bcd60e51b815260206004820152601960248201527f43616e6e6f74207265636f7665722041524320746f6b656e73000000000000006044820152606401610635565b816001600160a01b031663a9059cbb6108856000546001600160a01b031690565b6040516001600160e01b031960e084901b1681526001600160a01b039091166004820152602481018490526044016020604051808303816000875af11580156108d2573d6000803e3d6000fd5b505050506040513d601f19601f820116820180604052508101906108f69190610c13565b6109345760405162461bcd60e51b815260206004820152600f60248201526e149958dbdd995c9e4819985a5b1959608a1b6044820152606401610635565b5050565b6000806000806000806000807f00000000000000000000000000000000000000000000000000000000000000007f00000000000000000000000000000000000000000000000000000000000000007f00000000000000000000000000000000000000000000000000000000000000006a7c13bc4b2c133c560000006109bb6104d4565b6002546109c6610583565b6002546109de906a7c13bc4b2c133c56000000610bae565b969f959e50939c50919a509850965094509092509050565b6109fe610a34565b6001600160a01b038116610a2857604051631e4fbdf760e01b815260006004820152602401610635565b610a3181610a61565b50565b6000546001600160a01b031633146105b15760405163118cdaa760e01b8152336004820152602401610635565b600080546001600160a01b038381166001600160a01b0319831681178455604051919092169283917f8be0079c531659141344cd1fd0a4f28419497f9722a3daafe3b4186f6b6457e09190a35050565b600260015403610ad457604051633ee5aeb560e01b815260040160405180910390fd5b6002600155565b604081526000835180604084015260005b81811015610b095760208187018101516060868401015201610aec565b506000606082850101526060601f19601f8301168401019150508260208301529392505050565b80356001600160a01b0381168114610b4757600080fd5b919050565b60008060408385031215610b5f57600080fd5b610b6883610b30565b946020939093013593505050565b600060208284031215610b8857600080fd5b610b9182610b30565b9392505050565b634e487b7160e01b600052601160045260246000fd5b81810381811115610bc157610bc1610b98565b92915050565b8082028115828204841417610bc157610bc1610b98565b600082610bfb57634e487b7160e01b600052601260045260246000fd5b500490565b80820180821115610bc157610bc1610b98565b600060208284031215610c2557600080fd5b81518015158114610b9157600080fdfea2646970667358221220d1603e33d36803b9acc0ca88fc40b1c2faf45de7921282f7d466e6f5987e532764736f6c63430008140033","opcodes":"PUSH2 0x120 PUSH1 0x40 MSTORE CALLVALUE DUP1 ISZERO PUSH3 0x12 JUMPI PUSH1 0x0 DUP1 REVERT JUMPDEST POP PUSH1 0x40 MLOAD PUSH3 0xF9E CODESIZE SUB DUP1 PUSH3 0xF9E DUP4 CODECOPY DUP2 ADD PUSH1 0x40 DUP2 SWAP1 MSTORE PUSH3 0x35 SWAP2 PUSH3 0x217 JUMP JUMPDEST CALLER DUP1 PUSH3 0x5D JUMPI PUSH1 0x40 MLOAD PUSH4 0x1E4FBDF7 PUSH1 0xE0 SHL DUP2 MSTORE PUSH1 0x0 PUSH1 0x4 DUP3 ADD MSTORE PUSH1 0x24 ADD JUMPDEST PUSH1 0x40 MLOAD DUP1 SWAP2 SUB SWAP1 REVERT JUMPDEST PUSH3 0x68 DUP2 PUSH3 0x1AA JUMP JUMPDEST POP PUSH1 0x1 DUP1 SSTORE PUSH1 0x1 PUSH1 0x1 PUSH1 0xA0 SHL SUB DUP3 AND PUSH3 0xC5 JUMPI PUSH1 0x40 MLOAD PUSH3 0x461BCD PUSH1 0xE5 SHL DUP2 MSTORE PUSH1 0x20 PUSH1 0x4 DUP3 ADD MSTORE PUSH1 0x15 PUSH1 0x24 DUP3 ADD MSTORE PUSH32 0x496E76616C696420746F6B656E20616464726573730000000000000000000000 PUSH1 0x44 DUP3 ADD MSTORE PUSH1 0x64 ADD PUSH3 0x54 JUMP JUMPDEST PUSH1 0x1 PUSH1 0x1 PUSH1 0xA0 SHL SUB DUP2 AND PUSH3 0x11D JUMPI PUSH1 0x40 MLOAD PUSH3 0x461BCD PUSH1 0xE5 SHL DUP2 MSTORE PUSH1 0x20 PUSH1 0x4 DUP3 ADD MSTORE PUSH1 0x17 PUSH1 0x24 DUP3 ADD MSTORE PUSH32 0x496E76616C696420666F756E6465722061646472657373000000000000000000 PUSH1 0x44 DUP3 ADD MSTORE PUSH1 0x64 ADD PUSH3 0x54 JUMP JUMPDEST PUSH1 0x1 PUSH1 0x1 PUSH1 0xA0 SHL SUB DUP1 DUP4 AND PUSH1 0x80 MSTORE DUP2 AND PUSH1 0xA0 MSTORE TIMESTAMP PUSH1 0xC0 DUP2 SWAP1 MSTORE PUSH3 0x146 SWAP1 PUSH3 0xED4E00 SWAP1 PUSH3 0x24F JUMP JUMPDEST PUSH1 0xE0 MSTORE PUSH1 0xC0 MLOAD PUSH3 0x15D SWAP1 PUSH4 0x784CE00 SWAP1 PUSH3 0x24F JUMP JUMPDEST PUSH2 0x100 MSTORE PUSH1 0xC0 MLOAD PUSH1 0x40 MLOAD SWAP1 DUP2 MSTORE PUSH1 0x1 PUSH1 0x1 PUSH1 0xA0 SHL SUB DUP3 AND SWAP1 PUSH32 0x3C3D0E5FAB118B0FBFA3A8DC747D9C175E16B5D6B5CF7CC9BD576D0F813B7B97 SWAP1 PUSH1 0x20 ADD PUSH1 0x40 MLOAD DUP1 SWAP2 SUB SWAP1 LOG2 POP POP PUSH3 0x277 JUMP JUMPDEST PUSH1 0x0 DUP1 SLOAD PUSH1 0x1 PUSH1 0x1 PUSH1 0xA0 SHL SUB DUP4 DUP2 AND PUSH1 0x1 PUSH1 0x1 PUSH1 0xA0 SHL SUB NOT DUP4 AND DUP2 OR DUP5 SSTORE PUSH1 0x40 MLOAD SWAP2 SWAP1 SWAP3 AND SWAP3 DUP4 SWAP2 PUSH32 0x8BE0079C531659141344CD1FD0A4F28419497F9722A3DAAFE3B4186F6B6457E0 SWAP2 SWAP1 LOG3 POP POP JUMP JUMPDEST DUP1 MLOAD PUSH1 0x1 PUSH1 0x1 PUSH1 0xA0 SHL SUB DUP2 AND DUP2 EQ PUSH3 0x212 JUMPI PUSH1 0x0 DUP1 REVERT JUMPDEST SWAP2 SWAP1 POP JUMP JUMPDEST PUSH1 0x0 DUP1 PUSH1 0x40 DUP4 DUP6 SUB SLT ISZERO PUSH3 0x22B JUMPI PUSH1 0x0 DUP1 REVERT JUMPDEST PUSH3 0x236 DUP4 PUSH3 0x1FA JUMP JUMPDEST SWAP2 POP PUSH3 0x246 PUSH1 0x20 DUP5 ADD PUSH3 0x1FA JUMP JUMPDEST SWAP1 POP SWAP3 POP SWAP3 SWAP1 POP JUMP JUMPDEST DUP1 DUP3 ADD DUP1 DUP3 GT ISZERO PUSH3 0x271 JUMPI PUSH4 0x4E487B71 PUSH1 0xE0 SHL PUSH1 0x0 MSTORE PUSH1 0x11 PUSH1 0x4 MSTORE PUSH1 0x24 PUSH1 0x0 REVERT JUMPDEST SWAP3 SWAP2 POP POP JUMP JUMPDEST PUSH1 0x80 MLOAD PUSH1 0xA0 MLOAD PUSH1 0xC0 MLOAD PUSH1 0xE0 MLOAD PUSH2 0x100 MLOAD PUSH2 0xC6B PUSH3 0x333 PUSH1 0x0 CODECOPY PUSH1 0x0 DUP2 DUP2 PUSH2 0x1FD ADD MSTORE DUP2 DUP2 PUSH2 0x382 ADD MSTORE DUP2 DUP2 PUSH2 0x3AE ADD MSTORE DUP2 DUP2 PUSH2 0x459 ADD MSTORE DUP2 DUP2 PUSH2 0x506 ADD MSTORE PUSH2 0x988 ADD MSTORE PUSH1 0x0 DUP2 DUP2 PUSH2 0x23D ADD MSTORE DUP2 DUP2 PUSH2 0x308 ADD MSTORE DUP2 DUP2 PUSH2 0x334 ADD MSTORE DUP2 DUP2 PUSH2 0x4D8 ADD MSTORE PUSH2 0x967 ADD MSTORE PUSH1 0x0 DUP2 DUP2 PUSH2 0x172 ADD MSTORE DUP2 DUP2 PUSH2 0x42B ADD MSTORE DUP2 DUP2 PUSH2 0x48C ADD MSTORE DUP2 DUP2 PUSH2 0x542 ADD MSTORE PUSH2 0x946 ADD MSTORE PUSH1 0x0 DUP2 DUP2 PUSH2 0x1AC ADD MSTORE DUP2 DUP2 PUSH2 0x5C6 ADD MSTORE PUSH2 0x6BF ADD MSTORE PUSH1 0x0 DUP2 DUP2 PUSH2 0x28A ADD MSTORE DUP2 DUP2 PUSH2 0x6EE ADD MSTORE PUSH2 0x7E5 ADD MSTORE PUSH2 0xC6B PUSH1 0x0 RETURN INVALID PUSH1 0x80 PUSH1 0x40 MSTORE CALLVALUE DUP1 ISZERO PUSH2 0x10 JUMPI PUSH1 0x0 DUP1 REVERT JUMPDEST POP PUSH1 0x4 CALLDATASIZE LT PUSH2 0x121 JUMPI PUSH1 0x0 CALLDATALOAD PUSH1 0xE0 SHR DUP1 PUSH4 0x84A1931F GT PUSH2 0xAD JUMPI DUP1 PUSH4 0xB29A8140 GT PUSH2 0x71 JUMPI DUP1 PUSH4 0xB29A8140 EQ PUSH2 0x268 JUMPI DUP1 PUSH4 0xB3DAA652 EQ PUSH2 0x27B JUMPI DUP1 PUSH4 0xC0112678 EQ PUSH2 0x285 JUMPI DUP1 PUSH4 0xDC25A300 EQ PUSH2 0x2AC JUMPI DUP1 PUSH4 0xF2FDE38B EQ PUSH2 0x2EF JUMPI PUSH1 0x0 DUP1 REVERT JUMPDEST DUP1 PUSH4 0x84A1931F EQ PUSH2 0x1F8 JUMPI DUP1 PUSH4 0x86D1A69F EQ PUSH2 0x21F JUMPI DUP1 PUSH4 0x8DA5CB5B EQ PUSH2 0x227 JUMPI DUP1 PUSH4 0x9130297B EQ PUSH2 0x238 JUMPI DUP1 PUSH4 0x96132521 EQ PUSH2 0x25F JUMPI PUSH1 0x0 DUP1 REVERT JUMPDEST DUP1 PUSH4 0x44B1231F GT PUSH2 0xF4 JUMPI DUP1 PUSH4 0x44B1231F EQ PUSH2 0x194 JUMPI DUP1 PUSH4 0x4CFC4D30 EQ PUSH2 0x19C JUMPI DUP1 PUSH4 0x4D853EE5 EQ PUSH2 0x1A7 JUMPI DUP1 PUSH4 0x5B940081 EQ PUSH2 0x1E6 JUMPI DUP1 PUSH4 0x715018A6 EQ PUSH2 0x1EE JUMPI PUSH1 0x0 DUP1 REVERT JUMPDEST DUP1 PUSH4 0xA7FC343 EQ PUSH2 0x126 JUMPI DUP1 PUSH4 0xDAC7BEA EQ PUSH2 0x145 JUMPI DUP1 PUSH4 0x154E4E56 EQ PUSH2 0x165 JUMPI DUP1 PUSH4 0x254800D4 EQ PUSH2 0x16D JUMPI JUMPDEST PUSH1 0x0 DUP1 REVERT JUMPDEST PUSH2 0x12E PUSH2 0x302 JUMP JUMPDEST PUSH1 0x40 MLOAD PUSH2 0x13C SWAP3 SWAP2 SWAP1 PUSH2 0xADB JUMP JUMPDEST PUSH1 0x40 MLOAD DUP1 SWAP2 SUB SWAP1 RETURN JUMPDEST PUSH2 0x157 PUSH11 0x7C13BC4B2C133C56000000 DUP2 JUMP JUMPDEST PUSH1 0x40 MLOAD SWAP1 DUP2 MSTORE PUSH1 0x20 ADD PUSH2 0x13C JUMP JUMPDEST PUSH2 0x157 PUSH2 0x427 JUMP JUMPDEST PUSH2 0x157 PUSH32 0x0 DUP2 JUMP JUMPDEST PUSH2 0x157 PUSH2 0x4D4 JUMP JUMPDEST PUSH2 0x157 PUSH4 0x784CE00 DUP2 JUMP JUMPDEST PUSH2 0x1CE PUSH32 0x0 DUP2 JUMP JUMPDEST PUSH1 0x40 MLOAD PUSH1 0x1 PUSH1 0x1 PUSH1 0xA0 SHL SUB SWAP1 SWAP2 AND DUP2 MSTORE PUSH1 0x20 ADD PUSH2 0x13C JUMP JUMPDEST PUSH2 0x157 PUSH2 0x583 JUMP JUMPDEST PUSH2 0x1F6 PUSH2 0x59F JUMP JUMPDEST STOP JUMPDEST PUSH2 0x157 PUSH32 0x0 DUP2 JUMP JUMPDEST PUSH2 0x1F6 PUSH2 0x5B3 JUMP JUMPDEST PUSH1 0x0 SLOAD PUSH1 0x1 PUSH1 0x1 PUSH1 0xA0 SHL SUB AND PUSH2 0x1CE JUMP JUMPDEST PUSH2 0x157 PUSH32 0x0 DUP2 JUMP JUMPDEST PUSH2 0x157 PUSH1 0x2 SLOAD DUP2 JUMP JUMPDEST PUSH2 0x1F6 PUSH2 0x276 CALLDATASIZE PUSH1 0x4 PUSH2 0xB4C JUMP JUMPDEST PUSH2 0x7DB JUMP JUMPDEST PUSH2 0x157 PUSH3 0xED4E00 DUP2 JUMP JUMPDEST PUSH2 0x1CE PUSH32 0x0 DUP2 JUMP JUMPDEST PUSH2 0x2B4 PUSH2 0x938 JUMP JUMPDEST PUSH1 0x40 DUP1 MLOAD SWAP9 DUP10 MSTORE PUSH1 0x20 DUP10 ADD SWAP8 SWAP1 SWAP8 MSTORE SWAP6 DUP8 ADD SWAP5 SWAP1 SWAP5 MSTORE PUSH1 0x60 DUP7 ADD SWAP3 SWAP1 SWAP3 MSTORE PUSH1 0x80 DUP6 ADD MSTORE PUSH1 0xA0 DUP5 ADD MSTORE PUSH1 0xC0 DUP4 ADD MSTORE PUSH1 0xE0 DUP3 ADD MSTORE PUSH2 0x100 ADD PUSH2 0x13C JUMP JUMPDEST PUSH2 0x1F6 PUSH2 0x2FD CALLDATASIZE PUSH1 0x4 PUSH2 0xB76 JUMP JUMPDEST PUSH2 0x9F6 JUMP JUMPDEST PUSH1 0x60 PUSH1 0x0 PUSH32 0x0 TIMESTAMP LT ISZERO PUSH2 0x380 JUMPI PUSH2 0x358 TIMESTAMP PUSH32 0x0 PUSH2 0xBAE JUMP JUMPDEST PUSH1 0x40 DUP1 MLOAD DUP1 DUP3 ADD SWAP1 SWAP2 MSTORE PUSH1 0x9 DUP2 MSTORE PUSH9 0x10DB1A599988115B99 PUSH1 0xBA SHL PUSH1 0x20 DUP3 ADD MSTORE SWAP4 SWAP1 SWAP3 POP SWAP1 POP JUMP JUMPDEST PUSH32 0x0 TIMESTAMP LT ISZERO PUSH2 0x3FC JUMPI PUSH2 0x3D2 TIMESTAMP PUSH32 0x0 PUSH2 0xBAE JUMP JUMPDEST PUSH1 0x40 DUP1 MLOAD DUP1 DUP3 ADD SWAP1 SWAP2 MSTORE PUSH1 0xB DUP2 MSTORE PUSH11 0x15995CDD1A5B99C8115B99 PUSH1 0xAA SHL PUSH1 0x20 DUP3 ADD MSTORE SWAP4 SWAP1 SWAP3 POP SWAP1 POP JUMP JUMPDEST POP POP PUSH1 0x40 DUP1 MLOAD DUP1 DUP3 ADD SWAP1 SWAP2 MSTORE PUSH1 0xC DUP2 MSTORE PUSH12 0x119D5B1B1E4815995CDD1959 PUSH1 0xA2 SHL PUSH1 0x20 DUP3 ADD MSTORE SWAP1 PUSH1 0x0 SWAP1 JUMP JUMPDEST PUSH1 0x0 PUSH32 0x0 TIMESTAMP LT ISZERO PUSH2 0x457 JUMPI POP PUSH1 0x0 SWAP1 JUMP JUMPDEST PUSH32 0x0 TIMESTAMP LT PUSH2 0x485 JUMPI POP PUSH2 0x2710 SWAP1 JUMP JUMPDEST PUSH1 0x0 PUSH2 0x4B1 PUSH32 0x0 TIMESTAMP PUSH2 0xBAE JUMP JUMPDEST SWAP1 POP PUSH4 0x784CE00 PUSH2 0x4C4 DUP3 PUSH2 0x2710 PUSH2 0xBC7 JUMP JUMPDEST PUSH2 0x4CE SWAP2 SWAP1 PUSH2 0xBDE JUMP JUMPDEST SWAP2 POP POP SWAP1 JUMP JUMPDEST PUSH1 0x0 PUSH32 0x0 TIMESTAMP LT ISZERO PUSH2 0x504 JUMPI POP PUSH1 0x0 SWAP1 JUMP JUMPDEST PUSH32 0x0 TIMESTAMP LT PUSH2 0x53B JUMPI POP PUSH11 0x7C13BC4B2C133C56000000 SWAP1 JUMP JUMPDEST PUSH1 0x0 PUSH2 0x567 PUSH32 0x0 TIMESTAMP PUSH2 0xBAE JUMP JUMPDEST SWAP1 POP PUSH4 0x784CE00 PUSH2 0x4C4 DUP3 PUSH11 0x7C13BC4B2C133C56000000 PUSH2 0xBC7 JUMP JUMPDEST PUSH1 0x0 PUSH1 0x2 SLOAD PUSH2 0x590 PUSH2 0x4D4 JUMP JUMPDEST PUSH2 0x59A SWAP2 SWAP1 PUSH2 0xBAE JUMP JUMPDEST SWAP1 POP SWAP1 JUMP JUMPDEST PUSH2 0x5A7 PUSH2 0xA34 JUMP JUMPDEST PUSH2 0x5B1 PUSH1 0x0 PUSH2 0xA61 JUMP JUMPDEST JUMP JUMPDEST PUSH2 0x5BB PUSH2 0xAB1 JUMP JUMPDEST CALLER PUSH1 0x1 PUSH1 0x1 PUSH1 0xA0 SHL SUB PUSH32 0x0 AND EQ DUP1 PUSH2 0x5FC JUMPI POP PUSH1 0x0 SLOAD PUSH1 0x1 PUSH1 0x1 PUSH1 0xA0 SHL SUB AND CALLER EQ JUMPDEST PUSH2 0x63E JUMPI PUSH1 0x40 MLOAD PUSH3 0x461BCD PUSH1 0xE5 SHL DUP2 MSTORE PUSH1 0x20 PUSH1 0x4 DUP3 ADD MSTORE PUSH1 0xE PUSH1 0x24 DUP3 ADD MSTORE PUSH14 0x139BDD08185D5D1A1BDC9A5E9959 PUSH1 0x92 SHL PUSH1 0x44 DUP3 ADD MSTORE PUSH1 0x64 ADD JUMPDEST PUSH1 0x40 MLOAD DUP1 SWAP2 SUB SWAP1 REVERT JUMPDEST PUSH1 0x0 PUSH2 0x648 PUSH2 0x583 JUMP JUMPDEST SWAP1 POP PUSH1 0x0 DUP2 GT PUSH2 0x691 JUMPI PUSH1 0x40 MLOAD PUSH3 0x461BCD PUSH1 0xE5 SHL DUP2 MSTORE PUSH1 0x20 PUSH1 0x4 DUP3 ADD MSTORE PUSH1 0x14 PUSH1 0x24 DUP3 ADD MSTORE PUSH20 0x4E6F20746F6B656E7320746F2072656C65617365 PUSH1 0x60 SHL PUSH1 0x44 DUP3 ADD MSTORE PUSH1 0x64 ADD PUSH2 0x635 JUMP JUMPDEST DUP1 PUSH1 0x2 PUSH1 0x0 DUP3 DUP3 SLOAD PUSH2 0x6A3 SWAP2 SWAP1 PUSH2 0xC00 JUMP JUMPDEST SWAP1 SWAP2 SSTORE POP POP PUSH1 0x40 MLOAD PUSH4 0xA9059CBB PUSH1 0xE0 SHL DUP2 MSTORE PUSH1 0x1 PUSH1 0x1 PUSH1 0xA0 SHL SUB PUSH32 0x0 DUP2 AND PUSH1 0x4 DUP4 ADD MSTORE PUSH1 0x24 DUP3 ADD DUP4 SWAP1 MSTORE PUSH32 0x0 AND SWAP1 PUSH4 0xA9059CBB SWAP1 PUSH1 0x44 ADD PUSH1 0x20 PUSH1 0x40 MLOAD DUP1 DUP4 SUB DUP2 PUSH1 0x0 DUP8 GAS CALL ISZERO DUP1 ISZERO PUSH2 0x737 JUMPI RETURNDATASIZE PUSH1 0x0 DUP1 RETURNDATACOPY RETURNDATASIZE PUSH1 0x0 REVERT JUMPDEST POP POP POP POP PUSH1 0x40 MLOAD RETURNDATASIZE PUSH1 0x1F NOT PUSH1 0x1F DUP3 ADD AND DUP3 ADD DUP1 PUSH1 0x40 MSTORE POP DUP2 ADD SWAP1 PUSH2 0x75B SWAP2 SWAP1 PUSH2 0xC13 JUMP JUMPDEST PUSH2 0x799 JUMPI PUSH1 0x40 MLOAD PUSH3 0x461BCD PUSH1 0xE5 SHL DUP2 MSTORE PUSH1 0x20 PUSH1 0x4 DUP3 ADD MSTORE PUSH1 0xF PUSH1 0x24 DUP3 ADD MSTORE PUSH15 0x151C985B9CD9995C8819985A5B1959 PUSH1 0x8A SHL PUSH1 0x44 DUP3 ADD MSTORE PUSH1 0x64 ADD PUSH2 0x635 JUMP JUMPDEST PUSH1 0x40 DUP1 MLOAD DUP3 DUP2 MSTORE TIMESTAMP PUSH1 0x20 DUP3 ADD MSTORE PUSH32 0x6BFC9E66CA14AFA6B27C5211D92E2453D2007B51CD69146F7D2B2B5654CF2B9 SWAP2 ADD PUSH1 0x40 MLOAD DUP1 SWAP2 SUB SWAP1 LOG1 POP PUSH2 0x5B1 PUSH1 0x1 DUP1 SSTORE JUMP JUMPDEST PUSH2 0x7E3 PUSH2 0xA34 JUMP JUMPDEST PUSH32 0x0 PUSH1 0x1 PUSH1 0x1 PUSH1 0xA0 SHL SUB AND DUP3 PUSH1 0x1 PUSH1 0x1 PUSH1 0xA0 SHL SUB AND SUB PUSH2 0x864 JUMPI PUSH1 0x40 MLOAD PUSH3 0x461BCD PUSH1 0xE5 SHL DUP2 MSTORE PUSH1 0x20 PUSH1 0x4 DUP3 ADD MSTORE PUSH1 0x19 PUSH1 0x24 DUP3 ADD MSTORE PUSH32 0x43616E6E6F74207265636F7665722041524320746F6B656E7300000000000000 PUSH1 0x44 DUP3 ADD MSTORE PUSH1 0x64 ADD PUSH2 0x635 JUMP JUMPDEST DUP2 PUSH1 0x1 PUSH1 0x1 PUSH1 0xA0 SHL SUB AND PUSH4 0xA9059CBB PUSH2 0x885 PUSH1 0x0 SLOAD PUSH1 0x1 PUSH1 0x1 PUSH1 0xA0 SHL SUB AND SWAP1 JUMP JUMPDEST PUSH1 0x40 MLOAD PUSH1 0x1 PUSH1 0x1 PUSH1 0xE0 SHL SUB NOT PUSH1 0xE0 DUP5 SWAP1 SHL AND DUP2 MSTORE PUSH1 0x1 PUSH1 0x1 PUSH1 0xA0 SHL SUB SWAP1 SWAP2 AND PUSH1 0x4 DUP3 ADD MSTORE PUSH1 0x24 DUP2 ADD DUP5 SWAP1 MSTORE PUSH1 0x44 ADD PUSH1 0x20 PUSH1 0x40 MLOAD DUP1 DUP4 SUB DUP2 PUSH1 0x0 DUP8 GAS CALL ISZERO DUP1 ISZERO PUSH2 0x8D2 JUMPI RETURNDATASIZE PUSH1 0x0 DUP1 RETURNDATACOPY RETURNDATASIZE PUSH1 0x0 REVERT JUMPDEST POP POP POP POP PUSH1 0x40 MLOAD RETURNDATASIZE PUSH1 0x1F NOT PUSH1 0x1F DUP3 ADD AND DUP3 ADD DUP1 PUSH1 0x40 MSTORE POP DUP2 ADD SWAP1 PUSH2 0x8F6 SWAP2 SWAP1 PUSH2 0xC13 JUMP JUMPDEST PUSH2 0x934 JUMPI PUSH1 0x40 MLOAD PUSH3 0x461BCD PUSH1 0xE5 SHL DUP2 MSTORE PUSH1 0x20 PUSH1 0x4 DUP3 ADD MSTORE PUSH1 0xF PUSH1 0x24 DUP3 ADD MSTORE PUSH15 0x149958DBDD995C9E4819985A5B1959 PUSH1 0x8A SHL PUSH1 0x44 DUP3 ADD MSTORE PUSH1 0x64 ADD PUSH2 0x635 JUMP JUMPDEST POP POP JUMP JUMPDEST PUSH1 0x0 DUP1 PUSH1 0x0 DUP1 PUSH1 0x0 DUP1 PUSH1 0x0 DUP1 PUSH32 0x0 PUSH32 0x0 PUSH32 0x0 PUSH11 0x7C13BC4B2C133C56000000 PUSH2 0x9BB PUSH2 0x4D4 JUMP JUMPDEST PUSH1 0x2 SLOAD PUSH2 0x9C6 PUSH2 0x583 JUMP JUMPDEST PUSH1 0x2 SLOAD PUSH2 0x9DE SWAP1 PUSH11 0x7C13BC4B2C133C56000000 PUSH2 0xBAE JUMP JUMPDEST SWAP7 SWAP16 SWAP6 SWAP15 POP SWAP4 SWAP13 POP SWAP2 SWAP11 POP SWAP9 POP SWAP7 POP SWAP5 POP SWAP1 SWAP3 POP SWAP1 POP JUMP JUMPDEST PUSH2 0x9FE PUSH2 0xA34 JUMP JUMPDEST PUSH1 0x1 PUSH1 0x1 PUSH1 0xA0 SHL SUB DUP2 AND PUSH2 0xA28 JUMPI PUSH1 0x40 MLOAD PUSH4 0x1E4FBDF7 PUSH1 0xE0 SHL DUP2 MSTORE PUSH1 0x0 PUSH1 0x4 DUP3 ADD MSTORE PUSH1 0x24 ADD PUSH2 0x635 JUMP JUMPDEST PUSH2 0xA31 DUP2 PUSH2 0xA61 JUMP JUMPDEST POP JUMP JUMPDEST PUSH1 0x0 SLOAD PUSH1 0x1 PUSH1 0x1 PUSH1 0xA0 SHL SUB AND CALLER EQ PUSH2 0x5B1 JUMPI PUSH1 0x40 MLOAD PUSH4 0x118CDAA7 PUSH1 0xE0 SHL DUP2 MSTORE CALLER PUSH1 0x4 DUP3 ADD MSTORE PUSH1 0x24 ADD PUSH2 0x635 JUMP JUMPDEST PUSH1 0x0 DUP1 SLOAD PUSH1 0x1 PUSH1 0x1 PUSH1 0xA0 SHL SUB DUP4 DUP2 AND PUSH1 0x1 PUSH1 0x1 PUSH1 0xA0 SHL SUB NOT DUP4 AND DUP2 OR DUP5 SSTORE PUSH1 0x40 MLOAD SWAP2 SWAP1 SWAP3 AND SWAP3 DUP4 SWAP2 PUSH32 0x8BE0079C531659141344CD1FD0A4F28419497F9722A3DAAFE3B4186F6B6457E0 SWAP2 SWAP1 LOG3 POP POP JUMP JUMPDEST PUSH1 0x2 PUSH1 0x1 SLOAD SUB PUSH2 0xAD4 JUMPI PUSH1 0x40 MLOAD PUSH4 0x3EE5AEB5 PUSH1 0xE0 SHL DUP2 MSTORE PUSH1 0x4 ADD PUSH1 0x40 MLOAD DUP1 SWAP2 SUB SWAP1 REVERT JUMPDEST PUSH1 0x2 PUSH1 0x1 SSTORE JUMP JUMPDEST PUSH1 0x40 DUP2 MSTORE PUSH1 0x0 DUP4 MLOAD DUP1 PUSH1 0x40 DUP5 ADD MSTORE PUSH1 0x0 JUMPDEST DUP2 DUP2 LT ISZERO PUSH2 0xB09 JUMPI PUSH1 0x20 DUP2 DUP8 ADD DUP2 ADD MLOAD PUSH1 0x60 DUP7 DUP5 ADD ADD MSTORE ADD PUSH2 0xAEC JUMP JUMPDEST POP PUSH1 0x0 PUSH1 0x60 DUP3 DUP6 ADD ADD MSTORE PUSH1 0x60 PUSH1 0x1F NOT PUSH1 0x1F DUP4 ADD AND DUP5 ADD ADD SWAP2 POP POP DUP3 PUSH1 0x20 DUP4 ADD MSTORE SWAP4 SWAP3 POP POP POP JUMP JUMPDEST DUP1 CALLDATALOAD PUSH1 0x1 PUSH1 0x1 PUSH1 0xA0 SHL SUB DUP2 AND DUP2 EQ PUSH2 0xB47 JUMPI PUSH1 0x0 DUP1 REVERT JUMPDEST SWAP2 SWAP1 POP JUMP JUMPDEST PUSH1 0x0 DUP1 PUSH1 0x40 DUP4 DUP6 SUB SLT ISZERO PUSH2 0xB5F JUMPI PUSH1 0x0 DUP1 REVERT JUMPDEST PUSH2 0xB68 DUP4 PUSH2 0xB30 JUMP JUMPDEST SWAP5 PUSH1 0x20 SWAP4 SWAP1 SWAP4 ADD CALLDATALOAD SWAP4 POP POP POP JUMP JUMPDEST PUSH1 0x0 PUSH1 0x20 DUP3 DUP5 SUB SLT ISZERO PUSH2 0xB88 JUMPI PUSH1 0x0 DUP1 REVERT JUMPDEST PUSH2 0xB91 DUP3 PUSH2 0xB30 JUMP JUMPDEST SWAP4 SWAP3 POP POP POP JUMP JUMPDEST PUSH4 0x4E487B71 PUSH1 0xE0 SHL PUSH1 0x0 MSTORE PUSH1 0x11 PUSH1 0x4 MSTORE PUSH1 0x24 PUSH1 0x0 REVERT JUMPDEST DUP2 DUP2 SUB DUP2 DUP2 GT ISZERO PUSH2 0xBC1 JUMPI PUSH2 0xBC1 PUSH2 0xB98 JUMP JUMPDEST SWAP3 SWAP2 POP POP JUMP JUMPDEST DUP1 DUP3 MUL DUP2 ISZERO DUP3 DUP3 DIV DUP5 EQ OR PUSH2 0xBC1 JUMPI PUSH2 0xBC1 PUSH2 0xB98 JUMP JUMPDEST PUSH1 0x0 DUP3 PUSH2 0xBFB JUMPI PUSH4 0x4E487B71 PUSH1 0xE0 SHL PUSH1 0x0 MSTORE PUSH1 0x12 PUSH1 0x4 MSTORE PUSH1 0x24 PUSH1 0x0 REVERT JUMPDEST POP DIV SWAP1 JUMP JUMPDEST DUP1 DUP3 ADD DUP1 DUP3 GT ISZERO PUSH2 0xBC1 JUMPI PUSH2 0xBC1 PUSH2 0xB98 JUMP JUMPDEST PUSH1 0x0 PUSH1 0x20 DUP3 DUP5 SUB SLT ISZERO PUSH2 0xC25 JUMPI PUSH1 0x0 DUP1 REVERT JUMPDEST DUP2 MLOAD DUP1 ISZERO ISZERO DUP2 EQ PUSH2 0xB91 JUMPI PUSH1 0x0 DUP1 REVERT INVALID LOG2 PUSH5 0x6970667358 0x22 SLT KECCAK256 0xD1 PUSH1 0x3E CALLER 0xD3 PUSH9 0x3B9ACC0CA88FC40B1 0xC2 STATICCALL DELEGATECALL 0x5D 0xE7 SWAP3 SLT DUP3 0xF7 0xD4 PUSH7 0xE6F5987E532764 PUSH20 0x6F6C634300081400330000000000000000000000 "},"methodIdentifiers":{"CLIFF_DURATION()":"b3daa652","TOTAL_ALLOCATION()":"0dac7bea","VESTING_DURATION()":"4cfc4d30","arcToken()":"c0112678","cliffEnd()":"9130297b","founder()":"4d853ee5","getTimeUntilNextMilestone()":"0a7fc343","getVestingInfo()":"dc25a300","getVestingProgress()":"154e4e56","owner()":"8da5cb5b","recoverToken(address,uint256)":"b29a8140","releasableAmount()":"5b940081","release()":"86d1a69f","released()":"96132521","renounceOwnership()":"715018a6","transferOwnership(address)":"f2fde38b","vestedAmount()":"44b1231f","vestingEnd()":"84a1931f","vestingStart()":"254800d4"}}}}}