{"contracts/ArcToken.sol":{"ArcToken":{"abi":[{"inputs":[{"internalType":"address","name":"_publicSaleWallet","type":"address"},{"internalType":"address","name":"_founderWallet","type":"address"},{"internalType":"address","name":"_communityWallet","type":"address"},{"internalType":"address","name":"_treasuryWallet","type":"address"},{"internalType":"address","name":"_teamWallet","type":"address"},{"internalType":"address","name":"_strategicWallet","type":"address"},{"internalType":"address","name":"_liquidityWallet","type":"address"}],"stateMutability":"nonpayable","type":"constructor"},{"inputs":[{"internalType":"address","name":"spender","type":"address"},{"internalType":"uint256","name":"allowance","type":"uint256"},{"internalType":"uint256","name":"needed","type":"uint256"}],"name":"ERC20InsufficientAllowance","type":"error"},{"inputs":[{"internalType":"address","name":"sender","type":"address"},{"internalType":"uint256","name":"balance","type":"uint256"},{"internalType":"uint256","name":"needed","type":"uint256"}],"name":"ERC20InsufficientBalance","type":"error"},{"inputs":[{"internalType":"address","name":"approver","type":"address"}],"name":"ERC20InvalidApprover","type":"error"},{"inputs":[{"internalType":"address","name":"receiver","type":"address"}],"name":"ERC20InvalidReceiver","type":"error"},{"inputs":[{"internalType":"address","name":"sender","type":"address"}],"name":"ERC20InvalidSender","type":"error"},{"inputs":[{"internalType":"address","name":"spender","type":"address"}],"name":"ERC20InvalidSpender","type":"error"},{"inputs":[],"name":"EnforcedPause","type":"error"},{"inputs":[],"name":"ExpectedPause","type":"error"},{"inputs":[{"internalType":"address","name":"owner","type":"address"}],"name":"OwnableInvalidOwner","type":"error"},{"inputs":[{"internalType":"address","name":"account","type":"address"}],"name":"OwnableUnauthorizedAccount","type":"error"},{"inputs":[],"name":"ReentrancyGuardReentrantCall","type":"error"},{"anonymous":false,"inputs":[{"indexed":true,"internalType":"address","name":"owner","type":"address"},{"indexed":true,"internalType":"address","name":"spender","type":"address"},{"indexed":false,"internalType":"uint256","name":"value","type":"uint256"}],"name":"Approval","type":"event"},{"anonymous":false,"inputs":[{"indexed":true,"internalType":"address","name":"user","type":"address"},{"indexed":false,"internalType":"uint256","name":"discount","type":"uint256"}],"name":"FeeDiscountUpdated","type":"event"},{"anonymous":false,"inputs":[{"indexed":true,"internalType":"address","name":"previousOwner","type":"address"},{"indexed":true,"internalType":"address","name":"newOwner","type":"address"}],"name":"OwnershipTransferred","type":"event"},{"anonymous":false,"inputs":[{"indexed":false,"internalType":"address","name":"account","type":"address"}],"name":"Paused","type":"event"},{"anonymous":false,"inputs":[{"indexed":true,"internalType":"address","name":"user","type":"address"}],"name":"PremiumActivated","type":"event"},{"anonymous":false,"inputs":[{"indexed":true,"internalType":"address","name":"user","type":"address"},{"indexed":false,"internalType":"uint256","name":"reward","type":"uint256"}],"name":"RewardClaimed","type":"event"},{"anonymous":false,"inputs":[{"indexed":true,"internalType":"address","name":"user","type":"address"},{"indexed":false,"internalType":"uint256","name":"amount","type":"uint256"},{"indexed":false,"internalType":"uint256","name":"lockPeriod","type":"uint256"}],"name":"Staked","type":"event"},{"anonymous":false,"inputs":[{"indexed":true,"internalType":"address","name":"from","type":"address"},{"indexed":false,"internalType":"uint256","name":"amount","type":"uint256"},{"indexed":false,"internalType":"string","name":"reason","type":"string"}],"name":"TokensBurned","type":"event"},{"anonymous":false,"inputs":[{"indexed":true,"internalType":"address","name":"from","type":"address"},{"indexed":true,"internalType":"address","name":"to","type":"address"},{"indexed":false,"internalType":"uint256","name":"value","type":"uint256"}],"name":"Transfer","type":"event"},{"anonymous":false,"inputs":[{"indexed":false,"internalType":"address","name":"account","type":"address"}],"name":"Unpaused","type":"event"},{"anonymous":false,"inputs":[{"indexed":true,"internalType":"address","name":"user","type":"address"},{"indexed":false,"internalType":"uint256","name":"amount","type":"uint256"},{"indexed":false,"internalType":"uint256","name":"reward","type":"uint256"}],"name":"Unstaked","type":"event"},{"inputs":[],"name":"BURN_RATE","outputs":[{"internalType":"uint256","name":"","type":"uint256"}],"stateMutability":"view","type":"function"},{"inputs":[],"name":"FLEXIBLE_APY","outputs":[{"internalType":"uint256","name":"","type":"uint256"}],"stateMutability":"view","type":"function"},{"inputs":[],"name":"ONE_YEAR_APY","outputs":[{"internalType":"uint256","name":"","type":"uint256"}],"stateMutability":"view","type":"function"},{"inputs":[],"name":"PREMIUM_THRESHOLD","outputs":[{"internalType":"uint256","name":"","type":"uint256"}],"stateMutability":"view","type":"function"},{"inputs":[],"name":"SIX_MONTH_APY","outputs":[{"internalType":"uint256","name":"","type":"uint256"}],"stateMutability":"view","type":"function"},{"inputs":[{"internalType":"address","name":"owner","type":"address"},{"internalType":"address","name":"spender","type":"address"}],"name":"allowance","outputs":[{"internalType":"uint256","name":"","type":"uint256"}],"stateMutability":"view","type":"function"},{"inputs":[{"internalType":"address","name":"spender","type":"address"},{"internalType":"uint256","name":"value","type":"uint256"}],"name":"approve","outputs":[{"internalType":"bool","name":"","type":"bool"}],"stateMutability":"nonpayable","type":"function"},{"inputs":[{"internalType":"address","name":"account","type":"address"}],"name":"balanceOf","outputs":[{"internalType":"uint256","name":"","type":"uint256"}],"stateMutability":"view","type":"function"},{"inputs":[{"internalType":"uint256","name":"value","type":"uint256"}],"name":"burn","outputs":[],"stateMutability":"nonpayable","type":"function"},{"inputs":[{"internalType":"address","name":"account","type":"address"},{"internalType":"uint256","name":"value","type":"uint256"}],"name":"burnFrom","outputs":[],"stateMutability":"nonpayable","type":"function"},{"inputs":[{"internalType":"uint256","name":"amount","type":"uint256"}],"name":"burnFromTreasury","outputs":[],"stateMutability":"nonpayable","type":"function"},{"inputs":[{"internalType":"address","name":"user","type":"address"}],"name":"calculateReward","outputs":[{"internalType":"uint256","name":"","type":"uint256"}],"stateMutability":"view","type":"function"},{"inputs":[],"name":"claimRewards","outputs":[],"stateMutability":"nonpayable","type":"function"},{"inputs":[],"name":"communityWallet","outputs":[{"internalType":"address","name":"","type":"address"}],"stateMutability":"view","type":"function"},{"inputs":[],"name":"decimals","outputs":[{"internalType":"uint8","name":"","type":"uint8"}],"stateMutability":"view","type":"function"},{"inputs":[{"internalType":"address","name":"","type":"address"}],"name":"feeDiscounts","outputs":[{"internalType":"uint256","name":"","type":"uint256"}],"stateMutability":"view","type":"function"},{"inputs":[],"name":"founderWallet","outputs":[{"internalType":"address","name":"","type":"address"}],"stateMutability":"view","type":"function"},{"inputs":[{"internalType":"address","name":"user","type":"address"}],"name":"getStakeInfo","outputs":[{"internalType":"uint256","name":"amount","type":"uint256"},{"internalType":"uint256","name":"timestamp","type":"uint256"},{"internalType":"uint256","name":"lockPeriod","type":"uint256"},{"internalType":"uint256","name":"pendingReward","type":"uint256"},{"internalType":"bool","name":"premium","type":"bool"},{"internalType":"uint256","name":"feeDiscount","type":"uint256"}],"stateMutability":"view","type":"function"},{"inputs":[],"name":"getTokenStats","outputs":[{"internalType":"uint256","name":"circulatingSupply","type":"uint256"},{"internalType":"uint256","name":"burnedSupply","type":"uint256"},{"internalType":"uint256","name":"stakedSupply","type":"uint256"},{"internalType":"uint256","name":"effectiveSupply","type":"uint256"}],"stateMutability":"view","type":"function"},{"inputs":[{"internalType":"address","name":"","type":"address"}],"name":"isPremium","outputs":[{"internalType":"bool","name":"","type":"bool"}],"stateMutability":"view","type":"function"},{"inputs":[],"name":"liquidityWallet","outputs":[{"internalType":"address","name":"","type":"address"}],"stateMutability":"view","type":"function"},{"inputs":[],"name":"name","outputs":[{"internalType":"string","name":"","type":"string"}],"stateMutability":"view","type":"function"},{"inputs":[],"name":"owner","outputs":[{"internalType":"address","name":"","type":"address"}],"stateMutability":"view","type":"function"},{"inputs":[],"name":"pause","outputs":[],"stateMutability":"nonpayable","type":"function"},{"inputs":[],"name":"paused","outputs":[{"internalType":"bool","name":"","type":"bool"}],"stateMutability":"view","type":"function"},{"inputs":[],"name":"publicSaleWallet","outputs":[{"internalType":"address","name":"","type":"address"}],"stateMutability":"view","type":"function"},{"inputs":[],"name":"renounceOwnership","outputs":[],"stateMutability":"nonpayable","type":"function"},{"inputs":[{"internalType":"uint256","name":"amount","type":"uint256"},{"internalType":"uint256","name":"lockPeriod","type":"uint256"}],"name":"stake","outputs":[],"stateMutability":"nonpayable","type":"function"},{"inputs":[{"internalType":"address","name":"","type":"address"}],"name":"stakes","outputs":[{"internalType":"uint256","name":"amount","type":"uint256"},{"internalType":"uint256","name":"timestamp","type":"uint256"},{"internalType":"uint256","name":"lockPeriod","type":"uint256"},{"internalType":"uint256","name":"rewardDebt","type":"uint256"}],"stateMutability":"view","type":"function"},{"inputs":[],"name":"strategicWallet","outputs":[{"internalType":"address","name":"","type":"address"}],"stateMutability":"view","type":"function"},{"inputs":[],"name":"symbol","outputs":[{"internalType":"string","name":"","type":"string"}],"stateMutability":"view","type":"function"},{"inputs":[],"name":"teamWallet","outputs":[{"internalType":"address","name":"","type":"address"}],"stateMutability":"view","type":"function"},{"inputs":[],"name":"totalBurned","outputs":[{"internalType":"uint256","name":"","type":"uint256"}],"stateMutability":"view","type":"function"},{"inputs":[],"name":"totalStaked","outputs":[{"internalType":"uint256","name":"","type":"uint256"}],"stateMutability":"view","type":"function"},{"inputs":[],"name":"totalSupply","outputs":[{"internalType":"uint256","name":"","type":"uint256"}],"stateMutability":"view","type":"function"},{"inputs":[{"internalType":"address","name":"to","type":"address"},{"internalType":"uint256","name":"value","type":"uint256"}],"name":"transfer","outputs":[{"internalType":"bool","name":"","type":"bool"}],"stateMutability":"nonpayable","type":"function"},{"inputs":[{"internalType":"address","name":"from","type":"address"},{"internalType":"address","name":"to","type":"address"},{"internalType":"uint256","name":"value","type":"uint256"}],"name":"transferFrom","outputs":[{"internalType":"bool","name":"","type":"bool"}],"stateMutability":"nonpayable","type":"function"},{"inputs":[{"internalType":"address","name":"newOwner","type":"address"}],"name":"transferOwnership","outputs":[],"stateMutability":"nonpayable","type":"function"},{"inputs":[],"name":"treasuryWallet","outputs":[{"internalType":"address","name":"","type":"address"}],"stateMutability":"view","type":"function"},{"inputs":[],"name":"unpause","outputs":[],"stateMutability":"nonpayable","type":"function"},{"inputs":[],"name":"unstake","outputs":[],"stateMutability":"nonpayable","type":"function"}],"evm":{"bytecode":{"linkReferences":{},"object":"60806040523480156200001157600080fd5b506040516200234838038062002348833981016040819052620000349162000802565b336040518060400160405280600981526020016820b931902a37b5b2b760b91b8152506040518060400160405280600381526020016241524360e81b81525081600390816200008491906200093b565b5060046200009382826200093b565b5050506001600160a01b038116620000c657604051631e4fbdf760e01b8152600060048201526024015b60405180910390fd5b620000d1816200045b565b5060016006556001600160a01b0387166200012f5760405162461bcd60e51b815260206004820152601a60248201527f496e76616c6964207075626c69632073616c652077616c6c65740000000000006044820152606401620000bd565b6001600160a01b038616620001875760405162461bcd60e51b815260206004820152601660248201527f496e76616c696420666f756e6465722077616c6c6574000000000000000000006044820152606401620000bd565b6001600160a01b038516620001df5760405162461bcd60e51b815260206004820152601860248201527f496e76616c696420636f6d6d756e6974792077616c6c657400000000000000006044820152606401620000bd565b6001600160a01b038416620002375760405162461bcd60e51b815260206004820152601760248201527f496e76616c69642074726561737572792077616c6c65740000000000000000006044820152606401620000bd565b6001600160a01b0383166200028f5760405162461bcd60e51b815260206004820152601360248201527f496e76616c6964207465616d2077616c6c6574000000000000000000000000006044820152606401620000bd565b6001600160a01b038216620002e75760405162461bcd60e51b815260206004820152601860248201527f496e76616c6964207374726174656769632077616c6c657400000000000000006044820152606401620000bd565b6001600160a01b0381166200033f5760405162461bcd60e51b815260206004820152601860248201527f496e76616c6964206c69717569646974792077616c6c657400000000000000006044820152606401620000bd565b600780546001600160a01b03199081166001600160a01b038a811691909117909255600880548216898416179055600980548216888416179055600a80548216878416179055600b80548216868416179055600c80548216858416179055600d8054909116918316919091179055620003c4876a7c13bc4b2c133c56000000620004b5565b620003db816a52b7d2dcc80cd2e4000000620004b5565b620003f2866a52b7d2dcc80cd2e4000000620004b5565b62000409856aa56fa5b99019a5c8000000620004b5565b62000420846a7c13bc4b2c133c56000000620004b5565b62000437836a52b7d2dcc80cd2e4000000620004b5565b6200044e826a295be96e64066972000000620004b5565b5050505050505062000a8c565b600580546001600160a01b03838116610100818102610100600160a81b031985161790945560405193909204169182907f8be0079c531659141344cd1fd0a4f28419497f9722a3daafe3b4186f6b6457e090600090a35050565b6001600160a01b038216620004e15760405163ec442f0560e01b815260006004820152602401620000bd565b620004ef60008383620004f3565b5050565b60006001600160a01b03841615806200051357506001600160a01b038316155b806200052757506001600160a01b03841630145b806200053b57506001600160a01b03831630145b80620005545750600d546001600160a01b038581169116145b806200056d5750600d546001600160a01b038481169116145b9050801580156200057c575060015b156200065c57600061271062000594600a8562000a1d565b620005a0919062000a3d565b905080156200065a57620005b7856000836200066f565b80600e6000828254620005cb919062000a60565b92505081905550846001600160a01b03167ffad31924d655455395c87544c8aa1ffdb5a7505a22a3c2e03f28003b6556a75f8260405162000633918152604060208201819052600d908201526c2a3930b739b332b910313ab93760991b606082015260800190565b60405180910390a26200065385856200064d848762000a76565b6200066f565b5050505050565b505b620006698484846200066f565b50505050565b620006796200068b565b62000686838383620006b2565b505050565b60055460ff1615620006b05760405163d93c066560e01b815260040160405180910390fd5b565b6001600160a01b038316620006e1578060026000828254620006d5919062000a60565b90915550620007559050565b6001600160a01b03831660009081526020819052604090205481811015620007365760405163391434e360e21b81526001600160a01b03851660048201526024810182905260448101839052606401620000bd565b6001600160a01b03841660009081526020819052604090209082900390555b6001600160a01b038216620007735760028054829003905562000792565b6001600160a01b03821660009081526020819052604090208054820190555b816001600160a01b0316836001600160a01b03167fddf252ad1be2c89b69c2b068fc378daa952ba7f163c4a11628f55a4df523b3ef83604051620007d891815260200190565b60405180910390a3505050565b80516001600160a01b0381168114620007fd57600080fd5b919050565b600080600080600080600060e0888a0312156200081e57600080fd5b6200082988620007e5565b96506200083960208901620007e5565b95506200084960408901620007e5565b94506200085960608901620007e5565b93506200086960808901620007e5565b92506200087960a08901620007e5565b91506200088960c08901620007e5565b905092959891949750929550565b634e487b7160e01b600052604160045260246000fd5b600181811c90821680620008c257607f821691505b602082108103620008e357634e487b7160e01b600052602260045260246000fd5b50919050565b601f8211156200068657600081815260208120601f850160051c81016020861015620009125750805b601f850160051c820191505b8181101562000933578281556001016200091e565b505050505050565b81516001600160401b0381111562000957576200095762000897565b6200096f81620009688454620008ad565b84620008e9565b602080601f831160018114620009a757600084156200098e5750858301515b600019600386901b1c1916600185901b17855562000933565b600085815260208120601f198616915b82811015620009d857888601518255948401946001909101908401620009b7565b5085821015620009f75787850151600019600388901b60f8161c191681555b5050505050600190811b01905550565b634e487b7160e01b600052601160045260246000fd5b808202811582820484141762000a375762000a3762000a07565b92915050565b60008262000a5b57634e487b7160e01b600052601260045260246000fd5b500490565b8082018082111562000a375762000a3762000a07565b8181038181111562000a375762000a3762000a07565b6118ac8062000a9c6000396000f3fe608060405234801561001057600080fd5b50600436106102535760003560e01c806370a08231116101465780639af01c2d116100c3578063d469801611610087578063d469801614610548578063d82e39621461055b578063d89135cd1461056e578063dd62ed3e14610577578063f2fde38b146105b0578063f846a885146105c357600080fd5b80639af01c2d146104bd578063a23d3c35146104cd578063a9059cbb146104e0578063c3453153146104f3578063c75748391461053557600080fd5b8063817b1cd21161010a578063817b1cd21461047b5780638456cb59146104845780638922e0211461048c5780638da5cb5b1461049f57806395d89b41146104b557600080fd5b806370a0823114610401578063715018a61461042a578063742fe0d41461043257806379cc6790146104555780637b0472f01461046857600080fd5b8063372500ab116101d4578063599270441161019857806359927044146103b45780635c975abb146103c75780635f9d9909146103d257806363546f0c146103e55780636cb13595146103ee57600080fd5b8063372500ab1461035d578063373c6193146103655780633f4ba83a1461036e57806342966c68146103765780634626402b1461038957600080fd5b806316934fc41161021b57806316934fc4146102f457806318160ddd1461032957806323b872dd146103315780632def662014610344578063313ce5671461034e57600080fd5b8063040a4f421461025857806306fdde031461028b57806308014d8b146102a0578063095ea7b3146102a9578063097cd9bf146102cc575b600080fd5b610278610266366004611683565b60116020526000908152604090205481565b6040519081526020015b60405180910390f35b6102936105cb565b60405161028291906116a5565b6102786107d081565b6102bc6102b73660046116f3565b61065d565b6040519015158152602001610282565b6102d4610677565b604080519485526020850193909352918301526060820152608001610282565b6102d4610302366004611683565b600f6020526000908152604090208054600182015460028301546003909301549192909184565b600254610278565b6102bc61033f36600461171d565b6106ac565b61034c6106d0565b005b60405160128152602001610282565b61034c6108a9565b6102786105dc81565b61034c6108c4565b61034c610384366004611759565b6108d4565b600a5461039c906001600160a01b031681565b6040516001600160a01b039091168152602001610282565b600b5461039c906001600160a01b031681565b60055460ff166102bc565b61034c6103e0366004611759565b6108e1565b61027861032081565b60075461039c906001600160a01b031681565b61027861040f366004611683565b6001600160a01b031660009081526020819052604090205490565b61034c6109e7565b6102bc610440366004611683565b60126020526000908152604090205460ff1681565b61034c6104633660046116f3565b6109f9565b61034c610476366004611772565b610a12565b61027860105481565b61034c610c84565b600c5461039c906001600160a01b031681565b60055461010090046001600160a01b031661039c565b610293610c94565b610278683635c9adc5dea0000081565b60085461039c906001600160a01b031681565b6102bc6104ee3660046116f3565b610ca3565b610506610501366004611683565b610cb1565b6040805196875260208701959095529385019290925260608401521515608083015260a082015260c001610282565b60095461039c906001600160a01b031681565b600d5461039c906001600160a01b031681565b610278610569366004611683565b610d4e565b610278600e5481565b610278610585366004611794565b6001600160a01b03918216600090815260016020908152604080832093909416825291909152205490565b61034c6105be366004611683565b610e03565b610278600a81565b6060600380546105da906117c7565b80601f0160208091040260200160405190810160405280929190818152602001828054610606906117c7565b80156106535780601f1061062857610100808354040283529160200191610653565b820191906000526020600020905b81548152906001019060200180831161063657829003601f168201915b5050505050905090565b60003361066b818585610e3e565b60019150505b92915050565b600080600080600061068860025490565b600e54601054919250829161069d8284611817565b94509450945094505090919293565b6000336106ba858285610e50565b6106c5858585610ecf565b506001949350505050565b6106d8610f2e565b336000908152600f60209081526040918290208251608081018452815480825260018301549382019390935260028201549381019390935260030154606083015261075b5760405162461bcd60e51b815260206004820152600e60248201526d139bc81cdd185ad948199bdd5b9960921b60448201526064015b60405180910390fd5b8060400151816020015161076f919061182a565b4210156107b45760405162461bcd60e51b8152602060048201526013602482015272151bdad95b9cc81cdd1a5b1b081b1bd8dad959606a1b6044820152606401610752565b60006107bf33610d4e565b905060008183600001516107d3919061182a565b90508260000151601060008282546107eb9190611817565b9091555050336000908152600f602090815260408083208381556001810184905560028101849055600301839055601290915290205460ff161561084157336000908152601260205260409020805460ff191690555b3360008181526011602052604081205561085d90309083610ecf565b8251604080519182526020820184905233917f7fc4727e062e336010f2c282598ef5f14facb3de68cf8195c2f23e1454b2b74e910160405180910390a25050506108a76001600655565b565b6108b1610f2e565b6108ba33610f58565b6108a76001600655565b6108cc611051565b6108a7611084565b6108de33826110d6565b50565b6108e9611051565b600081116109395760405162461bcd60e51b815260206004820152601d60248201527f416d6f756e74206d7573742062652067726561746572207468616e20300000006044820152606401610752565b600a5461094f906001600160a01b0316826110d6565b80600e6000828254610961919061182a565b9091555050600a546040516001600160a01b03909116907ffad31924d655455395c87544c8aa1ffdb5a7505a22a3c2e03f28003b6556a75f906109dc908481526040602082018190526017908201527f5472656173757279206275796261636b2026206275726e000000000000000000606082015260800190565b60405180910390a250565b6109ef611051565b6108a7600061110c565b610a04823383610e50565b610a0e82826110d6565b5050565b610a1a610f2e565b610a22611166565b60008211610a6a5760405162461bcd60e51b815260206004820152601560248201527443616e6e6f74207374616b65203020746f6b656e7360581b6044820152606401610752565b801580610a7757508060b4145b80610a8357508061016d145b610ac55760405162461bcd60e51b8152602060048201526013602482015272125b9d985b1a59081b1bd8dac81c195c9a5bd9606a1b6044820152606401610752565b33600090815260208190526040902054821115610b1b5760405162461bcd60e51b8152602060048201526014602482015273496e73756666696369656e742062616c616e636560601b6044820152606401610752565b336000908152600f602052604090205415610b3957610b3933610f58565b610b44333084610ecf565b336000908152600f602052604081208054849290610b6390849061182a565b9091555050336000908152600f6020526040902042600190910155610b8b816201518061183d565b336000908152600f602052604081206002019190915560108054849290610bb390849061182a565b9091555050336000908152600f6020526040902054683635c9adc5dea0000011801590610bf057503360009081526012602052604090205460ff16155b15610c365733600081815260126020526040808220805460ff19166001179055517faa8ccf229bb4a5182c5122d8450416e8ae3b78f457eebea8b2028be23f6d5ab19190a25b610c3f3361118a565b604080518381526020810183905233917f1449c6dd7851abc30abf37f57715f492010519147cc2652fbc38202c18a6ee90910160405180910390a2610a0e6001600655565b610c8c611051565b6108a7611269565b6060600480546105da906117c7565b60003361066b818585610ecf565b6001600160a01b0381166000908152600f6020908152604080832081516080810183528154808252600183015494820185905260028301549382018490526003909201546060820152849384938493849384939092610d0f8b610d4e565b6001600160a01b039b909b16600090815260126020908152604080832054601190925290912054939c929b919a5090985060ff16965090945092505050565b6001600160a01b0381166000908152600f6020908152604080832081516080810183528154808252600183015494820194909452600282015492810192909252600301546060820152908203610da75750600092915050565b6000816020015142610db99190611817565b90506000610dca83604001516112a6565b9050600064496cebb80083838660000151610de5919061183d565b610def919061183d565b610df99190611854565b9695505050505050565b610e0b611051565b6001600160a01b038116610e3557604051631e4fbdf760e01b815260006004820152602401610752565b6108de8161110c565b610e4b83838360016112d8565b505050565b6001600160a01b03838116600090815260016020908152604080832093861683529290522054600019811015610ec95781811015610eba57604051637dc7a0d960e11b81526001600160a01b03841660048201526024810182905260448101839052606401610752565b610ec9848484840360006112d8565b50505050565b6001600160a01b038316610ef957604051634b637e8f60e11b815260006004820152602401610752565b6001600160a01b038216610f235760405163ec442f0560e01b815260006004820152602401610752565b610e4b8383836113ad565b600260065403610f5157604051633ee5aeb560e01b815260040160405180910390fd5b6002600655565b6000610f6382610d4e565b905060008111610fab5760405162461bcd60e51b81526020600482015260136024820152724e6f207265776172647320746f20636c61696d60681b6044820152606401610752565b6001600160a01b0382166000908152600f602052604081206003018054839290610fd690849061182a565b90915550506001600160a01b038083166000908152600f602052604090204260019091015560095461100a91168383610ecf565b816001600160a01b03167f106f923f993c2149d49b4255ff723acafa1f2d94393f561d3eda32ae348f72418260405161104591815260200190565b60405180910390a25050565b6005546001600160a01b036101009091041633146108a75760405163118cdaa760e01b8152336004820152602401610752565b61108c61150c565b6005805460ff191690557f5db9ee0a495bf2e6ff9c91a7834c1ba4fdd244a5e8aa4e537bd38aeae4b073aa335b6040516001600160a01b03909116815260200160405180910390a1565b6001600160a01b03821661110057604051634b637e8f60e11b815260006004820152602401610752565b610a0e826000836113ad565b600580546001600160a01b03838116610100818102610100600160a81b031985161790945560405193909204169182907f8be0079c531659141344cd1fd0a4f28419497f9722a3daafe3b4186f6b6457e090600090a35050565b60055460ff16156108a75760405163d93c066560e01b815260040160405180910390fd5b6001600160a01b0381166000908152600f60205260408120549069152d02c7e14af680000082106111be5750611d4c61120f565b690a968163f0a57b40000082106111d8575061138861120f565b69021e19e0c9bab240000082106111f257506109c461120f565b683635c9adc5dea00000821061120b57506103e861120f565b5060005b6001600160a01b03831660008181526011602052604090819020839055517f8c8213355f8c4b06cfd938d2a83ec5b9d1f2ef7af5d62a51a06e8e229c1fdc599061125c9084815260200190565b60405180910390a2505050565b611271611166565b6005805460ff191660011790557f62e78cea01bee320cd4e420270b5ea74000d11b0c9f74754ebdbfc544b05a2586110b93390565b60006301e1338082106112bc57506107d0919050565b62ed4e0082106112cf57506105dc919050565b50610320919050565b6001600160a01b0384166113025760405163e602df0560e01b815260006004820152602401610752565b6001600160a01b03831661132c57604051634a1406b160e11b815260006004820152602401610752565b6001600160a01b0380851660009081526001602090815260408083209387168352929052208290558015610ec957826001600160a01b0316846001600160a01b03167f8c5be1e5ebec7d5bd14f71427d1e84f3dd0314c0f7b2291e5b200ac8c7c3b9258460405161139f91815260200190565b60405180910390a350505050565b60006001600160a01b03841615806113cc57506001600160a01b038316155b806113df57506001600160a01b03841630145b806113f257506001600160a01b03831630145b8061140a5750600d546001600160a01b038581169116145b806114225750600d546001600160a01b038481169116145b905080158015611430575060015b15611501576000612710611445600a8561183d565b61144f9190611854565b905080156114ff576114638560008361152f565b80600e6000828254611475919061182a565b92505081905550846001600160a01b03167ffad31924d655455395c87544c8aa1ffdb5a7505a22a3c2e03f28003b6556a75f826040516114dc918152604060208201819052600d908201526c2a3930b739b332b910313ab93760991b606082015260800190565b60405180910390a26114f885856114f38487611817565b61152f565b5050505050565b505b610ec984848461152f565b60055460ff166108a757604051638dfc202b60e01b815260040160405180910390fd5b611537611166565b610e4b8383836001600160a01b03831661156857806002600082825461155d919061182a565b909155506115da9050565b6001600160a01b038316600090815260208190526040902054818110156115bb5760405163391434e360e21b81526001600160a01b03851660048201526024810182905260448101839052606401610752565b6001600160a01b03841660009081526020819052604090209082900390555b6001600160a01b0382166115f657600280548290039055611615565b6001600160a01b03821660009081526020819052604090208054820190555b816001600160a01b0316836001600160a01b03167fddf252ad1be2c89b69c2b068fc378daa952ba7f163c4a11628f55a4df523b3ef8360405161165a91815260200190565b60405180910390a3505050565b80356001600160a01b038116811461167e57600080fd5b919050565b60006020828403121561169557600080fd5b61169e82611667565b9392505050565b600060208083528351808285015260005b818110156116d2578581018301518582016040015282016116b6565b506000604082860101526040601f19601f8301168501019250505092915050565b6000806040838503121561170657600080fd5b61170f83611667565b946020939093013593505050565b60008060006060848603121561173257600080fd5b61173b84611667565b925061174960208501611667565b9150604084013590509250925092565b60006020828403121561176b57600080fd5b5035919050565b6000806040838503121561178557600080fd5b50508035926020909101359150565b600080604083850312156117a757600080fd5b6117b083611667565b91506117be60208401611667565b90509250929050565b600181811c908216806117db57607f821691505b6020821081036117fb57634e487b7160e01b600052602260045260246000fd5b50919050565b634e487b7160e01b600052601160045260246000fd5b8181038181111561067157610671611801565b8082018082111561067157610671611801565b808202811582820484141761067157610671611801565b60008261187157634e487b7160e01b600052601260045260246000fd5b50049056fea26469706673582212208d528518d8a9138c588daedd1e86ab75e55d4d69197e8637d7b3d206b6a0741164736f6c63430008140033","opcodes":"PUSH1 0x80 PUSH1 0x40 MSTORE CALLVALUE DUP1 ISZERO PUSH3 0x11 JUMPI PUSH1 0x0 DUP1 REVERT JUMPDEST POP PUSH1 0x40 MLOAD PUSH3 0x2348 CODESIZE SUB DUP1 PUSH3 0x2348 DUP4 CODECOPY DUP2 ADD PUSH1 0x40 DUP2 SWAP1 MSTORE PUSH3 0x34 SWAP2 PUSH3 0x802 JUMP JUMPDEST CALLER PUSH1 0x40 MLOAD DUP1 PUSH1 0x40 ADD PUSH1 0x40 MSTORE DUP1 PUSH1 0x9 DUP2 MSTORE PUSH1 0x20 ADD PUSH9 0x20B931902A37B5B2B7 PUSH1 0xB9 SHL DUP2 MSTORE POP PUSH1 0x40 MLOAD DUP1 PUSH1 0x40 ADD PUSH1 0x40 MSTORE DUP1 PUSH1 0x3 DUP2 MSTORE PUSH1 0x20 ADD PUSH3 0x415243 PUSH1 0xE8 SHL DUP2 MSTORE POP DUP2 PUSH1 0x3 SWAP1 DUP2 PUSH3 0x84 SWAP2 SWAP1 PUSH3 0x93B JUMP JUMPDEST POP PUSH1 0x4 PUSH3 0x93 DUP3 DUP3 PUSH3 0x93B JUMP JUMPDEST POP POP POP PUSH1 0x1 PUSH1 0x1 PUSH1 0xA0 SHL SUB DUP2 AND PUSH3 0xC6 JUMPI PUSH1 0x40 MLOAD PUSH4 0x1E4FBDF7 PUSH1 0xE0 SHL DUP2 MSTORE PUSH1 0x0 PUSH1 0x4 DUP3 ADD MSTORE PUSH1 0x24 ADD JUMPDEST PUSH1 0x40 MLOAD DUP1 SWAP2 SUB SWAP1 REVERT JUMPDEST PUSH3 0xD1 DUP2 PUSH3 0x45B JUMP JUMPDEST POP PUSH1 0x1 PUSH1 0x6 SSTORE PUSH1 0x1 PUSH1 0x1 PUSH1 0xA0 SHL SUB DUP8 AND PUSH3 0x12F JUMPI PUSH1 0x40 MLOAD PUSH3 0x461BCD PUSH1 0xE5 SHL DUP2 MSTORE PUSH1 0x20 PUSH1 0x4 DUP3 ADD MSTORE PUSH1 0x1A PUSH1 0x24 DUP3 ADD MSTORE PUSH32 0x496E76616C6964207075626C69632073616C652077616C6C6574000000000000 PUSH1 0x44 DUP3 ADD MSTORE PUSH1 0x64 ADD PUSH3 0xBD JUMP JUMPDEST PUSH1 0x1 PUSH1 0x1 PUSH1 0xA0 SHL SUB DUP7 AND PUSH3 0x187 JUMPI PUSH1 0x40 MLOAD PUSH3 0x461BCD PUSH1 0xE5 SHL DUP2 MSTORE PUSH1 0x20 PUSH1 0x4 DUP3 ADD MSTORE PUSH1 0x16 PUSH1 0x24 DUP3 ADD MSTORE PUSH32 0x496E76616C696420666F756E6465722077616C6C657400000000000000000000 PUSH1 0x44 DUP3 ADD MSTORE PUSH1 0x64 ADD PUSH3 0xBD JUMP JUMPDEST PUSH1 0x1 PUSH1 0x1 PUSH1 0xA0 SHL SUB DUP6 AND PUSH3 0x1DF JUMPI PUSH1 0x40 MLOAD PUSH3 0x461BCD PUSH1 0xE5 SHL DUP2 MSTORE PUSH1 0x20 PUSH1 0x4 DUP3 ADD MSTORE PUSH1 0x18 PUSH1 0x24 DUP3 ADD MSTORE PUSH32 0x496E76616C696420636F6D6D756E6974792077616C6C65740000000000000000 PUSH1 0x44 DUP3 ADD MSTORE PUSH1 0x64 ADD PUSH3 0xBD JUMP JUMPDEST PUSH1 0x1 PUSH1 0x1 PUSH1 0xA0 SHL SUB DUP5 AND PUSH3 0x237 JUMPI PUSH1 0x40 MLOAD PUSH3 0x461BCD PUSH1 0xE5 SHL DUP2 MSTORE PUSH1 0x20 PUSH1 0x4 DUP3 ADD MSTORE PUSH1 0x17 PUSH1 0x24 DUP3 ADD MSTORE PUSH32 0x496E76616C69642074726561737572792077616C6C6574000000000000000000 PUSH1 0x44 DUP3 ADD MSTORE PUSH1 0x64 ADD PUSH3 0xBD JUMP JUMPDEST PUSH1 0x1 PUSH1 0x1 PUSH1 0xA0 SHL SUB DUP4 AND PUSH3 0x28F JUMPI PUSH1 0x40 MLOAD PUSH3 0x461BCD PUSH1 0xE5 SHL DUP2 MSTORE PUSH1 0x20 PUSH1 0x4 DUP3 ADD MSTORE PUSH1 0x13 PUSH1 0x24 DUP3 ADD MSTORE PUSH32 0x496E76616C6964207465616D2077616C6C657400000000000000000000000000 PUSH1 0x44 DUP3 ADD MSTORE PUSH1 0x64 ADD PUSH3 0xBD JUMP JUMPDEST PUSH1 0x1 PUSH1 0x1 PUSH1 0xA0 SHL SUB DUP3 AND PUSH3 0x2E7 JUMPI PUSH1 0x40 MLOAD PUSH3 0x461BCD PUSH1 0xE5 SHL DUP2 MSTORE PUSH1 0x20 PUSH1 0x4 DUP3 ADD MSTORE PUSH1 0x18 PUSH1 0x24 DUP3 ADD MSTORE PUSH32 0x496E76616C6964207374726174656769632077616C6C65740000000000000000 PUSH1 0x44 DUP3 ADD MSTORE PUSH1 0x64 ADD PUSH3 0xBD JUMP JUMPDEST PUSH1 0x1 PUSH1 0x1 PUSH1 0xA0 SHL SUB DUP2 AND PUSH3 0x33F JUMPI PUSH1 0x40 MLOAD PUSH3 0x461BCD PUSH1 0xE5 SHL DUP2 MSTORE PUSH1 0x20 PUSH1 0x4 DUP3 ADD MSTORE PUSH1 0x18 PUSH1 0x24 DUP3 ADD MSTORE PUSH32 0x496E76616C6964206C69717569646974792077616C6C65740000000000000000 PUSH1 0x44 DUP3 ADD MSTORE PUSH1 0x64 ADD PUSH3 0xBD JUMP JUMPDEST PUSH1 0x7 DUP1 SLOAD PUSH1 0x1 PUSH1 0x1 PUSH1 0xA0 SHL SUB NOT SWAP1 DUP2 AND PUSH1 0x1 PUSH1 0x1 PUSH1 0xA0 SHL SUB DUP11 DUP2 AND SWAP2 SWAP1 SWAP2 OR SWAP1 SWAP3 SSTORE PUSH1 0x8 DUP1 SLOAD DUP3 AND DUP10 DUP5 AND OR SWAP1 SSTORE PUSH1 0x9 DUP1 SLOAD DUP3 AND DUP9 DUP5 AND OR SWAP1 SSTORE PUSH1 0xA DUP1 SLOAD DUP3 AND DUP8 DUP5 AND OR SWAP1 SSTORE PUSH1 0xB DUP1 SLOAD DUP3 AND DUP7 DUP5 AND OR SWAP1 SSTORE PUSH1 0xC DUP1 SLOAD DUP3 AND DUP6 DUP5 AND OR SWAP1 SSTORE PUSH1 0xD DUP1 SLOAD SWAP1 SWAP2 AND SWAP2 DUP4 AND SWAP2 SWAP1 SWAP2 OR SWAP1 SSTORE PUSH3 0x3C4 DUP8 PUSH11 0x7C13BC4B2C133C56000000 PUSH3 0x4B5 JUMP JUMPDEST PUSH3 0x3DB DUP2 PUSH11 0x52B7D2DCC80CD2E4000000 PUSH3 0x4B5 JUMP JUMPDEST PUSH3 0x3F2 DUP7 PUSH11 0x52B7D2DCC80CD2E4000000 PUSH3 0x4B5 JUMP JUMPDEST PUSH3 0x409 DUP6 PUSH11 0xA56FA5B99019A5C8000000 PUSH3 0x4B5 JUMP JUMPDEST PUSH3 0x420 DUP5 PUSH11 0x7C13BC4B2C133C56000000 PUSH3 0x4B5 JUMP JUMPDEST PUSH3 0x437 DUP4 PUSH11 0x52B7D2DCC80CD2E4000000 PUSH3 0x4B5 JUMP JUMPDEST PUSH3 0x44E DUP3 PUSH11 0x295BE96E64066972000000 PUSH3 0x4B5 JUMP JUMPDEST POP POP POP POP POP POP POP PUSH3 0xA8C JUMP JUMPDEST PUSH1 0x5 DUP1 SLOAD PUSH1 0x1 PUSH1 0x1 PUSH1 0xA0 SHL SUB DUP4 DUP2 AND PUSH2 0x100 DUP2 DUP2 MUL PUSH2 0x100 PUSH1 0x1 PUSH1 0xA8 SHL SUB NOT DUP6 AND OR SWAP1 SWAP5 SSTORE PUSH1 0x40 MLOAD SWAP4 SWAP1 SWAP3 DIV AND SWAP2 DUP3 SWAP1 PUSH32 0x8BE0079C531659141344CD1FD0A4F28419497F9722A3DAAFE3B4186F6B6457E0 SWAP1 PUSH1 0x0 SWAP1 LOG3 POP POP JUMP JUMPDEST PUSH1 0x1 PUSH1 0x1 PUSH1 0xA0 SHL SUB DUP3 AND PUSH3 0x4E1 JUMPI PUSH1 0x40 MLOAD PUSH4 0xEC442F05 PUSH1 0xE0 SHL DUP2 MSTORE PUSH1 0x0 PUSH1 0x4 DUP3 ADD MSTORE PUSH1 0x24 ADD PUSH3 0xBD JUMP JUMPDEST PUSH3 0x4EF PUSH1 0x0 DUP4 DUP4 PUSH3 0x4F3 JUMP JUMPDEST POP POP JUMP JUMPDEST PUSH1 0x0 PUSH1 0x1 PUSH1 0x1 PUSH1 0xA0 SHL SUB DUP5 AND ISZERO DUP1 PUSH3 0x513 JUMPI POP PUSH1 0x1 PUSH1 0x1 PUSH1 0xA0 SHL SUB DUP4 AND ISZERO JUMPDEST DUP1 PUSH3 0x527 JUMPI POP PUSH1 0x1 PUSH1 0x1 PUSH1 0xA0 SHL SUB DUP5 AND ADDRESS EQ JUMPDEST DUP1 PUSH3 0x53B JUMPI POP PUSH1 0x1 PUSH1 0x1 PUSH1 0xA0 SHL SUB DUP4 AND ADDRESS EQ JUMPDEST DUP1 PUSH3 0x554 JUMPI POP PUSH1 0xD SLOAD PUSH1 0x1 PUSH1 0x1 PUSH1 0xA0 SHL SUB DUP6 DUP2 AND SWAP2 AND EQ JUMPDEST DUP1 PUSH3 0x56D JUMPI POP PUSH1 0xD SLOAD PUSH1 0x1 PUSH1 0x1 PUSH1 0xA0 SHL SUB DUP5 DUP2 AND SWAP2 AND EQ JUMPDEST SWAP1 POP DUP1 ISZERO DUP1 ISZERO PUSH3 0x57C JUMPI POP PUSH1 0x1 JUMPDEST ISZERO PUSH3 0x65C JUMPI PUSH1 0x0 PUSH2 0x2710 PUSH3 0x594 PUSH1 0xA DUP6 PUSH3 0xA1D JUMP JUMPDEST PUSH3 0x5A0 SWAP2 SWAP1 PUSH3 0xA3D JUMP JUMPDEST SWAP1 POP DUP1 ISZERO PUSH3 0x65A JUMPI PUSH3 0x5B7 DUP6 PUSH1 0x0 DUP4 PUSH3 0x66F JUMP JUMPDEST DUP1 PUSH1 0xE PUSH1 0x0 DUP3 DUP3 SLOAD PUSH3 0x5CB SWAP2 SWAP1 PUSH3 0xA60 JUMP JUMPDEST SWAP3 POP POP DUP2 SWAP1 SSTORE POP DUP5 PUSH1 0x1 PUSH1 0x1 PUSH1 0xA0 SHL SUB AND PUSH32 0xFAD31924D655455395C87544C8AA1FFDB5A7505A22A3C2E03F28003B6556A75F DUP3 PUSH1 0x40 MLOAD PUSH3 0x633 SWAP2 DUP2 MSTORE PUSH1 0x40 PUSH1 0x20 DUP3 ADD DUP2 SWAP1 MSTORE PUSH1 0xD SWAP1 DUP3 ADD MSTORE PUSH13 0x2A3930B739B332B910313AB937 PUSH1 0x99 SHL PUSH1 0x60 DUP3 ADD MSTORE PUSH1 0x80 ADD SWAP1 JUMP JUMPDEST PUSH1 0x40 MLOAD DUP1 SWAP2 SUB SWAP1 LOG2 PUSH3 0x653 DUP6 DUP6 PUSH3 0x64D DUP5 DUP8 PUSH3 0xA76 JUMP JUMPDEST PUSH3 0x66F JUMP JUMPDEST POP POP POP POP POP JUMP JUMPDEST POP JUMPDEST PUSH3 0x669 DUP5 DUP5 DUP5 PUSH3 0x66F JUMP JUMPDEST POP POP POP POP JUMP JUMPDEST PUSH3 0x679 PUSH3 0x68B JUMP JUMPDEST PUSH3 0x686 DUP4 DUP4 DUP4 PUSH3 0x6B2 JUMP JUMPDEST POP POP POP JUMP JUMPDEST PUSH1 0x5 SLOAD PUSH1 0xFF AND ISZERO PUSH3 0x6B0 JUMPI PUSH1 0x40 MLOAD PUSH4 0xD93C0665 PUSH1 0xE0 SHL DUP2 MSTORE PUSH1 0x4 ADD PUSH1 0x40 MLOAD DUP1 SWAP2 SUB SWAP1 REVERT JUMPDEST JUMP JUMPDEST PUSH1 0x1 PUSH1 0x1 PUSH1 0xA0 SHL SUB DUP4 AND PUSH3 0x6E1 JUMPI DUP1 PUSH1 0x2 PUSH1 0x0 DUP3 DUP3 SLOAD PUSH3 0x6D5 SWAP2 SWAP1 PUSH3 0xA60 JUMP JUMPDEST SWAP1 SWAP2 SSTORE POP PUSH3 0x755 SWAP1 POP JUMP JUMPDEST PUSH1 0x1 PUSH1 0x1 PUSH1 0xA0 SHL SUB DUP4 AND PUSH1 0x0 SWAP1 DUP2 MSTORE PUSH1 0x20 DUP2 SWAP1 MSTORE PUSH1 0x40 SWAP1 KECCAK256 SLOAD DUP2 DUP2 LT ISZERO PUSH3 0x736 JUMPI PUSH1 0x40 MLOAD PUSH4 0x391434E3 PUSH1 0xE2 SHL DUP2 MSTORE PUSH1 0x1 PUSH1 0x1 PUSH1 0xA0 SHL SUB DUP6 AND PUSH1 0x4 DUP3 ADD MSTORE PUSH1 0x24 DUP2 ADD DUP3 SWAP1 MSTORE PUSH1 0x44 DUP2 ADD DUP4 SWAP1 MSTORE PUSH1 0x64 ADD PUSH3 0xBD JUMP JUMPDEST PUSH1 0x1 PUSH1 0x1 PUSH1 0xA0 SHL SUB DUP5 AND PUSH1 0x0 SWAP1 DUP2 MSTORE PUSH1 0x20 DUP2 SWAP1 MSTORE PUSH1 0x40 SWAP1 KECCAK256 SWAP1 DUP3 SWAP1 SUB SWAP1 SSTORE JUMPDEST PUSH1 0x1 PUSH1 0x1 PUSH1 0xA0 SHL SUB DUP3 AND PUSH3 0x773 JUMPI PUSH1 0x2 DUP1 SLOAD DUP3 SWAP1 SUB SWAP1 SSTORE PUSH3 0x792 JUMP JUMPDEST PUSH1 0x1 PUSH1 0x1 PUSH1 0xA0 SHL SUB DUP3 AND PUSH1 0x0 SWAP1 DUP2 MSTORE PUSH1 0x20 DUP2 SWAP1 MSTORE PUSH1 0x40 SWAP1 KECCAK256 DUP1 SLOAD DUP3 ADD SWAP1 SSTORE JUMPDEST DUP2 PUSH1 0x1 PUSH1 0x1 PUSH1 0xA0 SHL SUB AND DUP4 PUSH1 0x1 PUSH1 0x1 PUSH1 0xA0 SHL SUB AND PUSH32 0xDDF252AD1BE2C89B69C2B068FC378DAA952BA7F163C4A11628F55A4DF523B3EF DUP4 PUSH1 0x40 MLOAD PUSH3 0x7D8 SWAP2 DUP2 MSTORE PUSH1 0x20 ADD SWAP1 JUMP JUMPDEST PUSH1 0x40 MLOAD DUP1 SWAP2 SUB SWAP1 LOG3 POP POP POP JUMP JUMPDEST DUP1 MLOAD PUSH1 0x1 PUSH1 0x1 PUSH1 0xA0 SHL SUB DUP2 AND DUP2 EQ PUSH3 0x7FD JUMPI PUSH1 0x0 DUP1 REVERT JUMPDEST SWAP2 SWAP1 POP JUMP JUMPDEST PUSH1 0x0 DUP1 PUSH1 0x0 DUP1 PUSH1 0x0 DUP1 PUSH1 0x0 PUSH1 0xE0 DUP9 DUP11 SUB SLT ISZERO PUSH3 0x81E JUMPI PUSH1 0x0 DUP1 REVERT JUMPDEST PUSH3 0x829 DUP9 PUSH3 0x7E5 JUMP JUMPDEST SWAP7 POP PUSH3 0x839 PUSH1 0x20 DUP10 ADD PUSH3 0x7E5 JUMP JUMPDEST SWAP6 POP PUSH3 0x849 PUSH1 0x40 DUP10 ADD PUSH3 0x7E5 JUMP JUMPDEST SWAP5 POP PUSH3 0x859 PUSH1 0x60 DUP10 ADD PUSH3 0x7E5 JUMP JUMPDEST SWAP4 POP PUSH3 0x869 PUSH1 0x80 DUP10 ADD PUSH3 0x7E5 JUMP JUMPDEST SWAP3 POP PUSH3 0x879 PUSH1 0xA0 DUP10 ADD PUSH3 0x7E5 JUMP JUMPDEST SWAP2 POP PUSH3 0x889 PUSH1 0xC0 DUP10 ADD PUSH3 0x7E5 JUMP JUMPDEST SWAP1 POP SWAP3 SWAP6 SWAP9 SWAP2 SWAP5 SWAP8 POP SWAP3 SWAP6 POP JUMP JUMPDEST PUSH4 0x4E487B71 PUSH1 0xE0 SHL PUSH1 0x0 MSTORE PUSH1 0x41 PUSH1 0x4 MSTORE PUSH1 0x24 PUSH1 0x0 REVERT JUMPDEST PUSH1 0x1 DUP2 DUP2 SHR SWAP1 DUP3 AND DUP1 PUSH3 0x8C2 JUMPI PUSH1 0x7F DUP3 AND SWAP2 POP JUMPDEST PUSH1 0x20 DUP3 LT DUP2 SUB PUSH3 0x8E3 JUMPI PUSH4 0x4E487B71 PUSH1 0xE0 SHL PUSH1 0x0 MSTORE PUSH1 0x22 PUSH1 0x4 MSTORE PUSH1 0x24 PUSH1 0x0 REVERT JUMPDEST POP SWAP2 SWAP1 POP JUMP JUMPDEST PUSH1 0x1F DUP3 GT ISZERO PUSH3 0x686 JUMPI PUSH1 0x0 DUP2 DUP2 MSTORE PUSH1 0x20 DUP2 KECCAK256 PUSH1 0x1F DUP6 ADD PUSH1 0x5 SHR DUP2 ADD PUSH1 0x20 DUP7 LT ISZERO PUSH3 0x912 JUMPI POP DUP1 JUMPDEST PUSH1 0x1F DUP6 ADD PUSH1 0x5 SHR DUP3 ADD SWAP2 POP JUMPDEST DUP2 DUP2 LT ISZERO PUSH3 0x933 JUMPI DUP3 DUP2 SSTORE PUSH1 0x1 ADD PUSH3 0x91E JUMP JUMPDEST POP POP POP POP POP POP JUMP JUMPDEST DUP2 MLOAD PUSH1 0x1 PUSH1 0x1 PUSH1 0x40 SHL SUB DUP2 GT ISZERO PUSH3 0x957 JUMPI PUSH3 0x957 PUSH3 0x897 JUMP JUMPDEST PUSH3 0x96F DUP2 PUSH3 0x968 DUP5 SLOAD PUSH3 0x8AD JUMP JUMPDEST DUP5 PUSH3 0x8E9 JUMP JUMPDEST PUSH1 0x20 DUP1 PUSH1 0x1F DUP4 GT PUSH1 0x1 DUP2 EQ PUSH3 0x9A7 JUMPI PUSH1 0x0 DUP5 ISZERO PUSH3 0x98E JUMPI POP DUP6 DUP4 ADD MLOAD JUMPDEST PUSH1 0x0 NOT PUSH1 0x3 DUP7 SWAP1 SHL SHR NOT AND PUSH1 0x1 DUP6 SWAP1 SHL OR DUP6 SSTORE PUSH3 0x933 JUMP JUMPDEST PUSH1 0x0 DUP6 DUP2 MSTORE PUSH1 0x20 DUP2 KECCAK256 PUSH1 0x1F NOT DUP7 AND SWAP2 JUMPDEST DUP3 DUP2 LT ISZERO PUSH3 0x9D8 JUMPI DUP9 DUP7 ADD MLOAD DUP3 SSTORE SWAP5 DUP5 ADD SWAP5 PUSH1 0x1 SWAP1 SWAP2 ADD SWAP1 DUP5 ADD PUSH3 0x9B7 JUMP JUMPDEST POP DUP6 DUP3 LT ISZERO PUSH3 0x9F7 JUMPI DUP8 DUP6 ADD MLOAD PUSH1 0x0 NOT PUSH1 0x3 DUP9 SWAP1 SHL PUSH1 0xF8 AND SHR NOT AND DUP2 SSTORE JUMPDEST POP POP POP POP POP PUSH1 0x1 SWAP1 DUP2 SHL ADD SWAP1 SSTORE POP JUMP JUMPDEST PUSH4 0x4E487B71 PUSH1 0xE0 SHL PUSH1 0x0 MSTORE PUSH1 0x11 PUSH1 0x4 MSTORE PUSH1 0x24 PUSH1 0x0 REVERT JUMPDEST DUP1 DUP3 MUL DUP2 ISZERO DUP3 DUP3 DIV DUP5 EQ OR PUSH3 0xA37 JUMPI PUSH3 0xA37 PUSH3 0xA07 JUMP JUMPDEST SWAP3 SWAP2 POP POP JUMP JUMPDEST PUSH1 0x0 DUP3 PUSH3 0xA5B JUMPI PUSH4 0x4E487B71 PUSH1 0xE0 SHL PUSH1 0x0 MSTORE PUSH1 0x12 PUSH1 0x4 MSTORE PUSH1 0x24 PUSH1 0x0 REVERT JUMPDEST POP DIV SWAP1 JUMP JUMPDEST DUP1 DUP3 ADD DUP1 DUP3 GT ISZERO PUSH3 0xA37 JUMPI PUSH3 0xA37 PUSH3 0xA07 JUMP JUMPDEST DUP2 DUP2 SUB DUP2 DUP2 GT ISZERO PUSH3 0xA37 JUMPI PUSH3 0xA37 PUSH3 0xA07 JUMP JUMPDEST PUSH2 0x18AC DUP1 PUSH3 0xA9C PUSH1 0x0 CODECOPY PUSH1 0x0 RETURN INVALID PUSH1 0x80 PUSH1 0x40 MSTORE CALLVALUE DUP1 ISZERO PUSH2 0x10 JUMPI PUSH1 0x0 DUP1 REVERT JUMPDEST POP PUSH1 0x4 CALLDATASIZE LT PUSH2 0x253 JUMPI PUSH1 0x0 CALLDATALOAD PUSH1 0xE0 SHR DUP1 PUSH4 0x70A08231 GT PUSH2 0x146 JUMPI DUP1 PUSH4 0x9AF01C2D GT PUSH2 0xC3 JUMPI DUP1 PUSH4 0xD4698016 GT PUSH2 0x87 JUMPI DUP1 PUSH4 0xD4698016 EQ PUSH2 0x548 JUMPI DUP1 PUSH4 0xD82E3962 EQ PUSH2 0x55B JUMPI DUP1 PUSH4 0xD89135CD EQ PUSH2 0x56E JUMPI DUP1 PUSH4 0xDD62ED3E EQ PUSH2 0x577 JUMPI DUP1 PUSH4 0xF2FDE38B EQ PUSH2 0x5B0 JUMPI DUP1 PUSH4 0xF846A885 EQ PUSH2 0x5C3 JUMPI PUSH1 0x0 DUP1 REVERT JUMPDEST DUP1 PUSH4 0x9AF01C2D EQ PUSH2 0x4BD JUMPI DUP1 PUSH4 0xA23D3C35 EQ PUSH2 0x4CD JUMPI DUP1 PUSH4 0xA9059CBB EQ PUSH2 0x4E0 JUMPI DUP1 PUSH4 0xC3453153 EQ PUSH2 0x4F3 JUMPI DUP1 PUSH4 0xC7574839 EQ PUSH2 0x535 JUMPI PUSH1 0x0 DUP1 REVERT JUMPDEST DUP1 PUSH4 0x817B1CD2 GT PUSH2 0x10A JUMPI DUP1 PUSH4 0x817B1CD2 EQ PUSH2 0x47B JUMPI DUP1 PUSH4 0x8456CB59 EQ PUSH2 0x484 JUMPI DUP1 PUSH4 0x8922E021 EQ PUSH2 0x48C JUMPI DUP1 PUSH4 0x8DA5CB5B EQ PUSH2 0x49F JUMPI DUP1 PUSH4 0x95D89B41 EQ PUSH2 0x4B5 JUMPI PUSH1 0x0 DUP1 REVERT JUMPDEST DUP1 PUSH4 0x70A08231 EQ PUSH2 0x401 JUMPI DUP1 PUSH4 0x715018A6 EQ PUSH2 0x42A JUMPI DUP1 PUSH4 0x742FE0D4 EQ PUSH2 0x432 JUMPI DUP1 PUSH4 0x79CC6790 EQ PUSH2 0x455 JUMPI DUP1 PUSH4 0x7B0472F0 EQ PUSH2 0x468 JUMPI PUSH1 0x0 DUP1 REVERT JUMPDEST DUP1 PUSH4 0x372500AB GT PUSH2 0x1D4 JUMPI DUP1 PUSH4 0x59927044 GT PUSH2 0x198 JUMPI DUP1 PUSH4 0x59927044 EQ PUSH2 0x3B4 JUMPI DUP1 PUSH4 0x5C975ABB EQ PUSH2 0x3C7 JUMPI DUP1 PUSH4 0x5F9D9909 EQ PUSH2 0x3D2 JUMPI DUP1 PUSH4 0x63546F0C EQ PUSH2 0x3E5 JUMPI DUP1 PUSH4 0x6CB13595 EQ PUSH2 0x3EE JUMPI PUSH1 0x0 DUP1 REVERT JUMPDEST DUP1 PUSH4 0x372500AB EQ PUSH2 0x35D JUMPI DUP1 PUSH4 0x373C6193 EQ PUSH2 0x365 JUMPI DUP1 PUSH4 0x3F4BA83A EQ PUSH2 0x36E JUMPI DUP1 PUSH4 0x42966C68 EQ PUSH2 0x376 JUMPI DUP1 PUSH4 0x4626402B EQ PUSH2 0x389 JUMPI PUSH1 0x0 DUP1 REVERT JUMPDEST DUP1 PUSH4 0x16934FC4 GT PUSH2 0x21B JUMPI DUP1 PUSH4 0x16934FC4 EQ PUSH2 0x2F4 JUMPI DUP1 PUSH4 0x18160DDD EQ PUSH2 0x329 JUMPI DUP1 PUSH4 0x23B872DD EQ PUSH2 0x331 JUMPI DUP1 PUSH4 0x2DEF6620 EQ PUSH2 0x344 JUMPI DUP1 PUSH4 0x313CE567 EQ PUSH2 0x34E JUMPI PUSH1 0x0 DUP1 REVERT JUMPDEST DUP1 PUSH4 0x40A4F42 EQ PUSH2 0x258 JUMPI DUP1 PUSH4 0x6FDDE03 EQ PUSH2 0x28B JUMPI DUP1 PUSH4 0x8014D8B EQ PUSH2 0x2A0 JUMPI DUP1 PUSH4 0x95EA7B3 EQ PUSH2 0x2A9 JUMPI DUP1 PUSH4 0x97CD9BF EQ PUSH2 0x2CC JUMPI JUMPDEST PUSH1 0x0 DUP1 REVERT JUMPDEST PUSH2 0x278 PUSH2 0x266 CALLDATASIZE PUSH1 0x4 PUSH2 0x1683 JUMP JUMPDEST PUSH1 0x11 PUSH1 0x20 MSTORE PUSH1 0x0 SWAP1 DUP2 MSTORE PUSH1 0x40 SWAP1 KECCAK256 SLOAD DUP2 JUMP JUMPDEST PUSH1 0x40 MLOAD SWAP1 DUP2 MSTORE PUSH1 0x20 ADD JUMPDEST PUSH1 0x40 MLOAD DUP1 SWAP2 SUB SWAP1 RETURN JUMPDEST PUSH2 0x293 PUSH2 0x5CB JUMP JUMPDEST PUSH1 0x40 MLOAD PUSH2 0x282 SWAP2 SWAP1 PUSH2 0x16A5 JUMP JUMPDEST PUSH2 0x278 PUSH2 0x7D0 DUP2 JUMP JUMPDEST PUSH2 0x2BC PUSH2 0x2B7 CALLDATASIZE PUSH1 0x4 PUSH2 0x16F3 JUMP JUMPDEST PUSH2 0x65D JUMP JUMPDEST PUSH1 0x40 MLOAD SWAP1 ISZERO ISZERO DUP2 MSTORE PUSH1 0x20 ADD PUSH2 0x282 JUMP JUMPDEST PUSH2 0x2D4 PUSH2 0x677 JUMP JUMPDEST PUSH1 0x40 DUP1 MLOAD SWAP5 DUP6 MSTORE PUSH1 0x20 DUP6 ADD SWAP4 SWAP1 SWAP4 MSTORE SWAP2 DUP4 ADD MSTORE PUSH1 0x60 DUP3 ADD MSTORE PUSH1 0x80 ADD PUSH2 0x282 JUMP JUMPDEST PUSH2 0x2D4 PUSH2 0x302 CALLDATASIZE PUSH1 0x4 PUSH2 0x1683 JUMP JUMPDEST PUSH1 0xF PUSH1 0x20 MSTORE PUSH1 0x0 SWAP1 DUP2 MSTORE PUSH1 0x40 SWAP1 KECCAK256 DUP1 SLOAD PUSH1 0x1 DUP3 ADD SLOAD PUSH1 0x2 DUP4 ADD SLOAD PUSH1 0x3 SWAP1 SWAP4 ADD SLOAD SWAP2 SWAP3 SWAP1 SWAP2 DUP5 JUMP JUMPDEST PUSH1 0x2 SLOAD PUSH2 0x278 JUMP JUMPDEST PUSH2 0x2BC PUSH2 0x33F CALLDATASIZE PUSH1 0x4 PUSH2 0x171D JUMP JUMPDEST PUSH2 0x6AC JUMP JUMPDEST PUSH2 0x34C PUSH2 0x6D0 JUMP JUMPDEST STOP JUMPDEST PUSH1 0x40 MLOAD PUSH1 0x12 DUP2 MSTORE PUSH1 0x20 ADD PUSH2 0x282 JUMP JUMPDEST PUSH2 0x34C PUSH2 0x8A9 JUMP JUMPDEST PUSH2 0x278 PUSH2 0x5DC DUP2 JUMP JUMPDEST PUSH2 0x34C PUSH2 0x8C4 JUMP JUMPDEST PUSH2 0x34C PUSH2 0x384 CALLDATASIZE PUSH1 0x4 PUSH2 0x1759 JUMP JUMPDEST PUSH2 0x8D4 JUMP JUMPDEST PUSH1 0xA SLOAD PUSH2 0x39C SWAP1 PUSH1 0x1 PUSH1 0x1 PUSH1 0xA0 SHL SUB AND DUP2 JUMP JUMPDEST PUSH1 0x40 MLOAD PUSH1 0x1 PUSH1 0x1 PUSH1 0xA0 SHL SUB SWAP1 SWAP2 AND DUP2 MSTORE PUSH1 0x20 ADD PUSH2 0x282 JUMP JUMPDEST PUSH1 0xB SLOAD PUSH2 0x39C SWAP1 PUSH1 0x1 PUSH1 0x1 PUSH1 0xA0 SHL SUB AND DUP2 JUMP JUMPDEST PUSH1 0x5 SLOAD PUSH1 0xFF AND PUSH2 0x2BC JUMP JUMPDEST PUSH2 0x34C PUSH2 0x3E0 CALLDATASIZE PUSH1 0x4 PUSH2 0x1759 JUMP JUMPDEST PUSH2 0x8E1 JUMP JUMPDEST PUSH2 0x278 PUSH2 0x320 DUP2 JUMP JUMPDEST PUSH1 0x7 SLOAD PUSH2 0x39C SWAP1 PUSH1 0x1 PUSH1 0x1 PUSH1 0xA0 SHL SUB AND DUP2 JUMP JUMPDEST PUSH2 0x278 PUSH2 0x40F CALLDATASIZE PUSH1 0x4 PUSH2 0x1683 JUMP JUMPDEST PUSH1 0x1 PUSH1 0x1 PUSH1 0xA0 SHL SUB AND PUSH1 0x0 SWAP1 DUP2 MSTORE PUSH1 0x20 DUP2 SWAP1 MSTORE PUSH1 0x40 SWAP1 KECCAK256 SLOAD SWAP1 JUMP JUMPDEST PUSH2 0x34C PUSH2 0x9E7 JUMP JUMPDEST PUSH2 0x2BC PUSH2 0x440 CALLDATASIZE PUSH1 0x4 PUSH2 0x1683 JUMP JUMPDEST PUSH1 0x12 PUSH1 0x20 MSTORE PUSH1 0x0 SWAP1 DUP2 MSTORE PUSH1 0x40 SWAP1 KECCAK256 SLOAD PUSH1 0xFF AND DUP2 JUMP JUMPDEST PUSH2 0x34C PUSH2 0x463 CALLDATASIZE PUSH1 0x4 PUSH2 0x16F3 JUMP JUMPDEST PUSH2 0x9F9 JUMP JUMPDEST PUSH2 0x34C PUSH2 0x476 CALLDATASIZE PUSH1 0x4 PUSH2 0x1772 JUMP JUMPDEST PUSH2 0xA12 JUMP JUMPDEST PUSH2 0x278 PUSH1 0x10 SLOAD DUP2 JUMP JUMPDEST PUSH2 0x34C PUSH2 0xC84 JUMP JUMPDEST PUSH1 0xC SLOAD PUSH2 0x39C SWAP1 PUSH1 0x1 PUSH1 0x1 PUSH1 0xA0 SHL SUB AND DUP2 JUMP JUMPDEST PUSH1 0x5 SLOAD PUSH2 0x100 SWAP1 DIV PUSH1 0x1 PUSH1 0x1 PUSH1 0xA0 SHL SUB AND PUSH2 0x39C JUMP JUMPDEST PUSH2 0x293 PUSH2 0xC94 JUMP JUMPDEST PUSH2 0x278 PUSH9 0x3635C9ADC5DEA00000 DUP2 JUMP JUMPDEST PUSH1 0x8 SLOAD PUSH2 0x39C SWAP1 PUSH1 0x1 PUSH1 0x1 PUSH1 0xA0 SHL SUB AND DUP2 JUMP JUMPDEST PUSH2 0x2BC PUSH2 0x4EE CALLDATASIZE PUSH1 0x4 PUSH2 0x16F3 JUMP JUMPDEST PUSH2 0xCA3 JUMP JUMPDEST PUSH2 0x506 PUSH2 0x501 CALLDATASIZE PUSH1 0x4 PUSH2 0x1683 JUMP JUMPDEST PUSH2 0xCB1 JUMP JUMPDEST PUSH1 0x40 DUP1 MLOAD SWAP7 DUP8 MSTORE PUSH1 0x20 DUP8 ADD SWAP6 SWAP1 SWAP6 MSTORE SWAP4 DUP6 ADD SWAP3 SWAP1 SWAP3 MSTORE PUSH1 0x60 DUP5 ADD MSTORE ISZERO ISZERO PUSH1 0x80 DUP4 ADD MSTORE PUSH1 0xA0 DUP3 ADD MSTORE PUSH1 0xC0 ADD PUSH2 0x282 JUMP JUMPDEST PUSH1 0x9 SLOAD PUSH2 0x39C SWAP1 PUSH1 0x1 PUSH1 0x1 PUSH1 0xA0 SHL SUB AND DUP2 JUMP JUMPDEST PUSH1 0xD SLOAD PUSH2 0x39C SWAP1 PUSH1 0x1 PUSH1 0x1 PUSH1 0xA0 SHL SUB AND DUP2 JUMP JUMPDEST PUSH2 0x278 PUSH2 0x569 CALLDATASIZE PUSH1 0x4 PUSH2 0x1683 JUMP JUMPDEST PUSH2 0xD4E JUMP JUMPDEST PUSH2 0x278 PUSH1 0xE SLOAD DUP2 JUMP JUMPDEST PUSH2 0x278 PUSH2 0x585 CALLDATASIZE PUSH1 0x4 PUSH2 0x1794 JUMP JUMPDEST PUSH1 0x1 PUSH1 0x1 PUSH1 0xA0 SHL SUB SWAP2 DUP3 AND PUSH1 0x0 SWAP1 DUP2 MSTORE PUSH1 0x1 PUSH1 0x20 SWAP1 DUP2 MSTORE PUSH1 0x40 DUP1 DUP4 KECCAK256 SWAP4 SWAP1 SWAP5 AND DUP3 MSTORE SWAP2 SWAP1 SWAP2 MSTORE KECCAK256 SLOAD SWAP1 JUMP JUMPDEST PUSH2 0x34C PUSH2 0x5BE CALLDATASIZE PUSH1 0x4 PUSH2 0x1683 JUMP JUMPDEST PUSH2 0xE03 JUMP JUMPDEST PUSH2 0x278 PUSH1 0xA DUP2 JUMP JUMPDEST PUSH1 0x60 PUSH1 0x3 DUP1 SLOAD PUSH2 0x5DA SWAP1 PUSH2 0x17C7 JUMP JUMPDEST DUP1 PUSH1 0x1F ADD PUSH1 0x20 DUP1 SWAP2 DIV MUL PUSH1 0x20 ADD PUSH1 0x40 MLOAD SWAP1 DUP2 ADD PUSH1 0x40 MSTORE DUP1 SWAP3 SWAP2 SWAP1 DUP2 DUP2 MSTORE PUSH1 0x20 ADD DUP3 DUP1 SLOAD PUSH2 0x606 SWAP1 PUSH2 0x17C7 JUMP JUMPDEST DUP1 ISZERO PUSH2 0x653 JUMPI DUP1 PUSH1 0x1F LT PUSH2 0x628 JUMPI PUSH2 0x100 DUP1 DUP4 SLOAD DIV MUL DUP4 MSTORE SWAP2 PUSH1 0x20 ADD SWAP2 PUSH2 0x653 JUMP JUMPDEST DUP3 ADD SWAP2 SWAP1 PUSH1 0x0 MSTORE PUSH1 0x20 PUSH1 0x0 KECCAK256 SWAP1 JUMPDEST DUP2 SLOAD DUP2 MSTORE SWAP1 PUSH1 0x1 ADD SWAP1 PUSH1 0x20 ADD DUP1 DUP4 GT PUSH2 0x636 JUMPI DUP3 SWAP1 SUB PUSH1 0x1F AND DUP3 ADD SWAP2 JUMPDEST POP POP POP POP POP SWAP1 POP SWAP1 JUMP JUMPDEST PUSH1 0x0 CALLER PUSH2 0x66B DUP2 DUP6 DUP6 PUSH2 0xE3E JUMP JUMPDEST PUSH1 0x1 SWAP2 POP POP JUMPDEST SWAP3 SWAP2 POP POP JUMP JUMPDEST PUSH1 0x0 DUP1 PUSH1 0x0 DUP1 PUSH1 0x0 PUSH2 0x688 PUSH1 0x2 SLOAD SWAP1 JUMP JUMPDEST PUSH1 0xE SLOAD PUSH1 0x10 SLOAD SWAP2 SWAP3 POP DUP3 SWAP2 PUSH2 0x69D DUP3 DUP5 PUSH2 0x1817 JUMP JUMPDEST SWAP5 POP SWAP5 POP SWAP5 POP SWAP5 POP POP SWAP1 SWAP2 SWAP3 SWAP4 JUMP JUMPDEST PUSH1 0x0 CALLER PUSH2 0x6BA DUP6 DUP3 DUP6 PUSH2 0xE50 JUMP JUMPDEST PUSH2 0x6C5 DUP6 DUP6 DUP6 PUSH2 0xECF JUMP JUMPDEST POP PUSH1 0x1 SWAP5 SWAP4 POP POP POP POP JUMP JUMPDEST PUSH2 0x6D8 PUSH2 0xF2E JUMP JUMPDEST CALLER PUSH1 0x0 SWAP1 DUP2 MSTORE PUSH1 0xF PUSH1 0x20 SWAP1 DUP2 MSTORE PUSH1 0x40 SWAP2 DUP3 SWAP1 KECCAK256 DUP3 MLOAD PUSH1 0x80 DUP2 ADD DUP5 MSTORE DUP2 SLOAD DUP1 DUP3 MSTORE PUSH1 0x1 DUP4 ADD SLOAD SWAP4 DUP3 ADD SWAP4 SWAP1 SWAP4 MSTORE PUSH1 0x2 DUP3 ADD SLOAD SWAP4 DUP2 ADD SWAP4 SWAP1 SWAP4 MSTORE PUSH1 0x3 ADD SLOAD PUSH1 0x60 DUP4 ADD MSTORE PUSH2 0x75B JUMPI PUSH1 0x40 MLOAD PUSH3 0x461BCD PUSH1 0xE5 SHL DUP2 MSTORE PUSH1 0x20 PUSH1 0x4 DUP3 ADD MSTORE PUSH1 0xE PUSH1 0x24 DUP3 ADD MSTORE PUSH14 0x139BC81CDD185AD948199BDD5B99 PUSH1 0x92 SHL PUSH1 0x44 DUP3 ADD MSTORE PUSH1 0x64 ADD JUMPDEST PUSH1 0x40 MLOAD DUP1 SWAP2 SUB SWAP1 REVERT JUMPDEST DUP1 PUSH1 0x40 ADD MLOAD DUP2 PUSH1 0x20 ADD MLOAD PUSH2 0x76F SWAP2 SWAP1 PUSH2 0x182A JUMP JUMPDEST TIMESTAMP LT ISZERO PUSH2 0x7B4 JUMPI PUSH1 0x40 MLOAD PUSH3 0x461BCD PUSH1 0xE5 SHL DUP2 MSTORE PUSH1 0x20 PUSH1 0x4 DUP3 ADD MSTORE PUSH1 0x13 PUSH1 0x24 DUP3 ADD MSTORE PUSH19 0x151BDAD95B9CC81CDD1A5B1B081B1BD8DAD959 PUSH1 0x6A SHL PUSH1 0x44 DUP3 ADD MSTORE PUSH1 0x64 ADD PUSH2 0x752 JUMP JUMPDEST PUSH1 0x0 PUSH2 0x7BF CALLER PUSH2 0xD4E JUMP JUMPDEST SWAP1 POP PUSH1 0x0 DUP2 DUP4 PUSH1 0x0 ADD MLOAD PUSH2 0x7D3 SWAP2 SWAP1 PUSH2 0x182A JUMP JUMPDEST SWAP1 POP DUP3 PUSH1 0x0 ADD MLOAD PUSH1 0x10 PUSH1 0x0 DUP3 DUP3 SLOAD PUSH2 0x7EB SWAP2 SWAP1 PUSH2 0x1817 JUMP JUMPDEST SWAP1 SWAP2 SSTORE POP POP CALLER PUSH1 0x0 SWAP1 DUP2 MSTORE PUSH1 0xF PUSH1 0x20 SWAP1 DUP2 MSTORE PUSH1 0x40 DUP1 DUP4 KECCAK256 DUP4 DUP2 SSTORE PUSH1 0x1 DUP2 ADD DUP5 SWAP1 SSTORE PUSH1 0x2 DUP2 ADD DUP5 SWAP1 SSTORE PUSH1 0x3 ADD DUP4 SWAP1 SSTORE PUSH1 0x12 SWAP1 SWAP2 MSTORE SWAP1 KECCAK256 SLOAD PUSH1 0xFF AND ISZERO PUSH2 0x841 JUMPI CALLER PUSH1 0x0 SWAP1 DUP2 MSTORE PUSH1 0x12 PUSH1 0x20 MSTORE PUSH1 0x40 SWAP1 KECCAK256 DUP1 SLOAD PUSH1 0xFF NOT AND SWAP1 SSTORE JUMPDEST CALLER PUSH1 0x0 DUP2 DUP2 MSTORE PUSH1 0x11 PUSH1 0x20 MSTORE PUSH1 0x40 DUP2 KECCAK256 SSTORE PUSH2 0x85D SWAP1 ADDRESS SWAP1 DUP4 PUSH2 0xECF JUMP JUMPDEST DUP3 MLOAD PUSH1 0x40 DUP1 MLOAD SWAP2 DUP3 MSTORE PUSH1 0x20 DUP3 ADD DUP5 SWAP1 MSTORE CALLER SWAP2 PUSH32 0x7FC4727E062E336010F2C282598EF5F14FACB3DE68CF8195C2F23E1454B2B74E SWAP2 ADD PUSH1 0x40 MLOAD DUP1 SWAP2 SUB SWAP1 LOG2 POP POP POP PUSH2 0x8A7 PUSH1 0x1 PUSH1 0x6 SSTORE JUMP JUMPDEST JUMP JUMPDEST PUSH2 0x8B1 PUSH2 0xF2E JUMP JUMPDEST PUSH2 0x8BA CALLER PUSH2 0xF58 JUMP JUMPDEST PUSH2 0x8A7 PUSH1 0x1 PUSH1 0x6 SSTORE JUMP JUMPDEST PUSH2 0x8CC PUSH2 0x1051 JUMP JUMPDEST PUSH2 0x8A7 PUSH2 0x1084 JUMP JUMPDEST PUSH2 0x8DE CALLER DUP3 PUSH2 0x10D6 JUMP JUMPDEST POP JUMP JUMPDEST PUSH2 0x8E9 PUSH2 0x1051 JUMP JUMPDEST PUSH1 0x0 DUP2 GT PUSH2 0x939 JUMPI PUSH1 0x40 MLOAD PUSH3 0x461BCD PUSH1 0xE5 SHL DUP2 MSTORE PUSH1 0x20 PUSH1 0x4 DUP3 ADD MSTORE PUSH1 0x1D PUSH1 0x24 DUP3 ADD MSTORE PUSH32 0x416D6F756E74206D7573742062652067726561746572207468616E2030000000 PUSH1 0x44 DUP3 ADD MSTORE PUSH1 0x64 ADD PUSH2 0x752 JUMP JUMPDEST PUSH1 0xA SLOAD PUSH2 0x94F SWAP1 PUSH1 0x1 PUSH1 0x1 PUSH1 0xA0 SHL SUB AND DUP3 PUSH2 0x10D6 JUMP JUMPDEST DUP1 PUSH1 0xE PUSH1 0x0 DUP3 DUP3 SLOAD PUSH2 0x961 SWAP2 SWAP1 PUSH2 0x182A JUMP JUMPDEST SWAP1 SWAP2 SSTORE POP POP PUSH1 0xA SLOAD PUSH1 0x40 MLOAD PUSH1 0x1 PUSH1 0x1 PUSH1 0xA0 SHL SUB SWAP1 SWAP2 AND SWAP1 PUSH32 0xFAD31924D655455395C87544C8AA1FFDB5A7505A22A3C2E03F28003B6556A75F SWAP1 PUSH2 0x9DC SWAP1 DUP5 DUP2 MSTORE PUSH1 0x40 PUSH1 0x20 DUP3 ADD DUP2 SWAP1 MSTORE PUSH1 0x17 SWAP1 DUP3 ADD MSTORE PUSH32 0x5472656173757279206275796261636B2026206275726E000000000000000000 PUSH1 0x60 DUP3 ADD MSTORE PUSH1 0x80 ADD SWAP1 JUMP JUMPDEST PUSH1 0x40 MLOAD DUP1 SWAP2 SUB SWAP1 LOG2 POP JUMP JUMPDEST PUSH2 0x9EF PUSH2 0x1051 JUMP JUMPDEST PUSH2 0x8A7 PUSH1 0x0 PUSH2 0x110C JUMP JUMPDEST PUSH2 0xA04 DUP3 CALLER DUP4 PUSH2 0xE50 JUMP JUMPDEST PUSH2 0xA0E DUP3 DUP3 PUSH2 0x10D6 JUMP JUMPDEST POP POP JUMP JUMPDEST PUSH2 0xA1A PUSH2 0xF2E JUMP JUMPDEST PUSH2 0xA22 PUSH2 0x1166 JUMP JUMPDEST PUSH1 0x0 DUP3 GT PUSH2 0xA6A JUMPI PUSH1 0x40 MLOAD PUSH3 0x461BCD PUSH1 0xE5 SHL DUP2 MSTORE PUSH1 0x20 PUSH1 0x4 DUP3 ADD MSTORE PUSH1 0x15 PUSH1 0x24 DUP3 ADD MSTORE PUSH21 0x43616E6E6F74207374616B65203020746F6B656E73 PUSH1 0x58 SHL PUSH1 0x44 DUP3 ADD MSTORE PUSH1 0x64 ADD PUSH2 0x752 JUMP JUMPDEST DUP1 ISZERO DUP1 PUSH2 0xA77 JUMPI POP DUP1 PUSH1 0xB4 EQ JUMPDEST DUP1 PUSH2 0xA83 JUMPI POP DUP1 PUSH2 0x16D EQ JUMPDEST PUSH2 0xAC5 JUMPI PUSH1 0x40 MLOAD PUSH3 0x461BCD PUSH1 0xE5 SHL DUP2 MSTORE PUSH1 0x20 PUSH1 0x4 DUP3 ADD MSTORE PUSH1 0x13 PUSH1 0x24 DUP3 ADD MSTORE PUSH19 0x125B9D985B1A59081B1BD8DAC81C195C9A5BD9 PUSH1 0x6A SHL PUSH1 0x44 DUP3 ADD MSTORE PUSH1 0x64 ADD PUSH2 0x752 JUMP JUMPDEST CALLER PUSH1 0x0 SWAP1 DUP2 MSTORE PUSH1 0x20 DUP2 SWAP1 MSTORE PUSH1 0x40 SWAP1 KECCAK256 SLOAD DUP3 GT ISZERO PUSH2 0xB1B JUMPI PUSH1 0x40 MLOAD PUSH3 0x461BCD PUSH1 0xE5 SHL DUP2 MSTORE PUSH1 0x20 PUSH1 0x4 DUP3 ADD MSTORE PUSH1 0x14 PUSH1 0x24 DUP3 ADD MSTORE PUSH20 0x496E73756666696369656E742062616C616E6365 PUSH1 0x60 SHL PUSH1 0x44 DUP3 ADD MSTORE PUSH1 0x64 ADD PUSH2 0x752 JUMP JUMPDEST CALLER PUSH1 0x0 SWAP1 DUP2 MSTORE PUSH1 0xF PUSH1 0x20 MSTORE PUSH1 0x40 SWAP1 KECCAK256 SLOAD ISZERO PUSH2 0xB39 JUMPI PUSH2 0xB39 CALLER PUSH2 0xF58 JUMP JUMPDEST PUSH2 0xB44 CALLER ADDRESS DUP5 PUSH2 0xECF JUMP JUMPDEST CALLER PUSH1 0x0 SWAP1 DUP2 MSTORE PUSH1 0xF PUSH1 0x20 MSTORE PUSH1 0x40 DUP2 KECCAK256 DUP1 SLOAD DUP5 SWAP3 SWAP1 PUSH2 0xB63 SWAP1 DUP5 SWAP1 PUSH2 0x182A JUMP JUMPDEST SWAP1 SWAP2 SSTORE POP POP CALLER PUSH1 0x0 SWAP1 DUP2 MSTORE PUSH1 0xF PUSH1 0x20 MSTORE PUSH1 0x40 SWAP1 KECCAK256 TIMESTAMP PUSH1 0x1 SWAP1 SWAP2 ADD SSTORE PUSH2 0xB8B DUP2 PUSH3 0x15180 PUSH2 0x183D JUMP JUMPDEST CALLER PUSH1 0x0 SWAP1 DUP2 MSTORE PUSH1 0xF PUSH1 0x20 MSTORE PUSH1 0x40 DUP2 KECCAK256 PUSH1 0x2 ADD SWAP2 SWAP1 SWAP2 SSTORE PUSH1 0x10 DUP1 SLOAD DUP5 SWAP3 SWAP1 PUSH2 0xBB3 SWAP1 DUP5 SWAP1 PUSH2 0x182A JUMP JUMPDEST SWAP1 SWAP2 SSTORE POP POP CALLER PUSH1 0x0 SWAP1 DUP2 MSTORE PUSH1 0xF PUSH1 0x20 MSTORE PUSH1 0x40 SWAP1 KECCAK256 SLOAD PUSH9 0x3635C9ADC5DEA00000 GT DUP1 ISZERO SWAP1 PUSH2 0xBF0 JUMPI POP CALLER PUSH1 0x0 SWAP1 DUP2 MSTORE PUSH1 0x12 PUSH1 0x20 MSTORE PUSH1 0x40 SWAP1 KECCAK256 SLOAD PUSH1 0xFF AND ISZERO JUMPDEST ISZERO PUSH2 0xC36 JUMPI CALLER PUSH1 0x0 DUP2 DUP2 MSTORE PUSH1 0x12 PUSH1 0x20 MSTORE PUSH1 0x40 DUP1 DUP3 KECCAK256 DUP1 SLOAD PUSH1 0xFF NOT AND PUSH1 0x1 OR SWAP1 SSTORE MLOAD PUSH32 0xAA8CCF229BB4A5182C5122D8450416E8AE3B78F457EEBEA8B2028BE23F6D5AB1 SWAP2 SWAP1 LOG2 JUMPDEST PUSH2 0xC3F CALLER PUSH2 0x118A JUMP JUMPDEST PUSH1 0x40 DUP1 MLOAD DUP4 DUP2 MSTORE PUSH1 0x20 DUP2 ADD DUP4 SWAP1 MSTORE CALLER SWAP2 PUSH32 0x1449C6DD7851ABC30ABF37F57715F492010519147CC2652FBC38202C18A6EE90 SWAP2 ADD PUSH1 0x40 MLOAD DUP1 SWAP2 SUB SWAP1 LOG2 PUSH2 0xA0E PUSH1 0x1 PUSH1 0x6 SSTORE JUMP JUMPDEST PUSH2 0xC8C PUSH2 0x1051 JUMP JUMPDEST PUSH2 0x8A7 PUSH2 0x1269 JUMP JUMPDEST PUSH1 0x60 PUSH1 0x4 DUP1 SLOAD PUSH2 0x5DA SWAP1 PUSH2 0x17C7 JUMP JUMPDEST PUSH1 0x0 CALLER PUSH2 0x66B DUP2 DUP6 DUP6 PUSH2 0xECF JUMP JUMPDEST PUSH1 0x1 PUSH1 0x1 PUSH1 0xA0 SHL SUB DUP2 AND PUSH1 0x0 SWAP1 DUP2 MSTORE PUSH1 0xF PUSH1 0x20 SWAP1 DUP2 MSTORE PUSH1 0x40 DUP1 DUP4 KECCAK256 DUP2 MLOAD PUSH1 0x80 DUP2 ADD DUP4 MSTORE DUP2 SLOAD DUP1 DUP3 MSTORE PUSH1 0x1 DUP4 ADD SLOAD SWAP5 DUP3 ADD DUP6 SWAP1 MSTORE PUSH1 0x2 DUP4 ADD SLOAD SWAP4 DUP3 ADD DUP5 SWAP1 MSTORE PUSH1 0x3 SWAP1 SWAP3 ADD SLOAD PUSH1 0x60 DUP3 ADD MSTORE DUP5 SWAP4 DUP5 SWAP4 DUP5 SWAP4 DUP5 SWAP4 DUP5 SWAP4 SWAP1 SWAP3 PUSH2 0xD0F DUP12 PUSH2 0xD4E JUMP JUMPDEST PUSH1 0x1 PUSH1 0x1 PUSH1 0xA0 SHL SUB SWAP12 SWAP1 SWAP12 AND PUSH1 0x0 SWAP1 DUP2 MSTORE PUSH1 0x12 PUSH1 0x20 SWAP1 DUP2 MSTORE PUSH1 0x40 DUP1 DUP4 KECCAK256 SLOAD PUSH1 0x11 SWAP1 SWAP3 MSTORE SWAP1 SWAP2 KECCAK256 SLOAD SWAP4 SWAP13 SWAP3 SWAP12 SWAP2 SWAP11 POP SWAP1 SWAP9 POP PUSH1 0xFF AND SWAP7 POP SWAP1 SWAP5 POP SWAP3 POP POP POP JUMP JUMPDEST PUSH1 0x1 PUSH1 0x1 PUSH1 0xA0 SHL SUB DUP2 AND PUSH1 0x0 SWAP1 DUP2 MSTORE PUSH1 0xF PUSH1 0x20 SWAP1 DUP2 MSTORE PUSH1 0x40 DUP1 DUP4 KECCAK256 DUP2 MLOAD PUSH1 0x80 DUP2 ADD DUP4 MSTORE DUP2 SLOAD DUP1 DUP3 MSTORE PUSH1 0x1 DUP4 ADD SLOAD SWAP5 DUP3 ADD SWAP5 SWAP1 SWAP5 MSTORE PUSH1 0x2 DUP3 ADD SLOAD SWAP3 DUP2 ADD SWAP3 SWAP1 SWAP3 MSTORE PUSH1 0x3 ADD SLOAD PUSH1 0x60 DUP3 ADD MSTORE SWAP1 DUP3 SUB PUSH2 0xDA7 JUMPI POP PUSH1 0x0 SWAP3 SWAP2 POP POP JUMP JUMPDEST PUSH1 0x0 DUP2 PUSH1 0x20 ADD MLOAD TIMESTAMP PUSH2 0xDB9 SWAP2 SWAP1 PUSH2 0x1817 JUMP JUMPDEST SWAP1 POP PUSH1 0x0 PUSH2 0xDCA DUP4 PUSH1 0x40 ADD MLOAD PUSH2 0x12A6 JUMP JUMPDEST SWAP1 POP PUSH1 0x0 PUSH5 0x496CEBB800 DUP4 DUP4 DUP7 PUSH1 0x0 ADD MLOAD PUSH2 0xDE5 SWAP2 SWAP1 PUSH2 0x183D JUMP JUMPDEST PUSH2 0xDEF SWAP2 SWAP1 PUSH2 0x183D JUMP JUMPDEST PUSH2 0xDF9 SWAP2 SWAP1 PUSH2 0x1854 JUMP JUMPDEST SWAP7 SWAP6 POP POP POP POP POP POP JUMP JUMPDEST PUSH2 0xE0B PUSH2 0x1051 JUMP JUMPDEST PUSH1 0x1 PUSH1 0x1 PUSH1 0xA0 SHL SUB DUP2 AND PUSH2 0xE35 JUMPI PUSH1 0x40 MLOAD PUSH4 0x1E4FBDF7 PUSH1 0xE0 SHL DUP2 MSTORE PUSH1 0x0 PUSH1 0x4 DUP3 ADD MSTORE PUSH1 0x24 ADD PUSH2 0x752 JUMP JUMPDEST PUSH2 0x8DE DUP2 PUSH2 0x110C JUMP JUMPDEST PUSH2 0xE4B DUP4 DUP4 DUP4 PUSH1 0x1 PUSH2 0x12D8 JUMP JUMPDEST POP POP POP JUMP JUMPDEST PUSH1 0x1 PUSH1 0x1 PUSH1 0xA0 SHL SUB DUP4 DUP2 AND PUSH1 0x0 SWAP1 DUP2 MSTORE PUSH1 0x1 PUSH1 0x20 SWAP1 DUP2 MSTORE PUSH1 0x40 DUP1 DUP4 KECCAK256 SWAP4 DUP7 AND DUP4 MSTORE SWAP3 SWAP1 MSTORE KECCAK256 SLOAD PUSH1 0x0 NOT DUP2 LT ISZERO PUSH2 0xEC9 JUMPI DUP2 DUP2 LT ISZERO PUSH2 0xEBA JUMPI PUSH1 0x40 MLOAD PUSH4 0x7DC7A0D9 PUSH1 0xE1 SHL DUP2 MSTORE PUSH1 0x1 PUSH1 0x1 PUSH1 0xA0 SHL SUB DUP5 AND PUSH1 0x4 DUP3 ADD MSTORE PUSH1 0x24 DUP2 ADD DUP3 SWAP1 MSTORE PUSH1 0x44 DUP2 ADD DUP4 SWAP1 MSTORE PUSH1 0x64 ADD PUSH2 0x752 JUMP JUMPDEST PUSH2 0xEC9 DUP5 DUP5 DUP5 DUP5 SUB PUSH1 0x0 PUSH2 0x12D8 JUMP JUMPDEST POP POP POP POP JUMP JUMPDEST PUSH1 0x1 PUSH1 0x1 PUSH1 0xA0 SHL SUB DUP4 AND PUSH2 0xEF9 JUMPI PUSH1 0x40 MLOAD PUSH4 0x4B637E8F PUSH1 0xE1 SHL DUP2 MSTORE PUSH1 0x0 PUSH1 0x4 DUP3 ADD MSTORE PUSH1 0x24 ADD PUSH2 0x752 JUMP JUMPDEST PUSH1 0x1 PUSH1 0x1 PUSH1 0xA0 SHL SUB DUP3 AND PUSH2 0xF23 JUMPI PUSH1 0x40 MLOAD PUSH4 0xEC442F05 PUSH1 0xE0 SHL DUP2 MSTORE PUSH1 0x0 PUSH1 0x4 DUP3 ADD MSTORE PUSH1 0x24 ADD PUSH2 0x752 JUMP JUMPDEST PUSH2 0xE4B DUP4 DUP4 DUP4 PUSH2 0x13AD JUMP JUMPDEST PUSH1 0x2 PUSH1 0x6 SLOAD SUB PUSH2 0xF51 JUMPI PUSH1 0x40 MLOAD PUSH4 0x3EE5AEB5 PUSH1 0xE0 SHL DUP2 MSTORE PUSH1 0x4 ADD PUSH1 0x40 MLOAD DUP1 SWAP2 SUB SWAP1 REVERT JUMPDEST PUSH1 0x2 PUSH1 0x6 SSTORE JUMP JUMPDEST PUSH1 0x0 PUSH2 0xF63 DUP3 PUSH2 0xD4E JUMP JUMPDEST SWAP1 POP PUSH1 0x0 DUP2 GT PUSH2 0xFAB JUMPI PUSH1 0x40 MLOAD PUSH3 0x461BCD PUSH1 0xE5 SHL DUP2 MSTORE PUSH1 0x20 PUSH1 0x4 DUP3 ADD MSTORE PUSH1 0x13 PUSH1 0x24 DUP3 ADD MSTORE PUSH19 0x4E6F207265776172647320746F20636C61696D PUSH1 0x68 SHL PUSH1 0x44 DUP3 ADD MSTORE PUSH1 0x64 ADD PUSH2 0x752 JUMP JUMPDEST PUSH1 0x1 PUSH1 0x1 PUSH1 0xA0 SHL SUB DUP3 AND PUSH1 0x0 SWAP1 DUP2 MSTORE PUSH1 0xF PUSH1 0x20 MSTORE PUSH1 0x40 DUP2 KECCAK256 PUSH1 0x3 ADD DUP1 SLOAD DUP4 SWAP3 SWAP1 PUSH2 0xFD6 SWAP1 DUP5 SWAP1 PUSH2 0x182A JUMP JUMPDEST SWAP1 SWAP2 SSTORE POP POP PUSH1 0x1 PUSH1 0x1 PUSH1 0xA0 SHL SUB DUP1 DUP4 AND PUSH1 0x0 SWAP1 DUP2 MSTORE PUSH1 0xF PUSH1 0x20 MSTORE PUSH1 0x40 SWAP1 KECCAK256 TIMESTAMP PUSH1 0x1 SWAP1 SWAP2 ADD SSTORE PUSH1 0x9 SLOAD PUSH2 0x100A SWAP2 AND DUP4 DUP4 PUSH2 0xECF JUMP JUMPDEST DUP2 PUSH1 0x1 PUSH1 0x1 PUSH1 0xA0 SHL SUB AND PUSH32 0x106F923F993C2149D49B4255FF723ACAFA1F2D94393F561D3EDA32AE348F7241 DUP3 PUSH1 0x40 MLOAD PUSH2 0x1045 SWAP2 DUP2 MSTORE PUSH1 0x20 ADD SWAP1 JUMP JUMPDEST PUSH1 0x40 MLOAD DUP1 SWAP2 SUB SWAP1 LOG2 POP POP JUMP JUMPDEST PUSH1 0x5 SLOAD PUSH1 0x1 PUSH1 0x1 PUSH1 0xA0 SHL SUB PUSH2 0x100 SWAP1 SWAP2 DIV AND CALLER EQ PUSH2 0x8A7 JUMPI PUSH1 0x40 MLOAD PUSH4 0x118CDAA7 PUSH1 0xE0 SHL DUP2 MSTORE CALLER PUSH1 0x4 DUP3 ADD MSTORE PUSH1 0x24 ADD PUSH2 0x752 JUMP JUMPDEST PUSH2 0x108C PUSH2 0x150C JUMP JUMPDEST PUSH1 0x5 DUP1 SLOAD PUSH1 0xFF NOT AND SWAP1 SSTORE PUSH32 0x5DB9EE0A495BF2E6FF9C91A7834C1BA4FDD244A5E8AA4E537BD38AEAE4B073AA CALLER JUMPDEST PUSH1 0x40 MLOAD PUSH1 0x1 PUSH1 0x1 PUSH1 0xA0 SHL SUB SWAP1 SWAP2 AND DUP2 MSTORE PUSH1 0x20 ADD PUSH1 0x40 MLOAD DUP1 SWAP2 SUB SWAP1 LOG1 JUMP JUMPDEST PUSH1 0x1 PUSH1 0x1 PUSH1 0xA0 SHL SUB DUP3 AND PUSH2 0x1100 JUMPI PUSH1 0x40 MLOAD PUSH4 0x4B637E8F PUSH1 0xE1 SHL DUP2 MSTORE PUSH1 0x0 PUSH1 0x4 DUP3 ADD MSTORE PUSH1 0x24 ADD PUSH2 0x752 JUMP JUMPDEST PUSH2 0xA0E DUP3 PUSH1 0x0 DUP4 PUSH2 0x13AD JUMP JUMPDEST PUSH1 0x5 DUP1 SLOAD PUSH1 0x1 PUSH1 0x1 PUSH1 0xA0 SHL SUB DUP4 DUP2 AND PUSH2 0x100 DUP2 DUP2 MUL PUSH2 0x100 PUSH1 0x1 PUSH1 0xA8 SHL SUB NOT DUP6 AND OR SWAP1 SWAP5 SSTORE PUSH1 0x40 MLOAD SWAP4 SWAP1 SWAP3 DIV AND SWAP2 DUP3 SWAP1 PUSH32 0x8BE0079C531659141344CD1FD0A4F28419497F9722A3DAAFE3B4186F6B6457E0 SWAP1 PUSH1 0x0 SWAP1 LOG3 POP POP JUMP JUMPDEST PUSH1 0x5 SLOAD PUSH1 0xFF AND ISZERO PUSH2 0x8A7 JUMPI PUSH1 0x40 MLOAD PUSH4 0xD93C0665 PUSH1 0xE0 SHL DUP2 MSTORE PUSH1 0x4 ADD PUSH1 0x40 MLOAD DUP1 SWAP2 SUB SWAP1 REVERT JUMPDEST PUSH1 0x1 PUSH1 0x1 PUSH1 0xA0 SHL SUB DUP2 AND PUSH1 0x0 SWAP1 DUP2 MSTORE PUSH1 0xF PUSH1 0x20 MSTORE PUSH1 0x40 DUP2 KECCAK256 SLOAD SWAP1 PUSH10 0x152D02C7E14AF6800000 DUP3 LT PUSH2 0x11BE JUMPI POP PUSH2 0x1D4C PUSH2 0x120F JUMP JUMPDEST PUSH10 0xA968163F0A57B400000 DUP3 LT PUSH2 0x11D8 JUMPI POP PUSH2 0x1388 PUSH2 0x120F JUMP JUMPDEST PUSH10 0x21E19E0C9BAB2400000 DUP3 LT PUSH2 0x11F2 JUMPI POP PUSH2 0x9C4 PUSH2 0x120F JUMP JUMPDEST PUSH9 0x3635C9ADC5DEA00000 DUP3 LT PUSH2 0x120B JUMPI POP PUSH2 0x3E8 PUSH2 0x120F JUMP JUMPDEST POP PUSH1 0x0 JUMPDEST PUSH1 0x1 PUSH1 0x1 PUSH1 0xA0 SHL SUB DUP4 AND PUSH1 0x0 DUP2 DUP2 MSTORE PUSH1 0x11 PUSH1 0x20 MSTORE PUSH1 0x40 SWAP1 DUP2 SWAP1 KECCAK256 DUP4 SWAP1 SSTORE MLOAD PUSH32 0x8C8213355F8C4B06CFD938D2A83EC5B9D1F2EF7AF5D62A51A06E8E229C1FDC59 SWAP1 PUSH2 0x125C SWAP1 DUP5 DUP2 MSTORE PUSH1 0x20 ADD SWAP1 JUMP JUMPDEST PUSH1 0x40 MLOAD DUP1 SWAP2 SUB SWAP1 LOG2 POP POP POP JUMP JUMPDEST PUSH2 0x1271 PUSH2 0x1166 JUMP JUMPDEST PUSH1 0x5 DUP1 SLOAD PUSH1 0xFF NOT AND PUSH1 0x1 OR SWAP1 SSTORE PUSH32 0x62E78CEA01BEE320CD4E420270B5EA74000D11B0C9F74754EBDBFC544B05A258 PUSH2 0x10B9 CALLER SWAP1 JUMP JUMPDEST PUSH1 0x0 PUSH4 0x1E13380 DUP3 LT PUSH2 0x12BC JUMPI POP PUSH2 0x7D0 SWAP2 SWAP1 POP JUMP JUMPDEST PUSH3 0xED4E00 DUP3 LT PUSH2 0x12CF JUMPI POP PUSH2 0x5DC SWAP2 SWAP1 POP JUMP JUMPDEST POP PUSH2 0x320 SWAP2 SWAP1 POP JUMP JUMPDEST PUSH1 0x1 PUSH1 0x1 PUSH1 0xA0 SHL SUB DUP5 AND PUSH2 0x1302 JUMPI PUSH1 0x40 MLOAD PUSH4 0xE602DF05 PUSH1 0xE0 SHL DUP2 MSTORE PUSH1 0x0 PUSH1 0x4 DUP3 ADD MSTORE PUSH1 0x24 ADD PUSH2 0x752 JUMP JUMPDEST PUSH1 0x1 PUSH1 0x1 PUSH1 0xA0 SHL SUB DUP4 AND PUSH2 0x132C JUMPI PUSH1 0x40 MLOAD PUSH4 0x4A1406B1 PUSH1 0xE1 SHL DUP2 MSTORE PUSH1 0x0 PUSH1 0x4 DUP3 ADD MSTORE PUSH1 0x24 ADD PUSH2 0x752 JUMP JUMPDEST PUSH1 0x1 PUSH1 0x1 PUSH1 0xA0 SHL SUB DUP1 DUP6 AND PUSH1 0x0 SWAP1 DUP2 MSTORE PUSH1 0x1 PUSH1 0x20 SWAP1 DUP2 MSTORE PUSH1 0x40 DUP1 DUP4 KECCAK256 SWAP4 DUP8 AND DUP4 MSTORE SWAP3 SWAP1 MSTORE KECCAK256 DUP3 SWAP1 SSTORE DUP1 ISZERO PUSH2 0xEC9 JUMPI DUP3 PUSH1 0x1 PUSH1 0x1 PUSH1 0xA0 SHL SUB AND DUP5 PUSH1 0x1 PUSH1 0x1 PUSH1 0xA0 SHL SUB AND PUSH32 0x8C5BE1E5EBEC7D5BD14F71427D1E84F3DD0314C0F7B2291E5B200AC8C7C3B925 DUP5 PUSH1 0x40 MLOAD PUSH2 0x139F SWAP2 DUP2 MSTORE PUSH1 0x20 ADD SWAP1 JUMP JUMPDEST PUSH1 0x40 MLOAD DUP1 SWAP2 SUB SWAP1 LOG3 POP POP POP POP JUMP JUMPDEST PUSH1 0x0 PUSH1 0x1 PUSH1 0x1 PUSH1 0xA0 SHL SUB DUP5 AND ISZERO DUP1 PUSH2 0x13CC JUMPI POP PUSH1 0x1 PUSH1 0x1 PUSH1 0xA0 SHL SUB DUP4 AND ISZERO JUMPDEST DUP1 PUSH2 0x13DF JUMPI POP PUSH1 0x1 PUSH1 0x1 PUSH1 0xA0 SHL SUB DUP5 AND ADDRESS EQ JUMPDEST DUP1 PUSH2 0x13F2 JUMPI POP PUSH1 0x1 PUSH1 0x1 PUSH1 0xA0 SHL SUB DUP4 AND ADDRESS EQ JUMPDEST DUP1 PUSH2 0x140A JUMPI POP PUSH1 0xD SLOAD PUSH1 0x1 PUSH1 0x1 PUSH1 0xA0 SHL SUB DUP6 DUP2 AND SWAP2 AND EQ JUMPDEST DUP1 PUSH2 0x1422 JUMPI POP PUSH1 0xD SLOAD PUSH1 0x1 PUSH1 0x1 PUSH1 0xA0 SHL SUB DUP5 DUP2 AND SWAP2 AND EQ JUMPDEST SWAP1 POP DUP1 ISZERO DUP1 ISZERO PUSH2 0x1430 JUMPI POP PUSH1 0x1 JUMPDEST ISZERO PUSH2 0x1501 JUMPI PUSH1 0x0 PUSH2 0x2710 PUSH2 0x1445 PUSH1 0xA DUP6 PUSH2 0x183D JUMP JUMPDEST PUSH2 0x144F SWAP2 SWAP1 PUSH2 0x1854 JUMP JUMPDEST SWAP1 POP DUP1 ISZERO PUSH2 0x14FF JUMPI PUSH2 0x1463 DUP6 PUSH1 0x0 DUP4 PUSH2 0x152F JUMP JUMPDEST DUP1 PUSH1 0xE PUSH1 0x0 DUP3 DUP3 SLOAD PUSH2 0x1475 SWAP2 SWAP1 PUSH2 0x182A JUMP JUMPDEST SWAP3 POP POP DUP2 SWAP1 SSTORE POP DUP5 PUSH1 0x1 PUSH1 0x1 PUSH1 0xA0 SHL SUB AND PUSH32 0xFAD31924D655455395C87544C8AA1FFDB5A7505A22A3C2E03F28003B6556A75F DUP3 PUSH1 0x40 MLOAD PUSH2 0x14DC SWAP2 DUP2 MSTORE PUSH1 0x40 PUSH1 0x20 DUP3 ADD DUP2 SWAP1 MSTORE PUSH1 0xD SWAP1 DUP3 ADD MSTORE PUSH13 0x2A3930B739B332B910313AB937 PUSH1 0x99 SHL PUSH1 0x60 DUP3 ADD MSTORE PUSH1 0x80 ADD SWAP1 JUMP JUMPDEST PUSH1 0x40 MLOAD DUP1 SWAP2 SUB SWAP1 LOG2 PUSH2 0x14F8 DUP6 DUP6 PUSH2 0x14F3 DUP5 DUP8 PUSH2 0x1817 JUMP JUMPDEST PUSH2 0x152F JUMP JUMPDEST POP POP POP POP POP JUMP JUMPDEST POP JUMPDEST PUSH2 0xEC9 DUP5 DUP5 DUP5 PUSH2 0x152F JUMP JUMPDEST PUSH1 0x5 SLOAD PUSH1 0xFF AND PUSH2 0x8A7 JUMPI PUSH1 0x40 MLOAD PUSH4 0x8DFC202B PUSH1 0xE0 SHL DUP2 MSTORE PUSH1 0x4 ADD PUSH1 0x40 MLOAD DUP1 SWAP2 SUB SWAP1 REVERT JUMPDEST PUSH2 0x1537 PUSH2 0x1166 JUMP JUMPDEST PUSH2 0xE4B DUP4 DUP4 DUP4 PUSH1 0x1 PUSH1 0x1 PUSH1 0xA0 SHL SUB DUP4 AND PUSH2 0x1568 JUMPI DUP1 PUSH1 0x2 PUSH1 0x0 DUP3 DUP3 SLOAD PUSH2 0x155D SWAP2 SWAP1 PUSH2 0x182A JUMP JUMPDEST SWAP1 SWAP2 SSTORE POP PUSH2 0x15DA SWAP1 POP JUMP JUMPDEST PUSH1 0x1 PUSH1 0x1 PUSH1 0xA0 SHL SUB DUP4 AND PUSH1 0x0 SWAP1 DUP2 MSTORE PUSH1 0x20 DUP2 SWAP1 MSTORE PUSH1 0x40 SWAP1 KECCAK256 SLOAD DUP2 DUP2 LT ISZERO PUSH2 0x15BB JUMPI PUSH1 0x40 MLOAD PUSH4 0x391434E3 PUSH1 0xE2 SHL DUP2 MSTORE PUSH1 0x1 PUSH1 0x1 PUSH1 0xA0 SHL SUB DUP6 AND PUSH1 0x4 DUP3 ADD MSTORE PUSH1 0x24 DUP2 ADD DUP3 SWAP1 MSTORE PUSH1 0x44 DUP2 ADD DUP4 SWAP1 MSTORE PUSH1 0x64 ADD PUSH2 0x752 JUMP JUMPDEST PUSH1 0x1 PUSH1 0x1 PUSH1 0xA0 SHL SUB DUP5 AND PUSH1 0x0 SWAP1 DUP2 MSTORE PUSH1 0x20 DUP2 SWAP1 MSTORE PUSH1 0x40 SWAP1 KECCAK256 SWAP1 DUP3 SWAP1 SUB SWAP1 SSTORE JUMPDEST PUSH1 0x1 PUSH1 0x1 PUSH1 0xA0 SHL SUB DUP3 AND PUSH2 0x15F6 JUMPI PUSH1 0x2 DUP1 SLOAD DUP3 SWAP1 SUB SWAP1 SSTORE PUSH2 0x1615 JUMP JUMPDEST PUSH1 0x1 PUSH1 0x1 PUSH1 0xA0 SHL SUB DUP3 AND PUSH1 0x0 SWAP1 DUP2 MSTORE PUSH1 0x20 DUP2 SWAP1 MSTORE PUSH1 0x40 SWAP1 KECCAK256 DUP1 SLOAD DUP3 ADD SWAP1 SSTORE JUMPDEST DUP2 PUSH1 0x1 PUSH1 0x1 PUSH1 0xA0 SHL SUB AND DUP4 PUSH1 0x1 PUSH1 0x1 PUSH1 0xA0 SHL SUB AND PUSH32 0xDDF252AD1BE2C89B69C2B068FC378DAA952BA7F163C4A11628F55A4DF523B3EF DUP4 PUSH1 0x40 MLOAD PUSH2 0x165A SWAP2 DUP2 MSTORE PUSH1 0x20 ADD SWAP1 JUMP JUMPDEST PUSH1 0x40 MLOAD DUP1 SWAP2 SUB SWAP1 LOG3 POP POP POP JUMP JUMPDEST DUP1 CALLDATALOAD PUSH1 0x1 PUSH1 0x1 PUSH1 0xA0 SHL SUB DUP2 AND DUP2 EQ PUSH2 0x167E JUMPI PUSH1 0x0 DUP1 REVERT JUMPDEST SWAP2 SWAP1 POP JUMP JUMPDEST PUSH1 0x0 PUSH1 0x20 DUP3 DUP5 SUB SLT ISZERO PUSH2 0x1695 JUMPI PUSH1 0x0 DUP1 REVERT JUMPDEST PUSH2 0x169E DUP3 PUSH2 0x1667 JUMP JUMPDEST SWAP4 SWAP3 POP POP POP JUMP JUMPDEST PUSH1 0x0 PUSH1 0x20 DUP1 DUP4 MSTORE DUP4 MLOAD DUP1 DUP3 DUP6 ADD MSTORE PUSH1 0x0 JUMPDEST DUP2 DUP2 LT ISZERO PUSH2 0x16D2 JUMPI DUP6 DUP2 ADD DUP4 ADD MLOAD DUP6 DUP3 ADD PUSH1 0x40 ADD MSTORE DUP3 ADD PUSH2 0x16B6 JUMP JUMPDEST POP PUSH1 0x0 PUSH1 0x40 DUP3 DUP7 ADD ADD MSTORE PUSH1 0x40 PUSH1 0x1F NOT PUSH1 0x1F DUP4 ADD AND DUP6 ADD ADD SWAP3 POP POP POP SWAP3 SWAP2 POP POP JUMP JUMPDEST PUSH1 0x0 DUP1 PUSH1 0x40 DUP4 DUP6 SUB SLT ISZERO PUSH2 0x1706 JUMPI PUSH1 0x0 DUP1 REVERT JUMPDEST PUSH2 0x170F DUP4 PUSH2 0x1667 JUMP JUMPDEST SWAP5 PUSH1 0x20 SWAP4 SWAP1 SWAP4 ADD CALLDATALOAD SWAP4 POP POP POP JUMP JUMPDEST PUSH1 0x0 DUP1 PUSH1 0x0 PUSH1 0x60 DUP5 DUP7 SUB SLT ISZERO PUSH2 0x1732 JUMPI PUSH1 0x0 DUP1 REVERT JUMPDEST PUSH2 0x173B DUP5 PUSH2 0x1667 JUMP JUMPDEST SWAP3 POP PUSH2 0x1749 PUSH1 0x20 DUP6 ADD PUSH2 0x1667 JUMP JUMPDEST SWAP2 POP PUSH1 0x40 DUP5 ADD CALLDATALOAD SWAP1 POP SWAP3 POP SWAP3 POP SWAP3 JUMP JUMPDEST PUSH1 0x0 PUSH1 0x20 DUP3 DUP5 SUB SLT ISZERO PUSH2 0x176B JUMPI PUSH1 0x0 DUP1 REVERT JUMPDEST POP CALLDATALOAD SWAP2 SWAP1 POP JUMP JUMPDEST PUSH1 0x0 DUP1 PUSH1 0x40 DUP4 DUP6 SUB SLT ISZERO PUSH2 0x1785 JUMPI PUSH1 0x0 DUP1 REVERT JUMPDEST POP POP DUP1 CALLDATALOAD SWAP3 PUSH1 0x20 SWAP1 SWAP2 ADD CALLDATALOAD SWAP2 POP JUMP JUMPDEST PUSH1 0x0 DUP1 PUSH1 0x40 DUP4 DUP6 SUB SLT ISZERO PUSH2 0x17A7 JUMPI PUSH1 0x0 DUP1 REVERT JUMPDEST PUSH2 0x17B0 DUP4 PUSH2 0x1667 JUMP JUMPDEST SWAP2 POP PUSH2 0x17BE PUSH1 0x20 DUP5 ADD PUSH2 0x1667 JUMP JUMPDEST SWAP1 POP SWAP3 POP SWAP3 SWAP1 POP JUMP JUMPDEST PUSH1 0x1 DUP2 DUP2 SHR SWAP1 DUP3 AND DUP1 PUSH2 0x17DB JUMPI PUSH1 0x7F DUP3 AND SWAP2 POP JUMPDEST PUSH1 0x20 DUP3 LT DUP2 SUB PUSH2 0x17FB JUMPI PUSH4 0x4E487B71 PUSH1 0xE0 SHL PUSH1 0x0 MSTORE PUSH1 0x22 PUSH1 0x4 MSTORE PUSH1 0x24 PUSH1 0x0 REVERT JUMPDEST POP SWAP2 SWAP1 POP JUMP JUMPDEST PUSH4 0x4E487B71 PUSH1 0xE0 SHL PUSH1 0x0 MSTORE PUSH1 0x11 PUSH1 0x4 MSTORE PUSH1 0x24 PUSH1 0x0 REVERT JUMPDEST DUP2 DUP2 SUB DUP2 DUP2 GT ISZERO PUSH2 0x671 JUMPI PUSH2 0x671 PUSH2 0x1801 JUMP JUMPDEST DUP1 DUP3 ADD DUP1 DUP3 GT ISZERO PUSH2 0x671 JUMPI PUSH2 0x671 PUSH2 0x1801 JUMP JUMPDEST DUP1 DUP3 MUL DUP2 ISZERO DUP3 DUP3 DIV DUP5 EQ OR PUSH2 0x671 JUMPI PUSH2 0x671 PUSH2 0x1801 JUMP JUMPDEST PUSH1 0x0 DUP3 PUSH2 0x1871 JUMPI PUSH4 0x4E487B71 PUSH1 0xE0 SHL PUSH1 0x0 MSTORE PUSH1 0x12 PUSH1 0x4 MSTORE PUSH1 0x24 PUSH1 0x0 REVERT JUMPDEST POP DIV SWAP1 JUMP INVALID LOG2 PUSH5 0x6970667358 0x22 SLT KECCAK256 DUP14 MSTORE DUP6 XOR 0xD8 0xA9 SGT DUP13 PC DUP14 0xAE 0xDD 0x1E DUP7 0xAB PUSH22 0xE55D4D69197E8637D7B3D206B6A0741164736F6C6343 STOP ADDMOD EQ STOP CALLER "},"methodIdentifiers":{"BURN_RATE()":"f846a885","FLEXIBLE_APY()":"63546f0c","ONE_YEAR_APY()":"08014d8b","PREMIUM_THRESHOLD()":"9af01c2d","SIX_MONTH_APY()":"373c6193","allowance(address,address)":"dd62ed3e","approve(address,uint256)":"095ea7b3","balanceOf(address)":"70a08231","burn(uint256)":"42966c68","burnFrom(address,uint256)":"79cc6790","burnFromTreasury(uint256)":"5f9d9909","calculateReward(address)":"d82e3962","claimRewards()":"372500ab","communityWallet()":"c7574839","decimals()":"313ce567","feeDiscounts(address)":"040a4f42","founderWallet()":"a23d3c35","getStakeInfo(address)":"c3453153","getTokenStats()":"097cd9bf","isPremium(address)":"742fe0d4","liquidityWallet()":"d4698016","name()":"06fdde03","owner()":"8da5cb5b","pause()":"8456cb59","paused()":"5c975abb","publicSaleWallet()":"6cb13595","renounceOwnership()":"715018a6","stake(uint256,uint256)":"7b0472f0","stakes(address)":"16934fc4","strategicWallet()":"8922e021","symbol()":"95d89b41","teamWallet()":"59927044","totalBurned()":"d89135cd","totalStaked()":"817b1cd2","totalSupply()":"18160ddd","transfer(address,uint256)":"a9059cbb","transferFrom(address,address,uint256)":"23b872dd","transferOwnership(address)":"f2fde38b","treasuryWallet()":"4626402b","unpause()":"3f4ba83a","unstake()":"2def6620"}}}}}