{
  "_format": "hh-sol-artifact-1",
  "contractName": "BlazeChainLaunchpad",
  "sourceName": "contracts/BlazeChainLaunchpad.sol",
  "abi": [
    {
      "inputs": [
        {
          "internalType": "address",
          "name": "_blazeToken",
          "type": "address"
        },
        {
          "internalType": "address",
          "name": "_treasuryWallet",
          "type": "address"
        }
      ],
      "stateMutability": "nonpayable",
      "type": "constructor"
    },
    {
      "inputs": [
        {
          "internalType": "address",
          "name": "owner",
          "type": "address"
        }
      ],
      "name": "OwnableInvalidOwner",
      "type": "error"
    },
    {
      "inputs": [
        {
          "internalType": "address",
          "name": "account",
          "type": "address"
        }
      ],
      "name": "OwnableUnauthorizedAccount",
      "type": "error"
    },
    {
      "inputs": [],
      "name": "ReentrancyGuardReentrantCall",
      "type": "error"
    },
    {
      "inputs": [
        {
          "internalType": "address",
          "name": "token",
          "type": "address"
        }
      ],
      "name": "SafeERC20FailedOperation",
      "type": "error"
    },
    {
      "anonymous": false,
      "inputs": [
        {
          "indexed": true,
          "internalType": "uint256",
          "name": "projectId",
          "type": "uint256"
        },
        {
          "indexed": true,
          "internalType": "address",
          "name": "contributor",
          "type": "address"
        },
        {
          "indexed": false,
          "internalType": "uint256",
          "name": "amount",
          "type": "uint256"
        }
      ],
      "name": "ContributionMade",
      "type": "event"
    },
    {
      "anonymous": false,
      "inputs": [
        {
          "indexed": true,
          "internalType": "address",
          "name": "previousOwner",
          "type": "address"
        },
        {
          "indexed": true,
          "internalType": "address",
          "name": "newOwner",
          "type": "address"
        }
      ],
      "name": "OwnershipTransferred",
      "type": "event"
    },
    {
      "anonymous": false,
      "inputs": [
        {
          "indexed": true,
          "internalType": "uint256",
          "name": "projectId",
          "type": "uint256"
        }
      ],
      "name": "ProjectCancelled",
      "type": "event"
    },
    {
      "anonymous": false,
      "inputs": [
        {
          "indexed": true,
          "internalType": "uint256",
          "name": "projectId",
          "type": "uint256"
        },
        {
          "indexed": true,
          "internalType": "address",
          "name": "creator",
          "type": "address"
        },
        {
          "indexed": false,
          "internalType": "address",
          "name": "tokenAddress",
          "type": "address"
        },
        {
          "indexed": false,
          "internalType": "string",
          "name": "name",
          "type": "string"
        },
        {
          "indexed": false,
          "internalType": "uint256",
          "name": "startTime",
          "type": "uint256"
        },
        {
          "indexed": false,
          "internalType": "uint256",
          "name": "endTime",
          "type": "uint256"
        }
      ],
      "name": "ProjectCreated",
      "type": "event"
    },
    {
      "anonymous": false,
      "inputs": [
        {
          "indexed": true,
          "internalType": "uint256",
          "name": "projectId",
          "type": "uint256"
        },
        {
          "indexed": false,
          "internalType": "uint256",
          "name": "totalRaised",
          "type": "uint256"
        },
        {
          "indexed": false,
          "internalType": "uint256",
          "name": "platformFee",
          "type": "uint256"
        }
      ],
      "name": "ProjectFinalized",
      "type": "event"
    },
    {
      "anonymous": false,
      "inputs": [
        {
          "indexed": true,
          "internalType": "uint256",
          "name": "projectId",
          "type": "uint256"
        },
        {
          "indexed": true,
          "internalType": "address",
          "name": "contributor",
          "type": "address"
        },
        {
          "indexed": false,
          "internalType": "uint256",
          "name": "amount",
          "type": "uint256"
        }
      ],
      "name": "RefundClaimed",
      "type": "event"
    },
    {
      "anonymous": false,
      "inputs": [
        {
          "indexed": true,
          "internalType": "uint256",
          "name": "projectId",
          "type": "uint256"
        },
        {
          "indexed": true,
          "internalType": "address",
          "name": "contributor",
          "type": "address"
        },
        {
          "indexed": false,
          "internalType": "uint256",
          "name": "amount",
          "type": "uint256"
        }
      ],
      "name": "TokensClaimed",
      "type": "event"
    },
    {
      "inputs": [],
      "name": "EARLY_ACCESS_DURATION",
      "outputs": [
        {
          "internalType": "uint256",
          "name": "",
          "type": "uint256"
        }
      ],
      "stateMutability": "view",
      "type": "function"
    },
    {
      "inputs": [],
      "name": "EARLY_ACCESS_THRESHOLD",
      "outputs": [
        {
          "internalType": "uint256",
          "name": "",
          "type": "uint256"
        }
      ],
      "stateMutability": "view",
      "type": "function"
    },
    {
      "inputs": [],
      "name": "PLATFORM_FEE",
      "outputs": [
        {
          "internalType": "uint256",
          "name": "",
          "type": "uint256"
        }
      ],
      "stateMutability": "view",
      "type": "function"
    },
    {
      "inputs": [],
      "name": "blazeToken",
      "outputs": [
        {
          "internalType": "contract IERC20",
          "name": "",
          "type": "address"
        }
      ],
      "stateMutability": "view",
      "type": "function"
    },
    {
      "inputs": [
        {
          "internalType": "uint256",
          "name": "_projectId",
          "type": "uint256"
        }
      ],
      "name": "cancelProject",
      "outputs": [],
      "stateMutability": "nonpayable",
      "type": "function"
    },
    {
      "inputs": [
        {
          "internalType": "uint256",
          "name": "_projectId",
          "type": "uint256"
        }
      ],
      "name": "claimRefund",
      "outputs": [],
      "stateMutability": "nonpayable",
      "type": "function"
    },
    {
      "inputs": [
        {
          "internalType": "uint256",
          "name": "_projectId",
          "type": "uint256"
        }
      ],
      "name": "claimTokens",
      "outputs": [],
      "stateMutability": "nonpayable",
      "type": "function"
    },
    {
      "inputs": [
        {
          "internalType": "uint256",
          "name": "_projectId",
          "type": "uint256"
        }
      ],
      "name": "contribute",
      "outputs": [],
      "stateMutability": "payable",
      "type": "function"
    },
    {
      "inputs": [
        {
          "internalType": "uint256",
          "name": "",
          "type": "uint256"
        },
        {
          "internalType": "address",
          "name": "",
          "type": "address"
        }
      ],
      "name": "contributions",
      "outputs": [
        {
          "internalType": "uint256",
          "name": "amount",
          "type": "uint256"
        },
        {
          "internalType": "bool",
          "name": "claimed",
          "type": "bool"
        },
        {
          "internalType": "bool",
          "name": "refunded",
          "type": "bool"
        }
      ],
      "stateMutability": "view",
      "type": "function"
    },
    {
      "inputs": [
        {
          "internalType": "address",
          "name": "_tokenAddress",
          "type": "address"
        },
        {
          "internalType": "string",
          "name": "_name",
          "type": "string"
        },
        {
          "internalType": "string",
          "name": "_description",
          "type": "string"
        },
        {
          "internalType": "string",
          "name": "_logoUrl",
          "type": "string"
        },
        {
          "internalType": "uint256",
          "name": "_tokenPrice",
          "type": "uint256"
        },
        {
          "internalType": "uint256",
          "name": "_tokensForSale",
          "type": "uint256"
        },
        {
          "internalType": "uint256",
          "name": "_softCap",
          "type": "uint256"
        },
        {
          "internalType": "uint256",
          "name": "_hardCap",
          "type": "uint256"
        },
        {
          "internalType": "uint256",
          "name": "_minContribution",
          "type": "uint256"
        },
        {
          "internalType": "uint256",
          "name": "_maxContribution",
          "type": "uint256"
        },
        {
          "internalType": "uint256",
          "name": "_startTime",
          "type": "uint256"
        },
        {
          "internalType": "uint256",
          "name": "_duration",
          "type": "uint256"
        }
      ],
      "name": "createProject",
      "outputs": [
        {
          "internalType": "uint256",
          "name": "",
          "type": "uint256"
        }
      ],
      "stateMutability": "nonpayable",
      "type": "function"
    },
    {
      "inputs": [
        {
          "internalType": "uint256",
          "name": "_projectId",
          "type": "uint256"
        }
      ],
      "name": "finalizeProject",
      "outputs": [],
      "stateMutability": "nonpayable",
      "type": "function"
    },
    {
      "inputs": [
        {
          "internalType": "uint256",
          "name": "_projectId",
          "type": "uint256"
        }
      ],
      "name": "getProject",
      "outputs": [
        {
          "internalType": "uint256",
          "name": "id",
          "type": "uint256"
        },
        {
          "internalType": "address",
          "name": "creator",
          "type": "address"
        },
        {
          "internalType": "address",
          "name": "tokenAddress",
          "type": "address"
        },
        {
          "internalType": "string",
          "name": "name",
          "type": "string"
        },
        {
          "internalType": "string",
          "name": "description",
          "type": "string"
        },
        {
          "internalType": "uint256",
          "name": "raised",
          "type": "uint256"
        },
        {
          "internalType": "uint256",
          "name": "softCap",
          "type": "uint256"
        },
        {
          "internalType": "uint256",
          "name": "hardCap",
          "type": "uint256"
        },
        {
          "internalType": "uint256",
          "name": "startTime",
          "type": "uint256"
        },
        {
          "internalType": "uint256",
          "name": "endTime",
          "type": "uint256"
        },
        {
          "internalType": "enum BlazeChainLaunchpad.ProjectState",
          "name": "state",
          "type": "uint8"
        }
      ],
      "stateMutability": "view",
      "type": "function"
    },
    {
      "inputs": [
        {
          "internalType": "uint256",
          "name": "_projectId",
          "type": "uint256"
        }
      ],
      "name": "getProjectContributors",
      "outputs": [
        {
          "internalType": "address[]",
          "name": "",
          "type": "address[]"
        }
      ],
      "stateMutability": "view",
      "type": "function"
    },
    {
      "inputs": [
        {
          "internalType": "uint256",
          "name": "_projectId",
          "type": "uint256"
        }
      ],
      "name": "getProjectState",
      "outputs": [
        {
          "internalType": "enum BlazeChainLaunchpad.ProjectState",
          "name": "",
          "type": "uint8"
        }
      ],
      "stateMutability": "view",
      "type": "function"
    },
    {
      "inputs": [
        {
          "internalType": "uint256",
          "name": "_projectId",
          "type": "uint256"
        },
        {
          "internalType": "address",
          "name": "_user",
          "type": "address"
        }
      ],
      "name": "getUserContribution",
      "outputs": [
        {
          "internalType": "uint256",
          "name": "amount",
          "type": "uint256"
        },
        {
          "internalType": "bool",
          "name": "claimed",
          "type": "bool"
        },
        {
          "internalType": "bool",
          "name": "refunded",
          "type": "bool"
        }
      ],
      "stateMutability": "view",
      "type": "function"
    },
    {
      "inputs": [],
      "name": "owner",
      "outputs": [
        {
          "internalType": "address",
          "name": "",
          "type": "address"
        }
      ],
      "stateMutability": "view",
      "type": "function"
    },
    {
      "inputs": [
        {
          "internalType": "uint256",
          "name": "",
          "type": "uint256"
        },
        {
          "internalType": "uint256",
          "name": "",
          "type": "uint256"
        }
      ],
      "name": "projectContributors",
      "outputs": [
        {
          "internalType": "address",
          "name": "",
          "type": "address"
        }
      ],
      "stateMutability": "view",
      "type": "function"
    },
    {
      "inputs": [],
      "name": "projectCount",
      "outputs": [
        {
          "internalType": "uint256",
          "name": "",
          "type": "uint256"
        }
      ],
      "stateMutability": "view",
      "type": "function"
    },
    {
      "inputs": [
        {
          "internalType": "uint256",
          "name": "",
          "type": "uint256"
        }
      ],
      "name": "projects",
      "outputs": [
        {
          "internalType": "uint256",
          "name": "id",
          "type": "uint256"
        },
        {
          "internalType": "address",
          "name": "creator",
          "type": "address"
        },
        {
          "internalType": "address",
          "name": "tokenAddress",
          "type": "address"
        },
        {
          "internalType": "string",
          "name": "name",
          "type": "string"
        },
        {
          "internalType": "string",
          "name": "description",
          "type": "string"
        },
        {
          "internalType": "string",
          "name": "logoUrl",
          "type": "string"
        },
        {
          "internalType": "uint256",
          "name": "tokenPrice",
          "type": "uint256"
        },
        {
          "internalType": "uint256",
          "name": "tokensForSale",
          "type": "uint256"
        },
        {
          "internalType": "uint256",
          "name": "softCap",
          "type": "uint256"
        },
        {
          "internalType": "uint256",
          "name": "hardCap",
          "type": "uint256"
        },
        {
          "internalType": "uint256",
          "name": "minContribution",
          "type": "uint256"
        },
        {
          "internalType": "uint256",
          "name": "maxContribution",
          "type": "uint256"
        },
        {
          "internalType": "uint256",
          "name": "raised",
          "type": "uint256"
        },
        {
          "internalType": "uint256",
          "name": "startTime",
          "type": "uint256"
        },
        {
          "internalType": "uint256",
          "name": "endTime",
          "type": "uint256"
        },
        {
          "internalType": "bool",
          "name": "finalized",
          "type": "bool"
        },
        {
          "internalType": "bool",
          "name": "cancelled",
          "type": "bool"
        }
      ],
      "stateMutability": "view",
      "type": "function"
    },
    {
      "inputs": [],
      "name": "renounceOwnership",
      "outputs": [],
      "stateMutability": "nonpayable",
      "type": "function"
    },
    {
      "inputs": [
        {
          "internalType": "address",
          "name": "_newTreasury",
          "type": "address"
        }
      ],
      "name": "setTreasuryWallet",
      "outputs": [],
      "stateMutability": "nonpayable",
      "type": "function"
    },
    {
      "inputs": [
        {
          "internalType": "address",
          "name": "newOwner",
          "type": "address"
        }
      ],
      "name": "transferOwnership",
      "outputs": [],
      "stateMutability": "nonpayable",
      "type": "function"
    },
    {
      "inputs": [],
      "name": "treasuryWallet",
      "outputs": [
        {
          "internalType": "address",
          "name": "",
          "type": "address"
        }
      ],
      "stateMutability": "view",
      "type": "function"
    }
  ],
  "bytecode": "0x608034620001885762001fe790601f38839003908101601f19168201906001600160401b038211838310176200018d578083916040958694855283398101031262000188576200005d60206200005583620001a3565b9201620001a3565b3315620001705760008054336001600160a01b03198083168217845586519590946001600160a01b03949093859391908416907f8be0079c531659141344cd1fd0a4f28419497f9722a3daafe3b4186f6b6457e09080a360018055169384156200012e575016918215620000ea57816002541617600255600754161760075551611e2e9081620001b98239f35b835162461bcd60e51b815260206004820152601760248201527f496e76616c69642074726561737572792077616c6c65740000000000000000006044820152606490fd5b62461bcd60e51b815260206004820152601360248201527f496e76616c696420424c415a4520746f6b656e000000000000000000000000006044820152606490fd5b8251631e4fbdf760e01b815260006004820152602490fd5b600080fd5b634e487b7160e01b600052604160045260246000fd5b51906001600160a01b0382168203620001885756fe60a0604052600436101561001257600080fd5b60003560e01c8063107046bd146117e05780631790187c1461102a5780632494114714610edb57806334fbc9a114610ebf57806336fbad2614610ea157806338e3341f14610e785780633d3b686514610e265780633d891f5914610a455780634626402b14610dfd57806346e04a2f14610c3c5780634d798de514610abb5780635117e33814610a4557806356e25ef614610a285780635b7baf64146108a1578063715018a61461084857806373274b89146107905780638da5cb5b14610767578063a6d1bd1014610742578063a8602fea146106be578063c1cbbca7146102da578063e0155714146102ad578063f0f3f2c8146101ac5763f2fde38b1461011957600080fd5b346101a75760203660031901126101a757610132611a85565b61013a611b59565b6001600160a01b0390811690811561018e57600054826bffffffffffffffffffffffff60a01b821617600055167f8be0079c531659141344cd1fd0a4f28419497f9722a3daafe3b4186f6b6457e0600080a3005b604051631e4fbdf760e01b815260006004820152602490fd5b600080fd5b346101a75760203660031901126101a7576020600435801515806102a1575b6101d490611c11565b806000526004825260406000209061029d82549260018060a01b0392836001830154169360028301541691600c810154946008820154610276600984015492610268600d8601549561022a600e82015498611d5d565b98610243600461023c6003850161199f565b930161199f565b936040519e8f9e8f908152015260408d015260608c61016091829101528c0190611a45565b908a820360808c0152611a45565b9660a089015260c088015260e0870152610100860152610120850152610140840190611b36565b0390f35b506003548111156101cb565b346101a75760203660031901126101a75760206102cb600435611d5d565b6102d86040518092611b36565bf35b6020806003193601126101a7576004356102f2611bee565b80600052600482526040600020811515806106b2575b61031190611c11565b61032560ff600f83015460081c1615611c4f565b600d81015480421061067f57600e820154421161064a57600a820154341061061557600b820154908134116105e057610e1081018091116105ca5742106104f6575b826000526005845260406000203360005284526040600020549061038b3483611b85565b116104b157600c82019160096103a2348554611b85565b910154106104795715610413575b8160005260058352604060002033600052835260406000206103d3348254611b85565b90556103e0348254611b85565b90557f0a4a91237423e0a1766a761c7cb029311d8b95d6b1b81db1b949a70c98b4e08e604051923484523393a360018055005b816000526006835260406000208054680100000000000000008110156104635761044291600182018155611b08565b81546001600160a01b0360039290921b91821b19163390911b1790556103b0565b634e487b7160e01b600052604160045260246000fd5b60405162461bcd60e51b815260048101859052601060248201526f0457863656564732068617264206361760841b6044820152606490fd5b60405162461bcd60e51b815260048101859052601860248201527f45786365656473206d617820636f6e747269627574696f6e00000000000000006044820152606490fd5b6002546040516370a0823160e01b8152336004820152908590829060249082906001600160a01b03165afa80156105be57600090610587575b69010f0cf064dd59200000915010156103675760405162461bcd60e51b815260048101859052601e60248201527f4561726c792061636365737320726571756972657320356b20424c415a4500006044820152606490fd5b508481813d83116105b7575b61059d818361197d565b810103126101a75769010f0cf064dd59200000905161052f565b503d610593565b6040513d6000823e3d90fd5b634e487b7160e01b600052601160045260246000fd5b60405162461bcd60e51b815260048101869052600d60248201526c41626f7665206d6178696d756d60981b6044820152606490fd5b60405162461bcd60e51b815260048101859052600d60248201526c42656c6f77206d696e696d756d60981b6044820152606490fd5b60405162461bcd60e51b815260048101859052600d60248201526c105b1c9958591e48195b991959609a1b6044820152606490fd5b60405162461bcd60e51b815260048101859052600b60248201526a139bdd081cdd185c9d195960aa1b6044820152606490fd5b50600354821115610308565b346101a75760203660031901126101a7576106d7611a85565b6106df611b59565b6001600160a01b0316801561070b576bffffffffffffffffffffffff60a01b6007541617600755600080f35b60405162461bcd60e51b815260206004820152600f60248201526e496e76616c6964206164647265737360881b6044820152606490fd5b346101a75760003660031901126101a757602060405169010f0cf064dd592000008152f35b346101a75760003660031901126101a7576000546040516001600160a01b039091168152602090f35b346101a7576020806003193601126101a75760043560005260068152604060002060405190818382549182815201908192600052846000209060005b8682821061082b5786866107e28288038361197d565b604051928392818401908285525180915260408401929160005b82811061080b57505050500390f35b83516001600160a01b0316855286955093810193928101926001016107fc565b83546001600160a01b0316855290930192600192830192016107cc565b346101a75760003660031901126101a757610861611b59565b600080546001600160a01b0319811682556001600160a01b03167f8be0079c531659141344cd1fd0a4f28419497f9722a3daafe3b4186f6b6457e08280a3005b346101a7576020806003193601126101a7576004356108be611bee565b8060005260048252604060002060058352604060002033600052835260406000209082151580610a1c575b6108f290611c11565b600f81015460ff81169182610a08575b5081156109fa575b50156109c5578054801561091e8115611ccf565b60018301805460ff8160081c1661098d5761ff0019166101001790556000918291829182918290610984575b3390f1156105be575460405190815233927ff3f402280ef0a7905e124aa621b65eaeb2725c343e8b36d398ed78c29daf285c91a360018055005b506108fc61094a565b60405162461bcd60e51b815260048101889052601060248201526f105b1c9958591e481c99599d5b99195960821b6044820152606490fd5b60405162461bcd60e51b815260048101849052600d60248201526c10d85b9b9bdd081c99599d5b99609a1b6044820152606490fd5b60ff915060081c168461090a565b600c81015460089091015411915085610902565b506003548311156108e9565b346101a75760003660031901126101a7576020604051610e108152f35b346101a75760403660031901126101a757610a5e611a9b565b600435600052600560205260406000209060018060a01b03166000526020526040600020600181549101549061029d60405192839260ff808360081c16921690849192604091949360608401958452151560208401521515910152565b346101a75760203660031901126101a757600435610ad7611bee565b806000526004602052604060002081151580610c30575b610af790611c11565b600e810154421115610bfb57600f810160018154610b1860ff821615611c8f565b610b2860ff8260081c1615611c4f565b60ff1916179055600c810180546008830154811015610b48575b60018055005b60c8810281810460c814821517156105ca576127109004928382038281116105ca576001909101546001600160a01b03926000928392839283929187169083908a14610bf2575bf1156105be576000808085819460075416828215610be9575bf1156105be577f5042dbe01cefd07bdc53268262ecf7334048acf469986a59bf5f412bd277231191604091549082519182526020820152a280808080610b42565b506108fc610ba8565b506108fc610b8f565b60405162461bcd60e51b815260206004820152600d60248201526c139bdd08195b991959081e595d609a1b6044820152606490fd5b50600354821115610aee565b346101a7576020806003193601126101a757600435610c59611bee565b806000526004825260406000209160058152604060002033600052815260406000209082151580610df1575b610c8e90611c11565b60ff600f8501541615610dbd57600c840154600885015411610d8b578154916001831591610cbc8315611ccf565b01805460ff8116610d545760ff19166001179055670de0b6b3a76400008381029384041417156105ca576006840154918215610d3e577f880f2ef2613b092f1a0a819f294155c98667eb294b7e6bf7a3810278142c1a1c92610d2f910480953390600260018060a01b0391015416611d0d565b6040519384523393a360018055005b634e487b7160e01b600052601260045260246000fd5b60405162461bcd60e51b815260048101859052600f60248201526e105b1c9958591e4818db185a5b5959608a1b6044820152606490fd5b6064906040519062461bcd60e51b82526004820152600b60248201526a14d85b194819985a5b195960aa1b6044820152fd5b6064906040519062461bcd60e51b82526004820152600d60248201526c139bdd08199a5b985b1a5e9959609a1b6044820152fd5b50600354831115610c85565b346101a75760003660031901126101a7576007546040516001600160a01b039091168152602090f35b346101a75760403660031901126101a7576024356004356000526006602052604060002080548210156101a757602091610e5f91611b08565b905460405160039290921b1c6001600160a01b03168152f35b346101a75760003660031901126101a7576002546040516001600160a01b039091168152602090f35b346101a75760003660031901126101a7576020600354604051908152f35b346101a75760003660031901126101a757602060405160c88152f35b346101a75760203660031901126101a75760043580600052600460205260406000208115158061101e575b610f0f90611c11565b60018101546001600160a01b039081163381148015611011575b15610fdb57600f83018054610f4160ff821615611c8f565b60ff8160081c16610fa25761ff00191661010017905560078301549182610f8b575b847fe3805ed669490875ae87c5c8b1ad6ecca0e5e67305a833926d0d4317c4822fc0600080a2005b6002610f9994015416611d0d565b81808080610f63565b60405162461bcd60e51b8152602060048201526011602482015270105b1c9958591e4818d85b98d95b1b1959607a1b6044820152606490fd5b60405162461bcd60e51b815260206004820152600e60248201526d139bdd08185d5d1a1bdc9a5e995960921b6044820152606490fd5b5081600054163314610f29565b50600354821115610f06565b346101a7576101803660031901126101a757611044611a85565b60243567ffffffffffffffff81116101a757611064903690600401611ab1565b60443567ffffffffffffffff81116101a757611084903690600401611ab1565b9160643567ffffffffffffffff81116101a7576110a5903690600401611ab1565b926110ae611bee565b6001600160a01b038216156117a35782511561176e5760a435156117295760c43515158061171c575b156116e85761010435156116a35761010435610124351061165e57426101443510611624576201518061016435106115ea576040516323b872dd60e01b602082015233602482015230604482015260a43560648201526064815260a081019080821067ffffffffffffffff83111761046357604091909152611162906001600160a01b038416611b92565b6003549260001984146105ca5760018481016003819055600081815260046020526040902090815590810180546001600160a01b031990811633179091556002820180549091166001600160a01b038616179055815190929067ffffffffffffffff8111610463576111d76003850154611943565b601f81116115a3575b50806020601f82116001146115365760009161152b575b508160011b916000199060031b1c19161760038401555b80519067ffffffffffffffff821161046357819061122f6004860154611943565b601f81116114d8575b50602090601f83116001146114665760009261145b575b50508160011b916000199060031b1c19161760048301555b845167ffffffffffffffff8111610463576112856005840154611943565b95601f8711611414575b602096508690601f83116001146113a25761134d93929160009183611397575b50508160011b916000199060031b1c19161760058401555b608435600684015560a435600784015560c435600884015560e435600984015561010435600a84015561012435600b8401556000600c84015561014435600d840155600f61131b6101643561014435611b85565b600e85018190559301805461ffff191690556040516001600160a01b0390941684526080868501819052840190611a45565b9061014435604084015260608301527f49a3f53cddf4d3883291c8aed22f133a1a2e56aefa286170b9bde9796d9ac7f933928060018601930390a360018055600160405191018152f35b0151905088806112af565b9060058501600052876000209160005b601f19851681106113fd575091839160019361134d9695601f198116106113e4575b505050811b0160058401556112c7565b015160001960f88460031b161c191690558880806113d4565b9192896001819286850151815501940192016113b2565b600584016000526020600020601f830160051c810160208410611454575b601f890160051c8201811061144857505061128f565b60008155600101611432565b5080611432565b01519050878061124f565b9250600485016000526020600020906000935b601f19841685106114bd576001945083601f198116106114a4575b505050811b016004830155611267565b015160001960f88460031b161c19169055878080611494565b81810151835560209485019460019093019290910190611479565b909150600485016000526020600020601f840160051c810160208510611524575b90849392915b601f830160051c82018110611515575050611238565b600081558594506001016114ff565b50806114f9565b9050830151886111f7565b91506003850160005260206000206000925b601f198316841061158b576001935082601f19811610611572575b5050811b01600384015561120e565b85015160001960f88460031b161c191690558880611563565b85810151825560209384019360019092019101611548565b600385016000526020600020601f830160051c8101602084106115e3575b601f830160051c820181106115d75750506111e0565b600081556001016115c1565b50806115c1565b60405162461bcd60e51b8152602060048201526012602482015271111d5c985d1a5bdb881d1bdbc81cda1bdc9d60721b6044820152606490fd5b60405162461bcd60e51b8152602060048201526012602482015271496e76616c69642073746172742074696d6560701b6044820152606490fd5b60405162461bcd60e51b815260206004820152601860248201527f496e76616c6964206d617820636f6e747269627574696f6e00000000000000006044820152606490fd5b60405162461bcd60e51b815260206004820152601960248201527f4d696e20636f6e747269627574696f6e207265717569726564000000000000006044820152606490fd5b60405162461bcd60e51b815260206004820152600c60248201526b496e76616c6964206361707360a01b6044820152606490fd5b5060c43560e435116110d7565b60405162461bcd60e51b815260206004820152601860248201527f546f6b656e7320666f722073616c6520726571756972656400000000000000006044820152606490fd5b60405162461bcd60e51b815260206004820152600d60248201526c13985b59481c995c5d5a5c9959609a1b6044820152606490fd5b60405162461bcd60e51b8152602060048201526015602482015274496e76616c696420746f6b656e206164647265737360581b6044820152606490fd5b346101a75760203660031901126101a757600480356000908152602091909152604090208054600182015460028301546001600160a01b0390811693911661182a6003830161199f565b936118376004840161199f565b946118446005850161199f565b956006850154966007860154600887015490600988015492600a89015494600b8a015496600c8b015498600d8c01549a600e8d01549c600f01549d604051806080525260805160200152608051604001526102208060805160600152608051016118ad91611a45565b60805180820390608001526118c191611a45565b6080518082039060a001526118d591611a45565b9960805160c0015260805160e00152608051610100015260805161012001526080516101400152608051610160015260805161018001526080516101a001526080516101c0015260ff811615156080516101e0015260081c60ff161515608051610200015260805180910390f35b90600182811c92168015611973575b602083101461195d57565b634e487b7160e01b600052602260045260246000fd5b91607f1691611952565b90601f8019910116810190811067ffffffffffffffff82111761046357604052565b90604051918260008254926119b384611943565b908184526001948581169081600014611a2257506001146119df575b50506119dd9250038361197d565b565b9093915060005260209081600020936000915b818310611a0a5750506119dd935082010138806119cf565b855488840185015294850194879450918301916119f2565b9150506119dd94506020925060ff191682840152151560051b82010138806119cf565b919082519283825260005b848110611a71575050826000602080949584010152601f8019910116010190565b602081830181015184830182015201611a50565b600435906001600160a01b03821682036101a757565b602435906001600160a01b03821682036101a757565b81601f820112156101a75780359067ffffffffffffffff82116104635760405192611ae6601f8401601f19166020018561197d565b828452602083830101116101a757816000926020809301838601378301015290565b8054821015611b205760005260206000200190600090565b634e487b7160e01b600052603260045260246000fd5b906006821015611b435752565b634e487b7160e01b600052602160045260246000fd5b6000546001600160a01b03163303611b6d57565b60405163118cdaa760e01b8152336004820152602490fd5b919082018092116105ca57565b906000602091828151910182855af1156105be576000513d611be557506001600160a01b0381163b155b611bc35750565b604051635274afe760e01b81526001600160a01b039091166004820152602490fd5b60011415611bbc565b600260015414611bff576002600155565b604051633ee5aeb560e01b8152600490fd5b15611c1857565b60405162461bcd60e51b815260206004820152600f60248201526e125b9d985b1a59081c1c9bda9958dd608a1b6044820152606490fd5b15611c5657565b60405162461bcd60e51b8152602060048201526011602482015270141c9bda9958dd0818d85b98d95b1b1959607a1b6044820152606490fd5b15611c9657565b60405162461bcd60e51b8152602060048201526011602482015270105b1c9958591e48199a5b985b1a5e9959607a1b6044820152606490fd5b15611cd657565b60405162461bcd60e51b815260206004820152600f60248201526e27379031b7b73a3934b13aba34b7b760891b6044820152606490fd5b60405163a9059cbb60e01b60208201526001600160a01b039092166024830152604480830193909352918152608081019167ffffffffffffffff831182841017610463576119dd92604052611b92565b80151580611dec575b611d6f90611c11565b60005260046020526040600020600f81015460ff8160081c16611de55760ff16611dd057600d8101544210611dca57600e810154421115611dc457600c81015460089091015411611dbf57600390565b600290565b50600190565b50600090565b600c81015460089091015411611dbf57600390565b5050600590565b50600354811115611d6656fea26469706673582212208de27e0ee793ae912049bcc8331421c179b7ef3c7618ed19bd6ad8c39ea18be764736f6c63430008140033",
  "linkReferences": {},
  "deployedLinkReferences": {}
}