{
  "_format": "hh-sol-artifact-1",
  "contractName": "BlazePresale",
  "sourceName": "contracts/BlazePresale.sol",
  "abi": [
    {
      "inputs": [
        {
          "internalType": "address",
          "name": "_liquidityWallet",
          "type": "address"
        },
        {
          "internalType": "address",
          "name": "_operationalWallet",
          "type": "address"
        }
      ],
      "stateMutability": "nonpayable",
      "type": "constructor"
    },
    {
      "inputs": [
        {
          "internalType": "address",
          "name": "owner",
          "type": "address"
        }
      ],
      "name": "OwnableInvalidOwner",
      "type": "error"
    },
    {
      "inputs": [
        {
          "internalType": "address",
          "name": "account",
          "type": "address"
        }
      ],
      "name": "OwnableUnauthorizedAccount",
      "type": "error"
    },
    {
      "inputs": [],
      "name": "ReentrancyGuardReentrantCall",
      "type": "error"
    },
    {
      "anonymous": false,
      "inputs": [
        {
          "indexed": true,
          "internalType": "address",
          "name": "contributor",
          "type": "address"
        },
        {
          "indexed": false,
          "internalType": "uint256",
          "name": "amount",
          "type": "uint256"
        },
        {
          "indexed": false,
          "internalType": "uint256",
          "name": "tokens",
          "type": "uint256"
        }
      ],
      "name": "ContributionReceived",
      "type": "event"
    },
    {
      "anonymous": false,
      "inputs": [
        {
          "indexed": true,
          "internalType": "address",
          "name": "previousOwner",
          "type": "address"
        },
        {
          "indexed": true,
          "internalType": "address",
          "name": "newOwner",
          "type": "address"
        }
      ],
      "name": "OwnershipTransferred",
      "type": "event"
    },
    {
      "anonymous": false,
      "inputs": [
        {
          "indexed": false,
          "internalType": "uint256",
          "name": "totalRaised",
          "type": "uint256"
        },
        {
          "indexed": false,
          "internalType": "uint256",
          "name": "liquidityAmount",
          "type": "uint256"
        },
        {
          "indexed": false,
          "internalType": "uint256",
          "name": "operationalAmount",
          "type": "uint256"
        }
      ],
      "name": "PresaleFinalized",
      "type": "event"
    },
    {
      "anonymous": false,
      "inputs": [
        {
          "indexed": false,
          "internalType": "uint256",
          "name": "startTime",
          "type": "uint256"
        },
        {
          "indexed": false,
          "internalType": "uint256",
          "name": "endTime",
          "type": "uint256"
        }
      ],
      "name": "PresaleStarted",
      "type": "event"
    },
    {
      "anonymous": false,
      "inputs": [
        {
          "indexed": true,
          "internalType": "address",
          "name": "participant",
          "type": "address"
        },
        {
          "indexed": false,
          "internalType": "uint256",
          "name": "amount",
          "type": "uint256"
        }
      ],
      "name": "RefundIssued",
      "type": "event"
    },
    {
      "anonymous": false,
      "inputs": [
        {
          "indexed": true,
          "internalType": "address",
          "name": "participant",
          "type": "address"
        },
        {
          "indexed": false,
          "internalType": "uint256",
          "name": "amount",
          "type": "uint256"
        }
      ],
      "name": "TokensClaimed",
      "type": "event"
    },
    {
      "inputs": [],
      "name": "HARD_CAP",
      "outputs": [
        {
          "internalType": "uint256",
          "name": "",
          "type": "uint256"
        }
      ],
      "stateMutability": "view",
      "type": "function"
    },
    {
      "inputs": [],
      "name": "MAX_CONTRIBUTION",
      "outputs": [
        {
          "internalType": "uint256",
          "name": "",
          "type": "uint256"
        }
      ],
      "stateMutability": "view",
      "type": "function"
    },
    {
      "inputs": [],
      "name": "MIN_CONTRIBUTION",
      "outputs": [
        {
          "internalType": "uint256",
          "name": "",
          "type": "uint256"
        }
      ],
      "stateMutability": "view",
      "type": "function"
    },
    {
      "inputs": [],
      "name": "SOFT_CAP",
      "outputs": [
        {
          "internalType": "uint256",
          "name": "",
          "type": "uint256"
        }
      ],
      "stateMutability": "view",
      "type": "function"
    },
    {
      "inputs": [],
      "name": "TOKENS_FOR_SALE",
      "outputs": [
        {
          "internalType": "uint256",
          "name": "",
          "type": "uint256"
        }
      ],
      "stateMutability": "view",
      "type": "function"
    },
    {
      "inputs": [],
      "name": "TOKEN_PRICE",
      "outputs": [
        {
          "internalType": "uint256",
          "name": "",
          "type": "uint256"
        }
      ],
      "stateMutability": "view",
      "type": "function"
    },
    {
      "inputs": [],
      "name": "claimRefund",
      "outputs": [],
      "stateMutability": "nonpayable",
      "type": "function"
    },
    {
      "inputs": [],
      "name": "claimTokens",
      "outputs": [],
      "stateMutability": "nonpayable",
      "type": "function"
    },
    {
      "inputs": [],
      "name": "contribute",
      "outputs": [],
      "stateMutability": "payable",
      "type": "function"
    },
    {
      "inputs": [
        {
          "internalType": "address",
          "name": "",
          "type": "address"
        }
      ],
      "name": "contributions",
      "outputs": [
        {
          "internalType": "uint256",
          "name": "",
          "type": "uint256"
        }
      ],
      "stateMutability": "view",
      "type": "function"
    },
    {
      "inputs": [],
      "name": "emergencyEndPresale",
      "outputs": [],
      "stateMutability": "nonpayable",
      "type": "function"
    },
    {
      "inputs": [],
      "name": "endTime",
      "outputs": [
        {
          "internalType": "uint256",
          "name": "",
          "type": "uint256"
        }
      ],
      "stateMutability": "view",
      "type": "function"
    },
    {
      "inputs": [],
      "name": "finalizePresale",
      "outputs": [],
      "stateMutability": "nonpayable",
      "type": "function"
    },
    {
      "inputs": [],
      "name": "getParticipants",
      "outputs": [
        {
          "internalType": "address[]",
          "name": "",
          "type": "address[]"
        }
      ],
      "stateMutability": "view",
      "type": "function"
    },
    {
      "inputs": [],
      "name": "getPresaleInfo",
      "outputs": [
        {
          "internalType": "bool",
          "name": "active",
          "type": "bool"
        },
        {
          "internalType": "bool",
          "name": "finalized",
          "type": "bool"
        },
        {
          "internalType": "uint256",
          "name": "raised",
          "type": "uint256"
        },
        {
          "internalType": "uint256",
          "name": "tokensSold",
          "type": "uint256"
        },
        {
          "internalType": "uint256",
          "name": "participantCount",
          "type": "uint256"
        },
        {
          "internalType": "uint256",
          "name": "timeRemaining",
          "type": "uint256"
        }
      ],
      "stateMutability": "view",
      "type": "function"
    },
    {
      "inputs": [
        {
          "internalType": "address",
          "name": "user",
          "type": "address"
        }
      ],
      "name": "getUserInfo",
      "outputs": [
        {
          "internalType": "uint256",
          "name": "contribution",
          "type": "uint256"
        },
        {
          "internalType": "uint256",
          "name": "tokenAllocation",
          "type": "uint256"
        },
        {
          "internalType": "bool",
          "name": "claimed",
          "type": "bool"
        }
      ],
      "stateMutability": "view",
      "type": "function"
    },
    {
      "inputs": [
        {
          "internalType": "address",
          "name": "",
          "type": "address"
        }
      ],
      "name": "hasClaimed",
      "outputs": [
        {
          "internalType": "bool",
          "name": "",
          "type": "bool"
        }
      ],
      "stateMutability": "view",
      "type": "function"
    },
    {
      "inputs": [],
      "name": "liquidityWallet",
      "outputs": [
        {
          "internalType": "address",
          "name": "",
          "type": "address"
        }
      ],
      "stateMutability": "view",
      "type": "function"
    },
    {
      "inputs": [],
      "name": "operationalWallet",
      "outputs": [
        {
          "internalType": "address",
          "name": "",
          "type": "address"
        }
      ],
      "stateMutability": "view",
      "type": "function"
    },
    {
      "inputs": [],
      "name": "owner",
      "outputs": [
        {
          "internalType": "address",
          "name": "",
          "type": "address"
        }
      ],
      "stateMutability": "view",
      "type": "function"
    },
    {
      "inputs": [
        {
          "internalType": "uint256",
          "name": "",
          "type": "uint256"
        }
      ],
      "name": "participants",
      "outputs": [
        {
          "internalType": "address",
          "name": "",
          "type": "address"
        }
      ],
      "stateMutability": "view",
      "type": "function"
    },
    {
      "inputs": [],
      "name": "presaleActive",
      "outputs": [
        {
          "internalType": "bool",
          "name": "",
          "type": "bool"
        }
      ],
      "stateMutability": "view",
      "type": "function"
    },
    {
      "inputs": [],
      "name": "presaleFinalized",
      "outputs": [
        {
          "internalType": "bool",
          "name": "",
          "type": "bool"
        }
      ],
      "stateMutability": "view",
      "type": "function"
    },
    {
      "inputs": [],
      "name": "renounceOwnership",
      "outputs": [],
      "stateMutability": "nonpayable",
      "type": "function"
    },
    {
      "inputs": [
        {
          "internalType": "address",
          "name": "_tokenAddress",
          "type": "address"
        }
      ],
      "name": "setTokenAddress",
      "outputs": [],
      "stateMutability": "nonpayable",
      "type": "function"
    },
    {
      "inputs": [
        {
          "internalType": "uint256",
          "name": "durationInDays",
          "type": "uint256"
        }
      ],
      "name": "startPresale",
      "outputs": [],
      "stateMutability": "nonpayable",
      "type": "function"
    },
    {
      "inputs": [],
      "name": "startTime",
      "outputs": [
        {
          "internalType": "uint256",
          "name": "",
          "type": "uint256"
        }
      ],
      "stateMutability": "view",
      "type": "function"
    },
    {
      "inputs": [],
      "name": "tokenAddress",
      "outputs": [
        {
          "internalType": "address",
          "name": "",
          "type": "address"
        }
      ],
      "stateMutability": "view",
      "type": "function"
    },
    {
      "inputs": [
        {
          "internalType": "address",
          "name": "",
          "type": "address"
        }
      ],
      "name": "tokenAllocations",
      "outputs": [
        {
          "internalType": "uint256",
          "name": "",
          "type": "uint256"
        }
      ],
      "stateMutability": "view",
      "type": "function"
    },
    {
      "inputs": [],
      "name": "totalRaised",
      "outputs": [
        {
          "internalType": "uint256",
          "name": "",
          "type": "uint256"
        }
      ],
      "stateMutability": "view",
      "type": "function"
    },
    {
      "inputs": [],
      "name": "totalTokensSold",
      "outputs": [
        {
          "internalType": "uint256",
          "name": "",
          "type": "uint256"
        }
      ],
      "stateMutability": "view",
      "type": "function"
    },
    {
      "inputs": [
        {
          "internalType": "address",
          "name": "newOwner",
          "type": "address"
        }
      ],
      "name": "transferOwnership",
      "outputs": [],
      "stateMutability": "nonpayable",
      "type": "function"
    },
    {
      "inputs": [],
      "name": "withdrawRemainingTokens",
      "outputs": [],
      "stateMutability": "nonpayable",
      "type": "function"
    },
    {
      "stateMutability": "payable",
      "type": "receive"
    }
  ],
  "bytecode": "0x60806040523480156200001157600080fd5b5060405162001bf638038062001bf68339810160408190526200003491620001bb565b33806200005c57604051631e4fbdf760e01b8152600060048201526024015b60405180910390fd5b62000067816200014e565b50600180556001600160a01b038216620000c45760405162461bcd60e51b815260206004820152601860248201527f496e76616c6964206c69717569646974792077616c6c65740000000000000000604482015260640162000053565b6001600160a01b0381166200011c5760405162461bcd60e51b815260206004820152601a60248201527f496e76616c6964206f7065726174696f6e616c2077616c6c6574000000000000604482015260640162000053565b600780546001600160a01b039384166001600160a01b03199182161790915560088054929093169116179055620001f3565b600080546001600160a01b038381166001600160a01b0319831681178455604051919092169283917f8be0079c531659141344cd1fd0a4f28419497f9722a3daafe3b4186f6b6457e09190a35050565b80516001600160a01b0381168114620001b657600080fd5b919050565b60008060408385031215620001cf57600080fd5b620001da836200019e565b9150620001ea602084016200019e565b90509250929050565b6119f380620002036000396000f3fe6080604052600436106101f25760003560e01c806378e979251161010d578063b12358c3116100a0578063c8612b2f1161006f578063c8612b2f14610621578063d2d8cb6714610640578063d46980161461065b578063d7bb99ba1461067b578063f2fde38b1461068357600080fd5b8063b12358c3146105c4578063b5545a3c146105d9578063b652dc2f146105ee578063c5c4744c1461060b57600080fd5b806394d95f8f116100dc57806394d95f8f146105535780639d76ea581461056f578063a0a6e9401461058f578063a132aad1146105a457600080fd5b806378e97925146104ea5780637c2497ad146105005780638afbf669146105205780638da5cb5b1461053557600080fd5b806353135ca0116101855780636d498093116101545780636d49809314610442578063715018a61461046157806373b2e80e14610476578063767fa723146104a657600080fd5b806353135ca0146103735780635aa68ac01461039d5780636386c1c7146103bf57806363b201171461042c57600080fd5b80633a03171c116101c15780633a03171c146102f957806340650c911461031657806342e94c901461033157806348c54b9d1461035e57600080fd5b80630b6d621c1461024957806326a4e8d2146102895780633197cbb6146102ab57806335c1d349146102c157600080fd5b366102445760405162461bcd60e51b815260206004820152601960248201527f55736520636f6e7472696275746528292066756e6374696f6e0000000000000060448201526064015b60405180910390fd5b600080fd5b34801561025557600080fd5b50610276610264366004611816565b600b6020526000908152604090205481565b6040519081526020015b60405180910390f35b34801561029557600080fd5b506102a96102a4366004611816565b6106a3565b005b3480156102b757600080fd5b5061027660065481565b3480156102cd57600080fd5b506102e16102dc366004611846565b610768565b6040516001600160a01b039091168152602001610280565b34801561030557600080fd5b50610276682d2cd2bb7a3985555581565b34801561032257600080fd5b50610276663b363eba41aaaa81565b34801561033d57600080fd5b5061027661034c366004611816565b600a6020526000908152604090205481565b34801561036a57600080fd5b506102a9610792565b34801561037f57600080fd5b5060025461038d9060ff1681565b6040519015158152602001610280565b3480156103a957600080fd5b506103b26109b3565b604051610280919061185f565b3480156103cb57600080fd5b5061040f6103da366004611816565b6001600160a01b03166000908152600a6020908152604080832054600b835281842054600c9093529220549192909160ff1690565b604080519384526020840192909252151590820152606001610280565b34801561043857600080fd5b5061027660045481565b34801561044e57600080fd5b5060025461038d90610100900460ff1681565b34801561046d57600080fd5b506102a9610a15565b34801561048257600080fd5b5061038d610491366004611816565b600c6020526000908152604090205460ff1681565b3480156104b257600080fd5b506104bb610a27565b6040805196151587529415156020870152938501929092526060840152608083015260a082015260c001610280565b3480156104f657600080fd5b5061027660055481565b34801561050c57600080fd5b506008546102e1906001600160a01b031681565b34801561052c57600080fd5b506102a9610a70565b34801561054157600080fd5b506000546001600160a01b03166102e1565b34801561055f57600080fd5b5061027667e74be5079082aaaa81565b34801561057b57600080fd5b506009546102e1906001600160a01b031681565b34801561059b57600080fd5b506102a9610d15565b3480156105b057600080fd5b506102a96105bf366004611846565b610da4565b3480156105d057600080fd5b506102a9610f01565b3480156105e557600080fd5b506102a9610f37565b3480156105fa57600080fd5b50610276680908f6f24ba51aaaaa81565b34801561061757600080fd5b5061027660035481565b34801561062d57600080fd5b506102766a6342fd08f00f637800000081565b34801561064c57600080fd5b50610276660ed097c8b6a00081565b34801561066757600080fd5b506007546102e1906001600160a01b031681565b6102a9611151565b34801561068f57600080fd5b506102a961069e366004611816565b6114c0565b6106ab6114fe565b6009546001600160a01b0316156106f85760405162461bcd60e51b8152602060048201526011602482015270151bdad95b88185b1c9958591e481cd95d607a1b604482015260640161023b565b6001600160a01b0381166107465760405162461bcd60e51b8152602060048201526015602482015274496e76616c696420746f6b656e206164647265737360581b604482015260640161023b565b600980546001600160a01b0319166001600160a01b0392909216919091179055565b600d818154811061077857600080fd5b6000918252602090912001546001600160a01b0316905081565b61079a61152b565b600254610100900460ff166107e95760405162461bcd60e51b8152602060048201526015602482015274141c995cd85b19481b9bdd08199a5b985b1a5e9959605a1b604482015260640161023b565b336000908152600c602052604090205460ff161561083b5760405162461bcd60e51b815260206004820152600f60248201526e105b1c9958591e4818db185a5b5959608a1b604482015260640161023b565b336000908152600b602052604090205461088c5760405162461bcd60e51b81526020600482015260126024820152714e6f20746f6b656e7320746f20636c61696d60701b604482015260640161023b565b336000818152600b6020908152604080832054600c90925291829020805460ff19166001179055600954915163a9059cbb60e01b8152600481019390935260248301819052916001600160a01b0390911690819063a9059cbb906044016020604051808303816000875af1158015610908573d6000803e3d6000fd5b505050506040513d601f19601f8201168201806040525081019061092c91906118ac565b6109705760405162461bcd60e51b8152602060048201526015602482015274151bdad95b881d1c985b9cd9995c8819985a5b1959605a1b604482015260640161023b565b60405182815233907f896e034966eaaf1adc54acc0f257056febbd300c9e47182cf761982cf1f5e430906020015b60405180910390a250506109b160018055565b565b6060600d805480602002602001604051908101604052809291908181526020018280548015610a0b57602002820191906000526020600020905b81546001600160a01b031681526001909101906020018083116109ed575b5050505050905090565b610a1d6114fe565b6109b16000611555565b600254600354600454600d5460065460ff80861695610100900416939291906000904210610a5757506000610a68565b42600654610a6591906118e4565b90505b909192939495565b610a786114fe565b600254610100900460ff16610ac75760405162461bcd60e51b8152602060048201526015602482015274141c995cd85b19481b9bdd08199a5b985b1a5e9959605a1b604482015260640161023b565b6009546040516370a0823160e01b81523060048201526001600160a01b039091169060009082906370a0823190602401602060405180830381865afa158015610b14573d6000803e3d6000fd5b505050506040513d601f19601f82011682018060405250810190610b3891906118fd565b90506000805b600d54811015610be657600c6000600d8381548110610b5f57610b5f611916565b60009182526020808320909101546001600160a01b0316835282019290925260400190205460ff16610bd457600b6000600d8381548110610ba257610ba2611916565b60009182526020808320909101546001600160a01b03168352820192909252604001902054610bd1908361192c565b91505b80610bde8161193f565b915050610b3e565b506000610bf382846118e4565b905060008111610c3d5760405162461bcd60e51b81526020600482015260156024820152744e6f20746f6b656e7320746f20776974686472617760581b604482015260640161023b565b836001600160a01b031663a9059cbb610c5e6000546001600160a01b031690565b6040516001600160e01b031960e084901b1681526001600160a01b039091166004820152602481018490526044016020604051808303816000875af1158015610cab573d6000803e3d6000fd5b505050506040513d601f19601f82011682018060405250810190610ccf91906118ac565b610d0f5760405162461bcd60e51b815260206004820152601160248201527015da5d1a191c985dd85b0819985a5b1959607a1b604482015260640161023b565b50505050565b610d1d6114fe565b60025460ff16610d3f5760405162461bcd60e51b815260040161023b90611958565b600654421180610d5a5750682d2cd2bb7a3985555560035410155b610d9c5760405162461bcd60e51b815260206004820152601360248201527210d85b9b9bdd08199a5b985b1a5e99481e595d606a1b604482015260640161023b565b6109b16115a5565b610dac6114fe565b60025460ff1615610df85760405162461bcd60e51b815260206004820152601660248201527550726573616c6520616c72656164792061637469766560501b604482015260640161023b565b6009546001600160a01b0316610e405760405162461bcd60e51b815260206004820152600d60248201526c151bdad95b881b9bdd081cd95d609a1b604482015260640161023b565b600081118015610e515750605a8111155b610e905760405162461bcd60e51b815260206004820152601060248201526f24b73b30b634b210323ab930ba34b7b760811b604482015260640161023b565b6002805460ff1916600117905542600555610eae8162015180611984565b610eb8904261192c565b60068190556005546040517f884f0ecd854b5bcb742f0156e594094458bddc3f2cc8c9e4048a7cedfa6f01cc92610ef6928252602082015260400190565b60405180910390a150565b610f096114fe565b60025460ff16610f2b5760405162461bcd60e51b815260040161023b90611958565b6002805460ff19169055565b610f3f61152b565b60025460ff1615610f895760405162461bcd60e51b815260206004820152601460248201527350726573616c65207374696c6c2061637469766560601b604482015260640161023b565b6006544211610fce5760405162461bcd60e51b8152602060048201526011602482015270141c995cd85b19481b9bdd08195b991959607a1b604482015260640161023b565b680908f6f24ba51aaaaa600354106110285760405162461bcd60e51b815260206004820152601c60248201527f536f66742063617020726561636865642c206e6f20726566756e647300000000604482015260640161023b565b336000908152600a60205260409020546110845760405162461bcd60e51b815260206004820152601960248201527f4e6f20636f6e747269627574696f6e20746f20726566756e6400000000000000604482015260640161023b565b336000818152600a6020526040808220805490839055905190929083908381818185875af1925050503d80600081146110d9576040519150601f19603f3d011682016040523d82523d6000602084013e6110de565b606091505b505090508061111f5760405162461bcd60e51b815260206004820152600d60248201526c1499599d5b990819985a5b1959609a1b604482015260640161023b565b60405182815233907fa171b6942063c6f2800ce40a780edce37baa2b618571b11eedd1e69e626e7d769060200161099e565b61115961152b565b60025460ff1661117b5760405162461bcd60e51b815260040161023b90611958565b600554421015801561118f57506006544211155b6111db5760405162461bcd60e51b815260206004820152601760248201527f50726573616c65206e6f7420696e2070726f6772657373000000000000000000604482015260640161023b565b663b363eba41aaaa3410156112325760405162461bcd60e51b815260206004820152601a60248201527f42656c6f77206d696e696d756d20636f6e747269627574696f6e000000000000604482015260640161023b565b336000908152600a602052604090205467e74be5079082aaaa9061125790349061192c565b11156112a55760405162461bcd60e51b815260206004820152601c60248201527f45786365656473206d6178696d756d20636f6e747269627574696f6e00000000604482015260640161023b565b682d2cd2bb7a39855555346003546112bd919061192c565b11156112fe5760405162461bcd60e51b815260206004820152601060248201526f12185c990818d85c081c995858da195960821b604482015260640161023b565b6000660ed097c8b6a00061131a34670de0b6b3a7640000611984565b611324919061199b565b90506a6342fd08f00f637800000081600454611340919061192c565b111561138e5760405162461bcd60e51b815260206004820152601b60248201527f4e6f7420656e6f75676820746f6b656e7320617661696c61626c650000000000604482015260640161023b565b336000908152600a602052604081205490036113e757600d80546001810182556000919091527fd7b6990105719101dabeb77144f2a3385c8033acd3af97e9423a695e81ad1eb50180546001600160a01b031916331790555b336000908152600a60205260408120805434929061140690849061192c565b9091555050336000908152600b60205260408120805483929061142a90849061192c565b925050819055503460036000828254611443919061192c565b92505081905550806004600082825461145c919061192c565b9091555050604080513481526020810183905233917fd2dff949d20e874cc6ba1dcefb840fb8cf6000a4197bfb69accfea5a32443ff5910160405180910390a2682d2cd2bb7a39855555600354106114b6576114b66115a5565b506109b160018055565b6114c86114fe565b6001600160a01b0381166114f257604051631e4fbdf760e01b81526000600482015260240161023b565b6114fb81611555565b50565b6000546001600160a01b031633146109b15760405163118cdaa760e01b815233600482015260240161023b565b60026001540361154e57604051633ee5aeb560e01b815260040160405180910390fd5b6002600155565b600080546001600160a01b038381166001600160a01b0319831681178455604051919092169283917f8be0079c531659141344cd1fd0a4f28419497f9722a3daafe3b4186f6b6457e09190a35050565b600254610100900460ff16156115f15760405162461bcd60e51b8152602060048201526011602482015270105b1c9958591e48199a5b985b1a5e9959607a1b604482015260640161023b565b680908f6f24ba51aaaaa60035410156116435760405162461bcd60e51b815260206004820152601460248201527314dbd99d0818d85c081b9bdd081c995858da195960621b604482015260640161023b565b6002805461ffff191661010017905560035460009060649061166690603c611984565b611670919061199b565b905060008160035461168291906118e4565b6007546040519192506000916001600160a01b039091169084908381818185875af1925050503d80600081146116d4576040519150601f19603f3d011682016040523d82523d6000602084013e6116d9565b606091505b505090508061172a5760405162461bcd60e51b815260206004820152601960248201527f4c6971756964697479207472616e73666572206661696c656400000000000000604482015260640161023b565b6008546040516000916001600160a01b03169084908381818185875af1925050503d8060008114611777576040519150601f19603f3d011682016040523d82523d6000602084013e61177c565b606091505b50509050806117cd5760405162461bcd60e51b815260206004820152601b60248201527f4f7065726174696f6e616c207472616e73666572206661696c65640000000000604482015260640161023b565b600354604080519182526020820186905281018490527fd4294f2e03dfa3f368c60ae6950d6e90c37101953b6aa279269459a9517f106e9060600160405180910390a150505050565b60006020828403121561182857600080fd5b81356001600160a01b038116811461183f57600080fd5b9392505050565b60006020828403121561185857600080fd5b5035919050565b6020808252825182820181905260009190848201906040850190845b818110156118a05783516001600160a01b03168352928401929184019160010161187b565b50909695505050505050565b6000602082840312156118be57600080fd5b8151801515811461183f57600080fd5b634e487b7160e01b600052601160045260246000fd5b818103818111156118f7576118f76118ce565b92915050565b60006020828403121561190f57600080fd5b5051919050565b634e487b7160e01b600052603260045260246000fd5b808201808211156118f7576118f76118ce565b600060018201611951576119516118ce565b5060010190565b60208082526012908201527150726573616c65206e6f742061637469766560701b604082015260600190565b80820281158282048414176118f7576118f76118ce565b6000826119b857634e487b7160e01b600052601260045260246000fd5b50049056fea2646970667358221220d9930473dd4af0b4ea53cbbf40cabb335119cfc2c0ed06c5b6449b86f1fa53c764736f6c63430008140033",
  "linkReferences": {},
  "deployedLinkReferences": {}
}