{
  "_format": "hh-sol-artifact-1",
  "contractName": "BlazeToken",
  "sourceName": "contracts/BlazeToken.sol",
  "abi": [
    {
      "inputs": [
        {
          "internalType": "address",
          "name": "_publicSaleWallet",
          "type": "address"
        },
        {
          "internalType": "address",
          "name": "_founderWallet",
          "type": "address"
        },
        {
          "internalType": "address",
          "name": "_communityWallet",
          "type": "address"
        },
        {
          "internalType": "address",
          "name": "_treasuryWallet",
          "type": "address"
        },
        {
          "internalType": "address",
          "name": "_teamWallet",
          "type": "address"
        },
        {
          "internalType": "address",
          "name": "_strategicWallet",
          "type": "address"
        },
        {
          "internalType": "address",
          "name": "_liquidityWallet",
          "type": "address"
        }
      ],
      "stateMutability": "nonpayable",
      "type": "constructor"
    },
    {
      "inputs": [
        {
          "internalType": "address",
          "name": "spender",
          "type": "address"
        },
        {
          "internalType": "uint256",
          "name": "allowance",
          "type": "uint256"
        },
        {
          "internalType": "uint256",
          "name": "needed",
          "type": "uint256"
        }
      ],
      "name": "ERC20InsufficientAllowance",
      "type": "error"
    },
    {
      "inputs": [
        {
          "internalType": "address",
          "name": "sender",
          "type": "address"
        },
        {
          "internalType": "uint256",
          "name": "balance",
          "type": "uint256"
        },
        {
          "internalType": "uint256",
          "name": "needed",
          "type": "uint256"
        }
      ],
      "name": "ERC20InsufficientBalance",
      "type": "error"
    },
    {
      "inputs": [
        {
          "internalType": "address",
          "name": "approver",
          "type": "address"
        }
      ],
      "name": "ERC20InvalidApprover",
      "type": "error"
    },
    {
      "inputs": [
        {
          "internalType": "address",
          "name": "receiver",
          "type": "address"
        }
      ],
      "name": "ERC20InvalidReceiver",
      "type": "error"
    },
    {
      "inputs": [
        {
          "internalType": "address",
          "name": "sender",
          "type": "address"
        }
      ],
      "name": "ERC20InvalidSender",
      "type": "error"
    },
    {
      "inputs": [
        {
          "internalType": "address",
          "name": "spender",
          "type": "address"
        }
      ],
      "name": "ERC20InvalidSpender",
      "type": "error"
    },
    {
      "inputs": [],
      "name": "EnforcedPause",
      "type": "error"
    },
    {
      "inputs": [],
      "name": "ExpectedPause",
      "type": "error"
    },
    {
      "inputs": [
        {
          "internalType": "address",
          "name": "owner",
          "type": "address"
        }
      ],
      "name": "OwnableInvalidOwner",
      "type": "error"
    },
    {
      "inputs": [
        {
          "internalType": "address",
          "name": "account",
          "type": "address"
        }
      ],
      "name": "OwnableUnauthorizedAccount",
      "type": "error"
    },
    {
      "inputs": [],
      "name": "ReentrancyGuardReentrantCall",
      "type": "error"
    },
    {
      "anonymous": false,
      "inputs": [
        {
          "indexed": true,
          "internalType": "address",
          "name": "owner",
          "type": "address"
        },
        {
          "indexed": true,
          "internalType": "address",
          "name": "spender",
          "type": "address"
        },
        {
          "indexed": false,
          "internalType": "uint256",
          "name": "value",
          "type": "uint256"
        }
      ],
      "name": "Approval",
      "type": "event"
    },
    {
      "anonymous": false,
      "inputs": [
        {
          "indexed": true,
          "internalType": "address",
          "name": "user",
          "type": "address"
        },
        {
          "indexed": false,
          "internalType": "uint256",
          "name": "discount",
          "type": "uint256"
        }
      ],
      "name": "FeeDiscountUpdated",
      "type": "event"
    },
    {
      "anonymous": false,
      "inputs": [
        {
          "indexed": true,
          "internalType": "address",
          "name": "previousOwner",
          "type": "address"
        },
        {
          "indexed": true,
          "internalType": "address",
          "name": "newOwner",
          "type": "address"
        }
      ],
      "name": "OwnershipTransferred",
      "type": "event"
    },
    {
      "anonymous": false,
      "inputs": [
        {
          "indexed": false,
          "internalType": "address",
          "name": "account",
          "type": "address"
        }
      ],
      "name": "Paused",
      "type": "event"
    },
    {
      "anonymous": false,
      "inputs": [
        {
          "indexed": true,
          "internalType": "address",
          "name": "user",
          "type": "address"
        }
      ],
      "name": "PremiumActivated",
      "type": "event"
    },
    {
      "anonymous": false,
      "inputs": [
        {
          "indexed": true,
          "internalType": "address",
          "name": "user",
          "type": "address"
        },
        {
          "indexed": false,
          "internalType": "uint256",
          "name": "reward",
          "type": "uint256"
        }
      ],
      "name": "RewardClaimed",
      "type": "event"
    },
    {
      "anonymous": false,
      "inputs": [
        {
          "indexed": true,
          "internalType": "address",
          "name": "user",
          "type": "address"
        },
        {
          "indexed": false,
          "internalType": "uint256",
          "name": "amount",
          "type": "uint256"
        },
        {
          "indexed": false,
          "internalType": "uint256",
          "name": "lockPeriod",
          "type": "uint256"
        }
      ],
      "name": "Staked",
      "type": "event"
    },
    {
      "anonymous": false,
      "inputs": [
        {
          "indexed": true,
          "internalType": "address",
          "name": "from",
          "type": "address"
        },
        {
          "indexed": false,
          "internalType": "uint256",
          "name": "amount",
          "type": "uint256"
        },
        {
          "indexed": false,
          "internalType": "string",
          "name": "reason",
          "type": "string"
        }
      ],
      "name": "TokensBurned",
      "type": "event"
    },
    {
      "anonymous": false,
      "inputs": [
        {
          "indexed": true,
          "internalType": "address",
          "name": "from",
          "type": "address"
        },
        {
          "indexed": true,
          "internalType": "address",
          "name": "to",
          "type": "address"
        },
        {
          "indexed": false,
          "internalType": "uint256",
          "name": "value",
          "type": "uint256"
        }
      ],
      "name": "Transfer",
      "type": "event"
    },
    {
      "anonymous": false,
      "inputs": [
        {
          "indexed": false,
          "internalType": "address",
          "name": "account",
          "type": "address"
        }
      ],
      "name": "Unpaused",
      "type": "event"
    },
    {
      "anonymous": false,
      "inputs": [
        {
          "indexed": true,
          "internalType": "address",
          "name": "user",
          "type": "address"
        },
        {
          "indexed": false,
          "internalType": "uint256",
          "name": "amount",
          "type": "uint256"
        },
        {
          "indexed": false,
          "internalType": "uint256",
          "name": "reward",
          "type": "uint256"
        }
      ],
      "name": "Unstaked",
      "type": "event"
    },
    {
      "inputs": [],
      "name": "BURN_RATE",
      "outputs": [
        {
          "internalType": "uint256",
          "name": "",
          "type": "uint256"
        }
      ],
      "stateMutability": "view",
      "type": "function"
    },
    {
      "inputs": [],
      "name": "FLEXIBLE_APY",
      "outputs": [
        {
          "internalType": "uint256",
          "name": "",
          "type": "uint256"
        }
      ],
      "stateMutability": "view",
      "type": "function"
    },
    {
      "inputs": [],
      "name": "ONE_YEAR_APY",
      "outputs": [
        {
          "internalType": "uint256",
          "name": "",
          "type": "uint256"
        }
      ],
      "stateMutability": "view",
      "type": "function"
    },
    {
      "inputs": [],
      "name": "PREMIUM_THRESHOLD",
      "outputs": [
        {
          "internalType": "uint256",
          "name": "",
          "type": "uint256"
        }
      ],
      "stateMutability": "view",
      "type": "function"
    },
    {
      "inputs": [],
      "name": "SIX_MONTH_APY",
      "outputs": [
        {
          "internalType": "uint256",
          "name": "",
          "type": "uint256"
        }
      ],
      "stateMutability": "view",
      "type": "function"
    },
    {
      "inputs": [
        {
          "internalType": "address",
          "name": "owner",
          "type": "address"
        },
        {
          "internalType": "address",
          "name": "spender",
          "type": "address"
        }
      ],
      "name": "allowance",
      "outputs": [
        {
          "internalType": "uint256",
          "name": "",
          "type": "uint256"
        }
      ],
      "stateMutability": "view",
      "type": "function"
    },
    {
      "inputs": [
        {
          "internalType": "address",
          "name": "spender",
          "type": "address"
        },
        {
          "internalType": "uint256",
          "name": "value",
          "type": "uint256"
        }
      ],
      "name": "approve",
      "outputs": [
        {
          "internalType": "bool",
          "name": "",
          "type": "bool"
        }
      ],
      "stateMutability": "nonpayable",
      "type": "function"
    },
    {
      "inputs": [
        {
          "internalType": "address",
          "name": "account",
          "type": "address"
        }
      ],
      "name": "balanceOf",
      "outputs": [
        {
          "internalType": "uint256",
          "name": "",
          "type": "uint256"
        }
      ],
      "stateMutability": "view",
      "type": "function"
    },
    {
      "inputs": [
        {
          "internalType": "uint256",
          "name": "value",
          "type": "uint256"
        }
      ],
      "name": "burn",
      "outputs": [],
      "stateMutability": "nonpayable",
      "type": "function"
    },
    {
      "inputs": [
        {
          "internalType": "address",
          "name": "account",
          "type": "address"
        },
        {
          "internalType": "uint256",
          "name": "value",
          "type": "uint256"
        }
      ],
      "name": "burnFrom",
      "outputs": [],
      "stateMutability": "nonpayable",
      "type": "function"
    },
    {
      "inputs": [
        {
          "internalType": "uint256",
          "name": "amount",
          "type": "uint256"
        }
      ],
      "name": "burnFromTreasury",
      "outputs": [],
      "stateMutability": "nonpayable",
      "type": "function"
    },
    {
      "inputs": [
        {
          "internalType": "address",
          "name": "user",
          "type": "address"
        }
      ],
      "name": "calculateReward",
      "outputs": [
        {
          "internalType": "uint256",
          "name": "",
          "type": "uint256"
        }
      ],
      "stateMutability": "view",
      "type": "function"
    },
    {
      "inputs": [],
      "name": "claimRewards",
      "outputs": [],
      "stateMutability": "nonpayable",
      "type": "function"
    },
    {
      "inputs": [],
      "name": "communityWallet",
      "outputs": [
        {
          "internalType": "address",
          "name": "",
          "type": "address"
        }
      ],
      "stateMutability": "view",
      "type": "function"
    },
    {
      "inputs": [],
      "name": "decimals",
      "outputs": [
        {
          "internalType": "uint8",
          "name": "",
          "type": "uint8"
        }
      ],
      "stateMutability": "view",
      "type": "function"
    },
    {
      "inputs": [
        {
          "internalType": "address",
          "name": "",
          "type": "address"
        }
      ],
      "name": "feeDiscounts",
      "outputs": [
        {
          "internalType": "uint256",
          "name": "",
          "type": "uint256"
        }
      ],
      "stateMutability": "view",
      "type": "function"
    },
    {
      "inputs": [],
      "name": "founderWallet",
      "outputs": [
        {
          "internalType": "address",
          "name": "",
          "type": "address"
        }
      ],
      "stateMutability": "view",
      "type": "function"
    },
    {
      "inputs": [
        {
          "internalType": "address",
          "name": "user",
          "type": "address"
        }
      ],
      "name": "getStakeInfo",
      "outputs": [
        {
          "internalType": "uint256",
          "name": "amount",
          "type": "uint256"
        },
        {
          "internalType": "uint256",
          "name": "timestamp",
          "type": "uint256"
        },
        {
          "internalType": "uint256",
          "name": "lockPeriod",
          "type": "uint256"
        },
        {
          "internalType": "uint256",
          "name": "pendingReward",
          "type": "uint256"
        },
        {
          "internalType": "bool",
          "name": "premium",
          "type": "bool"
        },
        {
          "internalType": "uint256",
          "name": "feeDiscount",
          "type": "uint256"
        }
      ],
      "stateMutability": "view",
      "type": "function"
    },
    {
      "inputs": [],
      "name": "getTokenStats",
      "outputs": [
        {
          "internalType": "uint256",
          "name": "circulatingSupply",
          "type": "uint256"
        },
        {
          "internalType": "uint256",
          "name": "burnedSupply",
          "type": "uint256"
        },
        {
          "internalType": "uint256",
          "name": "stakedSupply",
          "type": "uint256"
        },
        {
          "internalType": "uint256",
          "name": "effectiveSupply",
          "type": "uint256"
        }
      ],
      "stateMutability": "view",
      "type": "function"
    },
    {
      "inputs": [
        {
          "internalType": "address",
          "name": "",
          "type": "address"
        }
      ],
      "name": "isPremium",
      "outputs": [
        {
          "internalType": "bool",
          "name": "",
          "type": "bool"
        }
      ],
      "stateMutability": "view",
      "type": "function"
    },
    {
      "inputs": [],
      "name": "liquidityWallet",
      "outputs": [
        {
          "internalType": "address",
          "name": "",
          "type": "address"
        }
      ],
      "stateMutability": "view",
      "type": "function"
    },
    {
      "inputs": [],
      "name": "name",
      "outputs": [
        {
          "internalType": "string",
          "name": "",
          "type": "string"
        }
      ],
      "stateMutability": "view",
      "type": "function"
    },
    {
      "inputs": [],
      "name": "owner",
      "outputs": [
        {
          "internalType": "address",
          "name": "",
          "type": "address"
        }
      ],
      "stateMutability": "view",
      "type": "function"
    },
    {
      "inputs": [],
      "name": "pause",
      "outputs": [],
      "stateMutability": "nonpayable",
      "type": "function"
    },
    {
      "inputs": [],
      "name": "paused",
      "outputs": [
        {
          "internalType": "bool",
          "name": "",
          "type": "bool"
        }
      ],
      "stateMutability": "view",
      "type": "function"
    },
    {
      "inputs": [],
      "name": "publicSaleWallet",
      "outputs": [
        {
          "internalType": "address",
          "name": "",
          "type": "address"
        }
      ],
      "stateMutability": "view",
      "type": "function"
    },
    {
      "inputs": [],
      "name": "renounceOwnership",
      "outputs": [],
      "stateMutability": "nonpayable",
      "type": "function"
    },
    {
      "inputs": [
        {
          "internalType": "uint256",
          "name": "amount",
          "type": "uint256"
        },
        {
          "internalType": "uint256",
          "name": "lockPeriod",
          "type": "uint256"
        }
      ],
      "name": "stake",
      "outputs": [],
      "stateMutability": "nonpayable",
      "type": "function"
    },
    {
      "inputs": [
        {
          "internalType": "address",
          "name": "",
          "type": "address"
        }
      ],
      "name": "stakes",
      "outputs": [
        {
          "internalType": "uint256",
          "name": "amount",
          "type": "uint256"
        },
        {
          "internalType": "uint256",
          "name": "timestamp",
          "type": "uint256"
        },
        {
          "internalType": "uint256",
          "name": "lockPeriod",
          "type": "uint256"
        },
        {
          "internalType": "uint256",
          "name": "rewardDebt",
          "type": "uint256"
        }
      ],
      "stateMutability": "view",
      "type": "function"
    },
    {
      "inputs": [],
      "name": "strategicWallet",
      "outputs": [
        {
          "internalType": "address",
          "name": "",
          "type": "address"
        }
      ],
      "stateMutability": "view",
      "type": "function"
    },
    {
      "inputs": [],
      "name": "symbol",
      "outputs": [
        {
          "internalType": "string",
          "name": "",
          "type": "string"
        }
      ],
      "stateMutability": "view",
      "type": "function"
    },
    {
      "inputs": [],
      "name": "teamWallet",
      "outputs": [
        {
          "internalType": "address",
          "name": "",
          "type": "address"
        }
      ],
      "stateMutability": "view",
      "type": "function"
    },
    {
      "inputs": [],
      "name": "totalBurned",
      "outputs": [
        {
          "internalType": "uint256",
          "name": "",
          "type": "uint256"
        }
      ],
      "stateMutability": "view",
      "type": "function"
    },
    {
      "inputs": [],
      "name": "totalStaked",
      "outputs": [
        {
          "internalType": "uint256",
          "name": "",
          "type": "uint256"
        }
      ],
      "stateMutability": "view",
      "type": "function"
    },
    {
      "inputs": [],
      "name": "totalSupply",
      "outputs": [
        {
          "internalType": "uint256",
          "name": "",
          "type": "uint256"
        }
      ],
      "stateMutability": "view",
      "type": "function"
    },
    {
      "inputs": [
        {
          "internalType": "address",
          "name": "to",
          "type": "address"
        },
        {
          "internalType": "uint256",
          "name": "value",
          "type": "uint256"
        }
      ],
      "name": "transfer",
      "outputs": [
        {
          "internalType": "bool",
          "name": "",
          "type": "bool"
        }
      ],
      "stateMutability": "nonpayable",
      "type": "function"
    },
    {
      "inputs": [
        {
          "internalType": "address",
          "name": "from",
          "type": "address"
        },
        {
          "internalType": "address",
          "name": "to",
          "type": "address"
        },
        {
          "internalType": "uint256",
          "name": "value",
          "type": "uint256"
        }
      ],
      "name": "transferFrom",
      "outputs": [
        {
          "internalType": "bool",
          "name": "",
          "type": "bool"
        }
      ],
      "stateMutability": "nonpayable",
      "type": "function"
    },
    {
      "inputs": [
        {
          "internalType": "address",
          "name": "newOwner",
          "type": "address"
        }
      ],
      "name": "transferOwnership",
      "outputs": [],
      "stateMutability": "nonpayable",
      "type": "function"
    },
    {
      "inputs": [],
      "name": "treasuryWallet",
      "outputs": [
        {
          "internalType": "address",
          "name": "",
          "type": "address"
        }
      ],
      "stateMutability": "view",
      "type": "function"
    },
    {
      "inputs": [],
      "name": "unpause",
      "outputs": [],
      "stateMutability": "nonpayable",
      "type": "function"
    },
    {
      "inputs": [],
      "name": "unstake",
      "outputs": [],
      "stateMutability": "nonpayable",
      "type": "function"
    }
  ],
  "bytecode": "0x60806040523480156200001157600080fd5b506040516200234c3803806200234c833981016040819052620000349162000806565b336040518060400160405280600b81526020016a213630bd32902a37b5b2b760a91b81525060405180604001604052806005815260200164424c415a4560d81b81525081600390816200008891906200093f565b5060046200009782826200093f565b5050506001600160a01b038116620000ca57604051631e4fbdf760e01b8152600060048201526024015b60405180910390fd5b620000d5816200045f565b5060016006556001600160a01b038716620001335760405162461bcd60e51b815260206004820152601a60248201527f496e76616c6964207075626c69632073616c652077616c6c65740000000000006044820152606401620000c1565b6001600160a01b0386166200018b5760405162461bcd60e51b815260206004820152601660248201527f496e76616c696420666f756e6465722077616c6c6574000000000000000000006044820152606401620000c1565b6001600160a01b038516620001e35760405162461bcd60e51b815260206004820152601860248201527f496e76616c696420636f6d6d756e6974792077616c6c657400000000000000006044820152606401620000c1565b6001600160a01b0384166200023b5760405162461bcd60e51b815260206004820152601760248201527f496e76616c69642074726561737572792077616c6c65740000000000000000006044820152606401620000c1565b6001600160a01b038316620002935760405162461bcd60e51b815260206004820152601360248201527f496e76616c6964207465616d2077616c6c6574000000000000000000000000006044820152606401620000c1565b6001600160a01b038216620002eb5760405162461bcd60e51b815260206004820152601860248201527f496e76616c6964207374726174656769632077616c6c657400000000000000006044820152606401620000c1565b6001600160a01b038116620003435760405162461bcd60e51b815260206004820152601860248201527f496e76616c6964206c69717569646974792077616c6c657400000000000000006044820152606401620000c1565b600780546001600160a01b03199081166001600160a01b038a811691909117909255600880548216898416179055600980548216888416179055600a80548216878416179055600b80548216868416179055600c80548216858416179055600d8054909116918316919091179055620003c8876a7c13bc4b2c133c56000000620004b9565b620003df816a52b7d2dcc80cd2e4000000620004b9565b620003f6866a52b7d2dcc80cd2e4000000620004b9565b6200040d856aa56fa5b99019a5c8000000620004b9565b62000424846a7c13bc4b2c133c56000000620004b9565b6200043b836a52b7d2dcc80cd2e4000000620004b9565b62000452826a295be96e64066972000000620004b9565b5050505050505062000a90565b600580546001600160a01b03838116610100818102610100600160a81b031985161790945560405193909204169182907f8be0079c531659141344cd1fd0a4f28419497f9722a3daafe3b4186f6b6457e090600090a35050565b6001600160a01b038216620004e55760405163ec442f0560e01b815260006004820152602401620000c1565b620004f360008383620004f7565b5050565b60006001600160a01b03841615806200051757506001600160a01b038316155b806200052b57506001600160a01b03841630145b806200053f57506001600160a01b03831630145b80620005585750600d546001600160a01b038581169116145b80620005715750600d546001600160a01b038481169116145b90508015801562000580575060015b156200066057600061271062000598600a8562000a21565b620005a4919062000a41565b905080156200065e57620005bb8560008362000673565b80600e6000828254620005cf919062000a64565b92505081905550846001600160a01b03167ffad31924d655455395c87544c8aa1ffdb5a7505a22a3c2e03f28003b6556a75f8260405162000637918152604060208201819052600d908201526c2a3930b739b332b910313ab93760991b606082015260800190565b60405180910390a262000657858562000651848762000a7a565b62000673565b5050505050565b505b6200066d84848462000673565b50505050565b6200067d6200068f565b6200068a838383620006b6565b505050565b60055460ff1615620006b45760405163d93c066560e01b815260040160405180910390fd5b565b6001600160a01b038316620006e5578060026000828254620006d9919062000a64565b90915550620007599050565b6001600160a01b038316600090815260208190526040902054818110156200073a5760405163391434e360e21b81526001600160a01b03851660048201526024810182905260448101839052606401620000c1565b6001600160a01b03841660009081526020819052604090209082900390555b6001600160a01b038216620007775760028054829003905562000796565b6001600160a01b03821660009081526020819052604090208054820190555b816001600160a01b0316836001600160a01b03167fddf252ad1be2c89b69c2b068fc378daa952ba7f163c4a11628f55a4df523b3ef83604051620007dc91815260200190565b60405180910390a3505050565b80516001600160a01b03811681146200080157600080fd5b919050565b600080600080600080600060e0888a0312156200082257600080fd5b6200082d88620007e9565b96506200083d60208901620007e9565b95506200084d60408901620007e9565b94506200085d60608901620007e9565b93506200086d60808901620007e9565b92506200087d60a08901620007e9565b91506200088d60c08901620007e9565b905092959891949750929550565b634e487b7160e01b600052604160045260246000fd5b600181811c90821680620008c657607f821691505b602082108103620008e757634e487b7160e01b600052602260045260246000fd5b50919050565b601f8211156200068a57600081815260208120601f850160051c81016020861015620009165750805b601f850160051c820191505b81811015620009375782815560010162000922565b505050505050565b81516001600160401b038111156200095b576200095b6200089b565b62000973816200096c8454620008b1565b84620008ed565b602080601f831160018114620009ab5760008415620009925750858301515b600019600386901b1c1916600185901b17855562000937565b600085815260208120601f198616915b82811015620009dc57888601518255948401946001909101908401620009bb565b5085821015620009fb5787850151600019600388901b60f8161c191681555b5050505050600190811b01905550565b634e487b7160e01b600052601160045260246000fd5b808202811582820484141762000a3b5762000a3b62000a0b565b92915050565b60008262000a5f57634e487b7160e01b600052601260045260246000fd5b500490565b8082018082111562000a3b5762000a3b62000a0b565b8181038181111562000a3b5762000a3b62000a0b565b6118ac8062000aa06000396000f3fe608060405234801561001057600080fd5b50600436106102535760003560e01c806370a08231116101465780639af01c2d116100c3578063d469801611610087578063d469801614610548578063d82e39621461055b578063d89135cd1461056e578063dd62ed3e14610577578063f2fde38b146105b0578063f846a885146105c357600080fd5b80639af01c2d146104bd578063a23d3c35146104cd578063a9059cbb146104e0578063c3453153146104f3578063c75748391461053557600080fd5b8063817b1cd21161010a578063817b1cd21461047b5780638456cb59146104845780638922e0211461048c5780638da5cb5b1461049f57806395d89b41146104b557600080fd5b806370a0823114610401578063715018a61461042a578063742fe0d41461043257806379cc6790146104555780637b0472f01461046857600080fd5b8063372500ab116101d4578063599270441161019857806359927044146103b45780635c975abb146103c75780635f9d9909146103d257806363546f0c146103e55780636cb13595146103ee57600080fd5b8063372500ab1461035d578063373c6193146103655780633f4ba83a1461036e57806342966c68146103765780634626402b1461038957600080fd5b806316934fc41161021b57806316934fc4146102f457806318160ddd1461032957806323b872dd146103315780632def662014610344578063313ce5671461034e57600080fd5b8063040a4f421461025857806306fdde031461028b57806308014d8b146102a0578063095ea7b3146102a9578063097cd9bf146102cc575b600080fd5b610278610266366004611683565b60116020526000908152604090205481565b6040519081526020015b60405180910390f35b6102936105cb565b60405161028291906116a5565b6102786107d081565b6102bc6102b73660046116f3565b61065d565b6040519015158152602001610282565b6102d4610677565b604080519485526020850193909352918301526060820152608001610282565b6102d4610302366004611683565b600f6020526000908152604090208054600182015460028301546003909301549192909184565b600254610278565b6102bc61033f36600461171d565b6106ac565b61034c6106d0565b005b60405160128152602001610282565b61034c6108a9565b6102786105dc81565b61034c6108c4565b61034c610384366004611759565b6108d4565b600a5461039c906001600160a01b031681565b6040516001600160a01b039091168152602001610282565b600b5461039c906001600160a01b031681565b60055460ff166102bc565b61034c6103e0366004611759565b6108e1565b61027861032081565b60075461039c906001600160a01b031681565b61027861040f366004611683565b6001600160a01b031660009081526020819052604090205490565b61034c6109e7565b6102bc610440366004611683565b60126020526000908152604090205460ff1681565b61034c6104633660046116f3565b6109f9565b61034c610476366004611772565b610a12565b61027860105481565b61034c610c84565b600c5461039c906001600160a01b031681565b60055461010090046001600160a01b031661039c565b610293610c94565b610278683635c9adc5dea0000081565b60085461039c906001600160a01b031681565b6102bc6104ee3660046116f3565b610ca3565b610506610501366004611683565b610cb1565b6040805196875260208701959095529385019290925260608401521515608083015260a082015260c001610282565b60095461039c906001600160a01b031681565b600d5461039c906001600160a01b031681565b610278610569366004611683565b610d4e565b610278600e5481565b610278610585366004611794565b6001600160a01b03918216600090815260016020908152604080832093909416825291909152205490565b61034c6105be366004611683565b610e03565b610278600a81565b6060600380546105da906117c7565b80601f0160208091040260200160405190810160405280929190818152602001828054610606906117c7565b80156106535780601f1061062857610100808354040283529160200191610653565b820191906000526020600020905b81548152906001019060200180831161063657829003601f168201915b5050505050905090565b60003361066b818585610e3e565b60019150505b92915050565b600080600080600061068860025490565b600e54601054919250829161069d8284611817565b94509450945094505090919293565b6000336106ba858285610e50565b6106c5858585610ecf565b506001949350505050565b6106d8610f2e565b336000908152600f60209081526040918290208251608081018452815480825260018301549382019390935260028201549381019390935260030154606083015261075b5760405162461bcd60e51b815260206004820152600e60248201526d139bc81cdd185ad948199bdd5b9960921b60448201526064015b60405180910390fd5b8060400151816020015161076f919061182a565b4210156107b45760405162461bcd60e51b8152602060048201526013602482015272151bdad95b9cc81cdd1a5b1b081b1bd8dad959606a1b6044820152606401610752565b60006107bf33610d4e565b905060008183600001516107d3919061182a565b90508260000151601060008282546107eb9190611817565b9091555050336000908152600f602090815260408083208381556001810184905560028101849055600301839055601290915290205460ff161561084157336000908152601260205260409020805460ff191690555b3360008181526011602052604081205561085d90309083610ecf565b8251604080519182526020820184905233917f7fc4727e062e336010f2c282598ef5f14facb3de68cf8195c2f23e1454b2b74e910160405180910390a25050506108a76001600655565b565b6108b1610f2e565b6108ba33610f58565b6108a76001600655565b6108cc611051565b6108a7611084565b6108de33826110d6565b50565b6108e9611051565b600081116109395760405162461bcd60e51b815260206004820152601d60248201527f416d6f756e74206d7573742062652067726561746572207468616e20300000006044820152606401610752565b600a5461094f906001600160a01b0316826110d6565b80600e6000828254610961919061182a565b9091555050600a546040516001600160a01b03909116907ffad31924d655455395c87544c8aa1ffdb5a7505a22a3c2e03f28003b6556a75f906109dc908481526040602082018190526017908201527f5472656173757279206275796261636b2026206275726e000000000000000000606082015260800190565b60405180910390a250565b6109ef611051565b6108a7600061110c565b610a04823383610e50565b610a0e82826110d6565b5050565b610a1a610f2e565b610a22611166565b60008211610a6a5760405162461bcd60e51b815260206004820152601560248201527443616e6e6f74207374616b65203020746f6b656e7360581b6044820152606401610752565b801580610a7757508060b4145b80610a8357508061016d145b610ac55760405162461bcd60e51b8152602060048201526013602482015272125b9d985b1a59081b1bd8dac81c195c9a5bd9606a1b6044820152606401610752565b33600090815260208190526040902054821115610b1b5760405162461bcd60e51b8152602060048201526014602482015273496e73756666696369656e742062616c616e636560601b6044820152606401610752565b336000908152600f602052604090205415610b3957610b3933610f58565b610b44333084610ecf565b336000908152600f602052604081208054849290610b6390849061182a565b9091555050336000908152600f6020526040902042600190910155610b8b816201518061183d565b336000908152600f602052604081206002019190915560108054849290610bb390849061182a565b9091555050336000908152600f6020526040902054683635c9adc5dea0000011801590610bf057503360009081526012602052604090205460ff16155b15610c365733600081815260126020526040808220805460ff19166001179055517faa8ccf229bb4a5182c5122d8450416e8ae3b78f457eebea8b2028be23f6d5ab19190a25b610c3f3361118a565b604080518381526020810183905233917f1449c6dd7851abc30abf37f57715f492010519147cc2652fbc38202c18a6ee90910160405180910390a2610a0e6001600655565b610c8c611051565b6108a7611269565b6060600480546105da906117c7565b60003361066b818585610ecf565b6001600160a01b0381166000908152600f6020908152604080832081516080810183528154808252600183015494820185905260028301549382018490526003909201546060820152849384938493849384939092610d0f8b610d4e565b6001600160a01b039b909b16600090815260126020908152604080832054601190925290912054939c929b919a5090985060ff16965090945092505050565b6001600160a01b0381166000908152600f6020908152604080832081516080810183528154808252600183015494820194909452600282015492810192909252600301546060820152908203610da75750600092915050565b6000816020015142610db99190611817565b90506000610dca83604001516112a6565b9050600064496cebb80083838660000151610de5919061183d565b610def919061183d565b610df99190611854565b9695505050505050565b610e0b611051565b6001600160a01b038116610e3557604051631e4fbdf760e01b815260006004820152602401610752565b6108de8161110c565b610e4b83838360016112d8565b505050565b6001600160a01b03838116600090815260016020908152604080832093861683529290522054600019811015610ec95781811015610eba57604051637dc7a0d960e11b81526001600160a01b03841660048201526024810182905260448101839052606401610752565b610ec9848484840360006112d8565b50505050565b6001600160a01b038316610ef957604051634b637e8f60e11b815260006004820152602401610752565b6001600160a01b038216610f235760405163ec442f0560e01b815260006004820152602401610752565b610e4b8383836113ad565b600260065403610f5157604051633ee5aeb560e01b815260040160405180910390fd5b6002600655565b6000610f6382610d4e565b905060008111610fab5760405162461bcd60e51b81526020600482015260136024820152724e6f207265776172647320746f20636c61696d60681b6044820152606401610752565b6001600160a01b0382166000908152600f602052604081206003018054839290610fd690849061182a565b90915550506001600160a01b038083166000908152600f602052604090204260019091015560095461100a91168383610ecf565b816001600160a01b03167f106f923f993c2149d49b4255ff723acafa1f2d94393f561d3eda32ae348f72418260405161104591815260200190565b60405180910390a25050565b6005546001600160a01b036101009091041633146108a75760405163118cdaa760e01b8152336004820152602401610752565b61108c61150c565b6005805460ff191690557f5db9ee0a495bf2e6ff9c91a7834c1ba4fdd244a5e8aa4e537bd38aeae4b073aa335b6040516001600160a01b03909116815260200160405180910390a1565b6001600160a01b03821661110057604051634b637e8f60e11b815260006004820152602401610752565b610a0e826000836113ad565b600580546001600160a01b03838116610100818102610100600160a81b031985161790945560405193909204169182907f8be0079c531659141344cd1fd0a4f28419497f9722a3daafe3b4186f6b6457e090600090a35050565b60055460ff16156108a75760405163d93c066560e01b815260040160405180910390fd5b6001600160a01b0381166000908152600f60205260408120549069152d02c7e14af680000082106111be5750611d4c61120f565b690a968163f0a57b40000082106111d8575061138861120f565b69021e19e0c9bab240000082106111f257506109c461120f565b683635c9adc5dea00000821061120b57506103e861120f565b5060005b6001600160a01b03831660008181526011602052604090819020839055517f8c8213355f8c4b06cfd938d2a83ec5b9d1f2ef7af5d62a51a06e8e229c1fdc599061125c9084815260200190565b60405180910390a2505050565b611271611166565b6005805460ff191660011790557f62e78cea01bee320cd4e420270b5ea74000d11b0c9f74754ebdbfc544b05a2586110b93390565b60006301e1338082106112bc57506107d0919050565b62ed4e0082106112cf57506105dc919050565b50610320919050565b6001600160a01b0384166113025760405163e602df0560e01b815260006004820152602401610752565b6001600160a01b03831661132c57604051634a1406b160e11b815260006004820152602401610752565b6001600160a01b0380851660009081526001602090815260408083209387168352929052208290558015610ec957826001600160a01b0316846001600160a01b03167f8c5be1e5ebec7d5bd14f71427d1e84f3dd0314c0f7b2291e5b200ac8c7c3b9258460405161139f91815260200190565b60405180910390a350505050565b60006001600160a01b03841615806113cc57506001600160a01b038316155b806113df57506001600160a01b03841630145b806113f257506001600160a01b03831630145b8061140a5750600d546001600160a01b038581169116145b806114225750600d546001600160a01b038481169116145b905080158015611430575060015b15611501576000612710611445600a8561183d565b61144f9190611854565b905080156114ff576114638560008361152f565b80600e6000828254611475919061182a565b92505081905550846001600160a01b03167ffad31924d655455395c87544c8aa1ffdb5a7505a22a3c2e03f28003b6556a75f826040516114dc918152604060208201819052600d908201526c2a3930b739b332b910313ab93760991b606082015260800190565b60405180910390a26114f885856114f38487611817565b61152f565b5050505050565b505b610ec984848461152f565b60055460ff166108a757604051638dfc202b60e01b815260040160405180910390fd5b611537611166565b610e4b8383836001600160a01b03831661156857806002600082825461155d919061182a565b909155506115da9050565b6001600160a01b038316600090815260208190526040902054818110156115bb5760405163391434e360e21b81526001600160a01b03851660048201526024810182905260448101839052606401610752565b6001600160a01b03841660009081526020819052604090209082900390555b6001600160a01b0382166115f657600280548290039055611615565b6001600160a01b03821660009081526020819052604090208054820190555b816001600160a01b0316836001600160a01b03167fddf252ad1be2c89b69c2b068fc378daa952ba7f163c4a11628f55a4df523b3ef8360405161165a91815260200190565b60405180910390a3505050565b80356001600160a01b038116811461167e57600080fd5b919050565b60006020828403121561169557600080fd5b61169e82611667565b9392505050565b600060208083528351808285015260005b818110156116d2578581018301518582016040015282016116b6565b506000604082860101526040601f19601f8301168501019250505092915050565b6000806040838503121561170657600080fd5b61170f83611667565b946020939093013593505050565b60008060006060848603121561173257600080fd5b61173b84611667565b925061174960208501611667565b9150604084013590509250925092565b60006020828403121561176b57600080fd5b5035919050565b6000806040838503121561178557600080fd5b50508035926020909101359150565b600080604083850312156117a757600080fd5b6117b083611667565b91506117be60208401611667565b90509250929050565b600181811c908216806117db57607f821691505b6020821081036117fb57634e487b7160e01b600052602260045260246000fd5b50919050565b634e487b7160e01b600052601160045260246000fd5b8181038181111561067157610671611801565b8082018082111561067157610671611801565b808202811582820484141761067157610671611801565b60008261187157634e487b7160e01b600052601260045260246000fd5b50049056fea2646970667358221220982926d1b6d1d31bcc94eee33b029ee61cfba96b4771159b13979a8147fa2de964736f6c63430008140033",
  "linkReferences": {},
  "deployedLinkReferences": {}
}