{
  "_format": "hh-sol-artifact-1",
  "contractName": "BlazeTokenPresale",
  "sourceName": "contracts/BlazeTokenPresale.sol",
  "abi": [
    {
      "inputs": [
        {
          "internalType": "address",
          "name": "_presaleContract",
          "type": "address"
        },
        {
          "internalType": "address",
          "name": "_liquidityWallet",
          "type": "address"
        },
        {
          "internalType": "address",
          "name": "_founderImmediateWallet",
          "type": "address"
        },
        {
          "internalType": "address",
          "name": "_founderVestingWallet",
          "type": "address"
        },
        {
          "internalType": "address",
          "name": "_communityWallet",
          "type": "address"
        },
        {
          "internalType": "address",
          "name": "_treasuryWallet",
          "type": "address"
        },
        {
          "internalType": "address",
          "name": "_teamWallet",
          "type": "address"
        },
        {
          "internalType": "address",
          "name": "_strategicWallet",
          "type": "address"
        }
      ],
      "stateMutability": "nonpayable",
      "type": "constructor"
    },
    {
      "inputs": [
        {
          "internalType": "address",
          "name": "spender",
          "type": "address"
        },
        {
          "internalType": "uint256",
          "name": "allowance",
          "type": "uint256"
        },
        {
          "internalType": "uint256",
          "name": "needed",
          "type": "uint256"
        }
      ],
      "name": "ERC20InsufficientAllowance",
      "type": "error"
    },
    {
      "inputs": [
        {
          "internalType": "address",
          "name": "sender",
          "type": "address"
        },
        {
          "internalType": "uint256",
          "name": "balance",
          "type": "uint256"
        },
        {
          "internalType": "uint256",
          "name": "needed",
          "type": "uint256"
        }
      ],
      "name": "ERC20InsufficientBalance",
      "type": "error"
    },
    {
      "inputs": [
        {
          "internalType": "address",
          "name": "approver",
          "type": "address"
        }
      ],
      "name": "ERC20InvalidApprover",
      "type": "error"
    },
    {
      "inputs": [
        {
          "internalType": "address",
          "name": "receiver",
          "type": "address"
        }
      ],
      "name": "ERC20InvalidReceiver",
      "type": "error"
    },
    {
      "inputs": [
        {
          "internalType": "address",
          "name": "sender",
          "type": "address"
        }
      ],
      "name": "ERC20InvalidSender",
      "type": "error"
    },
    {
      "inputs": [
        {
          "internalType": "address",
          "name": "spender",
          "type": "address"
        }
      ],
      "name": "ERC20InvalidSpender",
      "type": "error"
    },
    {
      "inputs": [],
      "name": "EnforcedPause",
      "type": "error"
    },
    {
      "inputs": [],
      "name": "ExpectedPause",
      "type": "error"
    },
    {
      "inputs": [
        {
          "internalType": "address",
          "name": "owner",
          "type": "address"
        }
      ],
      "name": "OwnableInvalidOwner",
      "type": "error"
    },
    {
      "inputs": [
        {
          "internalType": "address",
          "name": "account",
          "type": "address"
        }
      ],
      "name": "OwnableUnauthorizedAccount",
      "type": "error"
    },
    {
      "inputs": [],
      "name": "ReentrancyGuardReentrantCall",
      "type": "error"
    },
    {
      "anonymous": false,
      "inputs": [
        {
          "indexed": true,
          "internalType": "address",
          "name": "owner",
          "type": "address"
        },
        {
          "indexed": true,
          "internalType": "address",
          "name": "spender",
          "type": "address"
        },
        {
          "indexed": false,
          "internalType": "uint256",
          "name": "value",
          "type": "uint256"
        }
      ],
      "name": "Approval",
      "type": "event"
    },
    {
      "anonymous": false,
      "inputs": [
        {
          "indexed": true,
          "internalType": "address",
          "name": "previousOwner",
          "type": "address"
        },
        {
          "indexed": true,
          "internalType": "address",
          "name": "newOwner",
          "type": "address"
        }
      ],
      "name": "OwnershipTransferred",
      "type": "event"
    },
    {
      "anonymous": false,
      "inputs": [
        {
          "indexed": false,
          "internalType": "address",
          "name": "account",
          "type": "address"
        }
      ],
      "name": "Paused",
      "type": "event"
    },
    {
      "anonymous": false,
      "inputs": [
        {
          "indexed": true,
          "internalType": "address",
          "name": "from",
          "type": "address"
        },
        {
          "indexed": false,
          "internalType": "uint256",
          "name": "amount",
          "type": "uint256"
        },
        {
          "indexed": false,
          "internalType": "string",
          "name": "reason",
          "type": "string"
        }
      ],
      "name": "TokensBurned",
      "type": "event"
    },
    {
      "anonymous": false,
      "inputs": [
        {
          "indexed": true,
          "internalType": "address",
          "name": "from",
          "type": "address"
        },
        {
          "indexed": true,
          "internalType": "address",
          "name": "to",
          "type": "address"
        },
        {
          "indexed": false,
          "internalType": "uint256",
          "name": "value",
          "type": "uint256"
        }
      ],
      "name": "Transfer",
      "type": "event"
    },
    {
      "anonymous": false,
      "inputs": [
        {
          "indexed": false,
          "internalType": "address",
          "name": "account",
          "type": "address"
        }
      ],
      "name": "Unpaused",
      "type": "event"
    },
    {
      "anonymous": false,
      "inputs": [
        {
          "indexed": true,
          "internalType": "address",
          "name": "beneficiary",
          "type": "address"
        },
        {
          "indexed": false,
          "internalType": "uint256",
          "name": "amount",
          "type": "uint256"
        }
      ],
      "name": "VestingReleased",
      "type": "event"
    },
    {
      "inputs": [],
      "name": "BURN_RATE_SWAP",
      "outputs": [
        {
          "internalType": "uint256",
          "name": "",
          "type": "uint256"
        }
      ],
      "stateMutability": "view",
      "type": "function"
    },
    {
      "inputs": [],
      "name": "BURN_RATE_TRANSFER",
      "outputs": [
        {
          "internalType": "uint256",
          "name": "",
          "type": "uint256"
        }
      ],
      "stateMutability": "view",
      "type": "function"
    },
    {
      "inputs": [],
      "name": "VESTING_DURATION",
      "outputs": [
        {
          "internalType": "uint256",
          "name": "",
          "type": "uint256"
        }
      ],
      "stateMutability": "view",
      "type": "function"
    },
    {
      "inputs": [
        {
          "internalType": "address",
          "name": "owner",
          "type": "address"
        },
        {
          "internalType": "address",
          "name": "spender",
          "type": "address"
        }
      ],
      "name": "allowance",
      "outputs": [
        {
          "internalType": "uint256",
          "name": "",
          "type": "uint256"
        }
      ],
      "stateMutability": "view",
      "type": "function"
    },
    {
      "inputs": [
        {
          "internalType": "address",
          "name": "spender",
          "type": "address"
        },
        {
          "internalType": "uint256",
          "name": "value",
          "type": "uint256"
        }
      ],
      "name": "approve",
      "outputs": [
        {
          "internalType": "bool",
          "name": "",
          "type": "bool"
        }
      ],
      "stateMutability": "nonpayable",
      "type": "function"
    },
    {
      "inputs": [
        {
          "internalType": "address",
          "name": "account",
          "type": "address"
        }
      ],
      "name": "balanceOf",
      "outputs": [
        {
          "internalType": "uint256",
          "name": "",
          "type": "uint256"
        }
      ],
      "stateMutability": "view",
      "type": "function"
    },
    {
      "inputs": [
        {
          "internalType": "uint256",
          "name": "value",
          "type": "uint256"
        }
      ],
      "name": "burn",
      "outputs": [],
      "stateMutability": "nonpayable",
      "type": "function"
    },
    {
      "inputs": [
        {
          "internalType": "address",
          "name": "account",
          "type": "address"
        },
        {
          "internalType": "uint256",
          "name": "value",
          "type": "uint256"
        }
      ],
      "name": "burnFrom",
      "outputs": [],
      "stateMutability": "nonpayable",
      "type": "function"
    },
    {
      "inputs": [
        {
          "internalType": "uint256",
          "name": "amount",
          "type": "uint256"
        }
      ],
      "name": "burnFromTreasury",
      "outputs": [],
      "stateMutability": "nonpayable",
      "type": "function"
    },
    {
      "inputs": [],
      "name": "calculateReleasableAmount",
      "outputs": [
        {
          "internalType": "uint256",
          "name": "",
          "type": "uint256"
        }
      ],
      "stateMutability": "view",
      "type": "function"
    },
    {
      "inputs": [],
      "name": "communityWallet",
      "outputs": [
        {
          "internalType": "address",
          "name": "",
          "type": "address"
        }
      ],
      "stateMutability": "view",
      "type": "function"
    },
    {
      "inputs": [],
      "name": "decimals",
      "outputs": [
        {
          "internalType": "uint8",
          "name": "",
          "type": "uint8"
        }
      ],
      "stateMutability": "view",
      "type": "function"
    },
    {
      "inputs": [],
      "name": "founderImmediateWallet",
      "outputs": [
        {
          "internalType": "address",
          "name": "",
          "type": "address"
        }
      ],
      "stateMutability": "view",
      "type": "function"
    },
    {
      "inputs": [],
      "name": "founderVestingWallet",
      "outputs": [
        {
          "internalType": "address",
          "name": "",
          "type": "address"
        }
      ],
      "stateMutability": "view",
      "type": "function"
    },
    {
      "inputs": [],
      "name": "getTokenStats",
      "outputs": [
        {
          "internalType": "uint256",
          "name": "circulatingSupply",
          "type": "uint256"
        },
        {
          "internalType": "uint256",
          "name": "burnedSupply",
          "type": "uint256"
        },
        {
          "internalType": "uint256",
          "name": "vestedSupply",
          "type": "uint256"
        },
        {
          "internalType": "uint256",
          "name": "effectiveSupply",
          "type": "uint256"
        }
      ],
      "stateMutability": "view",
      "type": "function"
    },
    {
      "inputs": [],
      "name": "getVestingInfo",
      "outputs": [
        {
          "internalType": "uint256",
          "name": "totalAmount",
          "type": "uint256"
        },
        {
          "internalType": "uint256",
          "name": "releasedAmount",
          "type": "uint256"
        },
        {
          "internalType": "uint256",
          "name": "releasableAmount",
          "type": "uint256"
        },
        {
          "internalType": "uint256",
          "name": "remainingTime",
          "type": "uint256"
        }
      ],
      "stateMutability": "view",
      "type": "function"
    },
    {
      "inputs": [],
      "name": "liquidityWallet",
      "outputs": [
        {
          "internalType": "address",
          "name": "",
          "type": "address"
        }
      ],
      "stateMutability": "view",
      "type": "function"
    },
    {
      "inputs": [],
      "name": "name",
      "outputs": [
        {
          "internalType": "string",
          "name": "",
          "type": "string"
        }
      ],
      "stateMutability": "view",
      "type": "function"
    },
    {
      "inputs": [],
      "name": "owner",
      "outputs": [
        {
          "internalType": "address",
          "name": "",
          "type": "address"
        }
      ],
      "stateMutability": "view",
      "type": "function"
    },
    {
      "inputs": [],
      "name": "pause",
      "outputs": [],
      "stateMutability": "nonpayable",
      "type": "function"
    },
    {
      "inputs": [],
      "name": "paused",
      "outputs": [
        {
          "internalType": "bool",
          "name": "",
          "type": "bool"
        }
      ],
      "stateMutability": "view",
      "type": "function"
    },
    {
      "inputs": [],
      "name": "presaleContract",
      "outputs": [
        {
          "internalType": "address",
          "name": "",
          "type": "address"
        }
      ],
      "stateMutability": "view",
      "type": "function"
    },
    {
      "inputs": [],
      "name": "releaseVesting",
      "outputs": [],
      "stateMutability": "nonpayable",
      "type": "function"
    },
    {
      "inputs": [],
      "name": "renounceOwnership",
      "outputs": [],
      "stateMutability": "nonpayable",
      "type": "function"
    },
    {
      "inputs": [],
      "name": "strategicWallet",
      "outputs": [
        {
          "internalType": "address",
          "name": "",
          "type": "address"
        }
      ],
      "stateMutability": "view",
      "type": "function"
    },
    {
      "inputs": [],
      "name": "symbol",
      "outputs": [
        {
          "internalType": "string",
          "name": "",
          "type": "string"
        }
      ],
      "stateMutability": "view",
      "type": "function"
    },
    {
      "inputs": [],
      "name": "teamWallet",
      "outputs": [
        {
          "internalType": "address",
          "name": "",
          "type": "address"
        }
      ],
      "stateMutability": "view",
      "type": "function"
    },
    {
      "inputs": [],
      "name": "totalBurned",
      "outputs": [
        {
          "internalType": "uint256",
          "name": "",
          "type": "uint256"
        }
      ],
      "stateMutability": "view",
      "type": "function"
    },
    {
      "inputs": [],
      "name": "totalSupply",
      "outputs": [
        {
          "internalType": "uint256",
          "name": "",
          "type": "uint256"
        }
      ],
      "stateMutability": "view",
      "type": "function"
    },
    {
      "inputs": [
        {
          "internalType": "address",
          "name": "to",
          "type": "address"
        },
        {
          "internalType": "uint256",
          "name": "value",
          "type": "uint256"
        }
      ],
      "name": "transfer",
      "outputs": [
        {
          "internalType": "bool",
          "name": "",
          "type": "bool"
        }
      ],
      "stateMutability": "nonpayable",
      "type": "function"
    },
    {
      "inputs": [
        {
          "internalType": "address",
          "name": "from",
          "type": "address"
        },
        {
          "internalType": "address",
          "name": "to",
          "type": "address"
        },
        {
          "internalType": "uint256",
          "name": "value",
          "type": "uint256"
        }
      ],
      "name": "transferFrom",
      "outputs": [
        {
          "internalType": "bool",
          "name": "",
          "type": "bool"
        }
      ],
      "stateMutability": "nonpayable",
      "type": "function"
    },
    {
      "inputs": [
        {
          "internalType": "address",
          "name": "newOwner",
          "type": "address"
        }
      ],
      "name": "transferOwnership",
      "outputs": [],
      "stateMutability": "nonpayable",
      "type": "function"
    },
    {
      "inputs": [],
      "name": "treasuryWallet",
      "outputs": [
        {
          "internalType": "address",
          "name": "",
          "type": "address"
        }
      ],
      "stateMutability": "view",
      "type": "function"
    },
    {
      "inputs": [],
      "name": "unpause",
      "outputs": [],
      "stateMutability": "nonpayable",
      "type": "function"
    },
    {
      "inputs": [],
      "name": "vestedAmount",
      "outputs": [
        {
          "internalType": "uint256",
          "name": "",
          "type": "uint256"
        }
      ],
      "stateMutability": "view",
      "type": "function"
    },
    {
      "inputs": [],
      "name": "vestingStartTime",
      "outputs": [
        {
          "internalType": "uint256",
          "name": "",
          "type": "uint256"
        }
      ],
      "stateMutability": "view",
      "type": "function"
    }
  ],
  "bytecode": "0x60806040523480156200001157600080fd5b5060405162001e2e38038062001e2e8339810160408190526200003491620008f9565b336040518060400160405280600b81526020016a213630bd32902a37b5b2b760a91b81525060405180604001604052806005815260200164424c415a4560d81b815250816003908162000088919062000a45565b50600462000097828262000a45565b5050506001600160a01b038116620000ca57604051631e4fbdf760e01b8152600060048201526024015b60405180910390fd5b620000d581620004e0565b5060016006556001600160a01b038816620001335760405162461bcd60e51b815260206004820152601860248201527f496e76616c69642070726573616c6520636f6e747261637400000000000000006044820152606401620000c1565b6001600160a01b0387166200018b5760405162461bcd60e51b815260206004820152601860248201527f496e76616c6964206c69717569646974792077616c6c657400000000000000006044820152606401620000c1565b6001600160a01b038616620001e35760405162461bcd60e51b815260206004820181905260248201527f496e76616c696420666f756e64657220696d6d6564696174652077616c6c65746044820152606401620000c1565b6001600160a01b0385166200023b5760405162461bcd60e51b815260206004820152601e60248201527f496e76616c696420666f756e6465722076657374696e672077616c6c657400006044820152606401620000c1565b6001600160a01b038416620002935760405162461bcd60e51b815260206004820152601860248201527f496e76616c696420636f6d6d756e6974792077616c6c657400000000000000006044820152606401620000c1565b6001600160a01b038316620002eb5760405162461bcd60e51b815260206004820152601760248201527f496e76616c69642074726561737572792077616c6c65740000000000000000006044820152606401620000c1565b6001600160a01b038216620003435760405162461bcd60e51b815260206004820152601360248201527f496e76616c6964207465616d2077616c6c6574000000000000000000000000006044820152606401620000c1565b6001600160a01b0381166200039b5760405162461bcd60e51b815260206004820152601860248201527f496e76616c6964207374726174656769632077616c6c657400000000000000006044820152606401620000c1565b600780546001600160a01b03199081166001600160a01b038b8116919091179092556008805482168a8416179055600980548216898416179055600a80548216888416179055600b80548216878416179055600c80548216868416179055600d80548216858416179055600e80549091169183169190911790556200042c886a6342fd08f00f63780000006200053a565b62000443876a94e47b8d681715340000006200053a565b6200045a866a422ca8b0a00a42500000006200053a565b62000471306a6342fd08f00f63780000006200053a565b62000488846aa56fa5b99019a5c80000006200053a565b6200049f836a7c13bc4b2c133c560000006200053a565b620004b6826a52b7d2dcc80cd2e40000006200053a565b620004cd816a295be96e640669720000006200053a565b5050426010555062000b96945050505050565b600580546001600160a01b03838116610100818102610100600160a81b031985161790945560405193909204169182907f8be0079c531659141344cd1fd0a4f28419497f9722a3daafe3b4186f6b6457e090600090a35050565b6001600160a01b038216620005665760405163ec442f0560e01b815260006004820152602401620000c1565b620005746000838362000578565b5050565b60006001600160a01b03841615806200059857506001600160a01b038316155b80620005ac57506001600160a01b03841630145b80620005c557506008546001600160a01b038581169116145b80620005de57506008546001600160a01b038481169116145b80620005f75750600c546001600160a01b038581169116145b80620006105750600c546001600160a01b038481169116145b80620006295750600b546001600160a01b038581169116145b80620006425750600b546001600160a01b038481169116145b806200065b57506007546001600160a01b038581169116145b806200067457506007546001600160a01b038481169116145b90508015801562000683575060015b15620007535760006127106200069b600a8562000b27565b620006a7919062000b47565b905080156200075157620006be8560008362000766565b80600f6000828254620006d2919062000b6a565b92505081905550846001600160a01b03167ffad31924d655455395c87544c8aa1ffdb5a7505a22a3c2e03f28003b6556a75f826040516200073a918152604060208201819052600d908201526c2a3930b739b332b910313ab93760991b606082015260800190565b60405180910390a26200074e818462000b80565b92505b505b6200076084848462000766565b50505050565b6200077062000782565b6200077d838383620007a9565b505050565b60055460ff1615620007a75760405163d93c066560e01b815260040160405180910390fd5b565b6001600160a01b038316620007d8578060026000828254620007cc919062000b6a565b909155506200084c9050565b6001600160a01b038316600090815260208190526040902054818110156200082d5760405163391434e360e21b81526001600160a01b03851660048201526024810182905260448101839052606401620000c1565b6001600160a01b03841660009081526020819052604090209082900390555b6001600160a01b0382166200086a5760028054829003905562000889565b6001600160a01b03821660009081526020819052604090208054820190555b816001600160a01b0316836001600160a01b03167fddf252ad1be2c89b69c2b068fc378daa952ba7f163c4a11628f55a4df523b3ef83604051620008cf91815260200190565b60405180910390a3505050565b80516001600160a01b0381168114620008f457600080fd5b919050565b600080600080600080600080610100898b0312156200091757600080fd5b6200092289620008dc565b97506200093260208a01620008dc565b96506200094260408a01620008dc565b95506200095260608a01620008dc565b94506200096260808a01620008dc565b93506200097260a08a01620008dc565b92506200098260c08a01620008dc565b91506200099260e08a01620008dc565b90509295985092959890939650565b634e487b7160e01b600052604160045260246000fd5b600181811c90821680620009cc57607f821691505b602082108103620009ed57634e487b7160e01b600052602260045260246000fd5b50919050565b601f8211156200077d57600081815260208120601f850160051c8101602086101562000a1c5750805b601f850160051c820191505b8181101562000a3d5782815560010162000a28565b505050505050565b81516001600160401b0381111562000a615762000a61620009a1565b62000a798162000a728454620009b7565b84620009f3565b602080601f83116001811462000ab1576000841562000a985750858301515b600019600386901b1c1916600185901b17855562000a3d565b600085815260208120601f198616915b8281101562000ae25788860151825594840194600190910190840162000ac1565b508582101562000b015787850151600019600388901b60f8161c191681555b5050505050600190811b01905550565b634e487b7160e01b600052601160045260246000fd5b808202811582820484141762000b415762000b4162000b11565b92915050565b60008262000b6557634e487b7160e01b600052601260045260246000fd5b500490565b8082018082111562000b415762000b4162000b11565b8181038181111562000b415762000b4162000b11565b6112888062000ba66000396000f3fe608060405234801561001057600080fd5b506004361061021c5760003560e01c806370a0823111610125578063a8660a78116100ad578063d46980161161007c578063d469801614610453578063d89135cd14610466578063dc25a3001461046f578063dd62ed3e14610477578063f2fde38b146104b057600080fd5b8063a8660a7814610411578063a9059cbb1461041a578063bfcfd1b51461042d578063c75748391461044057600080fd5b80638456cb59116100f45780638456cb59146103d05780638922e021146103d85780638da5cb5b146103eb57806395d89b411461040157806399460b451461040957600080fd5b806370a0823114610379578063715018a6146103a257806379cc6790146103aa5780637bffbfbe146103bd57600080fd5b806342966c68116101a85780635992704411610177578063599270441461032d5780635c975abb146103405780635f9d99091461034b57806363d9df851461035e5780636f16ca5c1461037157600080fd5b806342966c68146102dc57806344b1231f146102ef5780634626402b146102f85780634cfc4d301461032357600080fd5b806318160ddd116101ef57806318160ddd146102a057806323b872dd146102a8578063313ce567146102bb578063395afcca146102ca5780633f4ba83a146102d457600080fd5b806306fdde0314610221578063095ea7b31461023f578063097cd9bf146102625780630b484b151461028a575b600080fd5b6102296104c3565b6040516102369190611065565b60405180910390f35b61025261024d3660046110cf565b610555565b6040519015158152602001610236565b61026a61056f565b604080519485526020850193909352918301526060820152608001610236565b6102926105c7565b604051908152602001610236565b600254610292565b6102526102b63660046110f9565b610647565b60405160128152602001610236565b6102d261066b565b005b6102d26107c0565b6102d26102ea366004611135565b6107d0565b61029260115481565b600c5461030b906001600160a01b031681565b6040516001600160a01b039091168152602001610236565b61029262ed4e0081565b600d5461030b906001600160a01b031681565b60055460ff16610252565b6102d2610359366004611135565b6107dd565b60075461030b906001600160a01b031681565b610292603281565b61029261038736600461114e565b6001600160a01b031660009081526020819052604090205490565b6102d26108e3565b6102d26103b83660046110cf565b6108f5565b600a5461030b906001600160a01b031681565b6102d261090e565b600e5461030b906001600160a01b031681565b60055461010090046001600160a01b031661030b565b61022961091e565b610292600a81565b61029260105481565b6102526104283660046110cf565b61092d565b60095461030b906001600160a01b031681565b600b5461030b906001600160a01b031681565b60085461030b906001600160a01b031681565b610292600f5481565b61026a61093b565b610292610485366004611170565b6001600160a01b03918216600090815260016020908152604080832093909416825291909152205490565b6102d26104be36600461114e565b61099c565b6060600380546104d2906111a3565b80601f01602080910402602001604051908101604052809291908181526020018280546104fe906111a3565b801561054b5780601f106105205761010080835404028352916020019161054b565b820191906000526020600020905b81548152906001019060200180831161052e57829003601f168201915b5050505050905090565b6000336105638185856109d7565b60019150505b92915050565b600080600080600061058060025490565b9050809450600f5493506011546a6342fd08f00f63780000006105a391906111f3565b925082600f54826105b491906111f3565b6105be91906111f3565b91505090919293565b60006010544210156105d95750600090565b6000601054426105e991906111f3565b90506a6342fd08f00f637800000062ed4e0082106106155760115461060e90826111f3565b9250505090565b600062ed4e006106258484611206565b61062f919061121d565b90506011548161063f91906111f3565b935050505090565b6000336106558582856109e9565b610660858585610a68565b506001949350505050565b610673610ac7565b600a546001600160a01b03163314806106ad575060055461010090046001600160a01b03166001600160a01b0316336001600160a01b0316145b6106ef5760405162461bcd60e51b815260206004820152600e60248201526d139bdd08185d5d1a1bdc9a5e995960921b60448201526064015b60405180910390fd5b60006106f96105c7565b9050600081116107425760405162461bcd60e51b81526020600482015260146024820152734e6f20746f6b656e7320746f2072656c6561736560601b60448201526064016106e6565b8060116000828254610754919061123f565b9091555050600a546107719030906001600160a01b031683610a68565b600a546040518281526001600160a01b03909116907f4ad7799f99297062cea73c5a21d23a1fcf49f6a1957f7409712e555a0dcd1e1d9060200160405180910390a2506107be6001600655565b565b6107c8610af1565b6107be610b24565b6107da3382610b76565b50565b6107e5610af1565b600081116108355760405162461bcd60e51b815260206004820152601d60248201527f416d6f756e74206d7573742062652067726561746572207468616e203000000060448201526064016106e6565b600c5461084b906001600160a01b031682610b76565b80600f600082825461085d919061123f565b9091555050600c546040516001600160a01b03909116907ffad31924d655455395c87544c8aa1ffdb5a7505a22a3c2e03f28003b6556a75f906108d8908481526040602082018190526017908201527f5472656173757279206275796261636b2026206275726e000000000000000000606082015260800190565b60405180910390a250565b6108eb610af1565b6107be6000610bac565b6109008233836109e9565b61090a8282610b76565b5050565b610916610af1565b6107be610c06565b6060600480546104d2906111a3565b600033610563818585610a68565b6011546a6342fd08f00f6378000000906000806109566105c7565b915062ed4e00601054610969919061123f565b421061097757506000610996565b4262ed4e00601054610989919061123f565b61099391906111f3565b90505b90919293565b6109a4610af1565b6001600160a01b0381166109ce57604051631e4fbdf760e01b8152600060048201526024016106e6565b6107da81610bac565b6109e48383836001610c43565b505050565b6001600160a01b03838116600090815260016020908152604080832093861683529290522054600019811015610a625781811015610a5357604051637dc7a0d960e11b81526001600160a01b038416600482015260248101829052604481018390526064016106e6565b610a6284848484036000610c43565b50505050565b6001600160a01b038316610a9257604051634b637e8f60e11b8152600060048201526024016106e6565b6001600160a01b038216610abc5760405163ec442f0560e01b8152600060048201526024016106e6565b6109e4838383610d18565b600260065403610aea57604051633ee5aeb560e01b815260040160405180910390fd5b6002600655565b6005546001600160a01b036101009091041633146107be5760405163118cdaa760e01b81523360048201526024016106e6565b610b2c610ee6565b6005805460ff191690557f5db9ee0a495bf2e6ff9c91a7834c1ba4fdd244a5e8aa4e537bd38aeae4b073aa335b6040516001600160a01b03909116815260200160405180910390a1565b6001600160a01b038216610ba057604051634b637e8f60e11b8152600060048201526024016106e6565b61090a82600083610d18565b600580546001600160a01b03838116610100818102610100600160a81b031985161790945560405193909204169182907f8be0079c531659141344cd1fd0a4f28419497f9722a3daafe3b4186f6b6457e090600090a35050565b610c0e610f09565b6005805460ff191660011790557f62e78cea01bee320cd4e420270b5ea74000d11b0c9f74754ebdbfc544b05a258610b593390565b6001600160a01b038416610c6d5760405163e602df0560e01b8152600060048201526024016106e6565b6001600160a01b038316610c9757604051634a1406b160e11b8152600060048201526024016106e6565b6001600160a01b0380851660009081526001602090815260408083209387168352929052208290558015610a6257826001600160a01b0316846001600160a01b03167f8c5be1e5ebec7d5bd14f71427d1e84f3dd0314c0f7b2291e5b200ac8c7c3b92584604051610d0a91815260200190565b60405180910390a350505050565b60006001600160a01b0384161580610d3757506001600160a01b038316155b80610d4a57506001600160a01b03841630145b80610d6257506008546001600160a01b038581169116145b80610d7a57506008546001600160a01b038481169116145b80610d925750600c546001600160a01b038581169116145b80610daa5750600c546001600160a01b038481169116145b80610dc25750600b546001600160a01b038581169116145b80610dda5750600b546001600160a01b038481169116145b80610df257506007546001600160a01b038581169116145b80610e0a57506007546001600160a01b038481169116145b905080158015610e18575060015b15610edb576000612710610e2d600a85611206565b610e37919061121d565b90508015610ed957610e4b85600083610f2d565b80600f6000828254610e5d919061123f565b92505081905550846001600160a01b03167ffad31924d655455395c87544c8aa1ffdb5a7505a22a3c2e03f28003b6556a75f82604051610ec4918152604060208201819052600d908201526c2a3930b739b332b910313ab93760991b606082015260800190565b60405180910390a2610ed681846111f3565b92505b505b610a62848484610f2d565b60055460ff166107be57604051638dfc202b60e01b815260040160405180910390fd5b60055460ff16156107be5760405163d93c066560e01b815260040160405180910390fd5b610f35610f09565b6109e48383836001600160a01b038316610f66578060026000828254610f5b919061123f565b90915550610fd89050565b6001600160a01b03831660009081526020819052604090205481811015610fb95760405163391434e360e21b81526001600160a01b038516600482015260248101829052604481018390526064016106e6565b6001600160a01b03841660009081526020819052604090209082900390555b6001600160a01b038216610ff457600280548290039055611013565b6001600160a01b03821660009081526020819052604090208054820190555b816001600160a01b0316836001600160a01b03167fddf252ad1be2c89b69c2b068fc378daa952ba7f163c4a11628f55a4df523b3ef8360405161105891815260200190565b60405180910390a3505050565b600060208083528351808285015260005b8181101561109257858101830151858201604001528201611076565b506000604082860101526040601f19601f8301168501019250505092915050565b80356001600160a01b03811681146110ca57600080fd5b919050565b600080604083850312156110e257600080fd5b6110eb836110b3565b946020939093013593505050565b60008060006060848603121561110e57600080fd5b611117846110b3565b9250611125602085016110b3565b9150604084013590509250925092565b60006020828403121561114757600080fd5b5035919050565b60006020828403121561116057600080fd5b611169826110b3565b9392505050565b6000806040838503121561118357600080fd5b61118c836110b3565b915061119a602084016110b3565b90509250929050565b600181811c908216806111b757607f821691505b6020821081036111d757634e487b7160e01b600052602260045260246000fd5b50919050565b634e487b7160e01b600052601160045260246000fd5b81810381811115610569576105696111dd565b8082028115828204841417610569576105696111dd565b60008261123a57634e487b7160e01b600052601260045260246000fd5b500490565b80820180821115610569576105696111dd56fea26469706673582212201c72684ac0fb8184a8c3ba5999b50d158a29d4ae77d104c6751d431313e1011264736f6c63430008140033",
  "linkReferences": {},
  "deployedLinkReferences": {}
}