{
  "_format": "hh-sol-artifact-1",
  "contractName": "BlazeTokenPresale",
  "sourceName": "contracts/BlazeTokenPresale.sol",
  "abi": [
    {
      "inputs": [
        {
          "internalType": "address",
          "name": "_presaleContract",
          "type": "address"
        },
        {
          "internalType": "address",
          "name": "_liquidityWallet",
          "type": "address"
        },
        {
          "internalType": "address",
          "name": "_founderImmediateWallet",
          "type": "address"
        },
        {
          "internalType": "address",
          "name": "_founderVestingWallet",
          "type": "address"
        },
        {
          "internalType": "address",
          "name": "_communityWallet",
          "type": "address"
        },
        {
          "internalType": "address",
          "name": "_treasuryWallet",
          "type": "address"
        },
        {
          "internalType": "address",
          "name": "_teamWallet",
          "type": "address"
        },
        {
          "internalType": "address",
          "name": "_strategicWallet",
          "type": "address"
        }
      ],
      "stateMutability": "nonpayable",
      "type": "constructor"
    },
    {
      "inputs": [
        {
          "internalType": "address",
          "name": "spender",
          "type": "address"
        },
        {
          "internalType": "uint256",
          "name": "allowance",
          "type": "uint256"
        },
        {
          "internalType": "uint256",
          "name": "needed",
          "type": "uint256"
        }
      ],
      "name": "ERC20InsufficientAllowance",
      "type": "error"
    },
    {
      "inputs": [
        {
          "internalType": "address",
          "name": "sender",
          "type": "address"
        },
        {
          "internalType": "uint256",
          "name": "balance",
          "type": "uint256"
        },
        {
          "internalType": "uint256",
          "name": "needed",
          "type": "uint256"
        }
      ],
      "name": "ERC20InsufficientBalance",
      "type": "error"
    },
    {
      "inputs": [
        {
          "internalType": "address",
          "name": "approver",
          "type": "address"
        }
      ],
      "name": "ERC20InvalidApprover",
      "type": "error"
    },
    {
      "inputs": [
        {
          "internalType": "address",
          "name": "receiver",
          "type": "address"
        }
      ],
      "name": "ERC20InvalidReceiver",
      "type": "error"
    },
    {
      "inputs": [
        {
          "internalType": "address",
          "name": "sender",
          "type": "address"
        }
      ],
      "name": "ERC20InvalidSender",
      "type": "error"
    },
    {
      "inputs": [
        {
          "internalType": "address",
          "name": "spender",
          "type": "address"
        }
      ],
      "name": "ERC20InvalidSpender",
      "type": "error"
    },
    {
      "inputs": [],
      "name": "EnforcedPause",
      "type": "error"
    },
    {
      "inputs": [],
      "name": "ExpectedPause",
      "type": "error"
    },
    {
      "inputs": [
        {
          "internalType": "address",
          "name": "owner",
          "type": "address"
        }
      ],
      "name": "OwnableInvalidOwner",
      "type": "error"
    },
    {
      "inputs": [
        {
          "internalType": "address",
          "name": "account",
          "type": "address"
        }
      ],
      "name": "OwnableUnauthorizedAccount",
      "type": "error"
    },
    {
      "inputs": [],
      "name": "ReentrancyGuardReentrantCall",
      "type": "error"
    },
    {
      "anonymous": false,
      "inputs": [
        {
          "indexed": true,
          "internalType": "address",
          "name": "owner",
          "type": "address"
        },
        {
          "indexed": true,
          "internalType": "address",
          "name": "spender",
          "type": "address"
        },
        {
          "indexed": false,
          "internalType": "uint256",
          "name": "value",
          "type": "uint256"
        }
      ],
      "name": "Approval",
      "type": "event"
    },
    {
      "anonymous": false,
      "inputs": [
        {
          "indexed": true,
          "internalType": "address",
          "name": "previousOwner",
          "type": "address"
        },
        {
          "indexed": true,
          "internalType": "address",
          "name": "newOwner",
          "type": "address"
        }
      ],
      "name": "OwnershipTransferred",
      "type": "event"
    },
    {
      "anonymous": false,
      "inputs": [
        {
          "indexed": false,
          "internalType": "address",
          "name": "account",
          "type": "address"
        }
      ],
      "name": "Paused",
      "type": "event"
    },
    {
      "anonymous": false,
      "inputs": [
        {
          "indexed": true,
          "internalType": "address",
          "name": "from",
          "type": "address"
        },
        {
          "indexed": false,
          "internalType": "uint256",
          "name": "amount",
          "type": "uint256"
        },
        {
          "indexed": false,
          "internalType": "string",
          "name": "reason",
          "type": "string"
        }
      ],
      "name": "TokensBurned",
      "type": "event"
    },
    {
      "anonymous": false,
      "inputs": [
        {
          "indexed": true,
          "internalType": "address",
          "name": "from",
          "type": "address"
        },
        {
          "indexed": true,
          "internalType": "address",
          "name": "to",
          "type": "address"
        },
        {
          "indexed": false,
          "internalType": "uint256",
          "name": "value",
          "type": "uint256"
        }
      ],
      "name": "Transfer",
      "type": "event"
    },
    {
      "anonymous": false,
      "inputs": [
        {
          "indexed": false,
          "internalType": "address",
          "name": "account",
          "type": "address"
        }
      ],
      "name": "Unpaused",
      "type": "event"
    },
    {
      "anonymous": false,
      "inputs": [
        {
          "indexed": true,
          "internalType": "address",
          "name": "beneficiary",
          "type": "address"
        },
        {
          "indexed": false,
          "internalType": "uint256",
          "name": "amount",
          "type": "uint256"
        }
      ],
      "name": "VestingReleased",
      "type": "event"
    },
    {
      "inputs": [],
      "name": "BURN_RATE_SWAP",
      "outputs": [
        {
          "internalType": "uint256",
          "name": "",
          "type": "uint256"
        }
      ],
      "stateMutability": "view",
      "type": "function"
    },
    {
      "inputs": [],
      "name": "BURN_RATE_TRANSFER",
      "outputs": [
        {
          "internalType": "uint256",
          "name": "",
          "type": "uint256"
        }
      ],
      "stateMutability": "view",
      "type": "function"
    },
    {
      "inputs": [],
      "name": "VESTING_DURATION",
      "outputs": [
        {
          "internalType": "uint256",
          "name": "",
          "type": "uint256"
        }
      ],
      "stateMutability": "view",
      "type": "function"
    },
    {
      "inputs": [
        {
          "internalType": "address",
          "name": "owner",
          "type": "address"
        },
        {
          "internalType": "address",
          "name": "spender",
          "type": "address"
        }
      ],
      "name": "allowance",
      "outputs": [
        {
          "internalType": "uint256",
          "name": "",
          "type": "uint256"
        }
      ],
      "stateMutability": "view",
      "type": "function"
    },
    {
      "inputs": [
        {
          "internalType": "address",
          "name": "spender",
          "type": "address"
        },
        {
          "internalType": "uint256",
          "name": "value",
          "type": "uint256"
        }
      ],
      "name": "approve",
      "outputs": [
        {
          "internalType": "bool",
          "name": "",
          "type": "bool"
        }
      ],
      "stateMutability": "nonpayable",
      "type": "function"
    },
    {
      "inputs": [
        {
          "internalType": "address",
          "name": "account",
          "type": "address"
        }
      ],
      "name": "balanceOf",
      "outputs": [
        {
          "internalType": "uint256",
          "name": "",
          "type": "uint256"
        }
      ],
      "stateMutability": "view",
      "type": "function"
    },
    {
      "inputs": [
        {
          "internalType": "uint256",
          "name": "value",
          "type": "uint256"
        }
      ],
      "name": "burn",
      "outputs": [],
      "stateMutability": "nonpayable",
      "type": "function"
    },
    {
      "inputs": [
        {
          "internalType": "address",
          "name": "account",
          "type": "address"
        },
        {
          "internalType": "uint256",
          "name": "value",
          "type": "uint256"
        }
      ],
      "name": "burnFrom",
      "outputs": [],
      "stateMutability": "nonpayable",
      "type": "function"
    },
    {
      "inputs": [
        {
          "internalType": "uint256",
          "name": "amount",
          "type": "uint256"
        }
      ],
      "name": "burnFromTreasury",
      "outputs": [],
      "stateMutability": "nonpayable",
      "type": "function"
    },
    {
      "inputs": [],
      "name": "calculateReleasableAmount",
      "outputs": [
        {
          "internalType": "uint256",
          "name": "",
          "type": "uint256"
        }
      ],
      "stateMutability": "view",
      "type": "function"
    },
    {
      "inputs": [],
      "name": "communityWallet",
      "outputs": [
        {
          "internalType": "address",
          "name": "",
          "type": "address"
        }
      ],
      "stateMutability": "view",
      "type": "function"
    },
    {
      "inputs": [],
      "name": "decimals",
      "outputs": [
        {
          "internalType": "uint8",
          "name": "",
          "type": "uint8"
        }
      ],
      "stateMutability": "view",
      "type": "function"
    },
    {
      "inputs": [],
      "name": "founderImmediateWallet",
      "outputs": [
        {
          "internalType": "address",
          "name": "",
          "type": "address"
        }
      ],
      "stateMutability": "view",
      "type": "function"
    },
    {
      "inputs": [],
      "name": "founderVestingWallet",
      "outputs": [
        {
          "internalType": "address",
          "name": "",
          "type": "address"
        }
      ],
      "stateMutability": "view",
      "type": "function"
    },
    {
      "inputs": [],
      "name": "getTokenStats",
      "outputs": [
        {
          "internalType": "uint256",
          "name": "circulatingSupply",
          "type": "uint256"
        },
        {
          "internalType": "uint256",
          "name": "burnedSupply",
          "type": "uint256"
        },
        {
          "internalType": "uint256",
          "name": "vestedSupply",
          "type": "uint256"
        },
        {
          "internalType": "uint256",
          "name": "effectiveSupply",
          "type": "uint256"
        }
      ],
      "stateMutability": "view",
      "type": "function"
    },
    {
      "inputs": [],
      "name": "getVestingInfo",
      "outputs": [
        {
          "internalType": "uint256",
          "name": "totalAmount",
          "type": "uint256"
        },
        {
          "internalType": "uint256",
          "name": "releasedAmount",
          "type": "uint256"
        },
        {
          "internalType": "uint256",
          "name": "releasableAmount",
          "type": "uint256"
        },
        {
          "internalType": "uint256",
          "name": "remainingTime",
          "type": "uint256"
        }
      ],
      "stateMutability": "view",
      "type": "function"
    },
    {
      "inputs": [],
      "name": "liquidityWallet",
      "outputs": [
        {
          "internalType": "address",
          "name": "",
          "type": "address"
        }
      ],
      "stateMutability": "view",
      "type": "function"
    },
    {
      "inputs": [],
      "name": "name",
      "outputs": [
        {
          "internalType": "string",
          "name": "",
          "type": "string"
        }
      ],
      "stateMutability": "view",
      "type": "function"
    },
    {
      "inputs": [],
      "name": "owner",
      "outputs": [
        {
          "internalType": "address",
          "name": "",
          "type": "address"
        }
      ],
      "stateMutability": "view",
      "type": "function"
    },
    {
      "inputs": [],
      "name": "pause",
      "outputs": [],
      "stateMutability": "nonpayable",
      "type": "function"
    },
    {
      "inputs": [],
      "name": "paused",
      "outputs": [
        {
          "internalType": "bool",
          "name": "",
          "type": "bool"
        }
      ],
      "stateMutability": "view",
      "type": "function"
    },
    {
      "inputs": [],
      "name": "presaleContract",
      "outputs": [
        {
          "internalType": "address",
          "name": "",
          "type": "address"
        }
      ],
      "stateMutability": "view",
      "type": "function"
    },
    {
      "inputs": [],
      "name": "releaseVesting",
      "outputs": [],
      "stateMutability": "nonpayable",
      "type": "function"
    },
    {
      "inputs": [],
      "name": "renounceOwnership",
      "outputs": [],
      "stateMutability": "nonpayable",
      "type": "function"
    },
    {
      "inputs": [],
      "name": "strategicWallet",
      "outputs": [
        {
          "internalType": "address",
          "name": "",
          "type": "address"
        }
      ],
      "stateMutability": "view",
      "type": "function"
    },
    {
      "inputs": [],
      "name": "symbol",
      "outputs": [
        {
          "internalType": "string",
          "name": "",
          "type": "string"
        }
      ],
      "stateMutability": "view",
      "type": "function"
    },
    {
      "inputs": [],
      "name": "teamWallet",
      "outputs": [
        {
          "internalType": "address",
          "name": "",
          "type": "address"
        }
      ],
      "stateMutability": "view",
      "type": "function"
    },
    {
      "inputs": [],
      "name": "totalBurned",
      "outputs": [
        {
          "internalType": "uint256",
          "name": "",
          "type": "uint256"
        }
      ],
      "stateMutability": "view",
      "type": "function"
    },
    {
      "inputs": [],
      "name": "totalSupply",
      "outputs": [
        {
          "internalType": "uint256",
          "name": "",
          "type": "uint256"
        }
      ],
      "stateMutability": "view",
      "type": "function"
    },
    {
      "inputs": [
        {
          "internalType": "address",
          "name": "to",
          "type": "address"
        },
        {
          "internalType": "uint256",
          "name": "value",
          "type": "uint256"
        }
      ],
      "name": "transfer",
      "outputs": [
        {
          "internalType": "bool",
          "name": "",
          "type": "bool"
        }
      ],
      "stateMutability": "nonpayable",
      "type": "function"
    },
    {
      "inputs": [
        {
          "internalType": "address",
          "name": "from",
          "type": "address"
        },
        {
          "internalType": "address",
          "name": "to",
          "type": "address"
        },
        {
          "internalType": "uint256",
          "name": "value",
          "type": "uint256"
        }
      ],
      "name": "transferFrom",
      "outputs": [
        {
          "internalType": "bool",
          "name": "",
          "type": "bool"
        }
      ],
      "stateMutability": "nonpayable",
      "type": "function"
    },
    {
      "inputs": [
        {
          "internalType": "address",
          "name": "newOwner",
          "type": "address"
        }
      ],
      "name": "transferOwnership",
      "outputs": [],
      "stateMutability": "nonpayable",
      "type": "function"
    },
    {
      "inputs": [],
      "name": "treasuryWallet",
      "outputs": [
        {
          "internalType": "address",
          "name": "",
          "type": "address"
        }
      ],
      "stateMutability": "view",
      "type": "function"
    },
    {
      "inputs": [],
      "name": "unpause",
      "outputs": [],
      "stateMutability": "nonpayable",
      "type": "function"
    },
    {
      "inputs": [],
      "name": "vestedAmount",
      "outputs": [
        {
          "internalType": "uint256",
          "name": "",
          "type": "uint256"
        }
      ],
      "stateMutability": "view",
      "type": "function"
    },
    {
      "inputs": [],
      "name": "vestingStartTime",
      "outputs": [
        {
          "internalType": "uint256",
          "name": "",
          "type": "uint256"
        }
      ],
      "stateMutability": "view",
      "type": "function"
    }
  ],
  "bytecode": "0x6080346200096b57601f62001d7f38819003918201601f19168301916001600160401b038311848410176200083d57808492610100946040528339810103126200096b576200004e8162000990565b6200005c6020830162000990565b6200006a6040840162000990565b90620000796060850162000990565b92620000886080860162000990565b946200009760a0820162000990565b92620000b460e0620000ac60c0850162000990565b930162000990565b92620000bf62000970565b600b81526a213630bd32902a37b5b2b760a91b6020820152620000e162000970565b6005815264424c415a4560d81b6020820152815190916001600160401b0382116200083d5760035490600182811c9216801562000960575b60208310146200081c5781601f849311620008ee575b50602090601f83116001146200085f5760009262000853575b50508160011b916000199060031b1c1916176003555b8051906001600160401b0382116200083d5760045490600182811c9216801562000832575b60208310146200081c5781601f849311620007aa575b50602090601f83116001146200071f5760009262000713575b50508160011b916000199060031b1c1916176004555b3315620006fa5760058054610100600160a81b0319811633600881811b610100600160a81b031692909217909355604051946001600160a01b0393909290911c83167f8be0079c531659141344cd1fd0a4f28419497f9722a3daafe3b4186f6b6457e0600080a36001600655818316938415620006b857508116968715620006735781169788156200062f578116988915620005ea578116958615620005a5578116938415620005605781169485156200051b5716978815620004d657620002e792899160018060a01b031991826007541617600755888260085416176008558982600954161760095581600a541617600a558681600b541617600b558481600c541617600c558581600d541617600d55600e541617600e55620009a5565b60ff928360055416620004c4576002958654956a94e47b8d6817153400000096878101809111620004ae57885560008181526020818152604080832080548b0190555198895260008051602062001d5f83398151915298899190a38460055416620004c45786546a422ca8b0a00a4250000000808201809211620004ae57602088916000938b5584845283825260408420818154019055604051908152a36200039030620009a5565b8360055416620004c45785546aa56fa5b99019a5c8000000808201809211620004ae57602087916000938a5584845283825260408420818154019055604051908152a38260055416620004c45784546a7c13bc4b2c133c56000000808201809211620004ae5760208691600093895584845283825260408420818154019055604051908152a38160055416620004c45783546a52b7d2dcc80cd2e4000000808201809211620004ae5760208591600093885584845283825260408420818154019055604051908152a360055416620004c4578154916a295be96e64066972000000808401809411620004ae576000936020925584845283825260408420818154019055604051908152a342601055604051611339908162000a268239f35b634e487b7160e01b600052601160045260246000fd5b60405163d93c066560e01b8152600490fd5b60405162461bcd60e51b815260206004820152601860248201527f496e76616c6964207374726174656769632077616c6c657400000000000000006044820152606490fd5b60405162461bcd60e51b815260206004820152601360248201527f496e76616c6964207465616d2077616c6c6574000000000000000000000000006044820152606490fd5b60405162461bcd60e51b815260206004820152601760248201527f496e76616c69642074726561737572792077616c6c65740000000000000000006044820152606490fd5b60405162461bcd60e51b815260206004820152601860248201527f496e76616c696420636f6d6d756e6974792077616c6c657400000000000000006044820152606490fd5b60405162461bcd60e51b815260206004820152601e60248201527f496e76616c696420666f756e6465722076657374696e672077616c6c657400006044820152606490fd5b606460405162461bcd60e51b815260206004820152602060248201527f496e76616c696420666f756e64657220696d6d6564696174652077616c6c65746044820152fd5b60405162461bcd60e51b815260206004820152601860248201527f496e76616c6964206c69717569646974792077616c6c657400000000000000006044820152606490fd5b62461bcd60e51b815260206004820152601860248201527f496e76616c69642070726573616c6520636f6e747261637400000000000000006044820152606490fd5b604051631e4fbdf760e01b815260006004820152602490fd5b015190503880620001b2565b600460009081527f8a35acfbc15ff81a39ae7d344fd709f28e8600b4aa8c65c6b64bfe7fe36bd19b9350601f198516905b81811062000791575090846001959493921062000777575b505050811b01600455620001c8565b015160001960f88460031b161c1916905538808062000768565b9293602060018192878601518155019501930162000750565b60046000529091507f8a35acfbc15ff81a39ae7d344fd709f28e8600b4aa8c65c6b64bfe7fe36bd19b601f840160051c81016020851062000814575b90849392915b601f830160051c820181106200080457505062000199565b60008155859450600101620007ec565b5080620007e6565b634e487b7160e01b600052602260045260246000fd5b91607f169162000183565b634e487b7160e01b600052604160045260246000fd5b01519050388062000148565b6003600090815293507fc2575a0e9e593c00f959f8c92f12db2869c3395a3b0502d05e2516446f71f85b91905b601f1984168510620008d2576001945083601f19811610620008b8575b505050811b016003556200015e565b015160001960f88460031b161c19169055388080620008a9565b818101518355602094850194600190930192909101906200088c565b60036000529091507fc2575a0e9e593c00f959f8c92f12db2869c3395a3b0502d05e2516446f71f85b601f840160051c81016020851062000958575b90849392915b601f830160051c82018110620009485750506200012f565b6000815585945060010162000930565b50806200092a565b91607f169162000119565b600080fd5b60408051919082016001600160401b038111838210176200083d57604052565b51906001600160a01b03821682036200096b57565b6001600160a01b0316801562000a0c5760ff60055416620004c4576002546a6342fd08f00f6378000000808201809211620004ae57602060008051602062001d5f8339815191529160009360025584845283825260408420818154019055604051908152a3565b60405163ec442f0560e01b815260006004820152602490fdfe6080604081815260048036101561001557600080fd5b600092833560e01c90816306fdde0314610c3d57508063095ea7b314610b94578063097cd9bf14610b1f5780630b484b1514610afb57806318160ddd14610adc57806323b872dd14610a9f578063313ce56714610a83578063395afcca146109595780633f4ba83a146108f057806342966c68146108d257806344b1231f146108b35780634626402b1461088a5780634cfc4d301461086c57806359927044146108435780635c975abb1461081f5780635f9d99091461073157806363d9df85146107085780636f16ca5c146106ec57806370a08231146106b5578063715018a61461065457806379cc67901461061e5780637bffbfbe146105f55780638456cb591461059a5780638922e021146105715780638da5cb5b1461054457806395d89b411461042457806399460b4514610408578063a8660a78146103e9578063a9059cbb146103b8578063bfcfd1b51461038f578063c757483914610366578063d46980161461033d578063d89135cd1461031e578063dc25a3001461029b578063dd62ed3e1461024e5763f2fde38b146101af57600080fd5b3461024a57602036600319011261024a576101c8610d7b565b6101d0610dac565b6001600160a01b0381811693909290841561023457505060058054610100600160a81b03198116600893841b610100600160a81b031617909155901c167f8be0079c531659141344cd1fd0a4f28419497f9722a3daafe3b4186f6b6457e08380a380f35b51631e4fbdf760e01b8152908101859052602490fd5b8280fd5b5050346102975780600319360112610297578060209261026c610d7b565b610274610d96565b6001600160a01b0391821683526001865283832091168252845220549051908152f35b5080fd5b50919034610297578160031936011261029757601154916102ba611257565b9060105462ed4e00810180911161030b57608095504281116102f95750915b8051936a6342fd08f00f6378000000855260208501528301526060820152f35b6103059150429061124a565b916102d9565b634e487b7160e01b825260118652602482fd5b505034610297578160031936011261029757602090600f549051908152f35b50503461029757816003193601126102975760085490516001600160a01b039091168152602090f35b505034610297578160031936011261029757600b5490516001600160a01b039091168152602090f35b50503461029757816003193601126102975760095490516001600160a01b039091168152602090f35b5050346102975780600319360112610297576020906103e26103d8610d7b565b6024359033610ddb565b5160018152f35b5050346102975781600319360112610297576020906010549051908152f35b50503461029757816003193601126102975760209051600a8152f35b50919034610297578160031936011261029757805190828454600181811c9080831692831561053a575b60209384841081146105275783885290811561050b57506001146104b6575b505050829003601f01601f191682019267ffffffffffffffff8411838510176104a3575082918261049f925282610d32565b0390f35b634e487b7160e01b815260418552602490fd5b8787529192508591837f8a35acfbc15ff81a39ae7d344fd709f28e8600b4aa8c65c6b64bfe7fe36bd19b5b8385106104f7575050505083010138808061046d565b8054888601830152930192849082016104e1565b60ff1916878501525050151560051b840101905038808061046d565b634e487b7160e01b895260228a52602489fd5b91607f169161044e565b505034610297578160031936011261029757600554905160089190911c6001600160a01b03168152602090f35b505034610297578160031936011261029757600e5490516001600160a01b039091168152602090f35b50503461029757816003193601126102975760207f62e78cea01bee320cd4e420270b5ea74000d11b0c9f74754ebdbfc544b05a258916105d8610dac565b6105e06112c5565b600160ff19600554161760055551338152a180f35b505034610297578160031936011261029757600a5490516001600160a01b039091168152602090f35b505034610297573660031901126106515761064e61063a610d7b565b602435906106498233836110d5565b6111a8565b80f35b80fd5b833461065157806003193601126106515761066d610dac565b60058054610100600160a81b03198116909155819060081c6001600160a01b03167f8be0079c531659141344cd1fd0a4f28419497f9722a3daafe3b4186f6b6457e08280a380f35b5050346102975760203660031901126102975760209181906001600160a01b036106dd610d7b565b16815280845220549051908152f35b5050346102975781600319360112610297576020905160328152f35b50503461029757816003193601126102975760075490516001600160a01b039091168152602090f35b503461024a57602036600319011261024a5780359061074e610dac565b81156107dc575060807ffad31924d655455395c87544c8aa1ffdb5a7505a22a3c2e03f28003b6556a75f91601760018060a01b036107908382600c54166111a8565b61079c83600f5461123d565b600f55600c54169480519283528060208401528201527f5472656173757279206275796261636b2026206275726e0000000000000000006060820152a280f35b606490602084519162461bcd60e51b8352820152601d60248201527f416d6f756e74206d7573742062652067726561746572207468616e20300000006044820152fd5b50503461029757816003193601126102975760209060ff6005541690519015158152f35b505034610297578160031936011261029757600d5490516001600160a01b039091168152602090f35b5050346102975781600319360112610297576020905162ed4e008152f35b505034610297578160031936011261029757600c5490516001600160a01b039091168152602090f35b5050346102975781600319360112610297576020906011549051908152f35b8382346102975760203660031901126102975761064e9035336111a8565b503461024a578260031936011261024a57610909610dac565b6005549060ff82161561094b575060ff1916600555513381527f5db9ee0a495bf2e6ff9c91a7834c1ba4fdd244a5e8aa4e537bd38aeae4b073aa90602090a180f35b8251638dfc202b60e01b8152fd5b503461024a578260031936011261024a57600260065414610a75576002600655600a546001600160a01b039081163381148015610a65575b15610a315761099e611257565b9283156109f75750916020916109e5827f4ad7799f99297062cea73c5a21d23a1fcf49f6a1957f7409712e555a0dcd1e1d956109dc8260115461123d565b60115530610ddb565b600a54169351908152a2600160065580f35b606490602086519162461bcd60e51b835282015260146024820152734e6f20746f6b656e7320746f2072656c6561736560601b6044820152fd5b835162461bcd60e51b8152602081850152600e60248201526d139bdd08185d5d1a1bdc9a5e995960921b6044820152606490fd5b508160055460081c163314610991565b9051633ee5aeb560e01b8152fd5b5050346102975781600319360112610297576020905160128152f35b505034610297576060366003190112610297576020906103e2610ac0610d7b565b610ac8610d96565b60443591610ad78333836110d5565b610ddb565b5050346102975781600319360112610297576020906002549051908152f35b505034610297578160031936011261029757602090610b18611257565b9051908152f35b5091903461029757816003193601126102975760025491600f5491601154916a6342fd08f00f6378000000928303928311610b81575060809450610b6c82610b67858761124a565b61124a565b92815194855260208501528301526060820152f35b634e487b7160e01b815260118652602490fd5b503461024a578160031936011261024a57610bad610d7b565b602435903315610c26576001600160a01b0316918215610c0f57508083602095338152600187528181208582528752205582519081527f8c5be1e5ebec7d5bd14f71427d1e84f3dd0314c0f7b2291e5b200ac8c7c3b925843392a35160018152f35b8351634a1406b160e11b8152908101859052602490fd5b835163e602df0560e01b8152808401869052602490fd5b849150833461024a578260031936011261024a5782600354600181811c90808316928315610d28575b602093848410811461052757838852908115610d0c5750600114610cb657505050829003601f01601f191682019267ffffffffffffffff8411838510176104a3575082918261049f925282610d32565b600387529192508591837fc2575a0e9e593c00f959f8c92f12db2869c3395a3b0502d05e2516446f71f85b5b838510610cf8575050505083010185808061046d565b805488860183015293019284908201610ce2565b60ff1916878501525050151560051b840101905085808061046d565b91607f1691610c66565b6020808252825181830181905290939260005b828110610d6757505060409293506000838284010152601f8019910116010190565b818101860151848201604001528501610d45565b600435906001600160a01b0382168203610d9157565b600080fd5b602435906001600160a01b0382168203610d9157565b60055460081c6001600160a01b03163303610dc357565b60405163118cdaa760e01b8152336004820152602490fd5b6001600160a01b0381811692909190831590816110bc5783169485156110a3578093308614908115611095575b8115611087575b8115611079575b811561106b575b811561105d575b811561104f575b8115611041575b8115611033575b50158061102b575b610f03575b50610e4f6112c5565b15610e935750602081610e736000805160206112e48339815191529360025461123d565b6002555b84600052600082526040600020818154019055604051908152a3565b60009083825281602052604082205490838210610ed1575091816040826000805160206112e483398151915295876020965283865203912055610e77565b60405163391434e360e21b81526001600160a01b03919091166004820152602481019190915260448101839052606490fd5b600a8102818104600a148215171561101557612710900480610f26575b50610e46565b91509250610f326112c5565b60009284845283602052604080852054838110610fe6577ffad31924d655455395c87544c8aa1ffdb5a7505a22a3c2e03f28003b6556a75f6080859493610fde968a94858b528a60205203818a2055856002540360025588846000805160206112e4833981519152602084518a8152a3610fae86600f5461123d565b600f55600d8151918783528060208401528201526c2a3930b739b332b910313ab93760991b6060820152a261124a565b913880610f20565b815163391434e360e21b81526001600160a01b0386166004820152602481019190915260448101849052606490fd5b634e487b7160e01b600052601160045260246000fd5b506001610e41565b905060075416861438610e39565b600754811687149150610e32565b600b54811688149150610e2b565b600b54811687149150610e24565b600c54811688149150610e1d565b600c54811687149150610e16565b600854811688149150610e0f565b600854811687149150610e08565b60405163ec442f0560e01b815260006004820152602490fd5b604051634b637e8f60e11b815260006004820152602490fd5b9160018060a01b038093169160009383855260016020526040938486209183169182875260205284862054926000198410611114575b50505050505050565b848410611178575080156111605781156111485785526001602052838520908552602052039120553880808080808061110b565b8451634a1406b160e11b815260048101879052602490fd5b845163e602df0560e01b815260048101879052602490fd5b8551637dc7a0d960e11b81526001600160a01b039190911660048201526024810184905260448101859052606490fd5b906001600160a01b0382169081156110bc576111c26112c5565b6000928284528360205260408420549082821061120b5750816000805160206112e4833981519152926020928587528684520360408620558060025403600255604051908152a3565b60405163391434e360e21b81526001600160a01b03919091166004820152602481019190915260448101829052606490fd5b9190820180921161101557565b9190820391821161101557565b6010548042106112bf5761126b904261124a565b62ed4e0090818110156112a1576a6342fd08f00f637800000090808202918204036110155761129e91601154910461124a565b90565b50506011546a6342fd08f00f63780000009081039081116110155790565b50600090565b60ff600554166112d157565b60405163d93c066560e01b8152600490fdfeddf252ad1be2c89b69c2b068fc378daa952ba7f163c4a11628f55a4df523b3efa26469706673582212207ccf1f5f6a2b76acf917fa8c806e671e5e84c802157ceb0d5d4e7e9b2d966d1964736f6c63430008140033ddf252ad1be2c89b69c2b068fc378daa952ba7f163c4a11628f55a4df523b3ef",
  "linkReferences": {},
  "deployedLinkReferences": {}
}