{
  "_format": "hh-sol-artifact-1",
  "contractName": "BlazeTokenV3",
  "sourceName": "contracts/BlazeTokenV3.sol",
  "abi": [
    {
      "inputs": [
        {
          "internalType": "address",
          "name": "_publicSaleWallet",
          "type": "address"
        },
        {
          "internalType": "address",
          "name": "_founderWallet",
          "type": "address"
        },
        {
          "internalType": "address",
          "name": "_communityWallet",
          "type": "address"
        },
        {
          "internalType": "address",
          "name": "_treasuryWallet",
          "type": "address"
        },
        {
          "internalType": "address",
          "name": "_teamWallet",
          "type": "address"
        },
        {
          "internalType": "address",
          "name": "_strategicWallet",
          "type": "address"
        },
        {
          "internalType": "address",
          "name": "_liquidityWallet",
          "type": "address"
        }
      ],
      "stateMutability": "nonpayable",
      "type": "constructor"
    },
    {
      "inputs": [
        {
          "internalType": "address",
          "name": "spender",
          "type": "address"
        },
        {
          "internalType": "uint256",
          "name": "allowance",
          "type": "uint256"
        },
        {
          "internalType": "uint256",
          "name": "needed",
          "type": "uint256"
        }
      ],
      "name": "ERC20InsufficientAllowance",
      "type": "error"
    },
    {
      "inputs": [
        {
          "internalType": "address",
          "name": "sender",
          "type": "address"
        },
        {
          "internalType": "uint256",
          "name": "balance",
          "type": "uint256"
        },
        {
          "internalType": "uint256",
          "name": "needed",
          "type": "uint256"
        }
      ],
      "name": "ERC20InsufficientBalance",
      "type": "error"
    },
    {
      "inputs": [
        {
          "internalType": "address",
          "name": "approver",
          "type": "address"
        }
      ],
      "name": "ERC20InvalidApprover",
      "type": "error"
    },
    {
      "inputs": [
        {
          "internalType": "address",
          "name": "receiver",
          "type": "address"
        }
      ],
      "name": "ERC20InvalidReceiver",
      "type": "error"
    },
    {
      "inputs": [
        {
          "internalType": "address",
          "name": "sender",
          "type": "address"
        }
      ],
      "name": "ERC20InvalidSender",
      "type": "error"
    },
    {
      "inputs": [
        {
          "internalType": "address",
          "name": "spender",
          "type": "address"
        }
      ],
      "name": "ERC20InvalidSpender",
      "type": "error"
    },
    {
      "inputs": [],
      "name": "EnforcedPause",
      "type": "error"
    },
    {
      "inputs": [],
      "name": "ExpectedPause",
      "type": "error"
    },
    {
      "inputs": [
        {
          "internalType": "address",
          "name": "owner",
          "type": "address"
        }
      ],
      "name": "OwnableInvalidOwner",
      "type": "error"
    },
    {
      "inputs": [
        {
          "internalType": "address",
          "name": "account",
          "type": "address"
        }
      ],
      "name": "OwnableUnauthorizedAccount",
      "type": "error"
    },
    {
      "inputs": [],
      "name": "ReentrancyGuardReentrantCall",
      "type": "error"
    },
    {
      "anonymous": false,
      "inputs": [
        {
          "indexed": true,
          "internalType": "address",
          "name": "owner",
          "type": "address"
        },
        {
          "indexed": true,
          "internalType": "address",
          "name": "spender",
          "type": "address"
        },
        {
          "indexed": false,
          "internalType": "uint256",
          "name": "value",
          "type": "uint256"
        }
      ],
      "name": "Approval",
      "type": "event"
    },
    {
      "anonymous": false,
      "inputs": [
        {
          "indexed": true,
          "internalType": "address",
          "name": "user",
          "type": "address"
        },
        {
          "indexed": false,
          "internalType": "uint256",
          "name": "amount",
          "type": "uint256"
        }
      ],
      "name": "CashbackPaid",
      "type": "event"
    },
    {
      "anonymous": false,
      "inputs": [
        {
          "indexed": true,
          "internalType": "address",
          "name": "user",
          "type": "address"
        },
        {
          "indexed": false,
          "internalType": "bool",
          "name": "status",
          "type": "bool"
        }
      ],
      "name": "LaunchpadWhitelistUpdated",
      "type": "event"
    },
    {
      "anonymous": false,
      "inputs": [
        {
          "indexed": true,
          "internalType": "address",
          "name": "previousOwner",
          "type": "address"
        },
        {
          "indexed": true,
          "internalType": "address",
          "name": "newOwner",
          "type": "address"
        }
      ],
      "name": "OwnershipTransferred",
      "type": "event"
    },
    {
      "anonymous": false,
      "inputs": [
        {
          "indexed": false,
          "internalType": "address",
          "name": "account",
          "type": "address"
        }
      ],
      "name": "Paused",
      "type": "event"
    },
    {
      "anonymous": false,
      "inputs": [
        {
          "indexed": true,
          "internalType": "address",
          "name": "user",
          "type": "address"
        }
      ],
      "name": "PremiumActivated",
      "type": "event"
    },
    {
      "anonymous": false,
      "inputs": [
        {
          "indexed": true,
          "internalType": "address",
          "name": "user",
          "type": "address"
        }
      ],
      "name": "PremiumRevoked",
      "type": "event"
    },
    {
      "anonymous": false,
      "inputs": [
        {
          "indexed": true,
          "internalType": "uint256",
          "name": "proposalId",
          "type": "uint256"
        },
        {
          "indexed": false,
          "internalType": "string",
          "name": "description",
          "type": "string"
        }
      ],
      "name": "ProposalCreated",
      "type": "event"
    },
    {
      "anonymous": false,
      "inputs": [
        {
          "indexed": true,
          "internalType": "uint256",
          "name": "proposalId",
          "type": "uint256"
        }
      ],
      "name": "ProposalExecuted",
      "type": "event"
    },
    {
      "anonymous": false,
      "inputs": [
        {
          "indexed": true,
          "internalType": "address",
          "name": "referee",
          "type": "address"
        },
        {
          "indexed": true,
          "internalType": "address",
          "name": "referrer",
          "type": "address"
        }
      ],
      "name": "ReferralRegistered",
      "type": "event"
    },
    {
      "anonymous": false,
      "inputs": [
        {
          "indexed": true,
          "internalType": "address",
          "name": "referrer",
          "type": "address"
        },
        {
          "indexed": true,
          "internalType": "address",
          "name": "referee",
          "type": "address"
        },
        {
          "indexed": false,
          "internalType": "uint256",
          "name": "amount",
          "type": "uint256"
        }
      ],
      "name": "ReferralRewardPaid",
      "type": "event"
    },
    {
      "anonymous": false,
      "inputs": [
        {
          "indexed": true,
          "internalType": "address",
          "name": "user",
          "type": "address"
        },
        {
          "indexed": false,
          "internalType": "uint256",
          "name": "reward",
          "type": "uint256"
        }
      ],
      "name": "RewardClaimed",
      "type": "event"
    },
    {
      "anonymous": false,
      "inputs": [
        {
          "indexed": true,
          "internalType": "address",
          "name": "user",
          "type": "address"
        },
        {
          "indexed": false,
          "internalType": "uint256",
          "name": "amount",
          "type": "uint256"
        },
        {
          "indexed": false,
          "internalType": "uint256",
          "name": "lockPeriod",
          "type": "uint256"
        }
      ],
      "name": "Staked",
      "type": "event"
    },
    {
      "anonymous": false,
      "inputs": [
        {
          "indexed": true,
          "internalType": "address",
          "name": "user",
          "type": "address"
        },
        {
          "indexed": false,
          "internalType": "uint256",
          "name": "amount",
          "type": "uint256"
        }
      ],
      "name": "SwapFeePaid",
      "type": "event"
    },
    {
      "anonymous": false,
      "inputs": [
        {
          "indexed": true,
          "internalType": "address",
          "name": "from",
          "type": "address"
        },
        {
          "indexed": false,
          "internalType": "uint256",
          "name": "amount",
          "type": "uint256"
        },
        {
          "indexed": false,
          "internalType": "string",
          "name": "reason",
          "type": "string"
        }
      ],
      "name": "TokensBurned",
      "type": "event"
    },
    {
      "anonymous": false,
      "inputs": [
        {
          "indexed": true,
          "internalType": "address",
          "name": "from",
          "type": "address"
        },
        {
          "indexed": true,
          "internalType": "address",
          "name": "to",
          "type": "address"
        },
        {
          "indexed": false,
          "internalType": "uint256",
          "name": "value",
          "type": "uint256"
        }
      ],
      "name": "Transfer",
      "type": "event"
    },
    {
      "anonymous": false,
      "inputs": [
        {
          "indexed": false,
          "internalType": "address",
          "name": "account",
          "type": "address"
        }
      ],
      "name": "Unpaused",
      "type": "event"
    },
    {
      "anonymous": false,
      "inputs": [
        {
          "indexed": true,
          "internalType": "address",
          "name": "user",
          "type": "address"
        },
        {
          "indexed": false,
          "internalType": "uint256",
          "name": "amount",
          "type": "uint256"
        },
        {
          "indexed": false,
          "internalType": "uint256",
          "name": "reward",
          "type": "uint256"
        }
      ],
      "name": "Unstaked",
      "type": "event"
    },
    {
      "anonymous": false,
      "inputs": [
        {
          "indexed": true,
          "internalType": "uint256",
          "name": "proposalId",
          "type": "uint256"
        },
        {
          "indexed": true,
          "internalType": "address",
          "name": "voter",
          "type": "address"
        },
        {
          "indexed": false,
          "internalType": "bool",
          "name": "support",
          "type": "bool"
        },
        {
          "indexed": false,
          "internalType": "uint256",
          "name": "weight",
          "type": "uint256"
        }
      ],
      "name": "Voted",
      "type": "event"
    },
    {
      "inputs": [],
      "name": "BURN_RATE",
      "outputs": [
        {
          "internalType": "uint256",
          "name": "",
          "type": "uint256"
        }
      ],
      "stateMutability": "view",
      "type": "function"
    },
    {
      "inputs": [],
      "name": "CASHBACK_RATE",
      "outputs": [
        {
          "internalType": "uint256",
          "name": "",
          "type": "uint256"
        }
      ],
      "stateMutability": "view",
      "type": "function"
    },
    {
      "inputs": [],
      "name": "FLEXIBLE_APY",
      "outputs": [
        {
          "internalType": "uint256",
          "name": "",
          "type": "uint256"
        }
      ],
      "stateMutability": "view",
      "type": "function"
    },
    {
      "inputs": [],
      "name": "LAUNCHPAD_THRESHOLD",
      "outputs": [
        {
          "internalType": "uint256",
          "name": "",
          "type": "uint256"
        }
      ],
      "stateMutability": "view",
      "type": "function"
    },
    {
      "inputs": [],
      "name": "MIN_VOTE_TOKENS",
      "outputs": [
        {
          "internalType": "uint256",
          "name": "",
          "type": "uint256"
        }
      ],
      "stateMutability": "view",
      "type": "function"
    },
    {
      "inputs": [],
      "name": "ONE_YEAR_APY",
      "outputs": [
        {
          "internalType": "uint256",
          "name": "",
          "type": "uint256"
        }
      ],
      "stateMutability": "view",
      "type": "function"
    },
    {
      "inputs": [],
      "name": "PREMIUM_THRESHOLD",
      "outputs": [
        {
          "internalType": "uint256",
          "name": "",
          "type": "uint256"
        }
      ],
      "stateMutability": "view",
      "type": "function"
    },
    {
      "inputs": [],
      "name": "REFERRAL_FEE_SHARE",
      "outputs": [
        {
          "internalType": "uint256",
          "name": "",
          "type": "uint256"
        }
      ],
      "stateMutability": "view",
      "type": "function"
    },
    {
      "inputs": [],
      "name": "REFERRAL_REWARD",
      "outputs": [
        {
          "internalType": "uint256",
          "name": "",
          "type": "uint256"
        }
      ],
      "stateMutability": "view",
      "type": "function"
    },
    {
      "inputs": [],
      "name": "SIX_MONTH_APY",
      "outputs": [
        {
          "internalType": "uint256",
          "name": "",
          "type": "uint256"
        }
      ],
      "stateMutability": "view",
      "type": "function"
    },
    {
      "inputs": [],
      "name": "SWAP_BURN_RATE",
      "outputs": [
        {
          "internalType": "uint256",
          "name": "",
          "type": "uint256"
        }
      ],
      "stateMutability": "view",
      "type": "function"
    },
    {
      "inputs": [],
      "name": "VOTING_PERIOD",
      "outputs": [
        {
          "internalType": "uint256",
          "name": "",
          "type": "uint256"
        }
      ],
      "stateMutability": "view",
      "type": "function"
    },
    {
      "inputs": [
        {
          "internalType": "address",
          "name": "owner",
          "type": "address"
        },
        {
          "internalType": "address",
          "name": "spender",
          "type": "address"
        }
      ],
      "name": "allowance",
      "outputs": [
        {
          "internalType": "uint256",
          "name": "",
          "type": "uint256"
        }
      ],
      "stateMutability": "view",
      "type": "function"
    },
    {
      "inputs": [
        {
          "internalType": "address",
          "name": "spender",
          "type": "address"
        },
        {
          "internalType": "uint256",
          "name": "value",
          "type": "uint256"
        }
      ],
      "name": "approve",
      "outputs": [
        {
          "internalType": "bool",
          "name": "",
          "type": "bool"
        }
      ],
      "stateMutability": "nonpayable",
      "type": "function"
    },
    {
      "inputs": [
        {
          "internalType": "address",
          "name": "account",
          "type": "address"
        }
      ],
      "name": "balanceOf",
      "outputs": [
        {
          "internalType": "uint256",
          "name": "",
          "type": "uint256"
        }
      ],
      "stateMutability": "view",
      "type": "function"
    },
    {
      "inputs": [
        {
          "internalType": "uint256",
          "name": "value",
          "type": "uint256"
        }
      ],
      "name": "burn",
      "outputs": [],
      "stateMutability": "nonpayable",
      "type": "function"
    },
    {
      "inputs": [
        {
          "internalType": "address",
          "name": "account",
          "type": "address"
        },
        {
          "internalType": "uint256",
          "name": "value",
          "type": "uint256"
        }
      ],
      "name": "burnFrom",
      "outputs": [],
      "stateMutability": "nonpayable",
      "type": "function"
    },
    {
      "inputs": [
        {
          "internalType": "uint256",
          "name": "amount",
          "type": "uint256"
        }
      ],
      "name": "burnFromTreasury",
      "outputs": [],
      "stateMutability": "nonpayable",
      "type": "function"
    },
    {
      "inputs": [
        {
          "internalType": "address",
          "name": "user",
          "type": "address"
        }
      ],
      "name": "calculateReward",
      "outputs": [
        {
          "internalType": "uint256",
          "name": "",
          "type": "uint256"
        }
      ],
      "stateMutability": "view",
      "type": "function"
    },
    {
      "inputs": [],
      "name": "claimRewards",
      "outputs": [],
      "stateMutability": "nonpayable",
      "type": "function"
    },
    {
      "inputs": [],
      "name": "communityWallet",
      "outputs": [
        {
          "internalType": "address",
          "name": "",
          "type": "address"
        }
      ],
      "stateMutability": "view",
      "type": "function"
    },
    {
      "inputs": [
        {
          "internalType": "string",
          "name": "description",
          "type": "string"
        }
      ],
      "name": "createProposal",
      "outputs": [
        {
          "internalType": "uint256",
          "name": "",
          "type": "uint256"
        }
      ],
      "stateMutability": "nonpayable",
      "type": "function"
    },
    {
      "inputs": [],
      "name": "decimals",
      "outputs": [
        {
          "internalType": "uint8",
          "name": "",
          "type": "uint8"
        }
      ],
      "stateMutability": "view",
      "type": "function"
    },
    {
      "inputs": [
        {
          "internalType": "uint256",
          "name": "proposalId",
          "type": "uint256"
        }
      ],
      "name": "executeProposal",
      "outputs": [],
      "stateMutability": "nonpayable",
      "type": "function"
    },
    {
      "inputs": [
        {
          "internalType": "address",
          "name": "",
          "type": "address"
        }
      ],
      "name": "feeDiscounts",
      "outputs": [
        {
          "internalType": "uint256",
          "name": "",
          "type": "uint256"
        }
      ],
      "stateMutability": "view",
      "type": "function"
    },
    {
      "inputs": [],
      "name": "founderWallet",
      "outputs": [
        {
          "internalType": "address",
          "name": "",
          "type": "address"
        }
      ],
      "stateMutability": "view",
      "type": "function"
    },
    {
      "inputs": [
        {
          "internalType": "address",
          "name": "user",
          "type": "address"
        }
      ],
      "name": "getStakeInfo",
      "outputs": [
        {
          "internalType": "uint256",
          "name": "amount",
          "type": "uint256"
        },
        {
          "internalType": "uint256",
          "name": "timestamp",
          "type": "uint256"
        },
        {
          "internalType": "uint256",
          "name": "lockPeriod",
          "type": "uint256"
        },
        {
          "internalType": "uint256",
          "name": "pendingReward",
          "type": "uint256"
        },
        {
          "internalType": "bool",
          "name": "premium",
          "type": "bool"
        },
        {
          "internalType": "uint256",
          "name": "discount",
          "type": "uint256"
        }
      ],
      "stateMutability": "view",
      "type": "function"
    },
    {
      "inputs": [],
      "name": "getTokenStats",
      "outputs": [
        {
          "internalType": "uint256",
          "name": "circulatingSupply",
          "type": "uint256"
        },
        {
          "internalType": "uint256",
          "name": "burnedSupply",
          "type": "uint256"
        },
        {
          "internalType": "uint256",
          "name": "stakedSupply",
          "type": "uint256"
        },
        {
          "internalType": "uint256",
          "name": "cashbackDistributed",
          "type": "uint256"
        }
      ],
      "stateMutability": "view",
      "type": "function"
    },
    {
      "inputs": [
        {
          "internalType": "address",
          "name": "user",
          "type": "address"
        }
      ],
      "name": "getUserStats",
      "outputs": [
        {
          "internalType": "uint256",
          "name": "totalHoldings",
          "type": "uint256"
        },
        {
          "internalType": "bool",
          "name": "premium",
          "type": "bool"
        },
        {
          "internalType": "bool",
          "name": "launchpadWhitelisted",
          "type": "bool"
        },
        {
          "internalType": "uint256",
          "name": "referrals",
          "type": "uint256"
        },
        {
          "internalType": "uint256",
          "name": "referralEarned",
          "type": "uint256"
        },
        {
          "internalType": "uint256",
          "name": "cashbackEarned",
          "type": "uint256"
        }
      ],
      "stateMutability": "view",
      "type": "function"
    },
    {
      "inputs": [
        {
          "internalType": "address",
          "name": "",
          "type": "address"
        }
      ],
      "name": "isPremium",
      "outputs": [
        {
          "internalType": "bool",
          "name": "",
          "type": "bool"
        }
      ],
      "stateMutability": "view",
      "type": "function"
    },
    {
      "inputs": [
        {
          "internalType": "address",
          "name": "",
          "type": "address"
        }
      ],
      "name": "isWhitelistedForLaunchpad",
      "outputs": [
        {
          "internalType": "bool",
          "name": "",
          "type": "bool"
        }
      ],
      "stateMutability": "view",
      "type": "function"
    },
    {
      "inputs": [],
      "name": "liquidityWallet",
      "outputs": [
        {
          "internalType": "address",
          "name": "",
          "type": "address"
        }
      ],
      "stateMutability": "view",
      "type": "function"
    },
    {
      "inputs": [],
      "name": "name",
      "outputs": [
        {
          "internalType": "string",
          "name": "",
          "type": "string"
        }
      ],
      "stateMutability": "view",
      "type": "function"
    },
    {
      "inputs": [],
      "name": "owner",
      "outputs": [
        {
          "internalType": "address",
          "name": "",
          "type": "address"
        }
      ],
      "stateMutability": "view",
      "type": "function"
    },
    {
      "inputs": [],
      "name": "pause",
      "outputs": [],
      "stateMutability": "nonpayable",
      "type": "function"
    },
    {
      "inputs": [],
      "name": "paused",
      "outputs": [
        {
          "internalType": "bool",
          "name": "",
          "type": "bool"
        }
      ],
      "stateMutability": "view",
      "type": "function"
    },
    {
      "inputs": [
        {
          "internalType": "address",
          "name": "user",
          "type": "address"
        },
        {
          "internalType": "uint256",
          "name": "transactionAmount",
          "type": "uint256"
        }
      ],
      "name": "payCashback",
      "outputs": [],
      "stateMutability": "nonpayable",
      "type": "function"
    },
    {
      "inputs": [
        {
          "internalType": "address",
          "name": "user",
          "type": "address"
        },
        {
          "internalType": "uint256",
          "name": "feeAmount",
          "type": "uint256"
        }
      ],
      "name": "payReferralFeeShare",
      "outputs": [],
      "stateMutability": "nonpayable",
      "type": "function"
    },
    {
      "inputs": [
        {
          "internalType": "address",
          "name": "",
          "type": "address"
        }
      ],
      "name": "premiumSince",
      "outputs": [
        {
          "internalType": "uint256",
          "name": "",
          "type": "uint256"
        }
      ],
      "stateMutability": "view",
      "type": "function"
    },
    {
      "inputs": [
        {
          "internalType": "address",
          "name": "user",
          "type": "address"
        },
        {
          "internalType": "uint256",
          "name": "swapAmount",
          "type": "uint256"
        }
      ],
      "name": "processSwapFee",
      "outputs": [
        {
          "internalType": "uint256",
          "name": "",
          "type": "uint256"
        }
      ],
      "stateMutability": "nonpayable",
      "type": "function"
    },
    {
      "inputs": [],
      "name": "proposalCount",
      "outputs": [
        {
          "internalType": "uint256",
          "name": "",
          "type": "uint256"
        }
      ],
      "stateMutability": "view",
      "type": "function"
    },
    {
      "inputs": [
        {
          "internalType": "uint256",
          "name": "",
          "type": "uint256"
        }
      ],
      "name": "proposals",
      "outputs": [
        {
          "internalType": "string",
          "name": "description",
          "type": "string"
        },
        {
          "internalType": "uint256",
          "name": "votesFor",
          "type": "uint256"
        },
        {
          "internalType": "uint256",
          "name": "votesAgainst",
          "type": "uint256"
        },
        {
          "internalType": "uint256",
          "name": "startTime",
          "type": "uint256"
        },
        {
          "internalType": "uint256",
          "name": "endTime",
          "type": "uint256"
        },
        {
          "internalType": "bool",
          "name": "executed",
          "type": "bool"
        }
      ],
      "stateMutability": "view",
      "type": "function"
    },
    {
      "inputs": [],
      "name": "publicSaleWallet",
      "outputs": [
        {
          "internalType": "address",
          "name": "",
          "type": "address"
        }
      ],
      "stateMutability": "view",
      "type": "function"
    },
    {
      "inputs": [
        {
          "internalType": "address",
          "name": "",
          "type": "address"
        }
      ],
      "name": "referralCount",
      "outputs": [
        {
          "internalType": "uint256",
          "name": "",
          "type": "uint256"
        }
      ],
      "stateMutability": "view",
      "type": "function"
    },
    {
      "inputs": [
        {
          "internalType": "address",
          "name": "",
          "type": "address"
        }
      ],
      "name": "referralEarnings",
      "outputs": [
        {
          "internalType": "uint256",
          "name": "",
          "type": "uint256"
        }
      ],
      "stateMutability": "view",
      "type": "function"
    },
    {
      "inputs": [
        {
          "internalType": "address",
          "name": "",
          "type": "address"
        }
      ],
      "name": "referredBy",
      "outputs": [
        {
          "internalType": "address",
          "name": "",
          "type": "address"
        }
      ],
      "stateMutability": "view",
      "type": "function"
    },
    {
      "inputs": [
        {
          "internalType": "address",
          "name": "referrer",
          "type": "address"
        }
      ],
      "name": "registerReferral",
      "outputs": [],
      "stateMutability": "nonpayable",
      "type": "function"
    },
    {
      "inputs": [],
      "name": "renounceOwnership",
      "outputs": [],
      "stateMutability": "nonpayable",
      "type": "function"
    },
    {
      "inputs": [
        {
          "internalType": "uint256",
          "name": "newRate",
          "type": "uint256"
        }
      ],
      "name": "setSwapFeeRate",
      "outputs": [],
      "stateMutability": "nonpayable",
      "type": "function"
    },
    {
      "inputs": [
        {
          "internalType": "uint256",
          "name": "amount",
          "type": "uint256"
        },
        {
          "internalType": "uint256",
          "name": "lockPeriod",
          "type": "uint256"
        }
      ],
      "name": "stake",
      "outputs": [],
      "stateMutability": "nonpayable",
      "type": "function"
    },
    {
      "inputs": [
        {
          "internalType": "address",
          "name": "",
          "type": "address"
        }
      ],
      "name": "stakes",
      "outputs": [
        {
          "internalType": "uint256",
          "name": "amount",
          "type": "uint256"
        },
        {
          "internalType": "uint256",
          "name": "timestamp",
          "type": "uint256"
        },
        {
          "internalType": "uint256",
          "name": "lockPeriod",
          "type": "uint256"
        },
        {
          "internalType": "uint256",
          "name": "rewardDebt",
          "type": "uint256"
        }
      ],
      "stateMutability": "view",
      "type": "function"
    },
    {
      "inputs": [],
      "name": "strategicWallet",
      "outputs": [
        {
          "internalType": "address",
          "name": "",
          "type": "address"
        }
      ],
      "stateMutability": "view",
      "type": "function"
    },
    {
      "inputs": [],
      "name": "swapFeeRate",
      "outputs": [
        {
          "internalType": "uint256",
          "name": "",
          "type": "uint256"
        }
      ],
      "stateMutability": "view",
      "type": "function"
    },
    {
      "inputs": [],
      "name": "symbol",
      "outputs": [
        {
          "internalType": "string",
          "name": "",
          "type": "string"
        }
      ],
      "stateMutability": "view",
      "type": "function"
    },
    {
      "inputs": [],
      "name": "teamWallet",
      "outputs": [
        {
          "internalType": "address",
          "name": "",
          "type": "address"
        }
      ],
      "stateMutability": "view",
      "type": "function"
    },
    {
      "inputs": [],
      "name": "totalBurned",
      "outputs": [
        {
          "internalType": "uint256",
          "name": "",
          "type": "uint256"
        }
      ],
      "stateMutability": "view",
      "type": "function"
    },
    {
      "inputs": [],
      "name": "totalCashbackDistributed",
      "outputs": [
        {
          "internalType": "uint256",
          "name": "",
          "type": "uint256"
        }
      ],
      "stateMutability": "view",
      "type": "function"
    },
    {
      "inputs": [
        {
          "internalType": "address",
          "name": "",
          "type": "address"
        }
      ],
      "name": "totalCashbackEarned",
      "outputs": [
        {
          "internalType": "uint256",
          "name": "",
          "type": "uint256"
        }
      ],
      "stateMutability": "view",
      "type": "function"
    },
    {
      "inputs": [],
      "name": "totalStaked",
      "outputs": [
        {
          "internalType": "uint256",
          "name": "",
          "type": "uint256"
        }
      ],
      "stateMutability": "view",
      "type": "function"
    },
    {
      "inputs": [],
      "name": "totalSupply",
      "outputs": [
        {
          "internalType": "uint256",
          "name": "",
          "type": "uint256"
        }
      ],
      "stateMutability": "view",
      "type": "function"
    },
    {
      "inputs": [
        {
          "internalType": "address",
          "name": "to",
          "type": "address"
        },
        {
          "internalType": "uint256",
          "name": "value",
          "type": "uint256"
        }
      ],
      "name": "transfer",
      "outputs": [
        {
          "internalType": "bool",
          "name": "",
          "type": "bool"
        }
      ],
      "stateMutability": "nonpayable",
      "type": "function"
    },
    {
      "inputs": [
        {
          "internalType": "address",
          "name": "from",
          "type": "address"
        },
        {
          "internalType": "address",
          "name": "to",
          "type": "address"
        },
        {
          "internalType": "uint256",
          "name": "value",
          "type": "uint256"
        }
      ],
      "name": "transferFrom",
      "outputs": [
        {
          "internalType": "bool",
          "name": "",
          "type": "bool"
        }
      ],
      "stateMutability": "nonpayable",
      "type": "function"
    },
    {
      "inputs": [
        {
          "internalType": "address",
          "name": "newOwner",
          "type": "address"
        }
      ],
      "name": "transferOwnership",
      "outputs": [],
      "stateMutability": "nonpayable",
      "type": "function"
    },
    {
      "inputs": [],
      "name": "treasuryWallet",
      "outputs": [
        {
          "internalType": "address",
          "name": "",
          "type": "address"
        }
      ],
      "stateMutability": "view",
      "type": "function"
    },
    {
      "inputs": [],
      "name": "unpause",
      "outputs": [],
      "stateMutability": "nonpayable",
      "type": "function"
    },
    {
      "inputs": [],
      "name": "unstake",
      "outputs": [],
      "stateMutability": "nonpayable",
      "type": "function"
    },
    {
      "inputs": [
        {
          "internalType": "uint256",
          "name": "proposalId",
          "type": "uint256"
        },
        {
          "internalType": "bool",
          "name": "support",
          "type": "bool"
        }
      ],
      "name": "vote",
      "outputs": [],
      "stateMutability": "nonpayable",
      "type": "function"
    }
  ],
  "bytecode": "0x6080346200081957601f6200391238819003918201601f19168301916001600160401b03831184841017620006eb5780849260e09460405283398101031262000819576200004d816200083e565b6200005b602083016200083e565b916200006a604082016200083e565b9262000079606083016200083e565b9162000088608082016200083e565b91620000a560c06200009d60a085016200083e565b93016200083e565b95620000b06200081e565b600b81526a213630bd32902a37b5b2b760a91b6020820152620000d26200081e565b6005815264424c415a4560d81b6020820152815190916001600160401b038211620006eb5760035490600182811c921680156200080e575b6020831014620006ca5781601f8493116200079c575b50602090601f83116001146200070d5760009262000701575b50508160011b916000199060031b1c1916176003555b8051906001600160401b038211620006eb5760045490600182811c92168015620006e0575b6020831014620006ca5781601f84931162000658575b50602090601f8311600114620005c957600092620005bd575b50508160011b916000199060031b1c1916176004555b3315620005a45760058054610100600160a81b0319811633600881811b610100600160a81b0316929092179093556040516001600160a01b039a90949093909290911c8a167f8be0079c531659141344cd1fd0a4f28419497f9722a3daafe3b4186f6b6457e0600080a360016006556032601b558888169283156200056257508884169081156200051d578916978815620004d85789881693841562000493578a88169687156200044e578b169a8b1562000409578416908115620003c457620002dc97620002d696620002d69560018060a01b0319938460075416176007558360085416176008558c83600954161760095582600a541617600a5581600b541617600b558b81600c541617600c55600d541617600d5562000853565b620008d3565b60ff60055416620003b257600254916aa56fa5b99019a5c8000000908184018094116200039c576020946000620002d693620003459660025582825281885260408220818154019055604051908152600080516020620038f2833981519152978891a362000853565b60ff60055416620003b257600254906a295be96e64066972000000918281018091116200039c5760009260209160025584845283825260408420818154019055604051908152a3604051612fb790816200093b8239f35b634e487b7160e01b600052601160045260246000fd5b60405163d93c066560e01b8152600490fd5b60405162461bcd60e51b815260206004820152601860248201527f496e76616c6964206c69717569646974792077616c6c657400000000000000006044820152606490fd5b60405162461bcd60e51b815260206004820152601860248201527f496e76616c6964207374726174656769632077616c6c657400000000000000006044820152606490fd5b60405162461bcd60e51b815260206004820152601360248201527f496e76616c6964207465616d2077616c6c6574000000000000000000000000006044820152606490fd5b60405162461bcd60e51b815260206004820152601760248201527f496e76616c69642074726561737572792077616c6c65740000000000000000006044820152606490fd5b60405162461bcd60e51b815260206004820152601860248201527f496e76616c696420636f6d6d756e6974792077616c6c657400000000000000006044820152606490fd5b60405162461bcd60e51b815260206004820152601660248201527f496e76616c696420666f756e6465722077616c6c6574000000000000000000006044820152606490fd5b62461bcd60e51b815260206004820152601a60248201527f496e76616c6964207075626c69632073616c652077616c6c65740000000000006044820152606490fd5b604051631e4fbdf760e01b815260006004820152602490fd5b015190503880620001a3565b6004600090815293507f8a35acfbc15ff81a39ae7d344fd709f28e8600b4aa8c65c6b64bfe7fe36bd19b91905b601f19841685106200063c576001945083601f1981161062000622575b505050811b01600455620001b9565b015160001960f88460031b161c1916905538808062000613565b81810151835560209485019460019093019290910190620005f6565b60046000529091507f8a35acfbc15ff81a39ae7d344fd709f28e8600b4aa8c65c6b64bfe7fe36bd19b601f840160051c810160208510620006c2575b90849392915b601f830160051c82018110620006b25750506200018a565b600081558594506001016200069a565b508062000694565b634e487b7160e01b600052602260045260246000fd5b91607f169162000174565b634e487b7160e01b600052604160045260246000fd5b01519050388062000139565b6003600090815293507fc2575a0e9e593c00f959f8c92f12db2869c3395a3b0502d05e2516446f71f85b91905b601f198416851062000780576001945083601f1981161062000766575b505050811b016003556200014f565b015160001960f88460031b161c1916905538808062000757565b818101518355602094850194600190930192909101906200073a565b60036000529091507fc2575a0e9e593c00f959f8c92f12db2869c3395a3b0502d05e2516446f71f85b601f840160051c81016020851062000806575b90849392915b601f830160051c82018110620007f657505062000120565b60008155859450600101620007de565b5080620007d8565b91607f16916200010a565b600080fd5b60408051919082016001600160401b03811183821017620006eb57604052565b51906001600160a01b03821682036200081957565b6001600160a01b03168015620008ba5760ff60055416620003b2576002546a7c13bc4b2c133c560000008082018092116200039c576020600080516020620038f28339815191529160009360025584845283825260408420818154019055604051908152a3565b60405163ec442f0560e01b815260006004820152602490fd5b6001600160a01b03168015620008ba5760ff60055416620003b2576002546a52b7d2dcc80cd2e40000008082018092116200039c576020600080516020620038f28339815191529160009360025584845283825260408420818154019055604051908152a356fe608060408181526004918236101561001657600080fd5b600092833560e01c918263013cf08b14611edc57508163040a4f4214611ea45781630653badc14611d5457816306fdde0314611c8157816308014d8b14611c64578163095ea7b314611bba578163097cd9bf14611b7c5781630d61b51914611a515781630e614b8c14611a2c57816316934fc4146119c457816318160ddd146119a5578163209ab711146117d057816323b872dd146117935781632def662014611626578163313ce5671461160a578163320f01a514611561578163372500ab14611537578163373c61931461151a5781633a04801d146114fb5781633f4ba83a1461149157816342966c68146114735781634596ce201461143b5781634626402b1461141257816349c2a1a6146111975781634e43603a146110fc57816359927044146110d35781635c975abb146110af5781635cb90abe1461108b5781635f9d990914610fb957816363546f0c14610f9c5781636cb1359514610f7357816370a0823114610f3c578163715018a614610edb57816373b6f89014610ebe578163742fe0d414610e8057816379cc679014610e4a5781637b0472f014610c5b578163817b1cd214610c3c57816382d9754514610c205781638456cb5914610bc557816384a3a0f314610ba15781638922e02114610b785781638da5cb5b14610b4b57816395d89b4114610a605781639af01c2d14610a3b578163a1c82b1814610a1f578163a23d3c35146109f6578163a9059cbb146109c5578163a90f8e9a1461098a578163b1610d7e1461096c578163b29f6ef21461094d578163c07b528a14610915578163c2b0d16f146108d7578163c345315314610835578163c35b7b6414610776578163c75748391461074d578163c9d27afe14610571578163d1154ff014610511578163d4698016146104e8578163d82e3962146104bb578163d89135cd1461049c578163da35c6641461047d578163db74559b14610445578163dd62ed3e146103fc578163f2fde38b1461035b57508063f846a885146103405763fa1c3eda1461030657600080fd5b3461033c57602036600319011261033c5760209181906001600160a01b0361032c6120a7565b1681526017845220549051908152f35b5080fd5b503461033c578160031936011261033c5760209051600a8152f35b9050346103f85760203660031901126103f8576103766120a7565b61037e6120d8565b6001600160a01b038181169390929084156103e257505060058054610100600160a81b03198116600893841b610100600160a81b031617909155901c167f8be0079c531659141344cd1fd0a4f28419497f9722a3daafe3b4186f6b6457e08380a380f35b51631e4fbdf760e01b8152908101859052602490fd5b8280fd5b50503461033c578060031936011261033c578060209261041a6120a7565b6104226120c2565b6001600160a01b0391821683526001865283832091168252845220549051908152f35b50503461033c57602036600319011261033c5760209181906001600160a01b0361046d6120a7565b1681526015845220549051908152f35b50503461033c578160031936011261033c576020906013549051908152f35b50503461033c578160031936011261033c576020906019549051908152f35b50503461033c57602036600319011261033c576020906104e16104dc6120a7565b612383565b9051908152f35b50503461033c578160031936011261033c57600d5490516001600160a01b039091168152602090f35b9050346103f85760203660031901126103f85780359161052f6120d8565b6064831161053f575050601b5580f35b906020606492519162461bcd60e51b8352820152600c60248201526b08ccaca40e8dede40d0d2ced60a31b6044820152fd5b919050346103f857806003193601126103f85781359060243580151593848203610749578386526020906012825283872060038101544210610712578181015442116106e157600681019133895282845260ff868a2054166106ae57338952888452683635c9adc5dea00000868a2054106106755750907f7c2de587c00d75474a0c6c6fa96fd3b45dc974cd4e8a75f712bb84c950dce1b594939291338952888352610628858a2054600e8552868b205490612249565b93156106605760010161063c848254612249565b90555b3388528152828720600160ff1982541617905582519586528501523393a380f35b60020161066e848254612249565b905561063f565b855162461bcd60e51b815290810184905260136024820152724e65656420746f6b656e7320746f20766f746560681b6044820152606490fd5b855162461bcd60e51b8152908101849052600d60248201526c105b1c9958591e481d9bdd1959609a1b6044820152606490fd5b5060649184519162461bcd60e51b8352820152600c60248201526b159bdd1a5b99c8195b99195960a21b6044820152fd5b5060649184519162461bcd60e51b83528201526012602482015271159bdd1a5b99c81b9bdd081cdd185c9d195960721b6044820152fd5b8580fd5b50503461033c578160031936011261033c5760095490516001600160a01b039091168152602090f35b9050346103f857816003193601126103f8576107906120a7565b906024359061079d6120d8565b60c882029180830460c8149015171561082257507f2e2e974120c7ee5c5bebbacf723734f32eea4ff459008ee5d6df087c5ffec6b491612710602092049060018060a01b03906107f283828460095416612107565b169384865260178352808620610809838254612249565b905561081782601854612249565b60185551908152a280f35b634e487b7160e01b855260119052602484fd5b50503461033c576020806003193601126103f85760c0926108546120a7565b9260018060a01b03841690818352600e845280832090805161087581612013565b6108a283549788835260018501549283898201526060600360028801549788888501520154910152612383565b938552601086528160ff818720541695601c8852205495825197885287015285015260608401521515608083015260a0820152f35b50503461033c57602036600319011261033c5760209160ff9082906001600160a01b036109026120a7565b168152601a855220541690519015158152f35b50503461033c57602036600319011261033c5760209181906001600160a01b0361093d6120a7565b1681526016845220549051908152f35b50503461033c578160031936011261033c576020906018549051908152f35b50503461033c578160031936011261033c57602090516203f4808152f35b50503461033c57602036600319011261033c576020916001600160a01b03908290826109b46120a7565b168152601485522054169051908152f35b50503461033c578060031936011261033c576020906109ef6109e56120a7565b6024359033612107565b5160018152f35b50503461033c578160031936011261033c5760085490516001600160a01b039091168152602090f35b50503461033c578160031936011261033c576020905160328152f35b50503461033c578160031936011261033c576020905169021e19e0c9bab24000008152f35b919050346103f857826003193601126103f85780519183815490610a8382611fd9565b80865292600192808416908115610b205750600114610ac4575b610ac08686610aae828b0383612045565b51918291602083526020830190612067565b0390f35b815294507f8a35acfbc15ff81a39ae7d344fd709f28e8600b4aa8c65c6b64bfe7fe36bd19b5b828610610b0857505050610aae826020610ac0958201019438610a9d565b80546020878701810191909152909501948101610aea565b9050610ac0975086935060209250610aae94915060ff191682840152151560051b8201019438610a9d565b50503461033c578160031936011261033c57600554905160089190911c6001600160a01b03168152602090f35b50503461033c578160031936011261033c57600c5490516001600160a01b039091168152602090f35b50503461033c578160031936011261033c57602090516802b5e3af16b18800008152f35b50503461033c578160031936011261033c5760207f62e78cea01bee320cd4e420270b5ea74000d11b0c9f74754ebdbfc544b05a25891610c036120d8565b610c0b61227f565b600160ff19600554161760055551338152a180f35b50503461033c578160031936011261033c576020905160c88152f35b50503461033c578160031936011261033c57602090600f549051908152f35b83833461033c578060031936011261033c57823590602435610c7b61229d565b610c8361227f565b8215610e16578015808015610e0c575b8015610e01575b15610dc857338552602090858252848487205410610d8e57338652600e825283862054610d80575b610ccd853033612107565b338652600e8252838620610ce2868254612249565b9055338652600e82524260018588200155620151809081840291848304141715610d6d577f1449c6dd7851abc30abf37f57715f492010519147cc2652fbc38202c18a6ee9094959650338752600e825260028488200155610d4585600f54612249565b600f55610d5133612433565b610d5a33612eaa565b82519485528401523392a2600160065580f35b634e487b7160e01b865260118752602486fd5b610d89336122cd565b610cc2565b835162461bcd60e51b81528088018390526014602482015273496e73756666696369656e742062616c616e636560601b6044820152606490fd5b825162461bcd60e51b81526020818801526013602482015272125b9d985b1a59081b1bd8dac81c195c9a5bd9606a1b6044820152606490fd5b5061016d8214610c9a565b5060b48214610c93565b815162461bcd60e51b8152602081870152600e60248201526d043616e6e6f74207374616b6520360941b6044820152606490fd5b50503461033c57366003190112610e7d57610e7a610e666120a7565b60243590610e7582338361215d565b612230565b80f35b80fd5b50503461033c57602036600319011261033c5760209160ff9082906001600160a01b03610eab6120a7565b1681526010855220541690519015158152f35b50503461033c578160031936011261033c57602090516103e88152f35b8334610e7d5780600319360112610e7d57610ef46120d8565b60058054610100600160a81b03198116909155819060081c6001600160a01b03167f8be0079c531659141344cd1fd0a4f28419497f9722a3daafe3b4186f6b6457e08280a380f35b50503461033c57602036600319011261033c5760209181906001600160a01b03610f646120a7565b16815280845220549051908152f35b50503461033c578160031936011261033c5760075490516001600160a01b039091168152602090f35b50503461033c578160031936011261033c57602090516103208152f35b9050346103f85760203660031901126103f857803590610fd76120d8565b811561105357506080600080516020612f4283398151915291601760018060a01b036110078382600a5416612230565b61101383601954612249565b601955600a54169480519283528060208401528201527f5472656173757279206275796261636b2026206275726e0000000000000000006060820152a280f35b606490602084519162461bcd60e51b835282015260126024820152710416d6f756e74206d757374206265203e20360741b6044820152fd5b50503461033c578160031936011261033c5760209051683635c9adc5dea000008152f35b50503461033c578160031936011261033c5760209060ff6005541690519015158152f35b50503461033c578160031936011261033c57600b5490516001600160a01b039091168152602090f35b50503461033c57602090816003193601126103f85760c0926001600160a01b036111246120a7565b169283825281815261114183832054600e83528484205490612249565b9382526010815260ff838320541692601a825260ff8184205416601583528184205492601681528280862054956017835220549583519788521515908701521515908501526060840152608083015260a0820152f35b919050346103f85760209283600319360112610e7d5782359067ffffffffffffffff9384831161033c573660238401121561033c5782810135928584116113ff57845193601f19916111f0601f830184168a0187612045565b81865236602483830101116113fb5781859260248b93018389013786010152338352828752683635c9adc5dea0000085842054106113bf576013549561123587612550565b601355868452601288528584209185519182116113ac5781906112588454611fd9565b601f811161135e575b508990601f8311600114611302575085916112f7575b508160011b916000199060031b1c19161781555b4260038201556203f4804201928342116112e457500155815184815283917f9c770c289ab5bf7e57cb1d23c8ceae993aea46eb64847072fd3d78ca60d3e432919081906112db9088830190612067565b0390a251908152f35b634e487b7160e01b815260118352602490fd5b905085015138611277565b8487528a87209216865b8b828210611348575050908360019493921061132f575b5050811b01815561128b565b87015160001960f88460031b161c191690553880611323565b600184958293958c01518155019401920161130c565b909150838652898620601f840160051c8101918b85106113a2575b90601f859493920160051c01905b8181106113945750611261565b878155849350600101611387565b9091508190611379565b634e487b7160e01b855260418452602485fd5b845162461bcd60e51b815280830188905260166024820152754e65656420746f6b656e7320746f2070726f706f736560501b6044820152606490fd5b8480fd5b634e487b7160e01b835260418252602483fd5b50503461033c578160031936011261033c57600a5490516001600160a01b039091168152602090f35b50503461033c57602036600319011261033c5760209181906001600160a01b036114636120a7565b1681526011845220549051908152f35b83903461033c57602036600319011261033c57610e7a903533612230565b9050346103f857826003193601126103f8576114ab6120d8565b6005549060ff8216156114ed575060ff1916600555513381527f5db9ee0a495bf2e6ff9c91a7834c1ba4fdd244a5e8aa4e537bd38aeae4b073aa90602090a180f35b8251638dfc202b60e01b8152fd5b50503461033c578160031936011261033c57602090601b549051908152f35b50503461033c578160031936011261033c57602090516105dc8152f35b8334610e7d5780600319360112610e7d5761155061229d565b611559336122cd565b600160065580f35b83833461033c578060031936011261033c5761157b6120a7565b90602435916115886120d8565b6001600160a01b039081168452601460205281842054811692836115aa578480f35b6103e8908181029181830414901517156115f757839495506115ec93916127106115db9204958691600a5416612107565b845260166020528320918254612249565b905580828080808480f35b634e487b7160e01b855260118652602485fd5b50503461033c578160031936011261033c576020905160128152f35b83833461033c578160031936011261033c5761164061229d565b338252602090600e82528083209381519461165a86612013565b80548087526001820154908588019182526003600284015493868a01948552015460608901521561175f5751905161169191612249565b421061172f57507f7fc4727e062e336010f2c282598ef5f14facb3de68cf8195c2f23e1454b2b74e90846116c433612383565b9061171a6116d3838351612249565b6116e08351600f546122c0565b600f55338852600e8752876003868220828155826001820155826002820155015561170a33612433565b61171333612eaa565b3330612107565b519382519485528401523392a2600160065580f35b82606492519162461bcd60e51b8352820152600c60248201526b14dd1a5b1b081b1bd8dad95960a21b6044820152fd5b835162461bcd60e51b8152808401869052600e60248201526d139bc81cdd185ad948199bdd5b9960921b6044820152606490fd5b50503461033c57606036600319011261033c576020906109ef6117b46120a7565b6117bc6120c2565b604435916117cb83338361215d565b612107565b83833461033c576020806003193601126103f8576117ec6120a7565b33845260148252828420546001600160a01b03929190831661196f57828116923384146119345783156118fe573386526014835284862080546001600160a01b0319168517905583865260158352848620805461184890612550565b90556009541680156118e7579061185e9161284e565b818452601681528284209283546802b5e3af16b1880000948582018092116118d4575551927f94ccb86446750660ec532b1beb1fb55f5ba2fffca042c4c53f4c080e72595b38919083337f5f1ca2fcc108b751843a763e60d2201f593516109d7dbb1b700468f2d4190bb78880a384523393a380f35b634e487b7160e01b875260118852602487fd5b8451634b637e8f60e11b8152808801879052602490fd5b845162461bcd60e51b8152808801849052601060248201526f24b73b30b634b2103932b332b93932b960811b6044820152606490fd5b845162461bcd60e51b8152808801849052601560248201527421b0b73737ba103932b332b9103cb7bab939b2b63360591b6044820152606490fd5b835162461bcd60e51b8152808701839052601060248201526f105b1c9958591e481c9959995c9c995960821b6044820152606490fd5b50503461033c578160031936011261033c576020906002549051908152f35b50503461033c57602036600319011261033c579081906001600160a01b036119ea6120a7565b168152600e6020522090610ac0825491600184015493600360028201549101549151948594859094939260609260808301968352602083015260408201520152565b50503461033c578160031936011261033c576020905169010f0cf064dd592000008152f35b919050346103f85760203660031901126103f857813591611a706120d8565b82845260126020528184209080820154421115611b4657600582019283549260ff8416611b1057600260018201549101541015611ad957505060ff191660011790557f712ae1383f79ac853f8d882153778e0260ef8f03b504e2866e0593e04d2b291f8280a280f35b906020606492519162461bcd60e51b83528201526011602482015270141c9bdc1bdcd85b081c995a9958dd1959607a1b6044820152fd5b815162461bcd60e51b8152602081850152601060248201526f105b1c9958591e48195e1958dd5d195960821b6044820152606490fd5b606490602084519162461bcd60e51b8352820152601060248201526f159bdd1a5b99c81b9bdd08195b99195960821b6044820152fd5b828434610e7d5780600319360112610e7d5750600254601954600f546018549351928352602083019190915260408201526060810191909152608090f35b9050346103f857816003193601126103f857611bd46120a7565b602435903315611c4d576001600160a01b0316918215611c3657508083602095338152600187528181208582528752205582519081527f8c5be1e5ebec7d5bd14f71427d1e84f3dd0314c0f7b2291e5b200ac8c7c3b925843392a35160018152f35b8351634a1406b160e11b8152908101859052602490fd5b835163e602df0560e01b8152808401869052602490fd5b50503461033c578160031936011261033c57602090516109c48152f35b50503461033c578160031936011261033c5780519082600354611ca381611fd9565b80855291600191808316908115611d2c5750600114611ccf575b505050610aae82610ac0940383612045565b9450600385527fc2575a0e9e593c00f959f8c92f12db2869c3395a3b0502d05e2516446f71f85b5b828610611d1457505050610aae826020610ac09582010194611cbd565b80546020878701810191909152909501948101611cf7565b610ac0975086935060209250610aae94915060ff191682840152151560051b82010194611cbd565b83833461033c578060031936011261033c57611d6e6120a7565b611d766120d8565b6127109081611d89601b5460243561226c565b049160018060a01b0391611db783821694858852601c60205283611db0888a20548361226c565b04906122c0565b958615918215611dcc575b6020888851908152f35b87611ddc9186600a541690612107565b60328702918783046032141715611e91575060209650049081611e2f575b50507fa9fe54ef5a1158a86c9de1049b90da1dfb1cca22e1cd10beb8fcaee1e8386af1848351858152a2838080808080611dc2565b608081611e4f84600080516020612f4283398151915294600a5416612230565b611e5b84601954612249565b601955600a54169285519081528588820152600d868201526c29bbb0b8103332b290313ab93760991b6060820152a28480611dfa565b634e487b7160e01b815260118852602490fd5b50503461033c57602036600319011261033c5760209181906001600160a01b03611ecc6120a7565b168152601c845220549051908152f35b84918434611fd557602091826003193601126113fb5780358552601283528185209085825490611f0b82611fd9565b908188526001928381169081600014611fb75750600114611f83575b5050611f3886611f67980387612045565b8201549260028301549060ff60056003860154948601549501541694815198899860c08a5260c08a0190612067565b9688015286015260608501526080840152151560a08301520390f35b9097508381528581205b888210611fa45750860185019650611f3886611f27565b8054888301880152908601908201611f8d565b60ff1916888a01525050151560051b860185019650611f3886611f27565b8380fd5b90600182811c92168015612009575b6020831014611ff357565b634e487b7160e01b600052602260045260246000fd5b91607f1691611fe8565b6080810190811067ffffffffffffffff82111761202f57604052565b634e487b7160e01b600052604160045260246000fd5b90601f8019910116810190811067ffffffffffffffff82111761202f57604052565b919082519283825260005b848110612093575050826000602080949584010152601f8019910116010190565b602081830181015184830182015201612072565b600435906001600160a01b03821682036120bd57565b600080fd5b602435906001600160a01b03821682036120bd57565b60055460081c6001600160a01b031633036120ef57565b60405163118cdaa760e01b8152336004820152602490fd5b91906001600160a01b03808416156121445781161561212b5761212992612b93565b565b60405163ec442f0560e01b815260006004820152602490fd5b604051634b637e8f60e11b815260006004820152602490fd5b9160018060a01b03809316916000938385526001602052604093848620918316918287526020528486205492600019841061219c575b50505050505050565b848410612200575080156121e85781156121d057855260016020528385209085526020520391205538808080808080612193565b8451634a1406b160e11b815260048101879052602490fd5b845163e602df0560e01b815260048101879052602490fd5b8551637dc7a0d960e11b81526001600160a01b039190911660048201526024810184905260448101859052606490fd5b906001600160a01b03821615612144576121299161255f565b9190820180921161225657565b634e487b7160e01b600052601160045260246000fd5b8181029291811591840414171561225657565b60ff6005541661228b57565b60405163d93c066560e01b8152600490fd5b6002600654146122ae576002600655565b604051633ee5aeb560e01b8152600490fd5b9190820391821161225657565b6122d681612383565b8015612351576020816123487f106f923f993c2149d49b4255ff723acafa1f2d94393f561d3eda32ae348f72419360018060a01b03958681169687600052600e8652600360406000200161232b848254612249565b905587600052600e86524260016040600020015560095416612107565b604051908152a2565b60405162461bcd60e51b815260206004820152600a6024820152694e6f207265776172647360b01b6044820152606490fd5b60018060a01b0316600052600e60205260406000206040516123a481612013565b8154918282526001810154928360208401526003600283015492604085019384520154606084015215612402576123f96123fe926123f26123eb64496cebb80096426122c0565b935161240a565b905161226c565b61226c565b0490565b505050600090565b6301e1338081101561242c5762ed4e0011156124265761032090565b6105dc90565b506109c490565b60018060a01b0316600081815260209080825260409169021e19e0c9bab240000061246984842054600e84528585205490612249565b1080158061253b575b156124c657507faa8ccf229bb4a5182c5122d8450416e8ae3b78f457eebea8b2028be23f6d5ab192601c6127109286855260108152828520600160ff198254161790556011815242838620555282205580a2565b80612527575b6124d7575b50505050565b7fc482be7b538fcb24453784f77a37339089565519b675c87f5de0d6b24e281fa892601c83928684526010815282842060ff1981541690556011815283838120555281205580a2388080806124d1565b508382526010815260ff83832054166124cc565b508483526010825260ff848420541615612472565b60001981146122565760010190565b9091906001600160a01b03808216919082159081908115612845575b811561283b575b8115612832575b8115612824575b8115612817575b50158061280f575b61265a575b6125ac61227f565b156125e85750600080516020612f628339815191526020846125d360009596600254612249565b6002555b8060025403600255604051908152a3565b92600082815280602052604081205494828610612629575081816040600080516020612f6283398151915294600097988760209652838652039120556125d7565b60405163391434e360e21b81526001600160a01b039190911660048201526024810186905260448101839052606490fd5b600a8502858104600a14861517156122565761271090048061267c57506125a4565b9483949561268b94939461227f565b82156127aa57602093946126a182600254612249565b6002555b61271f600292808454038455604094855182815260009a8b91600080516020612f628339815191529a8b91a36126dd82601954612249565b60195588600080516020612f4283398151915260808851858152896020820152600d8a8201526c2a3930b739b332b910313ab93760991b6060820152a26122c0565b9361272861227f565b1561274e5750908161273e846020959454612249565b81555b82815403905551908152a3565b8587528660205282872054908482106127795750908360209493928789528886520382882055612741565b835163391434e360e21b81526001600160a01b03919091166004820152602481019190915260448101849052606490fd5b919390925060008581528060205260408120548381106127df579181604085602097958a809a989652838952039120556126a5565b60405163391434e360e21b81526001600160a01b0384166004820152602481019190915260448101849052606490fd5b50600161259f565b9050600d54161538612597565b600d54811685149150612590565b30159150612589565b3085149150612582565b6001915061257b565b6001600160a01b03908116918215808015612b89575b8015612b80575b8015612b75575b8015612b68575b8015612b59575b1580612b51575b6129735761289361227f565b15612911576002546802b5e3af16b18800008101809111612256576002555b1690816128ef576802b5e3af16b187ffff19600254016002555b600080516020612f6283398151915260206040516802b5e3af16b18800008152a3565b81600052600060205260406000206802b5e3af16b188000081540190556128cc565b60008381528060205260408120546802b5e3af16b188000080821061294f5750604090858352826020526802b5e3af16b187ffff19019120556128b2565b85906064926040519263391434e360e21b8452600484015260248301526044820152fd5b929161297d61227f565b8315612b175760025466b1a2bc2ec500008101809111612256576002555b600266b1a2bc2ec4ffff19815401815560409081519266b1a2bc2ec5000094858552600097600080516020612f62833981519152968989896020809aa3601954818101809111612b035760808a92600080516020612f42833981519152926019558851908152888a820152600d898201526c2a3930b739b332b910313ab93760991b6060820152a2612a2b61227f565b15612aa55782546802b5320c5a82c300008101809111612a915783558391905b169687612a7557505080546802b5320c5a82c2ffff190190555b516802b5320c5a82c300008152a3565b8781528085522080546802b5320c5a82c3000001905550612a65565b634e487b7160e01b89526011600452602489fd5b868852878552838820546802b5320c5a82c30000808210612ae0575090849291888a528987526802b5320c5a82c2ffff1901838a2055612a4b565b889060649287519263391434e360e21b8452600484015260248301526044820152fd5b634e487b7160e01b8b52601160045260248bfd5b600083815280602052604081205466b1a2bc2ec5000080821061294f57506040908583528260205266b1a2bc2ec4ffff190191205561299b565b506001612887565b5082600d541683831614612880565b5082600d54168414612879565b503083831614612872565b5030841461286b565b5082821615612864565b6001600160a01b038082169290918315808015612ea0575b8015612e97575b8015612e8c575b8015612e7f575b8015612e70575b1580612e68575b612ca6575b612bdb61227f565b15612c355750600080516020612f6283398151915291602091612c0086600254612249565b6002555b169384612c1d5780600254036002555b604051908152a3565b84600052600082526040600020818154019055612c14565b60009084825281602052604082205490868210612c745750918160408760209588600080516020612f6283398151915298965283875203912055612c04565b60405163391434e360e21b81526001600160a01b03919091166004820152602481019190915260448101869052606490fd5b600a8602868104600a148715171561225657612710900480612cc85750612bd3565b9593909192612cd561227f565b8215612e0f57612ce787600254612249565b6002555b60029087825403825560409283918251968a8852612d6b60009b600080516020612f628339815191529a8d8d8d6020809ea3612d2982601954612249565b6019558c600080516020612f4283398151915260808d8a805191878352820152600d8b8201526c2a3930b739b332b910313ab93760991b6060820152a26122c0565b96612d7461227f565b15612db25750612d85868554612249565b84555b169788612d9f5750508281540390555b51908152a3565b8881528086522080548401905550612d98565b90919250888a52898752848a205490868210612dde575090858593928a8c528b895203838b2055612d88565b855163391434e360e21b81526001600160a01b03919091166004820152602481019190915260448101869052606490fd5b6000868152806020526040812054888110612e3857886040918984528360205203912055612ceb565b60405163391434e360e21b81526001600160a01b0387166004820152602481019190915260448101899052606490fd5b506001612bce565b5083600d541684841614612bc7565b5083600d54168514612bc0565b503084841614612bb9565b50308514612bb2565b5083831615612bab565b60018060a01b0316600081815280602052604069010f0cf064dd59200000612ede82842054600e6020528385205490612249565b101591838152601a602052209081549060ff821615158103612f005750505050565b7f2ac89bd75f75496bfcf152024c8bc900a9d51ea4326df527c1a53120ddd8b8a99260209260ff83169060ff1916179055604051908152a2388080806124d156fefad31924d655455395c87544c8aa1ffdb5a7505a22a3c2e03f28003b6556a75fddf252ad1be2c89b69c2b068fc378daa952ba7f163c4a11628f55a4df523b3efa264697066735822122039b8229ddaf59f72720b2bff6f87c53c083973d90e797d56ca85940dc892c28764736f6c63430008140033ddf252ad1be2c89b69c2b068fc378daa952ba7f163c4a11628f55a4df523b3ef",
  "linkReferences": {},
  "deployedLinkReferences": {}
}