{
  "_format": "hh-sol-artifact-1",
  "contractName": "BlazeTokenV3",
  "sourceName": "contracts/BlazeTokenV3.sol",
  "abi": [
    {
      "inputs": [
        {
          "internalType": "address",
          "name": "_publicSaleWallet",
          "type": "address"
        },
        {
          "internalType": "address",
          "name": "_founderWallet",
          "type": "address"
        },
        {
          "internalType": "address",
          "name": "_communityWallet",
          "type": "address"
        },
        {
          "internalType": "address",
          "name": "_treasuryWallet",
          "type": "address"
        },
        {
          "internalType": "address",
          "name": "_teamWallet",
          "type": "address"
        },
        {
          "internalType": "address",
          "name": "_strategicWallet",
          "type": "address"
        },
        {
          "internalType": "address",
          "name": "_liquidityWallet",
          "type": "address"
        }
      ],
      "stateMutability": "nonpayable",
      "type": "constructor"
    },
    {
      "inputs": [
        {
          "internalType": "address",
          "name": "spender",
          "type": "address"
        },
        {
          "internalType": "uint256",
          "name": "allowance",
          "type": "uint256"
        },
        {
          "internalType": "uint256",
          "name": "needed",
          "type": "uint256"
        }
      ],
      "name": "ERC20InsufficientAllowance",
      "type": "error"
    },
    {
      "inputs": [
        {
          "internalType": "address",
          "name": "sender",
          "type": "address"
        },
        {
          "internalType": "uint256",
          "name": "balance",
          "type": "uint256"
        },
        {
          "internalType": "uint256",
          "name": "needed",
          "type": "uint256"
        }
      ],
      "name": "ERC20InsufficientBalance",
      "type": "error"
    },
    {
      "inputs": [
        {
          "internalType": "address",
          "name": "approver",
          "type": "address"
        }
      ],
      "name": "ERC20InvalidApprover",
      "type": "error"
    },
    {
      "inputs": [
        {
          "internalType": "address",
          "name": "receiver",
          "type": "address"
        }
      ],
      "name": "ERC20InvalidReceiver",
      "type": "error"
    },
    {
      "inputs": [
        {
          "internalType": "address",
          "name": "sender",
          "type": "address"
        }
      ],
      "name": "ERC20InvalidSender",
      "type": "error"
    },
    {
      "inputs": [
        {
          "internalType": "address",
          "name": "spender",
          "type": "address"
        }
      ],
      "name": "ERC20InvalidSpender",
      "type": "error"
    },
    {
      "inputs": [],
      "name": "EnforcedPause",
      "type": "error"
    },
    {
      "inputs": [],
      "name": "ExpectedPause",
      "type": "error"
    },
    {
      "inputs": [
        {
          "internalType": "address",
          "name": "owner",
          "type": "address"
        }
      ],
      "name": "OwnableInvalidOwner",
      "type": "error"
    },
    {
      "inputs": [
        {
          "internalType": "address",
          "name": "account",
          "type": "address"
        }
      ],
      "name": "OwnableUnauthorizedAccount",
      "type": "error"
    },
    {
      "inputs": [],
      "name": "ReentrancyGuardReentrantCall",
      "type": "error"
    },
    {
      "anonymous": false,
      "inputs": [
        {
          "indexed": true,
          "internalType": "address",
          "name": "owner",
          "type": "address"
        },
        {
          "indexed": true,
          "internalType": "address",
          "name": "spender",
          "type": "address"
        },
        {
          "indexed": false,
          "internalType": "uint256",
          "name": "value",
          "type": "uint256"
        }
      ],
      "name": "Approval",
      "type": "event"
    },
    {
      "anonymous": false,
      "inputs": [
        {
          "indexed": true,
          "internalType": "address",
          "name": "user",
          "type": "address"
        },
        {
          "indexed": false,
          "internalType": "uint256",
          "name": "amount",
          "type": "uint256"
        }
      ],
      "name": "CashbackPaid",
      "type": "event"
    },
    {
      "anonymous": false,
      "inputs": [
        {
          "indexed": true,
          "internalType": "address",
          "name": "user",
          "type": "address"
        },
        {
          "indexed": false,
          "internalType": "bool",
          "name": "status",
          "type": "bool"
        }
      ],
      "name": "LaunchpadWhitelistUpdated",
      "type": "event"
    },
    {
      "anonymous": false,
      "inputs": [
        {
          "indexed": true,
          "internalType": "address",
          "name": "previousOwner",
          "type": "address"
        },
        {
          "indexed": true,
          "internalType": "address",
          "name": "newOwner",
          "type": "address"
        }
      ],
      "name": "OwnershipTransferred",
      "type": "event"
    },
    {
      "anonymous": false,
      "inputs": [
        {
          "indexed": false,
          "internalType": "address",
          "name": "account",
          "type": "address"
        }
      ],
      "name": "Paused",
      "type": "event"
    },
    {
      "anonymous": false,
      "inputs": [
        {
          "indexed": true,
          "internalType": "address",
          "name": "user",
          "type": "address"
        }
      ],
      "name": "PremiumActivated",
      "type": "event"
    },
    {
      "anonymous": false,
      "inputs": [
        {
          "indexed": true,
          "internalType": "address",
          "name": "user",
          "type": "address"
        }
      ],
      "name": "PremiumRevoked",
      "type": "event"
    },
    {
      "anonymous": false,
      "inputs": [
        {
          "indexed": true,
          "internalType": "uint256",
          "name": "proposalId",
          "type": "uint256"
        },
        {
          "indexed": false,
          "internalType": "string",
          "name": "description",
          "type": "string"
        }
      ],
      "name": "ProposalCreated",
      "type": "event"
    },
    {
      "anonymous": false,
      "inputs": [
        {
          "indexed": true,
          "internalType": "uint256",
          "name": "proposalId",
          "type": "uint256"
        }
      ],
      "name": "ProposalExecuted",
      "type": "event"
    },
    {
      "anonymous": false,
      "inputs": [
        {
          "indexed": true,
          "internalType": "address",
          "name": "referee",
          "type": "address"
        },
        {
          "indexed": true,
          "internalType": "address",
          "name": "referrer",
          "type": "address"
        }
      ],
      "name": "ReferralRegistered",
      "type": "event"
    },
    {
      "anonymous": false,
      "inputs": [
        {
          "indexed": true,
          "internalType": "address",
          "name": "referrer",
          "type": "address"
        },
        {
          "indexed": true,
          "internalType": "address",
          "name": "referee",
          "type": "address"
        },
        {
          "indexed": false,
          "internalType": "uint256",
          "name": "amount",
          "type": "uint256"
        }
      ],
      "name": "ReferralRewardPaid",
      "type": "event"
    },
    {
      "anonymous": false,
      "inputs": [
        {
          "indexed": true,
          "internalType": "address",
          "name": "user",
          "type": "address"
        },
        {
          "indexed": false,
          "internalType": "uint256",
          "name": "reward",
          "type": "uint256"
        }
      ],
      "name": "RewardClaimed",
      "type": "event"
    },
    {
      "anonymous": false,
      "inputs": [
        {
          "indexed": true,
          "internalType": "address",
          "name": "user",
          "type": "address"
        },
        {
          "indexed": false,
          "internalType": "uint256",
          "name": "amount",
          "type": "uint256"
        },
        {
          "indexed": false,
          "internalType": "uint256",
          "name": "lockPeriod",
          "type": "uint256"
        }
      ],
      "name": "Staked",
      "type": "event"
    },
    {
      "anonymous": false,
      "inputs": [
        {
          "indexed": true,
          "internalType": "address",
          "name": "user",
          "type": "address"
        },
        {
          "indexed": false,
          "internalType": "uint256",
          "name": "amount",
          "type": "uint256"
        }
      ],
      "name": "SwapFeePaid",
      "type": "event"
    },
    {
      "anonymous": false,
      "inputs": [
        {
          "indexed": true,
          "internalType": "address",
          "name": "from",
          "type": "address"
        },
        {
          "indexed": false,
          "internalType": "uint256",
          "name": "amount",
          "type": "uint256"
        },
        {
          "indexed": false,
          "internalType": "string",
          "name": "reason",
          "type": "string"
        }
      ],
      "name": "TokensBurned",
      "type": "event"
    },
    {
      "anonymous": false,
      "inputs": [
        {
          "indexed": true,
          "internalType": "address",
          "name": "from",
          "type": "address"
        },
        {
          "indexed": true,
          "internalType": "address",
          "name": "to",
          "type": "address"
        },
        {
          "indexed": false,
          "internalType": "uint256",
          "name": "value",
          "type": "uint256"
        }
      ],
      "name": "Transfer",
      "type": "event"
    },
    {
      "anonymous": false,
      "inputs": [
        {
          "indexed": false,
          "internalType": "address",
          "name": "account",
          "type": "address"
        }
      ],
      "name": "Unpaused",
      "type": "event"
    },
    {
      "anonymous": false,
      "inputs": [
        {
          "indexed": true,
          "internalType": "address",
          "name": "user",
          "type": "address"
        },
        {
          "indexed": false,
          "internalType": "uint256",
          "name": "amount",
          "type": "uint256"
        },
        {
          "indexed": false,
          "internalType": "uint256",
          "name": "reward",
          "type": "uint256"
        }
      ],
      "name": "Unstaked",
      "type": "event"
    },
    {
      "anonymous": false,
      "inputs": [
        {
          "indexed": true,
          "internalType": "uint256",
          "name": "proposalId",
          "type": "uint256"
        },
        {
          "indexed": true,
          "internalType": "address",
          "name": "voter",
          "type": "address"
        },
        {
          "indexed": false,
          "internalType": "bool",
          "name": "support",
          "type": "bool"
        },
        {
          "indexed": false,
          "internalType": "uint256",
          "name": "weight",
          "type": "uint256"
        }
      ],
      "name": "Voted",
      "type": "event"
    },
    {
      "inputs": [],
      "name": "BURN_RATE",
      "outputs": [
        {
          "internalType": "uint256",
          "name": "",
          "type": "uint256"
        }
      ],
      "stateMutability": "view",
      "type": "function"
    },
    {
      "inputs": [],
      "name": "CASHBACK_RATE",
      "outputs": [
        {
          "internalType": "uint256",
          "name": "",
          "type": "uint256"
        }
      ],
      "stateMutability": "view",
      "type": "function"
    },
    {
      "inputs": [],
      "name": "FLEXIBLE_APY",
      "outputs": [
        {
          "internalType": "uint256",
          "name": "",
          "type": "uint256"
        }
      ],
      "stateMutability": "view",
      "type": "function"
    },
    {
      "inputs": [],
      "name": "LAUNCHPAD_THRESHOLD",
      "outputs": [
        {
          "internalType": "uint256",
          "name": "",
          "type": "uint256"
        }
      ],
      "stateMutability": "view",
      "type": "function"
    },
    {
      "inputs": [],
      "name": "MIN_VOTE_TOKENS",
      "outputs": [
        {
          "internalType": "uint256",
          "name": "",
          "type": "uint256"
        }
      ],
      "stateMutability": "view",
      "type": "function"
    },
    {
      "inputs": [],
      "name": "ONE_YEAR_APY",
      "outputs": [
        {
          "internalType": "uint256",
          "name": "",
          "type": "uint256"
        }
      ],
      "stateMutability": "view",
      "type": "function"
    },
    {
      "inputs": [],
      "name": "PREMIUM_THRESHOLD",
      "outputs": [
        {
          "internalType": "uint256",
          "name": "",
          "type": "uint256"
        }
      ],
      "stateMutability": "view",
      "type": "function"
    },
    {
      "inputs": [],
      "name": "REFERRAL_FEE_SHARE",
      "outputs": [
        {
          "internalType": "uint256",
          "name": "",
          "type": "uint256"
        }
      ],
      "stateMutability": "view",
      "type": "function"
    },
    {
      "inputs": [],
      "name": "REFERRAL_REWARD",
      "outputs": [
        {
          "internalType": "uint256",
          "name": "",
          "type": "uint256"
        }
      ],
      "stateMutability": "view",
      "type": "function"
    },
    {
      "inputs": [],
      "name": "SIX_MONTH_APY",
      "outputs": [
        {
          "internalType": "uint256",
          "name": "",
          "type": "uint256"
        }
      ],
      "stateMutability": "view",
      "type": "function"
    },
    {
      "inputs": [],
      "name": "SWAP_BURN_RATE",
      "outputs": [
        {
          "internalType": "uint256",
          "name": "",
          "type": "uint256"
        }
      ],
      "stateMutability": "view",
      "type": "function"
    },
    {
      "inputs": [],
      "name": "VOTING_PERIOD",
      "outputs": [
        {
          "internalType": "uint256",
          "name": "",
          "type": "uint256"
        }
      ],
      "stateMutability": "view",
      "type": "function"
    },
    {
      "inputs": [
        {
          "internalType": "address",
          "name": "owner",
          "type": "address"
        },
        {
          "internalType": "address",
          "name": "spender",
          "type": "address"
        }
      ],
      "name": "allowance",
      "outputs": [
        {
          "internalType": "uint256",
          "name": "",
          "type": "uint256"
        }
      ],
      "stateMutability": "view",
      "type": "function"
    },
    {
      "inputs": [
        {
          "internalType": "address",
          "name": "spender",
          "type": "address"
        },
        {
          "internalType": "uint256",
          "name": "value",
          "type": "uint256"
        }
      ],
      "name": "approve",
      "outputs": [
        {
          "internalType": "bool",
          "name": "",
          "type": "bool"
        }
      ],
      "stateMutability": "nonpayable",
      "type": "function"
    },
    {
      "inputs": [
        {
          "internalType": "address",
          "name": "account",
          "type": "address"
        }
      ],
      "name": "balanceOf",
      "outputs": [
        {
          "internalType": "uint256",
          "name": "",
          "type": "uint256"
        }
      ],
      "stateMutability": "view",
      "type": "function"
    },
    {
      "inputs": [
        {
          "internalType": "uint256",
          "name": "value",
          "type": "uint256"
        }
      ],
      "name": "burn",
      "outputs": [],
      "stateMutability": "nonpayable",
      "type": "function"
    },
    {
      "inputs": [
        {
          "internalType": "address",
          "name": "account",
          "type": "address"
        },
        {
          "internalType": "uint256",
          "name": "value",
          "type": "uint256"
        }
      ],
      "name": "burnFrom",
      "outputs": [],
      "stateMutability": "nonpayable",
      "type": "function"
    },
    {
      "inputs": [
        {
          "internalType": "uint256",
          "name": "amount",
          "type": "uint256"
        }
      ],
      "name": "burnFromTreasury",
      "outputs": [],
      "stateMutability": "nonpayable",
      "type": "function"
    },
    {
      "inputs": [
        {
          "internalType": "address",
          "name": "user",
          "type": "address"
        }
      ],
      "name": "calculateReward",
      "outputs": [
        {
          "internalType": "uint256",
          "name": "",
          "type": "uint256"
        }
      ],
      "stateMutability": "view",
      "type": "function"
    },
    {
      "inputs": [],
      "name": "claimRewards",
      "outputs": [],
      "stateMutability": "nonpayable",
      "type": "function"
    },
    {
      "inputs": [],
      "name": "communityWallet",
      "outputs": [
        {
          "internalType": "address",
          "name": "",
          "type": "address"
        }
      ],
      "stateMutability": "view",
      "type": "function"
    },
    {
      "inputs": [
        {
          "internalType": "string",
          "name": "description",
          "type": "string"
        }
      ],
      "name": "createProposal",
      "outputs": [
        {
          "internalType": "uint256",
          "name": "",
          "type": "uint256"
        }
      ],
      "stateMutability": "nonpayable",
      "type": "function"
    },
    {
      "inputs": [],
      "name": "decimals",
      "outputs": [
        {
          "internalType": "uint8",
          "name": "",
          "type": "uint8"
        }
      ],
      "stateMutability": "view",
      "type": "function"
    },
    {
      "inputs": [
        {
          "internalType": "uint256",
          "name": "proposalId",
          "type": "uint256"
        }
      ],
      "name": "executeProposal",
      "outputs": [],
      "stateMutability": "nonpayable",
      "type": "function"
    },
    {
      "inputs": [
        {
          "internalType": "address",
          "name": "",
          "type": "address"
        }
      ],
      "name": "feeDiscounts",
      "outputs": [
        {
          "internalType": "uint256",
          "name": "",
          "type": "uint256"
        }
      ],
      "stateMutability": "view",
      "type": "function"
    },
    {
      "inputs": [],
      "name": "founderWallet",
      "outputs": [
        {
          "internalType": "address",
          "name": "",
          "type": "address"
        }
      ],
      "stateMutability": "view",
      "type": "function"
    },
    {
      "inputs": [
        {
          "internalType": "address",
          "name": "user",
          "type": "address"
        }
      ],
      "name": "getStakeInfo",
      "outputs": [
        {
          "internalType": "uint256",
          "name": "amount",
          "type": "uint256"
        },
        {
          "internalType": "uint256",
          "name": "timestamp",
          "type": "uint256"
        },
        {
          "internalType": "uint256",
          "name": "lockPeriod",
          "type": "uint256"
        },
        {
          "internalType": "uint256",
          "name": "pendingReward",
          "type": "uint256"
        },
        {
          "internalType": "bool",
          "name": "premium",
          "type": "bool"
        },
        {
          "internalType": "uint256",
          "name": "discount",
          "type": "uint256"
        }
      ],
      "stateMutability": "view",
      "type": "function"
    },
    {
      "inputs": [],
      "name": "getTokenStats",
      "outputs": [
        {
          "internalType": "uint256",
          "name": "circulatingSupply",
          "type": "uint256"
        },
        {
          "internalType": "uint256",
          "name": "burnedSupply",
          "type": "uint256"
        },
        {
          "internalType": "uint256",
          "name": "stakedSupply",
          "type": "uint256"
        },
        {
          "internalType": "uint256",
          "name": "cashbackDistributed",
          "type": "uint256"
        }
      ],
      "stateMutability": "view",
      "type": "function"
    },
    {
      "inputs": [
        {
          "internalType": "address",
          "name": "user",
          "type": "address"
        }
      ],
      "name": "getUserStats",
      "outputs": [
        {
          "internalType": "uint256",
          "name": "totalHoldings",
          "type": "uint256"
        },
        {
          "internalType": "bool",
          "name": "premium",
          "type": "bool"
        },
        {
          "internalType": "bool",
          "name": "launchpadWhitelisted",
          "type": "bool"
        },
        {
          "internalType": "uint256",
          "name": "referrals",
          "type": "uint256"
        },
        {
          "internalType": "uint256",
          "name": "referralEarned",
          "type": "uint256"
        },
        {
          "internalType": "uint256",
          "name": "cashbackEarned",
          "type": "uint256"
        }
      ],
      "stateMutability": "view",
      "type": "function"
    },
    {
      "inputs": [
        {
          "internalType": "address",
          "name": "",
          "type": "address"
        }
      ],
      "name": "isPremium",
      "outputs": [
        {
          "internalType": "bool",
          "name": "",
          "type": "bool"
        }
      ],
      "stateMutability": "view",
      "type": "function"
    },
    {
      "inputs": [
        {
          "internalType": "address",
          "name": "",
          "type": "address"
        }
      ],
      "name": "isWhitelistedForLaunchpad",
      "outputs": [
        {
          "internalType": "bool",
          "name": "",
          "type": "bool"
        }
      ],
      "stateMutability": "view",
      "type": "function"
    },
    {
      "inputs": [],
      "name": "liquidityWallet",
      "outputs": [
        {
          "internalType": "address",
          "name": "",
          "type": "address"
        }
      ],
      "stateMutability": "view",
      "type": "function"
    },
    {
      "inputs": [],
      "name": "name",
      "outputs": [
        {
          "internalType": "string",
          "name": "",
          "type": "string"
        }
      ],
      "stateMutability": "view",
      "type": "function"
    },
    {
      "inputs": [],
      "name": "owner",
      "outputs": [
        {
          "internalType": "address",
          "name": "",
          "type": "address"
        }
      ],
      "stateMutability": "view",
      "type": "function"
    },
    {
      "inputs": [],
      "name": "pause",
      "outputs": [],
      "stateMutability": "nonpayable",
      "type": "function"
    },
    {
      "inputs": [],
      "name": "paused",
      "outputs": [
        {
          "internalType": "bool",
          "name": "",
          "type": "bool"
        }
      ],
      "stateMutability": "view",
      "type": "function"
    },
    {
      "inputs": [
        {
          "internalType": "address",
          "name": "user",
          "type": "address"
        },
        {
          "internalType": "uint256",
          "name": "transactionAmount",
          "type": "uint256"
        }
      ],
      "name": "payCashback",
      "outputs": [],
      "stateMutability": "nonpayable",
      "type": "function"
    },
    {
      "inputs": [
        {
          "internalType": "address",
          "name": "user",
          "type": "address"
        },
        {
          "internalType": "uint256",
          "name": "feeAmount",
          "type": "uint256"
        }
      ],
      "name": "payReferralFeeShare",
      "outputs": [],
      "stateMutability": "nonpayable",
      "type": "function"
    },
    {
      "inputs": [
        {
          "internalType": "address",
          "name": "",
          "type": "address"
        }
      ],
      "name": "premiumSince",
      "outputs": [
        {
          "internalType": "uint256",
          "name": "",
          "type": "uint256"
        }
      ],
      "stateMutability": "view",
      "type": "function"
    },
    {
      "inputs": [
        {
          "internalType": "address",
          "name": "user",
          "type": "address"
        },
        {
          "internalType": "uint256",
          "name": "swapAmount",
          "type": "uint256"
        }
      ],
      "name": "processSwapFee",
      "outputs": [
        {
          "internalType": "uint256",
          "name": "",
          "type": "uint256"
        }
      ],
      "stateMutability": "nonpayable",
      "type": "function"
    },
    {
      "inputs": [],
      "name": "proposalCount",
      "outputs": [
        {
          "internalType": "uint256",
          "name": "",
          "type": "uint256"
        }
      ],
      "stateMutability": "view",
      "type": "function"
    },
    {
      "inputs": [
        {
          "internalType": "uint256",
          "name": "",
          "type": "uint256"
        }
      ],
      "name": "proposals",
      "outputs": [
        {
          "internalType": "string",
          "name": "description",
          "type": "string"
        },
        {
          "internalType": "uint256",
          "name": "votesFor",
          "type": "uint256"
        },
        {
          "internalType": "uint256",
          "name": "votesAgainst",
          "type": "uint256"
        },
        {
          "internalType": "uint256",
          "name": "startTime",
          "type": "uint256"
        },
        {
          "internalType": "uint256",
          "name": "endTime",
          "type": "uint256"
        },
        {
          "internalType": "bool",
          "name": "executed",
          "type": "bool"
        }
      ],
      "stateMutability": "view",
      "type": "function"
    },
    {
      "inputs": [],
      "name": "publicSaleWallet",
      "outputs": [
        {
          "internalType": "address",
          "name": "",
          "type": "address"
        }
      ],
      "stateMutability": "view",
      "type": "function"
    },
    {
      "inputs": [
        {
          "internalType": "address",
          "name": "",
          "type": "address"
        }
      ],
      "name": "referralCount",
      "outputs": [
        {
          "internalType": "uint256",
          "name": "",
          "type": "uint256"
        }
      ],
      "stateMutability": "view",
      "type": "function"
    },
    {
      "inputs": [
        {
          "internalType": "address",
          "name": "",
          "type": "address"
        }
      ],
      "name": "referralEarnings",
      "outputs": [
        {
          "internalType": "uint256",
          "name": "",
          "type": "uint256"
        }
      ],
      "stateMutability": "view",
      "type": "function"
    },
    {
      "inputs": [
        {
          "internalType": "address",
          "name": "",
          "type": "address"
        }
      ],
      "name": "referredBy",
      "outputs": [
        {
          "internalType": "address",
          "name": "",
          "type": "address"
        }
      ],
      "stateMutability": "view",
      "type": "function"
    },
    {
      "inputs": [
        {
          "internalType": "address",
          "name": "referrer",
          "type": "address"
        }
      ],
      "name": "registerReferral",
      "outputs": [],
      "stateMutability": "nonpayable",
      "type": "function"
    },
    {
      "inputs": [],
      "name": "renounceOwnership",
      "outputs": [],
      "stateMutability": "nonpayable",
      "type": "function"
    },
    {
      "inputs": [
        {
          "internalType": "uint256",
          "name": "newRate",
          "type": "uint256"
        }
      ],
      "name": "setSwapFeeRate",
      "outputs": [],
      "stateMutability": "nonpayable",
      "type": "function"
    },
    {
      "inputs": [
        {
          "internalType": "uint256",
          "name": "amount",
          "type": "uint256"
        },
        {
          "internalType": "uint256",
          "name": "lockPeriod",
          "type": "uint256"
        }
      ],
      "name": "stake",
      "outputs": [],
      "stateMutability": "nonpayable",
      "type": "function"
    },
    {
      "inputs": [
        {
          "internalType": "address",
          "name": "",
          "type": "address"
        }
      ],
      "name": "stakes",
      "outputs": [
        {
          "internalType": "uint256",
          "name": "amount",
          "type": "uint256"
        },
        {
          "internalType": "uint256",
          "name": "timestamp",
          "type": "uint256"
        },
        {
          "internalType": "uint256",
          "name": "lockPeriod",
          "type": "uint256"
        },
        {
          "internalType": "uint256",
          "name": "rewardDebt",
          "type": "uint256"
        }
      ],
      "stateMutability": "view",
      "type": "function"
    },
    {
      "inputs": [],
      "name": "strategicWallet",
      "outputs": [
        {
          "internalType": "address",
          "name": "",
          "type": "address"
        }
      ],
      "stateMutability": "view",
      "type": "function"
    },
    {
      "inputs": [],
      "name": "swapFeeRate",
      "outputs": [
        {
          "internalType": "uint256",
          "name": "",
          "type": "uint256"
        }
      ],
      "stateMutability": "view",
      "type": "function"
    },
    {
      "inputs": [],
      "name": "symbol",
      "outputs": [
        {
          "internalType": "string",
          "name": "",
          "type": "string"
        }
      ],
      "stateMutability": "view",
      "type": "function"
    },
    {
      "inputs": [],
      "name": "teamWallet",
      "outputs": [
        {
          "internalType": "address",
          "name": "",
          "type": "address"
        }
      ],
      "stateMutability": "view",
      "type": "function"
    },
    {
      "inputs": [],
      "name": "totalBurned",
      "outputs": [
        {
          "internalType": "uint256",
          "name": "",
          "type": "uint256"
        }
      ],
      "stateMutability": "view",
      "type": "function"
    },
    {
      "inputs": [],
      "name": "totalCashbackDistributed",
      "outputs": [
        {
          "internalType": "uint256",
          "name": "",
          "type": "uint256"
        }
      ],
      "stateMutability": "view",
      "type": "function"
    },
    {
      "inputs": [
        {
          "internalType": "address",
          "name": "",
          "type": "address"
        }
      ],
      "name": "totalCashbackEarned",
      "outputs": [
        {
          "internalType": "uint256",
          "name": "",
          "type": "uint256"
        }
      ],
      "stateMutability": "view",
      "type": "function"
    },
    {
      "inputs": [],
      "name": "totalStaked",
      "outputs": [
        {
          "internalType": "uint256",
          "name": "",
          "type": "uint256"
        }
      ],
      "stateMutability": "view",
      "type": "function"
    },
    {
      "inputs": [],
      "name": "totalSupply",
      "outputs": [
        {
          "internalType": "uint256",
          "name": "",
          "type": "uint256"
        }
      ],
      "stateMutability": "view",
      "type": "function"
    },
    {
      "inputs": [
        {
          "internalType": "address",
          "name": "to",
          "type": "address"
        },
        {
          "internalType": "uint256",
          "name": "value",
          "type": "uint256"
        }
      ],
      "name": "transfer",
      "outputs": [
        {
          "internalType": "bool",
          "name": "",
          "type": "bool"
        }
      ],
      "stateMutability": "nonpayable",
      "type": "function"
    },
    {
      "inputs": [
        {
          "internalType": "address",
          "name": "from",
          "type": "address"
        },
        {
          "internalType": "address",
          "name": "to",
          "type": "address"
        },
        {
          "internalType": "uint256",
          "name": "value",
          "type": "uint256"
        }
      ],
      "name": "transferFrom",
      "outputs": [
        {
          "internalType": "bool",
          "name": "",
          "type": "bool"
        }
      ],
      "stateMutability": "nonpayable",
      "type": "function"
    },
    {
      "inputs": [
        {
          "internalType": "address",
          "name": "newOwner",
          "type": "address"
        }
      ],
      "name": "transferOwnership",
      "outputs": [],
      "stateMutability": "nonpayable",
      "type": "function"
    },
    {
      "inputs": [],
      "name": "treasuryWallet",
      "outputs": [
        {
          "internalType": "address",
          "name": "",
          "type": "address"
        }
      ],
      "stateMutability": "view",
      "type": "function"
    },
    {
      "inputs": [],
      "name": "unpause",
      "outputs": [],
      "stateMutability": "nonpayable",
      "type": "function"
    },
    {
      "inputs": [],
      "name": "unstake",
      "outputs": [],
      "stateMutability": "nonpayable",
      "type": "function"
    },
    {
      "inputs": [
        {
          "internalType": "uint256",
          "name": "proposalId",
          "type": "uint256"
        },
        {
          "internalType": "bool",
          "name": "support",
          "type": "bool"
        }
      ],
      "name": "vote",
      "outputs": [],
      "stateMutability": "nonpayable",
      "type": "function"
    }
  ],
  "bytecode": "0x60806040526032601b553480156200001657600080fd5b50604051620034a4380380620034a483398101604081905262000039916200080b565b336040518060400160405280600b81526020016a213630bd32902a37b5b2b760a91b81525060405180604001604052806005815260200164424c415a4560d81b81525081600390816200008d919062000944565b5060046200009c828262000944565b5050506001600160a01b038116620000cf57604051631e4fbdf760e01b8152600060048201526024015b60405180910390fd5b620000da8162000464565b5060016006556001600160a01b038716620001385760405162461bcd60e51b815260206004820152601a60248201527f496e76616c6964207075626c69632073616c652077616c6c65740000000000006044820152606401620000c6565b6001600160a01b038616620001905760405162461bcd60e51b815260206004820152601660248201527f496e76616c696420666f756e6465722077616c6c6574000000000000000000006044820152606401620000c6565b6001600160a01b038516620001e85760405162461bcd60e51b815260206004820152601860248201527f496e76616c696420636f6d6d756e6974792077616c6c657400000000000000006044820152606401620000c6565b6001600160a01b038416620002405760405162461bcd60e51b815260206004820152601760248201527f496e76616c69642074726561737572792077616c6c65740000000000000000006044820152606401620000c6565b6001600160a01b038316620002985760405162461bcd60e51b815260206004820152601360248201527f496e76616c6964207465616d2077616c6c6574000000000000000000000000006044820152606401620000c6565b6001600160a01b038216620002f05760405162461bcd60e51b815260206004820152601860248201527f496e76616c6964207374726174656769632077616c6c657400000000000000006044820152606401620000c6565b6001600160a01b038116620003485760405162461bcd60e51b815260206004820152601860248201527f496e76616c6964206c69717569646974792077616c6c657400000000000000006044820152606401620000c6565b600780546001600160a01b03199081166001600160a01b038a811691909117909255600880548216898416179055600980548216888416179055600a80548216878416179055600b80548216868416179055600c80548216858416179055600d8054909116918316919091179055620003cd876a7c13bc4b2c133c56000000620004be565b620003e4816a52b7d2dcc80cd2e4000000620004be565b620003fb866a52b7d2dcc80cd2e4000000620004be565b62000412856aa56fa5b99019a5c8000000620004be565b62000429846a7c13bc4b2c133c56000000620004be565b62000440836a52b7d2dcc80cd2e4000000620004be565b62000457826a295be96e64066972000000620004be565b5050505050505062000a95565b600580546001600160a01b03838116610100818102610100600160a81b031985161790945560405193909204169182907f8be0079c531659141344cd1fd0a4f28419497f9722a3daafe3b4186f6b6457e090600090a35050565b6001600160a01b038216620004ea5760405163ec442f0560e01b815260006004820152602401620000c6565b620004f860008383620004fc565b5050565b60006001600160a01b03841615806200051c57506001600160a01b038316155b806200053057506001600160a01b03841630145b806200054457506001600160a01b03831630145b806200055d5750600d546001600160a01b038581169116145b80620005765750600d546001600160a01b038481169116145b90508015801562000585575060015b15620006655760006127106200059d600a8562000a26565b620005a9919062000a46565b905080156200066357620005c08560008362000678565b8060196000828254620005d4919062000a69565b92505081905550846001600160a01b03167ffad31924d655455395c87544c8aa1ffdb5a7505a22a3c2e03f28003b6556a75f826040516200063c918152604060208201819052600d908201526c2a3930b739b332b910313ab93760991b606082015260800190565b60405180910390a26200065c858562000656848762000a7f565b62000678565b5050505050565b505b6200067284848462000678565b50505050565b6200068262000694565b6200068f838383620006bb565b505050565b60055460ff1615620006b95760405163d93c066560e01b815260040160405180910390fd5b565b6001600160a01b038316620006ea578060026000828254620006de919062000a69565b909155506200075e9050565b6001600160a01b038316600090815260208190526040902054818110156200073f5760405163391434e360e21b81526001600160a01b03851660048201526024810182905260448101839052606401620000c6565b6001600160a01b03841660009081526020819052604090209082900390555b6001600160a01b0382166200077c576002805482900390556200079b565b6001600160a01b03821660009081526020819052604090208054820190555b816001600160a01b0316836001600160a01b03167fddf252ad1be2c89b69c2b068fc378daa952ba7f163c4a11628f55a4df523b3ef83604051620007e191815260200190565b60405180910390a3505050565b80516001600160a01b03811681146200080657600080fd5b919050565b600080600080600080600060e0888a0312156200082757600080fd5b6200083288620007ee565b96506200084260208901620007ee565b95506200085260408901620007ee565b94506200086260608901620007ee565b93506200087260808901620007ee565b92506200088260a08901620007ee565b91506200089260c08901620007ee565b905092959891949750929550565b634e487b7160e01b600052604160045260246000fd5b600181811c90821680620008cb57607f821691505b602082108103620008ec57634e487b7160e01b600052602260045260246000fd5b50919050565b601f8211156200068f57600081815260208120601f850160051c810160208610156200091b5750805b601f850160051c820191505b818110156200093c5782815560010162000927565b505050505050565b81516001600160401b03811115620009605762000960620008a0565b6200097881620009718454620008b6565b84620008f2565b602080601f831160018114620009b05760008415620009975750858301515b600019600386901b1c1916600185901b1785556200093c565b600085815260208120601f198616915b82811015620009e157888601518255948401946001909101908401620009c0565b508582101562000a005787850151600019600388901b60f8161c191681555b5050505050600190811b01905550565b634e487b7160e01b600052601160045260246000fd5b808202811582820484141762000a405762000a4062000a10565b92915050565b60008262000a6457634e487b7160e01b600052601260045260246000fd5b500490565b8082018082111562000a405762000a4062000a10565b8181038181111562000a405762000a4062000a10565b6129ff8062000aa56000396000f3fe608060405234801561001057600080fd5b50600436106103f15760003560e01c806373b6f89011610215578063b29f6ef211610125578063d4698016116100b8578063db74559b11610087578063db74559b14610902578063dd62ed3e14610922578063f2fde38b1461095b578063f846a8851461096e578063fa1c3eda1461097657600080fd5b8063d4698016146108ca578063d82e3962146108dd578063d89135cd146108f0578063da35c664146108f957600080fd5b8063c35b7b64116100f4578063c35b7b641461087e578063c757483914610891578063c9d27afe146108a4578063d1154ff0146108b757600080fd5b8063b29f6ef2146107f0578063c07b528a146107f9578063c2b0d16f14610819578063c34531531461083c57600080fd5b80638922e021116101a8578063a1c82b1811610177578063a1c82b181461078f578063a23d3c3514610797578063a9059cbb146107aa578063a90f8e9a146107bd578063b1610d7e146107e657600080fd5b80638922e0211461074d5780638da5cb5b1461076057806395d89b41146107765780639af01c2d1461077e57600080fd5b8063817b1cd2116101e4578063817b1cd21461072457806382d975451461072d5780638456cb591461073557806384a3a0f31461073d57600080fd5b806373b6f890146106d2578063742fe0d4146106db57806379cc6790146106fe5780637b0472f01461071157600080fd5b8063372500ab116103105780634e43603a116102a35780635f9d9909116102725780635f9d99091461068857806363546f0c1461069b5780636cb13595146106a457806370a08231146106b7578063715018a6146106ca57600080fd5b80634e43603a14610614578063599270441461065a5780635c975abb1461066d5780635cb90abe1461067857600080fd5b806342966c68116102df57806342966c68146105a35780634596ce20146105b65780634626402b146105d657806349c2a1a61461060157600080fd5b8063372500ab14610581578063373c6193146105895780633a04801d146105925780633f4ba83a1461059b57600080fd5b80630e614b8c1161038857806323b872dd1161035757806323b872dd146105445780632def662014610557578063313ce5671461055f578063320f01a51461056e57600080fd5b80630e614b8c146104e357806316934fc4146104f457806318160ddd14610529578063209ab7111461053157600080fd5b806308014d8b116103c457806308014d8b1461047a578063095ea7b314610483578063097cd9bf146104a65780630d61b519146104ce57600080fd5b8063013cf08b146103f6578063040a4f42146104245780630653badc1461045257806306fdde0314610465575b600080fd5b61040961040436600461254e565b610996565b60405161041b969594939291906125ad565b60405180910390f35b610444610432366004612607565b601c6020526000908152604090205481565b60405190815260200161041b565b610444610460366004612629565b610a56565b61046d610bee565b60405161041b9190612653565b6104446109c481565b610496610491366004612629565b610c80565b604051901515815260200161041b565b6104ae610c98565b60408051948552602085019390935291830152606082015260800161041b565b6104e16104dc36600461254e565b610cbe565b005b61044469010f0cf064dd5920000081565b6104ae610502366004612607565b600e6020526000908152604090208054600182015460028301546003909301549192909184565b600254610444565b6104e161053f366004612607565b610df0565b610496610552366004612666565b610ff3565b6104e1611017565b6040516012815260200161041b565b6104e161057c366004612629565b6111b8565b6104e161124a565b6104446105dc81565b610444601b5481565b6104e1611265565b6104e16105b136600461254e565b611275565b6104446105c4366004612607565b60116020526000908152604090205481565b600a546105e9906001600160a01b031681565b6040516001600160a01b03909116815260200161041b565b61044461060f3660046126b8565b611282565b610627610622366004612607565b61136c565b604080519687529415156020870152921515938501939093526060840152608083019190915260a082015260c00161041b565b600b546105e9906001600160a01b031681565b60055460ff16610496565b610444683635c9adc5dea0000081565b6104e161069636600461254e565b6113fd565b61044461032081565b6007546105e9906001600160a01b031681565b6104446106c5366004612607565b6114f8565b6104e1611513565b6104446103e881565b6104966106e9366004612607565b60106020526000908152604090205460ff1681565b6104e161070c366004612629565b611525565b6104e161071f366004612769565b61153e565b610444600f5481565b61044460c881565b6104e161172e565b6104446802b5e3af16b188000081565b600c546105e9906001600160a01b031681565b60055461010090046001600160a01b03166105e9565b61046d61173e565b61044469021e19e0c9bab240000081565b610444603281565b6008546105e9906001600160a01b031681565b6104966107b8366004612629565b61174d565b6105e96107cb366004612607565b6014602052600090815260409020546001600160a01b031681565b6104446203f48081565b61044460185481565b610444610807366004612607565b60166020526000908152604090205481565b610496610827366004612607565b601a6020526000908152604090205460ff1681565b61084f61084a366004612607565b61175b565b6040805196875260208701959095529385019290925260608401521515608083015260a082015260c00161041b565b6104e161088c366004612629565b6117f8565b6009546105e9906001600160a01b031681565b6104e16108b236600461278b565b6118be565b6104e16108c536600461254e565b611ad0565b600d546105e9906001600160a01b031681565b6104446108eb366004612607565b611b1d565b61044460195481565b61044460135481565b610444610910366004612607565b60156020526000908152604090205481565b6104446109303660046127c0565b6001600160a01b03918216600090815260016020908152604080832093909416825291909152205490565b6104e1610969366004612607565b611bcf565b610444600a81565b610444610984366004612607565b60176020526000908152604090205481565b6012602052600090815260409020805481906109b1906127f3565b80601f01602080910402602001604051908101604052809291908181526020018280546109dd906127f3565b8015610a2a5780601f106109ff57610100808354040283529160200191610a2a565b820191906000526020600020905b815481529060010190602001808311610a0d57829003601f168201915b505050600184015460028501546003860154600487015460059097015495969295919450925060ff1686565b6000610a60611c0a565b6000612710601b5484610a739190612843565b610a7d919061285a565b6001600160a01b0385166000908152601c60205260408120549192509061271090610aa89084612843565b610ab2919061285a565b90506000610ac0828461287c565b90508015610be357600a54610ae09087906001600160a01b031683611c3d565b6000612710610af0603284612843565b610afa919061285a565b90508015610b9e57600a54610b18906001600160a01b031682611c9c565b8060196000828254610b2a919061288f565b9091555050600a546040516001600160a01b03909116907ffad31924d655455395c87544c8aa1ffdb5a7505a22a3c2e03f28003b6556a75f90610b9590848152604060208201819052600d908201526c29bbb0b8103332b290313ab93760991b606082015260800190565b60405180910390a25b866001600160a01b03167fa9fe54ef5a1158a86c9de1049b90da1dfb1cca22e1cd10beb8fcaee1e8386af183604051610bd991815260200190565b60405180910390a2505b925050505b92915050565b606060038054610bfd906127f3565b80601f0160208091040260200160405190810160405280929190818152602001828054610c29906127f3565b8015610c765780601f10610c4b57610100808354040283529160200191610c76565b820191906000526020600020905b815481529060010190602001808311610c5957829003601f168201915b5050505050905090565b600033610c8e818585611cd2565b5060019392505050565b600080600080610ca760025490565b601954600f54601854935093509350935090919293565b610cc6611c0a565b600081815260126020526040902060048101544211610d1f5760405162461bcd60e51b815260206004820152601060248201526f159bdd1a5b99c81b9bdd08195b99195960821b60448201526064015b60405180910390fd5b600581015460ff1615610d675760405162461bcd60e51b815260206004820152601060248201526f105b1c9958591e48195e1958dd5d195960821b6044820152606401610d16565b8060020154816001015411610db25760405162461bcd60e51b8152602060048201526011602482015270141c9bdc1bdcd85b081c995a9958dd1959607a1b6044820152606401610d16565b60058101805460ff1916600117905560405182907f712ae1383f79ac853f8d882153778e0260ef8f03b504e2866e0593e04d2b291f90600090a25050565b336000908152601460205260409020546001600160a01b031615610e495760405162461bcd60e51b815260206004820152601060248201526f105b1c9958591e481c9959995c9c995960821b6044820152606401610d16565b336001600160a01b03821603610e995760405162461bcd60e51b815260206004820152601560248201527421b0b73737ba103932b332b9103cb7bab939b2b63360591b6044820152606401610d16565b6001600160a01b038116610ee25760405162461bcd60e51b815260206004820152601060248201526f24b73b30b634b2103932b332b93932b960811b6044820152606401610d16565b33600090815260146020908152604080832080546001600160a01b0319166001600160a01b038616908117909155835260159091528120805491610f25836128a2565b90915550506009546802b5e3af16b188000090610f4c906001600160a01b03168383611c3d565b6001600160a01b03821660009081526016602052604081208054839290610f7490849061288f565b90915550506040516001600160a01b0383169033907f5f1ca2fcc108b751843a763e60d2201f593516109d7dbb1b700468f2d4190bb790600090a360405181815233906001600160a01b038416907f94ccb86446750660ec532b1beb1fb55f5ba2fffca042c4c53f4c080e72595b389060200160405180910390a35050565b600033611001858285611cdf565b61100c858585611c3d565b506001949350505050565b61101f611d5e565b336000908152600e60209081526040918290208251608081018452815480825260018301549382019390935260028201549381019390935260030154606083015261109d5760405162461bcd60e51b815260206004820152600e60248201526d139bc81cdd185ad948199bdd5b9960921b6044820152606401610d16565b806040015181602001516110b1919061288f565b4210156110ef5760405162461bcd60e51b815260206004820152600c60248201526b14dd1a5b1b081b1bd8dad95960a21b6044820152606401610d16565b60006110fa33611b1d565b9050600081836000015161110e919061288f565b90508260000151600f6000828254611126919061287c565b9091555050336000818152600e6020526040812081815560018101829055600281018290556003015561115890611d88565b61116133611ee4565b61116c303383611c3d565b8251604080519182526020820184905233917f7fc4727e062e336010f2c282598ef5f14facb3de68cf8195c2f23e1454b2b74e910160405180910390a25050506111b66001600655565b565b6111c0611c0a565b6001600160a01b038083166000908152601460205260409020541680156112455760006127106111f26103e885612843565b6111fc919061285a565b600a54909150611216906001600160a01b03168383611c3d565b6001600160a01b0382166000908152601660205260408120805483929061123e90849061288f565b9091555050505b505050565b611252611d5e565b61125b33611f9e565b6111b66001600655565b61126d611c0a565b6111b661208e565b61127f3382611c9c565b50565b6000683635c9adc5dea00000611297336114f8565b10156112de5760405162461bcd60e51b81526020600482015260166024820152754e65656420746f6b656e7320746f2070726f706f736560501b6044820152606401610d16565b60138054600091826112ef836128a2565b9091555060008181526012602052604090209091508061130f8582612909565b504260038201819055611326906203f4809061288f565b600482015560405182907f9c770c289ab5bf7e57cb1d23c8ceae993aea46eb64847072fd3d78ca60d3e4329061135d908790612653565b60405180910390a25092915050565b6001600160a01b0381166000908152600e602052604081205481908190819081908190611398886114f8565b6113a2919061288f565b6001600160a01b0397909716600090815260106020908152604080832054601a83528184205460158452828520546016855283862054601790955292909420549a9b60ff9182169b9190941699509097509095509350915050565b611405611c0a565b6000811161144a5760405162461bcd60e51b81526020600482015260126024820152710416d6f756e74206d757374206265203e20360741b6044820152606401610d16565b600a54611460906001600160a01b031682611c9c565b8060196000828254611472919061288f565b9091555050600a546040516001600160a01b03909116907ffad31924d655455395c87544c8aa1ffdb5a7505a22a3c2e03f28003b6556a75f906114ed908481526040602082018190526017908201527f5472656173757279206275796261636b2026206275726e000000000000000000606082015260800190565b60405180910390a250565b6001600160a01b031660009081526020819052604090205490565b61151b611c0a565b6111b660006120e0565b611530823383611cdf565b61153a8282611c9c565b5050565b611546611d5e565b61154e61213a565b6000821161158f5760405162461bcd60e51b815260206004820152600e60248201526d043616e6e6f74207374616b6520360941b6044820152606401610d16565b80158061159c57508060b4145b806115a857508061016d145b6115ea5760405162461bcd60e51b8152602060048201526013602482015272125b9d985b1a59081b1bd8dac81c195c9a5bd9606a1b6044820152606401610d16565b816115f4336114f8565b10156116395760405162461bcd60e51b8152602060048201526014602482015273496e73756666696369656e742062616c616e636560601b6044820152606401610d16565b336000908152600e6020526040902054156116575761165733611f9e565b611662333084611c3d565b336000908152600e60205260408120805484929061168190849061288f565b9091555050336000908152600e60205260409020426001909101556116a98162015180612843565b336000908152600e6020526040812060020191909155600f80548492906116d190849061288f565b909155506116e0905033611d88565b6116e933611ee4565b604080518381526020810183905233917f1449c6dd7851abc30abf37f57715f492010519147cc2652fbc38202c18a6ee90910160405180910390a261153a6001600655565b611736611c0a565b6111b661215e565b606060048054610bfd906127f3565b600033610c8e818585611c3d565b6001600160a01b0381166000908152600e60209081526040808320815160808101835281548082526001830154948201859052600283015493820184905260039092015460608201528493849384938493849390926117b98b611b1d565b6001600160a01b039b909b16600090815260106020908152604080832054601c90925290912054939c929b919a5090985060ff16965090945092505050565b611800611c0a565b600061271061181060c884612843565b61181a919061285a565b600954909150611834906001600160a01b03168483611c3d565b6001600160a01b0383166000908152601760205260408120805483929061185c90849061288f565b925050819055508060186000828254611875919061288f565b90915550506040518181526001600160a01b038416907f2e2e974120c7ee5c5bebbacf723734f32eea4ff459008ee5d6df087c5ffec6b4906020015b60405180910390a2505050565b600082815260126020526040902060038101544210156119155760405162461bcd60e51b8152602060048201526012602482015271159bdd1a5b99c81b9bdd081cdd185c9d195960721b6044820152606401610d16565b80600401544211156119585760405162461bcd60e51b815260206004820152600c60248201526b159bdd1a5b99c8195b99195960a21b6044820152606401610d16565b33600090815260068201602052604090205460ff16156119aa5760405162461bcd60e51b815260206004820152600d60248201526c105b1c9958591e481d9bdd1959609a1b6044820152606401610d16565b683635c9adc5dea000006119bd336114f8565b1015611a015760405162461bcd60e51b81526020600482015260136024820152724e65656420746f6b656e7320746f20766f746560681b6044820152606401610d16565b336000818152600e60205260408120549091611a1c906114f8565b611a26919061288f565b90508215611a4d5780826001016000828254611a42919061288f565b90915550611a679050565b80826002016000828254611a61919061288f565b90915550505b33600081815260068401602052604090819020805460ff191660011790555185907f7c2de587c00d75474a0c6c6fa96fd3b45dc974cd4e8a75f712bb84c950dce1b590611ac290879086909115158252602082015260400190565b60405180910390a350505050565b611ad8611c0a565b6064811115611b185760405162461bcd60e51b815260206004820152600c60248201526b08ccaca40e8dede40d0d2ced60a31b6044820152606401610d16565b601b55565b6001600160a01b0381166000908152600e6020908152604080832081516080810183528154808252600183015494820194909452600282015492810192909252600301546060820152908203611b765750600092915050565b6000816020015142611b88919061287c565b90506000611b99836040015161219b565b905064496cebb80082828560000151611bb29190612843565b611bbc9190612843565b611bc6919061285a565b95945050505050565b611bd7611c0a565b6001600160a01b038116611c0157604051631e4fbdf760e01b815260006004820152602401610d16565b61127f816120e0565b6005546001600160a01b036101009091041633146111b65760405163118cdaa760e01b8152336004820152602401610d16565b6001600160a01b038316611c6757604051634b637e8f60e11b815260006004820152602401610d16565b6001600160a01b038216611c915760405163ec442f0560e01b815260006004820152602401610d16565b6112458383836121cd565b6001600160a01b038216611cc657604051634b637e8f60e11b815260006004820152602401610d16565b61153a826000836121cd565b611245838383600161232c565b6001600160a01b03838116600090815260016020908152604080832093861683529290522054600019811015611d585781811015611d4957604051637dc7a0d960e11b81526001600160a01b03841660048201526024810182905260448101839052606401610d16565b611d588484848403600061232c565b50505050565b600260065403611d8157604051633ee5aeb560e01b815260040160405180910390fd5b6002600655565b6001600160a01b0381166000908152600e6020526040812054611daa836114f8565b611db4919061288f565b905069021e19e0c9bab240000081108015908190611deb57506001600160a01b03831660009081526010602052604090205460ff16155b15611e57576001600160a01b0383166000818152601060209081526040808320805460ff1916600117905560118252808320429055601c9091528082206127109055517faa8ccf229bb4a5182c5122d8450416e8ae3b78f457eebea8b2028be23f6d5ab19190a2505050565b80158015611e7d57506001600160a01b03831660009081526010602052604090205460ff165b15611245576001600160a01b0383166000818152601060209081526040808320805460ff1916905560118252808320839055601c909152808220829055517fc482be7b538fcb24453784f77a37339089565519b675c87f5de0d6b24e281fa89190a2505050565b6001600160a01b0381166000908152600e6020526040812054611f06836114f8565b611f10919061288f565b6001600160a01b0383166000908152601a602052604090205490915069010f0cf064dd592000008210159060ff1615158114611245576001600160a01b0383166000818152601a6020908152604091829020805460ff191685151590811790915591519182527f2ac89bd75f75496bfcf152024c8bc900a9d51ea4326df527c1a53120ddd8b8a991016118b1565b6000611fa982611b1d565b905060008111611fe85760405162461bcd60e51b815260206004820152600a6024820152694e6f207265776172647360b01b6044820152606401610d16565b6001600160a01b0382166000908152600e60205260408120600301805483929061201390849061288f565b90915550506001600160a01b038083166000908152600e602052604090204260019091015560095461204791168383611c3d565b816001600160a01b03167f106f923f993c2149d49b4255ff723acafa1f2d94393f561d3eda32ae348f72418260405161208291815260200190565b60405180910390a25050565b6120966123f3565b6005805460ff191690557f5db9ee0a495bf2e6ff9c91a7834c1ba4fdd244a5e8aa4e537bd38aeae4b073aa335b6040516001600160a01b03909116815260200160405180910390a1565b600580546001600160a01b03838116610100818102610100600160a81b031985161790945560405193909204169182907f8be0079c531659141344cd1fd0a4f28419497f9722a3daafe3b4186f6b6457e090600090a35050565b60055460ff16156111b65760405163d93c066560e01b815260040160405180910390fd5b61216661213a565b6005805460ff191660011790557f62e78cea01bee320cd4e420270b5ea74000d11b0c9f74754ebdbfc544b05a2586120c33390565b60006301e1338082106121b157506109c4919050565b62ed4e0082106121c457506105dc919050565b50610320919050565b60006001600160a01b03841615806121ec57506001600160a01b038316155b806121ff57506001600160a01b03841630145b8061221257506001600160a01b03831630145b8061222a5750600d546001600160a01b038581169116145b806122425750600d546001600160a01b038481169116145b905080158015612250575060015b15612321576000612710612265600a85612843565b61226f919061285a565b9050801561231f5761228385600083612416565b8060196000828254612295919061288f565b92505081905550846001600160a01b03167ffad31924d655455395c87544c8aa1ffdb5a7505a22a3c2e03f28003b6556a75f826040516122fc918152604060208201819052600d908201526c2a3930b739b332b910313ab93760991b606082015260800190565b60405180910390a26123188585612313848761287c565b612416565b5050505050565b505b611d58848484612416565b6001600160a01b0384166123565760405163e602df0560e01b815260006004820152602401610d16565b6001600160a01b03831661238057604051634a1406b160e11b815260006004820152602401610d16565b6001600160a01b0380851660009081526001602090815260408083209387168352929052208290558015611d5857826001600160a01b0316846001600160a01b03167f8c5be1e5ebec7d5bd14f71427d1e84f3dd0314c0f7b2291e5b200ac8c7c3b92584604051611ac291815260200190565b60055460ff166111b657604051638dfc202b60e01b815260040160405180910390fd5b61241e61213a565b6112458383836001600160a01b03831661244f578060026000828254612444919061288f565b909155506124c19050565b6001600160a01b038316600090815260208190526040902054818110156124a25760405163391434e360e21b81526001600160a01b03851660048201526024810182905260448101839052606401610d16565b6001600160a01b03841660009081526020819052604090209082900390555b6001600160a01b0382166124dd576002805482900390556124fc565b6001600160a01b03821660009081526020819052604090208054820190555b816001600160a01b0316836001600160a01b03167fddf252ad1be2c89b69c2b068fc378daa952ba7f163c4a11628f55a4df523b3ef8360405161254191815260200190565b60405180910390a3505050565b60006020828403121561256057600080fd5b5035919050565b6000815180845260005b8181101561258d57602081850181015186830182015201612571565b506000602082860101526020601f19601f83011685010191505092915050565b60c0815260006125c060c0830189612567565b602083019790975250604081019490945260608401929092526080830152151560a090910152919050565b80356001600160a01b038116811461260257600080fd5b919050565b60006020828403121561261957600080fd5b612622826125eb565b9392505050565b6000806040838503121561263c57600080fd5b612645836125eb565b946020939093013593505050565b6020815260006126226020830184612567565b60008060006060848603121561267b57600080fd5b612684846125eb565b9250612692602085016125eb565b9150604084013590509250925092565b634e487b7160e01b600052604160045260246000fd5b6000602082840312156126ca57600080fd5b813567ffffffffffffffff808211156126e257600080fd5b818401915084601f8301126126f657600080fd5b813581811115612708576127086126a2565b604051601f8201601f19908116603f01168101908382118183101715612730576127306126a2565b8160405282815287602084870101111561274957600080fd5b826020860160208301376000928101602001929092525095945050505050565b6000806040838503121561277c57600080fd5b50508035926020909101359150565b6000806040838503121561279e57600080fd5b82359150602083013580151581146127b557600080fd5b809150509250929050565b600080604083850312156127d357600080fd5b6127dc836125eb565b91506127ea602084016125eb565b90509250929050565b600181811c9082168061280757607f821691505b60208210810361282757634e487b7160e01b600052602260045260246000fd5b50919050565b634e487b7160e01b600052601160045260246000fd5b8082028115828204841417610be857610be861282d565b60008261287757634e487b7160e01b600052601260045260246000fd5b500490565b81810381811115610be857610be861282d565b80820180821115610be857610be861282d565b6000600182016128b4576128b461282d565b5060010190565b601f82111561124557600081815260208120601f850160051c810160208610156128e25750805b601f850160051c820191505b81811015612901578281556001016128ee565b505050505050565b815167ffffffffffffffff811115612923576129236126a2565b6129378161293184546127f3565b846128bb565b602080601f83116001811461296c57600084156129545750858301515b600019600386901b1c1916600185901b178555612901565b600085815260208120601f198616915b8281101561299b5788860151825594840194600190910190840161297c565b50858210156129b95787850151600019600388901b60f8161c191681555b5050505050600190811b0190555056fea26469706673582212209651d72ee3c2774ca5e96253868614de25793b42995490870c0788a8b3af34fa64736f6c63430008140033",
  "linkReferences": {},
  "deployedLinkReferences": {}
}